{
  "contractName": "AuctionedToken",
  "abi": [
    {
      "inputs": [
        {
          "internalType": "string",
          "name": "name_",
          "type": "string"
        },
        {
          "internalType": "string",
          "name": "symbol_",
          "type": "string"
        },
        {
          "internalType": "uint256",
          "name": "supply_",
          "type": "uint256"
        },
        {
          "internalType": "uint256",
          "name": "batchSize_",
          "type": "uint256"
        },
        {
          "internalType": "uint256",
          "name": "cycleInterval_",
          "type": "uint256"
        },
        {
          "internalType": "uint256",
          "name": "startBlockNumber_",
          "type": "uint256"
        }
      ],
      "stateMutability": "nonpayable",
      "type": "constructor"
    },
    {
      "anonymous": false,
      "inputs": [
        {
          "indexed": true,
          "internalType": "address",
          "name": "owner",
          "type": "address"
        },
        {
          "indexed": true,
          "internalType": "address",
          "name": "spender",
          "type": "address"
        },
        {
          "indexed": false,
          "internalType": "uint256",
          "name": "value",
          "type": "uint256"
        }
      ],
      "name": "Approval",
      "type": "event"
    },
    {
      "anonymous": false,
      "inputs": [
        {
          "indexed": true,
          "internalType": "address",
          "name": "previousOwner",
          "type": "address"
        },
        {
          "indexed": true,
          "internalType": "address",
          "name": "newOwner",
          "type": "address"
        }
      ],
      "name": "OwnershipTransferred",
      "type": "event"
    },
    {
      "anonymous": false,
      "inputs": [
        {
          "indexed": true,
          "internalType": "address",
          "name": "user",
          "type": "address"
        },
        {
          "indexed": true,
          "internalType": "address",
          "name": "xenContract",
          "type": "address"
        },
        {
          "indexed": true,
          "internalType": "address",
          "name": "tokenContract",
          "type": "address"
        },
        {
          "indexed": false,
          "internalType": "uint256",
          "name": "xenAmount",
          "type": "uint256"
        },
        {
          "indexed": false,
          "internalType": "uint256",
          "name": "tokenAmount",
          "type": "uint256"
        }
      ],
      "name": "Redeemed",
      "type": "event"
    },
    {
      "anonymous": false,
      "inputs": [
        {
          "indexed": true,
          "internalType": "address",
          "name": "from",
          "type": "address"
        },
        {
          "indexed": true,
          "internalType": "address",
          "name": "to",
          "type": "address"
        },
        {
          "indexed": false,
          "internalType": "uint256",
          "name": "value",
          "type": "uint256"
        }
      ],
      "name": "Transfer",
      "type": "event"
    },
    {
      "inputs": [
        {
          "internalType": "address",
          "name": "owner",
          "type": "address"
        },
        {
          "internalType": "address",
          "name": "spender",
          "type": "address"
        }
      ],
      "name": "allowance",
      "outputs": [
        {
          "internalType": "uint256",
          "name": "",
          "type": "uint256"
        }
      ],
      "stateMutability": "view",
      "type": "function"
    },
    {
      "inputs": [
        {
          "internalType": "address",
          "name": "spender",
          "type": "address"
        },
        {
          "internalType": "uint256",
          "name": "amount",
          "type": "uint256"
        }
      ],
      "name": "approve",
      "outputs": [
        {
          "internalType": "bool",
          "name": "",
          "type": "bool"
        }
      ],
      "stateMutability": "nonpayable",
      "type": "function"
    },
    {
      "inputs": [
        {
          "internalType": "address",
          "name": "account",
          "type": "address"
        }
      ],
      "name": "balanceOf",
      "outputs": [
        {
          "internalType": "uint256",
          "name": "",
          "type": "uint256"
        }
      ],
      "stateMutability": "view",
      "type": "function"
    },
    {
      "inputs": [],
      "name": "batchSize",
      "outputs": [
        {
          "internalType": "uint256",
          "name": "",
          "type": "uint256"
        }
      ],
      "stateMutability": "view",
      "type": "function"
    },
    {
      "inputs": [
        {
          "internalType": "uint256",
          "name": "",
          "type": "uint256"
        },
        {
          "internalType": "address",
          "name": "",
          "type": "address"
        }
      ],
      "name": "bids",
      "outputs": [
        {
          "internalType": "uint256",
          "name": "",
          "type": "uint256"
        }
      ],
      "stateMutability": "view",
      "type": "function"
    },
    {
      "inputs": [],
      "name": "cap",
      "outputs": [
        {
          "internalType": "uint256",
          "name": "",
          "type": "uint256"
        }
      ],
      "stateMutability": "view",
      "type": "function"
    },
    {
      "inputs": [],
      "name": "currentCycle",
      "outputs": [
        {
          "internalType": "uint256",
          "name": "",
          "type": "uint256"
        }
      ],
      "stateMutability": "view",
      "type": "function"
    },
    {
      "inputs": [],
      "name": "cycleInterval",
      "outputs": [
        {
          "internalType": "uint256",
          "name": "",
          "type": "uint256"
        }
      ],
      "stateMutability": "view",
      "type": "function"
    },
    {
      "inputs": [],
      "name": "decimals",
      "outputs": [
        {
          "internalType": "uint8",
          "name": "",
          "type": "uint8"
        }
      ],
      "stateMutability": "view",
      "type": "function"
    },
    {
      "inputs": [
        {
          "internalType": "address",
          "name": "spender",
          "type": "address"
        },
        {
          "internalType": "uint256",
          "name": "subtractedValue",
          "type": "uint256"
        }
      ],
      "name": "decreaseAllowance",
      "outputs": [
        {
          "internalType": "bool",
          "name": "",
          "type": "bool"
        }
      ],
      "stateMutability": "nonpayable",
      "type": "function"
    },
    {
      "inputs": [],
      "name": "factory",
      "outputs": [
        {
          "internalType": "address",
          "name": "",
          "type": "address"
        }
      ],
      "stateMutability": "view",
      "type": "function"
    },
    {
      "inputs": [
        {
          "internalType": "address",
          "name": "spender",
          "type": "address"
        },
        {
          "internalType": "uint256",
          "name": "addedValue",
          "type": "uint256"
        }
      ],
      "name": "increaseAllowance",
      "outputs": [
        {
          "internalType": "bool",
          "name": "",
          "type": "bool"
        }
      ],
      "stateMutability": "nonpayable",
      "type": "function"
    },
    {
      "inputs": [
        {
          "internalType": "address",
          "name": "",
          "type": "address"
        }
      ],
      "name": "lastProcessedCycles",
      "outputs": [
        {
          "internalType": "uint256",
          "name": "",
          "type": "uint256"
        }
      ],
      "stateMutability": "view",
      "type": "function"
    },
    {
      "inputs": [],
      "name": "name",
      "outputs": [
        {
          "internalType": "string",
          "name": "",
          "type": "string"
        }
      ],
      "stateMutability": "view",
      "type": "function"
    },
    {
      "inputs": [],
      "name": "owner",
      "outputs": [
        {
          "internalType": "address",
          "name": "",
          "type": "address"
        }
      ],
      "stateMutability": "view",
      "type": "function"
    },
    {
      "inputs": [],
      "name": "renounceOwnership",
      "outputs": [],
      "stateMutability": "nonpayable",
      "type": "function"
    },
    {
      "inputs": [],
      "name": "startBlockNumber",
      "outputs": [
        {
          "internalType": "uint256",
          "name": "",
          "type": "uint256"
        }
      ],
      "stateMutability": "view",
      "type": "function"
    },
    {
      "inputs": [],
      "name": "symbol",
      "outputs": [
        {
          "internalType": "string",
          "name": "",
          "type": "string"
        }
      ],
      "stateMutability": "view",
      "type": "function"
    },
    {
      "inputs": [],
      "name": "totalSupply",
      "outputs": [
        {
          "internalType": "uint256",
          "name": "",
          "type": "uint256"
        }
      ],
      "stateMutability": "view",
      "type": "function"
    },
    {
      "inputs": [
        {
          "internalType": "uint256",
          "name": "",
          "type": "uint256"
        }
      ],
      "name": "totals",
      "outputs": [
        {
          "internalType": "uint256",
          "name": "",
          "type": "uint256"
        }
      ],
      "stateMutability": "view",
      "type": "function"
    },
    {
      "inputs": [
        {
          "internalType": "address",
          "name": "to",
          "type": "address"
        },
        {
          "internalType": "uint256",
          "name": "amount",
          "type": "uint256"
        }
      ],
      "name": "transfer",
      "outputs": [
        {
          "internalType": "bool",
          "name": "",
          "type": "bool"
        }
      ],
      "stateMutability": "nonpayable",
      "type": "function"
    },
    {
      "inputs": [
        {
          "internalType": "address",
          "name": "from",
          "type": "address"
        },
        {
          "internalType": "address",
          "name": "to",
          "type": "address"
        },
        {
          "internalType": "uint256",
          "name": "amount",
          "type": "uint256"
        }
      ],
      "name": "transferFrom",
      "outputs": [
        {
          "internalType": "bool",
          "name": "",
          "type": "bool"
        }
      ],
      "stateMutability": "nonpayable",
      "type": "function"
    },
    {
      "inputs": [
        {
          "internalType": "address",
          "name": "newOwner",
          "type": "address"
        }
      ],
      "name": "transferOwnership",
      "outputs": [],
      "stateMutability": "nonpayable",
      "type": "function"
    },
    {
      "inputs": [
        {
          "internalType": "address",
          "name": "",
          "type": "address"
        }
      ],
      "name": "userBurns",
      "outputs": [
        {
          "internalType": "uint256",
          "name": "",
          "type": "uint256"
        }
      ],
      "stateMutability": "view",
      "type": "function"
    },
    {
      "inputs": [
        {
          "internalType": "bytes4",
          "name": "interfaceId",
          "type": "bytes4"
        }
      ],
      "name": "supportsInterface",
      "outputs": [
        {
          "internalType": "bool",
          "name": "",
          "type": "bool"
        }
      ],
      "stateMutability": "view",
      "type": "function"
    },
    {
      "inputs": [
        {
          "internalType": "address",
          "name": "user",
          "type": "address"
        },
        {
          "internalType": "uint256",
          "name": "amount",
          "type": "uint256"
        }
      ],
      "name": "onTokenBurned",
      "outputs": [],
      "stateMutability": "nonpayable",
      "type": "function"
    },
    {
      "inputs": [
        {
          "internalType": "uint256",
          "name": "amount",
          "type": "uint256"
        }
      ],
      "name": "bid",
      "outputs": [],
      "stateMutability": "nonpayable",
      "type": "function"
    },
    {
      "inputs": [],
      "name": "mint",
      "outputs": [],
      "stateMutability": "nonpayable",
      "type": "function"
    },
    {
      "inputs": [
        {
          "internalType": "address",
          "name": "user",
          "type": "address"
        },
        {
          "internalType": "uint256",
          "name": "amount",
          "type": "uint256"
        }
      ],
      "name": "burn",
      "outputs": [],
      "stateMutability": "nonpayable",
      "type": "function"
    }
  ],
  "bytecode": "0x61012060405260016006553480156200001757600080fd5b5060405162001b2a38038062001b2a8339810160408190526200003a91620003d0565b8386866200004833620002bb565b6004620000568382620004ee565b506005620000658282620004ee565b50505060008111620000be5760405162461bcd60e51b815260206004820152601560248201527f45524332304361707065643a206361702069732030000000000000000000000060448201526064015b60405180910390fd5b60805284516003106200012b5760405162461bcd60e51b815260206004820152602e60248201527f464552432d32303a2034206f72206d6f7265206c65747465727320726571756960448201526d1c995908199bdc881cde5b589bdb60921b6064820152608401620000b5565b600084116200017d5760405162461bcd60e51b815260206004820152601c60248201527f464552432d32303a20737570706c79207368616c6c206265203e2030000000006044820152606401620000b5565b60008311620001cf5760405162461bcd60e51b815260206004820152601f60248201527f464552432d32303a20626174636853697a65207368616c6c206265203e2030006044820152606401620000b5565b838311156200022f5760405162461bcd60e51b815260206004820152602560248201527f464552432d32303a20626174636853697a65207368616c6c206265203c3d20736044820152647570706c7960d81b6064820152608401620000b5565b600082116200028d5760405162461bcd60e51b815260206004820152602360248201527f464552432d32303a206379636c65496e74657276616c207368616c6c2062652060448201526203e20360ec1b6064820152608401620000b5565b60a083905260c082905280620002a45743620002a6565b805b60e0525050336101005250620005ba92505050565b600080546001600160a01b038381166001600160a01b0319831681178455604051919092169283917f8be0079c531659141344cd1fd0a4f28419497f9722a3daafe3b4186f6b6457e09190a35050565b634e487b7160e01b600052604160045260246000fd5b600082601f8301126200033357600080fd5b81516001600160401b03808211156200035057620003506200030b565b604051601f8301601f19908116603f011681019082821181831017156200037b576200037b6200030b565b816040528381526020925086838588010111156200039857600080fd5b600091505b83821015620003bc57858201830151818301840152908201906200039d565b600093810190920192909252949350505050565b60008060008060008060c08789031215620003ea57600080fd5b86516001600160401b03808211156200040257600080fd5b620004108a838b0162000321565b975060208901519150808211156200042757600080fd5b506200043689828a0162000321565b95505060408701519350606087015192506080870151915060a087015190509295509295509295565b600181811c908216806200047457607f821691505b6020821081036200049557634e487b7160e01b600052602260045260246000fd5b50919050565b601f821115620004e957600081815260208120601f850160051c81016020861015620004c45750805b601f850160051c820191505b81811015620004e557828155600101620004d0565b5050505b505050565b81516001600160401b038111156200050a576200050a6200030b565b62000522816200051b84546200045f565b846200049b565b602080601f8311600181146200055a5760008415620005415750858301515b600019600386901b1c1916600185901b178555620004e5565b600085815260208120601f198616915b828110156200058b578886015182559484019460019091019084016200056a565b5085821015620005aa5787850151600019600388901b60f8161c191681555b5050505050600190811b01905550565b60805160a05160c05160e05161010051611508620006226000396000818161041f01526107ff01526000818161032501526107b20152600081816102c0015261078001526000818161048c015261061301526000818161028401526110ff01526115086000f3fe608060405234801561001057600080fd5b50600436106101cf5760003560e01c8063543746b111610104578063a457c2d7116100a2578063ce653d5f11610071578063ce653d5f14610441578063dd62ed3e14610461578063f2fde38b14610474578063f4daaba11461048757600080fd5b8063a457c2d7146103eb578063a9059cbb146103fe578063bab2f55214610411578063c45a01551461041a57600080fd5b8063715018a6116100de578063715018a6146103a35780638da5cb5b146103ab57806395d89b41146103d05780639dc29fac146103d857600080fd5b8063543746b114610347578063568947881461035a57806370a082311461037a57600080fd5b8063313ce567116101715780633b26156e1161014b5780633b26156e146102bb5780633f1ffcec146102e2578063454a2ab31461030d578063498a4c2d1461032057600080fd5b8063313ce56714610273578063355274ea1461028257806339509351146102a857600080fd5b80631249c58b116101ad5780631249c58b1461022457806318160ddd1461022e5780631b3387101461024057806323b872dd1461026057600080fd5b806301ffc9a7146101d457806306fdde03146101fc578063095ea7b314610211575b600080fd5b6101e76101e2366004611246565b6104ae565b60405190151581526020015b60405180910390f35b610204610500565b6040516101f39190611277565b6101e761021f3660046112e1565b610592565b61022c6105aa565b005b6003545b6040519081526020016101f3565b61023261024e36600461130b565b60086020526000908152604090205481565b6101e761026e366004611324565b610694565b604051601281526020016101f3565b7f0000000000000000000000000000000000000000000000000000000000000000610232565b6101e76102b63660046112e1565b6106b8565b6102327f000000000000000000000000000000000000000000000000000000000000000081565b6102326102f0366004611360565b600760209081526000928352604080842090915290825290205481565b61022c61031b36600461130b565b6106da565b6102327f000000000000000000000000000000000000000000000000000000000000000081565b61022c6103553660046112e1565b6107f4565b61023261036836600461138c565b60096020526000908152604090205481565b61023261038836600461138c565b6001600160a01b031660009081526001602052604090205490565b61022c6108d0565b6000546001600160a01b03165b6040516001600160a01b0390911681526020016101f3565b6102046108e4565b61022c6103e63660046112e1565b6108f3565b6101e76103f93660046112e1565b610aa5565b6101e761040c3660046112e1565b610b20565b61023260065481565b6103b87f000000000000000000000000000000000000000000000000000000000000000081565b61023261044f36600461138c565b600a6020526000908152604090205481565b61023261046f3660046113a7565b610b2e565b61022c61048236600461138c565b610b59565b6102327f000000000000000000000000000000000000000000000000000000000000000081565b60006001600160e01b0319821663543746b160e01b14806104df57506001600160e01b03198216632770a7eb60e21b145b806104fa57506001600160e01b031982166301ffc9a760e01b145b92915050565b60606004805461050f906113d1565b80601f016020809104026020016040519081016040528092919081815260200182805461053b906113d1565b80156105885780601f1061055d57610100808354040283529160200191610588565b820191906000526020600020905b81548152906001019060200180831161056b57829003601f168201915b5050505050905090565b6000336105a0818585610bcf565b5060019392505050565b60008060016006546105bc9190611421565b90505b33600090815260096020526040902054811115610661576000818152600860205260409020541561064f576000818152600860209081526040808320546007835281842033855290925290912054610638907f000000000000000000000000000000000000000000000000000000000000000090611434565b610642919061144b565b61064c908361146d565b91505b8061065981611480565b9150506105bf565b5060016006546106719190611421565b336000908152600960205260409020558015610691576106913382610cf4565b50565b6000336106a2858285610d02565b6106ad858585610d7c565b506001949350505050565b6000336105a08185856106cb8383610b2e565b6106d5919061146d565b610bcf565b6000811161072f5760405162461bcd60e51b815260206004820152601c60248201527f464552432d32303a20616d6f756e74207368616c6c206265203e20300000000060448201526064015b60405180910390fd5b32331461077e5760405162461bcd60e51b815260206004820152601a60248201527f464552432d32303a206f6e6c7920454f417320616c6c6f7765640000000000006044820152606401610726565b7f00000000000000000000000000000000000000000000000000000000000000006006546107ac9190611434565b6107d6907f000000000000000000000000000000000000000000000000000000000000000061146d565b431061069157600680549060006107ec83611497565b919050555050565b336001600160a01b037f0000000000000000000000000000000000000000000000000000000000000000161461086c5760405162461bcd60e51b815260206004820181905260248201527f464552432d32303a20696c6c6567616c2063616c6c6261636b2063616c6c65726044820152606401610726565b60065460009081526007602090815260408083206001600160a01b0386168452909152812080548392906108a190849061146d565b9091555050600654600090815260086020526040812080548392906108c790849061146d565b90915550505050565b6108d8610f27565b6108e26000610f81565b565b60606005805461050f906113d1565b6000811161093b5760405162461bcd60e51b8152602060048201526015602482015274109d5c9b8e8810995b1bddc81b5a5b881b1a5b5a5d605a1b6044820152606401610726565b336040516301ffc9a760e01b815263543746b160e01b60048201526001600160a01b0391909116906301ffc9a790602401602060405180830381865afa158015610989573d6000803e3d6000fd5b505050506040513d601f19601f820116820180604052508101906109ad91906114b0565b6109f95760405162461bcd60e51b815260206004820152601e60248201527f4275726e3a206e6f74206120737570706f7274656420636f6e747261637400006044820152606401610726565b610a04823383610d02565b610a0e8282610fd1565b6001600160a01b0382166000908152600a602052604081208054839290610a3690849061146d565b9091555033905060405163543746b160e01b81526001600160a01b03848116600483015260248201849052919091169063543746b190604401600060405180830381600087803b158015610a8957600080fd5b505af1158015610a9d573d6000803e3d6000fd5b505050505050565b60003381610ab38286610b2e565b905083811015610b135760405162461bcd60e51b815260206004820152602560248201527f45524332303a2064656372656173656420616c6c6f77616e63652062656c6f77604482015264207a65726f60d81b6064820152608401610726565b6106ad8286868403610bcf565b6000336105a0818585610d7c565b6001600160a01b03918216600090815260026020908152604080832093909416825291909152205490565b610b61610f27565b6001600160a01b038116610bc65760405162461bcd60e51b815260206004820152602660248201527f4f776e61626c653a206e6577206f776e657220697320746865207a65726f206160448201526564647265737360d01b6064820152608401610726565b61069181610f81565b6001600160a01b038316610c315760405162461bcd60e51b8152602060048201526024808201527f45524332303a20617070726f76652066726f6d20746865207a65726f206164646044820152637265737360e01b6064820152608401610726565b6001600160a01b038216610c925760405162461bcd60e51b815260206004820152602260248201527f45524332303a20617070726f766520746f20746865207a65726f206164647265604482015261737360f01b6064820152608401610726565b6001600160a01b0383811660008181526002602090815260408083209487168084529482529182902085905590518481527f8c5be1e5ebec7d5bd14f71427d1e84f3dd0314c0f7b2291e5b200ac8c7c3b92591015b60405180910390a3505050565b610cfe82826110fd565b5050565b6000610d0e8484610b2e565b90506000198114610d765781811015610d695760405162461bcd60e51b815260206004820152601d60248201527f45524332303a20696e73756666696369656e7420616c6c6f77616e63650000006044820152606401610726565b610d768484848403610bcf565b50505050565b6001600160a01b038316610de05760405162461bcd60e51b815260206004820152602560248201527f45524332303a207472616e736665722066726f6d20746865207a65726f206164604482015264647265737360d81b6064820152608401610726565b6001600160a01b038216610e425760405162461bcd60e51b815260206004820152602360248201527f45524332303a207472616e7366657220746f20746865207a65726f206164647260448201526265737360e81b6064820152608401610726565b6001600160a01b03831660009081526001602052604090205481811015610eba5760405162461bcd60e51b815260206004820152602660248201527f45524332303a207472616e7366657220616d6f756e7420657863656564732062604482015265616c616e636560d01b6064820152608401610726565b6001600160a01b0380851660008181526001602052604080822086860390559286168082529083902080548601905591517fddf252ad1be2c89b69c2b068fc378daa952ba7f163c4a11628f55a4df523b3ef90610f1a9086815260200190565b60405180910390a3610d76565b6000546001600160a01b031633146108e25760405162461bcd60e51b815260206004820181905260248201527f4f776e61626c653a2063616c6c6572206973206e6f7420746865206f776e65726044820152606401610726565b600080546001600160a01b038381166001600160a01b0319831681178455604051919092169283917f8be0079c531659141344cd1fd0a4f28419497f9722a3daafe3b4186f6b6457e09190a35050565b6001600160a01b0382166110315760405162461bcd60e51b815260206004820152602160248201527f45524332303a206275726e2066726f6d20746865207a65726f206164647265736044820152607360f81b6064820152608401610726565b6001600160a01b038216600090815260016020526040902054818110156110a55760405162461bcd60e51b815260206004820152602260248201527f45524332303a206275726e20616d6f756e7420657863656564732062616c616e604482015261636560f01b6064820152608401610726565b6001600160a01b03831660008181526001602090815260408083208686039055600380548790039055518581529192917fddf252ad1be2c89b69c2b068fc378daa952ba7f163c4a11628f55a4df523b3ef9101610ce7565b7f00000000000000000000000000000000000000000000000000000000000000008161112860035490565b611132919061146d565b11156111805760405162461bcd60e51b815260206004820152601960248201527f45524332304361707065643a20636170206578636565646564000000000000006044820152606401610726565b610cfe82826001600160a01b0382166111db5760405162461bcd60e51b815260206004820152601f60248201527f45524332303a206d696e7420746f20746865207a65726f2061646472657373006044820152606401610726565b80600360008282546111ed919061146d565b90915550506001600160a01b0382166000818152600160209081526040808320805486019055518481527fddf252ad1be2c89b69c2b068fc378daa952ba7f163c4a11628f55a4df523b3ef910160405180910390a35050565b60006020828403121561125857600080fd5b81356001600160e01b03198116811461127057600080fd5b9392505050565b600060208083528351808285015260005b818110156112a457858101830151858201604001528201611288565b506000604082860101526040601f19601f8301168501019250505092915050565b80356001600160a01b03811681146112dc57600080fd5b919050565b600080604083850312156112f457600080fd5b6112fd836112c5565b946020939093013593505050565b60006020828403121561131d57600080fd5b5035919050565b60008060006060848603121561133957600080fd5b611342846112c5565b9250611350602085016112c5565b9150604084013590509250925092565b6000806040838503121561137357600080fd5b82359150611383602084016112c5565b90509250929050565b60006020828403121561139e57600080fd5b611270826112c5565b600080604083850312156113ba57600080fd5b6113c3836112c5565b9150611383602084016112c5565b600181811c908216806113e557607f821691505b60208210810361140557634e487b7160e01b600052602260045260246000fd5b50919050565b634e487b7160e01b600052601160045260246000fd5b818103818111156104fa576104fa61140b565b80820281158282048414176104fa576104fa61140b565b60008261146857634e487b7160e01b600052601260045260246000fd5b500490565b808201808211156104fa576104fa61140b565b60008161148f5761148f61140b565b506000190190565b6000600182016114a9576114a961140b565b5060010190565b6000602082840312156114c257600080fd5b8151801515811461127057600080fdfea2646970667358221220225648db6bad5b7a52d5eb4d5ef58be530c678360bdab59639acec3c1bdc7e1b64736f6c63430008110033",
  "immutableReferences": {
    "2130": [
      {
        "length": 32,
        "start": 644
      },
      {
        "length": 32,
        "start": 4351
      }
    ],
    "5081": [
      {
        "length": 32,
        "start": 1164
      },
      {
        "length": 32,
        "start": 1555
      }
    ],
    "5083": [
      {
        "length": 32,
        "start": 704
      },
      {
        "length": 32,
        "start": 1920
      }
    ],
    "5085": [
      {
        "length": 32,
        "start": 805
      },
      {
        "length": 32,
        "start": 1970
      }
    ],
    "5087": [
      {
        "length": 32,
        "start": 1055
      },
      {
        "length": 32,
        "start": 2047
      }
    ]
  },
  "source": "// SPDX-License-Identifier: MIT\npragma solidity ^0.8.17;\n\nimport \"@openzeppelin/contracts/interfaces/IERC165.sol\";\nimport \"@openzeppelin/contracts/access/Ownable.sol\";\nimport \"@openzeppelin/contracts/token/ERC20/ERC20.sol\";\nimport \"@openzeppelin/contracts/token/ERC20/extensions/ERC20Capped.sol\";\nimport \"@faircrypto/xen-crypto/contracts/interfaces/IBurnRedeemable.sol\";\nimport \"@faircrypto/xen-crypto/contracts/interfaces/IBurnableToken.sol\";\n// import \"./interfaces/XENAware.sol\";\n// import \"./interfaces/Collectable.sol\";\n\n\ncontract AuctionedToken is IERC165, Ownable, ERC20, ERC20Capped, IBurnRedeemable, IBurnableToken  {\n\n    // IBurnableToken public immutable xenCrypto;\n    uint256 public immutable batchSize;\n    uint256 public immutable cycleInterval;\n    uint256 public immutable startBlockNumber;\n    // uint256 public immutable royaltyPct;\n    address public immutable factory;\n\n    uint256 public currentCycle = 1;\n    mapping(uint256 => mapping(address => uint256)) public bids;\n    mapping(uint256 => uint256) public totals;\n    mapping(address => uint256) public lastProcessedCycles;\n    mapping(address => uint256) public userBurns;\n\n    constructor(\n        string memory name_,\n        string memory symbol_,\n        uint256 supply_,\n        uint256 batchSize_,\n        uint256 cycleInterval_,\n        uint256 startBlockNumber_\n        // uint256 royaltyPct_\n    )\n        ERC20(name_, symbol_)\n        ERC20Capped(supply_)\n    {\n        require(bytes(symbol_).length > 3, 'FERC-20: 4 or more letters required for symbol');\n        require(supply_ > 0, 'FERC-20: supply shall be > 0');\n        require(batchSize_ > 0, 'FERC-20: batchSize shall be > 0');\n        require(batchSize_ <= supply_, 'FERC-20: batchSize shall be <= supply');\n        require(cycleInterval_ > 0, 'FERC-20: cycleInterval shall be > 0');\n        // require(royaltyPct_ < 6, 'FERC-20: royaltyPct shall be 0..5');\n        batchSize = batchSize_;\n        cycleInterval = cycleInterval_;\n        startBlockNumber = startBlockNumber_ > 0 ? startBlockNumber_ : block.number;\n        // xenCrypto = IBurnableToken(xenCrypto_);\n        factory = msg.sender;\n        // royaltyPct = royaltyPct_;\n    }\n\n    // INTERFACES & STANDARDS\n    // IERC165 IMPLEMENTATION\n\n    /**\n        @dev confirms support for IERC-165 and IBurnRedeemable interfaces\n     */\n    function supportsInterface(bytes4 interfaceId) public view virtual override returns (bool) {\n        return interfaceId == type(IBurnRedeemable).interfaceId\n            || interfaceId == type(IBurnableToken).interfaceId\n            || interfaceId == type(IERC165).interfaceId\n        ;\n    }\n\n    // IBurnRedeemable IMPLEMENTATION\n\n    function onTokenBurned(address user, uint256 amount) external {\n        // address xenCrypto = XENAware(factory).xenCrypto();\n        // require(msg.sender == xenCrypto, \"FERC-20: illegal callback caller\");\n        require(msg.sender == factory, \"FERC-20: illegal callback caller\");\n        bids[currentCycle][user] += amount;\n        totals[currentCycle] += amount;\n    }\n\n    function _mint(address to, uint256 amount) override (ERC20, ERC20Capped) internal {\n        super._mint(to, amount);\n    }\n\n    function bid(uint256 amount) external {\n        require(amount > 0 , 'FERC-20: amount shall be > 0');\n        require(tx.origin == msg.sender, 'FERC-20: only EOAs allowed');\n\n        if (block.number >= startBlockNumber + currentCycle * cycleInterval) {\n            currentCycle++;\n        }\n        /*\n        address xenCrypto = XENAware(factory).xenCrypto();\n        if (royaltyPct > 0) {\n            uint256 royalty = (amount * royaltyPct) / 100;\n            ERC20(xenCrypto).transferFrom(msg.sender, owner(), royalty);\n            amount -= royalty;\n        }\n        IBurnableToken(xenCrypto).burn(msg.sender, amount);\n        ERC20(xenCrypto).transferFrom(msg.sender, address(this), amount);\n        ERC20(xenCrypto).approve(factory, amount);\n        IBurnableToken(factory).burn(msg.sender, amount);\n        */\n    }\n\n    function mint() external {\n        uint256 total;\n        for (uint i = currentCycle - 1; i > lastProcessedCycles[msg.sender]; i--) {\n            if (totals[i] > 0) {\n                total += ((bids[i][msg.sender] * batchSize) / totals[i]);\n            }\n        }\n        lastProcessedCycles[msg.sender] = currentCycle - 1;\n        if (total > 0) {\n            _mint(msg.sender, total);\n        }\n    }\n\n    /*\n    function collectReward() external {\n        Collectable(factory).collectUserReward(msg.sender);\n    }\n    */\n\n    /**\n        * @dev burns XEN tokens and creates Proof-Of-Burn record to be used by connected DeFi services\n     */\n    function burn(address user, uint256 amount) public {\n        require(amount > 0, \"Burn: Below min limit\");\n        require(\n            IERC165(_msgSender()).supportsInterface(type(IBurnRedeemable).interfaceId),\n            \"Burn: not a supported contract\"\n        );\n\n        _spendAllowance(user, _msgSender(), amount);\n        _burn(user, amount);\n        userBurns[user] += amount;\n        IBurnRedeemable(_msgSender()).onTokenBurned(user, amount);\n    }\n\n}\n",
  "sourcePath": "/Users/lbelyaev/dev/XEN-tokenizer/contracts/AuctionedToken.sol",
  "compiler": {
    "name": "solc",
    "version": "0.8.17+commit.8df45f5f.Emscripten.clang"
  },
  "schemaVersion": "3.4.10",
  "updatedAt": "2023-08-12T20:42:58.409Z",
  "devdoc": {
    "kind": "dev",
    "methods": {
      "allowance(address,address)": {
        "details": "See {IERC20-allowance}."
      },
      "approve(address,uint256)": {
        "details": "See {IERC20-approve}. NOTE: If `amount` is the maximum `uint256`, the allowance is not updated on `transferFrom`. This is semantically equivalent to an infinite approval. Requirements: - `spender` cannot be the zero address."
      },
      "balanceOf(address)": {
        "details": "See {IERC20-balanceOf}."
      },
      "burn(address,uint256)": {
        "details": "burns XEN tokens and creates Proof-Of-Burn record to be used by connected DeFi services"
      },
      "cap()": {
        "details": "Returns the cap on the token's total supply."
      },
      "decimals()": {
        "details": "Returns the number of decimals used to get its user representation. For example, if `decimals` equals `2`, a balance of `505` tokens should be displayed to a user as `5.05` (`505 / 10 ** 2`). Tokens usually opt for a value of 18, imitating the relationship between Ether and Wei. This is the default value returned by this function, unless it's overridden. NOTE: This information is only used for _display_ purposes: it in no way affects any of the arithmetic of the contract, including {IERC20-balanceOf} and {IERC20-transfer}."
      },
      "decreaseAllowance(address,uint256)": {
        "details": "Atomically decreases the allowance granted to `spender` by the caller. This is an alternative to {approve} that can be used as a mitigation for problems described in {IERC20-approve}. Emits an {Approval} event indicating the updated allowance. Requirements: - `spender` cannot be the zero address. - `spender` must have allowance for the caller of at least `subtractedValue`."
      },
      "increaseAllowance(address,uint256)": {
        "details": "Atomically increases the allowance granted to `spender` by the caller. This is an alternative to {approve} that can be used as a mitigation for problems described in {IERC20-approve}. Emits an {Approval} event indicating the updated allowance. Requirements: - `spender` cannot be the zero address."
      },
      "name()": {
        "details": "Returns the name of the token."
      },
      "owner()": {
        "details": "Returns the address of the current owner."
      },
      "renounceOwnership()": {
        "details": "Leaves the contract without owner. It will not be possible to call `onlyOwner` functions. Can only be called by the current owner. NOTE: Renouncing ownership will leave the contract without an owner, thereby disabling any functionality that is only available to the owner."
      },
      "supportsInterface(bytes4)": {
        "details": "confirms support for IERC-165 and IBurnRedeemable interfaces"
      },
      "symbol()": {
        "details": "Returns the symbol of the token, usually a shorter version of the name."
      },
      "totalSupply()": {
        "details": "See {IERC20-totalSupply}."
      },
      "transfer(address,uint256)": {
        "details": "See {IERC20-transfer}. Requirements: - `to` cannot be the zero address. - the caller must have a balance of at least `amount`."
      },
      "transferFrom(address,address,uint256)": {
        "details": "See {IERC20-transferFrom}. Emits an {Approval} event indicating the updated allowance. This is not required by the EIP. See the note at the beginning of {ERC20}. NOTE: Does not update the allowance if the current allowance is the maximum `uint256`. Requirements: - `from` and `to` cannot be the zero address. - `from` must have a balance of at least `amount`. - the caller must have allowance for ``from``'s tokens of at least `amount`."
      },
      "transferOwnership(address)": {
        "details": "Transfers ownership of the contract to a new account (`newOwner`). Can only be called by the current owner."
      }
    },
    "version": 1
  },
  "userdoc": {
    "kind": "user",
    "methods": {},
    "version": 1
  }
}