{
  "contractName": "DBXenViews",
  "abi": [
    {
      "inputs": [
        {
          "internalType": "contract DBXen",
          "name": "_dbXen",
          "type": "address"
        }
      ],
      "stateMutability": "nonpayable",
      "type": "constructor"
    },
    {
      "inputs": [],
      "name": "dbxen",
      "outputs": [
        {
          "internalType": "contract DBXen",
          "name": "",
          "type": "address"
        }
      ],
      "stateMutability": "view",
      "type": "function"
    },
    {
      "inputs": [],
      "name": "dxn",
      "outputs": [
        {
          "internalType": "contract DBXenERC20",
          "name": "",
          "type": "address"
        }
      ],
      "stateMutability": "view",
      "type": "function"
    },
    {
      "inputs": [],
      "name": "deb0xContractBalance",
      "outputs": [
        {
          "internalType": "uint256",
          "name": "",
          "type": "uint256"
        }
      ],
      "stateMutability": "view",
      "type": "function"
    },
    {
      "inputs": [
        {
          "internalType": "address",
          "name": "staker",
          "type": "address"
        }
      ],
      "name": "getAccWithdrawableStake",
      "outputs": [
        {
          "internalType": "uint256",
          "name": "",
          "type": "uint256"
        }
      ],
      "stateMutability": "view",
      "type": "function"
    },
    {
      "inputs": [
        {
          "internalType": "address",
          "name": "account",
          "type": "address"
        }
      ],
      "name": "getUnclaimedFees",
      "outputs": [
        {
          "internalType": "uint256",
          "name": "",
          "type": "uint256"
        }
      ],
      "stateMutability": "view",
      "type": "function"
    },
    {
      "inputs": [],
      "name": "calculateCycleReward",
      "outputs": [
        {
          "internalType": "uint256",
          "name": "",
          "type": "uint256"
        }
      ],
      "stateMutability": "view",
      "type": "function"
    },
    {
      "inputs": [
        {
          "internalType": "address",
          "name": "account",
          "type": "address"
        }
      ],
      "name": "getUnclaimedRewards",
      "outputs": [
        {
          "internalType": "uint256",
          "name": "",
          "type": "uint256"
        }
      ],
      "stateMutability": "view",
      "type": "function"
    }
  ],
  "bytecode": "0x60806040523480156200001157600080fd5b5060405162002a9a38038062002a9a8339818101604052810190620000379190620000fc565b806000806101000a81548173ffffffffffffffffffffffffffffffffffffffff021916908373ffffffffffffffffffffffffffffffffffffffff160217905550506200012e565b600080fd5b600073ffffffffffffffffffffffffffffffffffffffff82169050919050565b6000620000b08262000083565b9050919050565b6000620000c482620000a3565b9050919050565b620000d681620000b7565b8114620000e257600080fd5b50565b600081519050620000f681620000cb565b92915050565b6000602082840312156200011557620001146200007e565b5b60006200012584828501620000e5565b91505092915050565b61295c806200013e6000396000f3fe608060405234801561001057600080fd5b506004361061007d5760003560e01c8063bf992dea1161005b578063bf992dea146100ee578063cdd5c81f1461011e578063d6aef1c61461014e578063e10bf06a1461016c5761007d565b80635afe54d21461008257806369a69e29146100a0578063916d8c82146100d0575b600080fd5b61008a61018a565b6040516100979190612646565b60405180910390f35b6100ba60048036038101906100b591906126a4565b6101b0565b6040516100c791906126ea565b60405180910390f35b6100d8610802565b6040516100e59190612726565b60405180910390f35b610108600480360381019061010391906126a4565b610826565b60405161011591906126ea565b60405180910390f35b610138600480360381019061013391906126a4565b611e7e565b60405161014591906126ea565b60405180910390f35b6101566124d7565b60405161016391906126ea565b60405180910390f35b610174612587565b60405161018191906126ea565b60405180910390f35b600160009054906101000a900473ffffffffffffffffffffffffffffffffffffffff1681565b60008060008054906101000a900473ffffffffffffffffffffffffffffffffffffffff1673ffffffffffffffffffffffffffffffffffffffff16631ed6380f846040518263ffffffff1660e01b815260040161020c9190612750565b602060405180830381865afa158015610229573d6000803e3d6000fd5b505050506040513d601f19601f8201168201806040525081019061024d9190612797565b60008054906101000a900473ffffffffffffffffffffffffffffffffffffffff1673ffffffffffffffffffffffffffffffffffffffff1663ed725e83856040518263ffffffff1660e01b81526004016102a69190612750565b602060405180830381865afa1580156102c3573d6000803e3d6000fd5b505050506040513d601f19601f820116820180604052508101906102e79190612797565b6102f191906127f3565b905060008060009054906101000a900473ffffffffffffffffffffffffffffffffffffffff1673ffffffffffffffffffffffffffffffffffffffff1663be26ed7f6040518163ffffffff1660e01b8152600401602060405180830381865afa158015610361573d6000803e3d6000fd5b505050506040513d601f19601f820116820180604052508101906103859190612797565b905060008054906101000a900473ffffffffffffffffffffffffffffffffffffffff1673ffffffffffffffffffffffffffffffffffffffff1663fa845ca9856040518263ffffffff1660e01b81526004016103e09190612750565b602060405180830381865afa1580156103fd573d6000803e3d6000fd5b505050506040513d601f19601f820116820180604052508101906104219190612797565b811180156104ca575060008060009054906101000a900473ffffffffffffffffffffffffffffffffffffffff1673ffffffffffffffffffffffffffffffffffffffff166312cb22ac866040518263ffffffff1660e01b81526004016104869190612750565b602060405180830381865afa1580156104a3573d6000803e3d6000fd5b505050506040513d601f19601f820116820180604052508101906104c79190612797565b14155b156107f85760008060009054906101000a900473ffffffffffffffffffffffffffffffffffffffff1673ffffffffffffffffffffffffffffffffffffffff166317d9c47a60008054906101000a900473ffffffffffffffffffffffffffffffffffffffff1673ffffffffffffffffffffffffffffffffffffffff1663fa845ca9886040518263ffffffff1660e01b81526004016105679190612750565b602060405180830381865afa158015610584573d6000803e3d6000fd5b505050506040513d601f19601f820116820180604052508101906105a89190612797565b6040518263ffffffff1660e01b81526004016105c491906126ea565b602060405180830381865afa1580156105e1573d6000803e3d6000fd5b505050506040513d601f19601f820116820180604052508101906106059190612797565b60008054906101000a900473ffffffffffffffffffffffffffffffffffffffff1673ffffffffffffffffffffffffffffffffffffffff1663adc0f68660008054906101000a900473ffffffffffffffffffffffffffffffffffffffff1673ffffffffffffffffffffffffffffffffffffffff1663fa845ca9896040518263ffffffff1660e01b815260040161069a9190612750565b602060405180830381865afa1580156106b7573d6000803e3d6000fd5b505050506040513d601f19601f820116820180604052508101906106db9190612797565b6040518263ffffffff1660e01b81526004016106f791906126ea565b602060405180830381865afa158015610714573d6000803e3d6000fd5b505050506040513d601f19601f820116820180604052508101906107389190612797565b60008054906101000a900473ffffffffffffffffffffffffffffffffffffffff1673ffffffffffffffffffffffffffffffffffffffff166312cb22ac886040518263ffffffff1660e01b81526004016107919190612750565b602060405180830381865afa1580156107ae573d6000803e3d6000fd5b505050506040513d601f19601f820116820180604052508101906107d29190612797565b6107dc9190612827565b6107e69190612898565b905080836107f491906128c9565b9250505b8192505050919050565b60008054906101000a900473ffffffffffffffffffffffffffffffffffffffff1681565b60008060008054906101000a900473ffffffffffffffffffffffffffffffffffffffff1673ffffffffffffffffffffffffffffffffffffffff1663be26ed7f6040518163ffffffff1660e01b8152600401602060405180830381865afa158015610894573d6000803e3d6000fd5b505050506040513d601f19601f820116820180604052508101906108b89190612797565b905060008060009054906101000a900473ffffffffffffffffffffffffffffffffffffffff1673ffffffffffffffffffffffffffffffffffffffff1663bc713290856040518263ffffffff1660e01b81526004016109169190612750565b602060405180830381865afa158015610933573d6000803e3d6000fd5b505050506040513d601f19601f820116820180604052508101906109579190612797565b905060008060008054906101000a900473ffffffffffffffffffffffffffffffffffffffff1673ffffffffffffffffffffffffffffffffffffffff16635f5080b46040518163ffffffff1660e01b8152600401602060405180830381865afa1580156109c7573d6000803e3d6000fd5b505050506040513d601f19601f820116820180604052508101906109eb9190612797565b905060008060009054906101000a900473ffffffffffffffffffffffffffffffffffffffff1673ffffffffffffffffffffffffffffffffffffffff1663436091c16040518163ffffffff1660e01b8152600401602060405180830381865afa158015610a5b573d6000803e3d6000fd5b505050506040513d601f19601f82011682018060405250810190610a7f9190612797565b905060008054906101000a900473ffffffffffffffffffffffffffffffffffffffff1673ffffffffffffffffffffffffffffffffffffffff1663f1b371e26040518163ffffffff1660e01b8152600401602060405180830381865afa158015610aec573d6000803e3d6000fd5b505050506040513d601f19601f82011682018060405250810190610b109190612797565b8514610bb757600181610b2391906128c9565b915060008054906101000a900473ffffffffffffffffffffffffffffffffffffffff1673ffffffffffffffffffffffffffffffffffffffff1663f1b371e26040518163ffffffff1660e01b8152600401602060405180830381865afa158015610b90573d6000803e3d6000fd5b505050506040513d601f19601f82011682018060405250810190610bb49190612797565b90505b8085118015610c6c575060008060009054906101000a900473ffffffffffffffffffffffffffffffffffffffff1673ffffffffffffffffffffffffffffffffffffffff1663bebc9dfc600184610c0d91906128c9565b6040518263ffffffff1660e01b8152600401610c2991906126ea565b602060405180830381865afa158015610c46573d6000803e3d6000fd5b505050506040513d601f19601f82011682018060405250810190610c6a9190612797565b145b15611034576000808060009054906101000a900473ffffffffffffffffffffffffffffffffffffffff1673ffffffffffffffffffffffffffffffffffffffff1663c4235ae9846040518263ffffffff1660e01b8152600401610cce91906126ea565b602060405180830381865afa158015610ceb573d6000803e3d6000fd5b505050506040513d601f19601f82011682018060405250810190610d0f9190612797565b14610f875760008054906101000a900473ffffffffffffffffffffffffffffffffffffffff1673ffffffffffffffffffffffffffffffffffffffff1663c4235ae9836040518263ffffffff1660e01b8152600401610d6d91906126ea565b602060405180830381865afa158015610d8a573d6000803e3d6000fd5b505050506040513d601f19601f82011682018060405250810190610dae9190612797565b60008054906101000a900473ffffffffffffffffffffffffffffffffffffffff1673ffffffffffffffffffffffffffffffffffffffff1663ef4cadc56040518163ffffffff1660e01b8152600401602060405180830381865afa158015610e19573d6000803e3d6000fd5b505050506040513d601f19601f82011682018060405250810190610e3d9190612797565b60008054906101000a900473ffffffffffffffffffffffffffffffffffffffff1673ffffffffffffffffffffffffffffffffffffffff1663224438d16040518163ffffffff1660e01b8152600401602060405180830381865afa158015610ea8573d6000803e3d6000fd5b505050506040513d601f19601f82011682018060405250810190610ecc9190612797565b60008054906101000a900473ffffffffffffffffffffffffffffffffffffffff1673ffffffffffffffffffffffffffffffffffffffff16630ece2154866040518263ffffffff1660e01b8152600401610f2591906126ea565b602060405180830381865afa158015610f42573d6000803e3d6000fd5b505050506040513d601f19601f82011682018060405250810190610f669190612797565b610f7091906128c9565b610f7a9190612827565b610f849190612898565b90505b8060008054906101000a900473ffffffffffffffffffffffffffffffffffffffff1673ffffffffffffffffffffffffffffffffffffffff1663bebc9dfc856040518263ffffffff1660e01b8152600401610fe191906126ea565b602060405180830381865afa158015610ffe573d6000803e3d6000fd5b505050506040513d601f19601f820116820180604052508101906110229190612797565b61102c91906128c9565b9350506110dd565b60008054906101000a900473ffffffffffffffffffffffffffffffffffffffff1673ffffffffffffffffffffffffffffffffffffffff1663bebc9dfc60018361107d91906128c9565b6040518263ffffffff1660e01b815260040161109991906126ea565b602060405180830381865afa1580156110b6573d6000803e3d6000fd5b505050506040513d601f19601f820116820180604052508101906110da9190612797565b92505b60008060009054906101000a900473ffffffffffffffffffffffffffffffffffffffff1673ffffffffffffffffffffffffffffffffffffffff16631ed6380f896040518263ffffffff1660e01b81526004016111399190612750565b602060405180830381865afa158015611156573d6000803e3d6000fd5b505050506040513d601f19601f8201168201806040525081019061117a9190612797565b611183896101b0565b61118d91906128c9565b9050818611801561124357506001826111a691906128c9565b60008054906101000a900473ffffffffffffffffffffffffffffffffffffffff1673ffffffffffffffffffffffffffffffffffffffff1663a707140b8a6040518263ffffffff1660e01b81526004016111ff9190612750565b602060405180830381865afa15801561121c573d6000803e3d6000fd5b505050506040513d601f19601f820116820180604052508101906112409190612797565b14155b156114385760008054906101000a900473ffffffffffffffffffffffffffffffffffffffff1673ffffffffffffffffffffffffffffffffffffffff1663ef4cadc56040518163ffffffff1660e01b8152600401602060405180830381865afa1580156112b3573d6000803e3d6000fd5b505050506040513d601f19601f820116820180604052508101906112d79190612797565b60008054906101000a900473ffffffffffffffffffffffffffffffffffffffff1673ffffffffffffffffffffffffffffffffffffffff1663bebc9dfc60008054906101000a900473ffffffffffffffffffffffffffffffffffffffff1673ffffffffffffffffffffffffffffffffffffffff1663a707140b8c6040518263ffffffff1660e01b815260040161136c9190612750565b602060405180830381865afa158015611389573d6000803e3d6000fd5b505050506040513d601f19601f820116820180604052508101906113ad9190612797565b6040518263ffffffff1660e01b81526004016113c991906126ea565b602060405180830381865afa1580156113e6573d6000803e3d6000fd5b505050506040513d601f19601f8201168201806040525081019061140a9190612797565b8561141591906127f3565b826114209190612827565b61142a9190612898565b8561143591906128c9565b94505b60008060009054906101000a900473ffffffffffffffffffffffffffffffffffffffff1673ffffffffffffffffffffffffffffffffffffffff1663e60c90c48a6040518263ffffffff1660e01b81526004016114949190612750565b602060405180830381865afa1580156114b1573d6000803e3d6000fd5b505050506040513d601f19601f820116820180604052508101906114d59190612797565b1415801561157b575060008054906101000a900473ffffffffffffffffffffffffffffffffffffffff1673ffffffffffffffffffffffffffffffffffffffff1663e60c90c4896040518263ffffffff1660e01b81526004016115379190612750565b602060405180830381865afa158015611554573d6000803e3d6000fd5b505050506040513d601f19601f820116820180604052508101906115789190612797565b86115b801561162b575060008054906101000a900473ffffffffffffffffffffffffffffffffffffffff1673ffffffffffffffffffffffffffffffffffffffff1663e60c90c4896040518263ffffffff1660e01b81526004016115db9190612750565b602060405180830381865afa1580156115f8573d6000803e3d6000fd5b505050506040513d601f19601f8201168201806040525081019061161c9190612797565b60018361162991906128c9565b115b15611e705760008054906101000a900473ffffffffffffffffffffffffffffffffffffffff1673ffffffffffffffffffffffffffffffffffffffff1663ef4cadc56040518163ffffffff1660e01b8152600401602060405180830381865afa15801561169b573d6000803e3d6000fd5b505050506040513d601f19601f820116820180604052508101906116bf9190612797565b60008054906101000a900473ffffffffffffffffffffffffffffffffffffffff1673ffffffffffffffffffffffffffffffffffffffff1663bebc9dfc60008054906101000a900473ffffffffffffffffffffffffffffffffffffffff1673ffffffffffffffffffffffffffffffffffffffff1663e60c90c48c6040518263ffffffff1660e01b81526004016117549190612750565b602060405180830381865afa158015611771573d6000803e3d6000fd5b505050506040513d601f19601f820116820180604052508101906117959190612797565b6040518263ffffffff1660e01b81526004016117b191906126ea565b602060405180830381865afa1580156117ce573d6000803e3d6000fd5b505050506040513d601f19601f820116820180604052508101906117f29190612797565b856117fd91906127f3565b60008054906101000a900473ffffffffffffffffffffffffffffffffffffffff1673ffffffffffffffffffffffffffffffffffffffff1663aabbb1bd8b60008054906101000a900473ffffffffffffffffffffffffffffffffffffffff1673ffffffffffffffffffffffffffffffffffffffff1663e60c90c48e6040518263ffffffff1660e01b81526004016118939190612750565b602060405180830381865afa1580156118b0573d6000803e3d6000fd5b505050506040513d601f19601f820116820180604052508101906118d49190612797565b6040518363ffffffff1660e01b81526004016118f19291906128fd565b602060405180830381865afa15801561190e573d6000803e3d6000fd5b505050506040513d601f19601f820116820180604052508101906119329190612797565b61193c9190612827565b6119469190612898565b8561195191906128c9565b945060008060009054906101000a900473ffffffffffffffffffffffffffffffffffffffff1673ffffffffffffffffffffffffffffffffffffffff1663db80a28c8a6040518263ffffffff1660e01b81526004016119af9190612750565b602060405180830381865afa1580156119cc573d6000803e3d6000fd5b505050506040513d601f19601f820116820180604052508101906119f09190612797565b14158015611a96575060008054906101000a900473ffffffffffffffffffffffffffffffffffffffff1673ffffffffffffffffffffffffffffffffffffffff1663db80a28c896040518263ffffffff1660e01b8152600401611a529190612750565b602060405180830381865afa158015611a6f573d6000803e3d6000fd5b505050506040513d601f19601f82011682018060405250810190611a939190612797565b86115b8015611b46575060008054906101000a900473ffffffffffffffffffffffffffffffffffffffff1673ffffffffffffffffffffffffffffffffffffffff1663db80a28c896040518263ffffffff1660e01b8152600401611af69190612750565b602060405180830381865afa158015611b13573d6000803e3d6000fd5b505050506040513d601f19601f82011682018060405250810190611b379190612797565b600183611b4491906128c9565b115b15611e6f5760008054906101000a900473ffffffffffffffffffffffffffffffffffffffff1673ffffffffffffffffffffffffffffffffffffffff1663ef4cadc56040518163ffffffff1660e01b8152600401602060405180830381865afa158015611bb6573d6000803e3d6000fd5b505050506040513d601f19601f82011682018060405250810190611bda9190612797565b60008054906101000a900473ffffffffffffffffffffffffffffffffffffffff1673ffffffffffffffffffffffffffffffffffffffff1663bebc9dfc60008054906101000a900473ffffffffffffffffffffffffffffffffffffffff1673ffffffffffffffffffffffffffffffffffffffff1663db80a28c8c6040518263ffffffff1660e01b8152600401611c6f9190612750565b602060405180830381865afa158015611c8c573d6000803e3d6000fd5b505050506040513d601f19601f82011682018060405250810190611cb09190612797565b6040518263ffffffff1660e01b8152600401611ccc91906126ea565b602060405180830381865afa158015611ce9573d6000803e3d6000fd5b505050506040513d601f19601f82011682018060405250810190611d0d9190612797565b85611d1891906127f3565b60008054906101000a900473ffffffffffffffffffffffffffffffffffffffff1673ffffffffffffffffffffffffffffffffffffffff1663aabbb1bd8b60008054906101000a900473ffffffffffffffffffffffffffffffffffffffff1673ffffffffffffffffffffffffffffffffffffffff1663db80a28c8e6040518263ffffffff1660e01b8152600401611dae9190612750565b602060405180830381865afa158015611dcb573d6000803e3d6000fd5b505050506040513d601f19601f82011682018060405250810190611def9190612797565b6040518363ffffffff1660e01b8152600401611e0c9291906128fd565b602060405180830381865afa158015611e29573d6000803e3d6000fd5b505050506040513d601f19601f82011682018060405250810190611e4d9190612797565b611e579190612827565b611e619190612898565b85611e6c91906128c9565b94505b5b849650505050505050919050565b60008060008054906101000a900473ffffffffffffffffffffffffffffffffffffffff1673ffffffffffffffffffffffffffffffffffffffff1663be26ed7f6040518163ffffffff1660e01b8152600401602060405180830381865afa158015611eec573d6000803e3d6000fd5b505050506040513d601f19601f82011682018060405250810190611f109190612797565b90506000808060009054906101000a900473ffffffffffffffffffffffffffffffffffffffff1673ffffffffffffffffffffffffffffffffffffffff1663e60c90c4866040518263ffffffff1660e01b8152600401611f6f9190612750565b602060405180830381865afa158015611f8c573d6000803e3d6000fd5b505050506040513d601f19601f82011682018060405250810190611fb09190612797565b14158015612056575060008054906101000a900473ffffffffffffffffffffffffffffffffffffffff1673ffffffffffffffffffffffffffffffffffffffff1663e60c90c4856040518263ffffffff1660e01b81526004016120129190612750565b602060405180830381865afa15801561202f573d6000803e3d6000fd5b505050506040513d601f19601f820116820180604052508101906120539190612797565b82115b156124295760008054906101000a900473ffffffffffffffffffffffffffffffffffffffff1673ffffffffffffffffffffffffffffffffffffffff1663aabbb1bd8560008054906101000a900473ffffffffffffffffffffffffffffffffffffffff1673ffffffffffffffffffffffffffffffffffffffff1663e60c90c4886040518263ffffffff1660e01b81526004016120f19190612750565b602060405180830381865afa15801561210e573d6000803e3d6000fd5b505050506040513d601f19601f820116820180604052508101906121329190612797565b6040518363ffffffff1660e01b815260040161214f9291906128fd565b602060405180830381865afa15801561216c573d6000803e3d6000fd5b505050506040513d601f19601f820116820180604052508101906121909190612797565b8161219b91906128c9565b905060008060009054906101000a900473ffffffffffffffffffffffffffffffffffffffff1673ffffffffffffffffffffffffffffffffffffffff1663db80a28c866040518263ffffffff1660e01b81526004016121f99190612750565b602060405180830381865afa158015612216573d6000803e3d6000fd5b505050506040513d601f19601f8201168201806040525081019061223a9190612797565b141580156122e0575060008054906101000a900473ffffffffffffffffffffffffffffffffffffffff1673ffffffffffffffffffffffffffffffffffffffff1663db80a28c856040518263ffffffff1660e01b815260040161229c9190612750565b602060405180830381865afa1580156122b9573d6000803e3d6000fd5b505050506040513d601f19601f820116820180604052508101906122dd9190612797565b82115b156124285760008054906101000a900473ffffffffffffffffffffffffffffffffffffffff1673ffffffffffffffffffffffffffffffffffffffff1663aabbb1bd8560008054906101000a900473ffffffffffffffffffffffffffffffffffffffff1673ffffffffffffffffffffffffffffffffffffffff1663db80a28c886040518263ffffffff1660e01b815260040161237b9190612750565b602060405180830381865afa158015612398573d6000803e3d6000fd5b505050506040513d601f19601f820116820180604052508101906123bc9190612797565b6040518363ffffffff1660e01b81526004016123d99291906128fd565b602060405180830381865afa1580156123f6573d6000803e3d6000fd5b505050506040513d601f19601f8201168201806040525081019061241a9190612797565b8161242591906128c9565b90505b5b8060008054906101000a900473ffffffffffffffffffffffffffffffffffffffff1673ffffffffffffffffffffffffffffffffffffffff16631ed6380f866040518263ffffffff1660e01b81526004016124839190612750565b602060405180830381865afa1580156124a0573d6000803e3d6000fd5b505050506040513d601f19601f820116820180604052508101906124c49190612797565b6124ce91906128c9565b92505050919050565b600061272461271060008054906101000a900473ffffffffffffffffffffffffffffffffffffffff1673ffffffffffffffffffffffffffffffffffffffff1663a95f1dac6040518163ffffffff1660e01b8152600401602060405180830381865afa15801561254a573d6000803e3d6000fd5b505050506040513d601f19601f8201168201806040525081019061256e9190612797565b6125789190612827565b6125829190612898565b905090565b60008060009054906101000a900473ffffffffffffffffffffffffffffffffffffffff1673ffffffffffffffffffffffffffffffffffffffff1631905090565b600073ffffffffffffffffffffffffffffffffffffffff82169050919050565b6000819050919050565b600061260c612607612602846125c7565b6125e7565b6125c7565b9050919050565b600061261e826125f1565b9050919050565b600061263082612613565b9050919050565b61264081612625565b82525050565b600060208201905061265b6000830184612637565b92915050565b600080fd5b6000612671826125c7565b9050919050565b61268181612666565b811461268c57600080fd5b50565b60008135905061269e81612678565b92915050565b6000602082840312156126ba576126b9612661565b5b60006126c88482850161268f565b91505092915050565b6000819050919050565b6126e4816126d1565b82525050565b60006020820190506126ff60008301846126db565b92915050565b600061271082612613565b9050919050565b61272081612705565b82525050565b600060208201905061273b6000830184612717565b92915050565b61274a81612666565b82525050565b60006020820190506127656000830184612741565b92915050565b612774816126d1565b811461277f57600080fd5b50565b6000815190506127918161276b565b92915050565b6000602082840312156127ad576127ac612661565b5b60006127bb84828501612782565b91505092915050565b7f4e487b7100000000000000000000000000000000000000000000000000000000600052601160045260246000fd5b60006127fe826126d1565b9150612809836126d1565b9250828203905081811115612821576128206127c4565b5b92915050565b6000612832826126d1565b915061283d836126d1565b925082820261284b816126d1565b91508282048414831517612862576128616127c4565b5b5092915050565b7f4e487b7100000000000000000000000000000000000000000000000000000000600052601260045260246000fd5b60006128a3826126d1565b91506128ae836126d1565b9250826128be576128bd612869565b5b828204905092915050565b60006128d4826126d1565b91506128df836126d1565b92508282019050808211156128f7576128f66127c4565b5b92915050565b60006040820190506129126000830185612741565b61291f60208301846126db565b939250505056fea26469706673582212202e9b5fa5231ab19737d1a848d754aa1caabf53ab00bc77dad5048e2f809dc18f64736f6c63430008110033",
  "immutableReferences": {},
  "source": "// SPDX-License-Identifier: MIT\npragma solidity ^0.8.17;\n\nimport \"./DBXen.sol\";\nimport \"./DBXenERC20.sol\";\n\n/**\n * Helper contract used to optimize dbxen state queries made by clients.\n */\ncontract DBXenViews {\n\n    /**\n     * Main dbxen contract address to get the data from.\n     */\n    DBXen public dbxen;\n\n    /**\n     * Reward token address.\n     */\n    DBXenERC20 public dxn;\n\n    /**\n     * @param _dbXen DBXen.sol contract address\n     */\n    constructor(DBXen _dbXen) {\n        dbxen = _dbXen;\n    }\n\n    /**\n     * @return main dbxen contract native coin balance\n     */\n    function deb0xContractBalance() external view returns (uint256) {\n        return address(dbxen).balance;\n    }\n\n    /**\n     * @dev Withdrawable stake is the amount of dbxen reward tokens that are currently \n     * 'unlocked' and can be unstaked by a given account.\n     * \n     * @param staker the address to query the withdrawable stake for\n     * @return the amount in wei\n     */\n    function getAccWithdrawableStake(address staker)\n        external\n        view\n        returns (uint256)\n    {\n        uint256 calculatedCycle = dbxen.getCurrentCycle();\n        uint256 unlockedStake = 0;\n\n        if (\n            dbxen.accFirstStake(staker) != 0 &&\n            calculatedCycle > dbxen.accFirstStake(staker)\n        ) {\n            unlockedStake += dbxen.accStakeCycle(\n                staker,\n                dbxen.accFirstStake(staker)\n            );\n\n            if (\n                dbxen.accSecondStake(staker) != 0 &&\n                calculatedCycle > dbxen.accSecondStake(staker)\n            ) {\n                unlockedStake += dbxen.accStakeCycle(\n                    staker,\n                    dbxen.accSecondStake(staker)\n                );\n            }\n        }\n\n        return dbxen.accWithdrawableStake(staker) + unlockedStake;\n    }\n\n    /**\n     * @dev Unclaimed fees represent the native coin amount that has been allocated \n     * to a given account but was not claimed yet.\n     * \n     * @param account the address to query the unclaimed fees for\n     * @return the amount in wei\n     */\n    function getUnclaimedFees(address account) external view returns (uint256) {\n        uint256 calculatedCycle = dbxen.getCurrentCycle();\n        uint256 currentAccruedFees = dbxen.accAccruedFees(account);\n        uint256 currentCycleFeesPerStakeSummed;\n        uint256 previousStartedCycleTemp = dbxen.previousStartedCycle();\n        uint256 lastStartedCycleTemp = dbxen.lastStartedCycle();\n\n        if (calculatedCycle != dbxen.currentStartedCycle()) {\n            previousStartedCycleTemp = lastStartedCycleTemp + 1;\n            lastStartedCycleTemp = dbxen.currentStartedCycle();\n        }\n\n        if (\n            calculatedCycle > lastStartedCycleTemp &&\n            dbxen.cycleFeesPerStakeSummed(lastStartedCycleTemp + 1) == 0\n        ) {\n            uint256 feePerStake = 0;\n            if(dbxen.summedCycleStakes(lastStartedCycleTemp) != 0){\n                feePerStake = ((dbxen.cycleAccruedFees(\n                lastStartedCycleTemp\n            ) + dbxen.pendingFees()) * dbxen.SCALING_FACTOR()) /\n                dbxen.summedCycleStakes(lastStartedCycleTemp);\n            }\n\n            currentCycleFeesPerStakeSummed =\n                dbxen.cycleFeesPerStakeSummed(previousStartedCycleTemp) +\n                feePerStake;\n        } else {\n            currentCycleFeesPerStakeSummed = dbxen.cycleFeesPerStakeSummed(\n                lastStartedCycleTemp + 1\n            );\n        }\n\n        uint256 currentRewards = getUnclaimedRewards(account) + dbxen.accWithdrawableStake(account);\n\n        if (\n            calculatedCycle > lastStartedCycleTemp &&\n            dbxen.lastFeeUpdateCycle(account) != lastStartedCycleTemp + 1\n        ) {\n            currentAccruedFees +=\n                (\n                    (currentRewards *\n                        (currentCycleFeesPerStakeSummed -\n                            dbxen.cycleFeesPerStakeSummed(\n                                dbxen.lastFeeUpdateCycle(account)\n                            )))\n                ) /\n                dbxen.SCALING_FACTOR();\n        }\n\n        if (\n            dbxen.accFirstStake(account) != 0 &&\n            calculatedCycle > dbxen.accFirstStake(account) &&\n            lastStartedCycleTemp + 1 > dbxen.accFirstStake(account)\n        ) {\n            currentAccruedFees +=\n                (\n                    (dbxen.accStakeCycle(account, dbxen.accFirstStake(account)) *\n                        (currentCycleFeesPerStakeSummed - dbxen.cycleFeesPerStakeSummed(dbxen.accFirstStake(account)\n                            )))\n                ) /\n                dbxen.SCALING_FACTOR();\n\n            if (\n                dbxen.accSecondStake(account) != 0 &&\n                calculatedCycle > dbxen.accSecondStake(account) &&\n                lastStartedCycleTemp + 1 > dbxen.accSecondStake(account)\n            ) {\n                currentAccruedFees +=\n                    (\n                        (dbxen.accStakeCycle(account, dbxen.accSecondStake(account)\n                        ) *\n                            (currentCycleFeesPerStakeSummed -\n                                dbxen.cycleFeesPerStakeSummed(\n                                    dbxen.accSecondStake(account)\n                                )))\n                    ) /\n                    dbxen.SCALING_FACTOR();\n            }\n        }\n\n        return currentAccruedFees;\n    }\n\n    /**\n     * @return the reward token amount allocated for the current cycle\n     */\n    function calculateCycleReward() public view returns (uint256) {\n        return (dbxen.lastCycleReward() * 10000) / 10020;\n    }\n\n    /**\n     * @dev Unclaimed rewards represent the amount of dbxen reward tokens \n     * that were allocated but were not withdrawn by a given account.\n     * \n     * @param account the address to query the unclaimed rewards for\n     * @return the amount in wei\n     */\n    function getUnclaimedRewards(address account)\n        public\n        view\n        returns (uint256)\n    {\n        uint256 currentRewards = dbxen.accRewards(account) -  dbxen.accWithdrawableStake(account);\n        uint256 calculatedCycle = dbxen.getCurrentCycle();\n\n       if (\n            calculatedCycle > dbxen.lastActiveCycle(account) &&\n            dbxen.accCycleBatchesBurned(account) != 0\n        ) {\n            uint256 lastCycleAccReward = (dbxen.accCycleBatchesBurned(account) *\n                dbxen.rewardPerCycle(dbxen.lastActiveCycle(account))) /\n                dbxen.cycleTotalBatchesBurned(dbxen.lastActiveCycle(account));\n\n            currentRewards += lastCycleAccReward;\n        }\n\n        return currentRewards;\n    }\n}\n",
  "sourcePath": "/Users/lbelyaev/dev/dbXenBurnerProject/contracts/DBXenViews.sol",
  "compiler": {
    "name": "solc",
    "version": "0.8.17+commit.8df45f5f.Emscripten.clang"
  },
  "schemaVersion": "3.4.10",
  "updatedAt": "2023-04-01T06:49:10.267Z",
  "devdoc": {
    "kind": "dev",
    "methods": {
      "calculateCycleReward()": {
        "returns": {
          "_0": "the reward token amount allocated for the current cycle"
        }
      },
      "constructor": {
        "params": {
          "_dbXen": "DBXen.sol contract address"
        }
      },
      "deb0xContractBalance()": {
        "returns": {
          "_0": "main dbxen contract native coin balance"
        }
      },
      "getAccWithdrawableStake(address)": {
        "details": "Withdrawable stake is the amount of dbxen reward tokens that are currently  'unlocked' and can be unstaked by a given account. ",
        "params": {
          "staker": "the address to query the withdrawable stake for"
        },
        "returns": {
          "_0": "the amount in wei"
        }
      },
      "getUnclaimedFees(address)": {
        "details": "Unclaimed fees represent the native coin amount that has been allocated  to a given account but was not claimed yet. ",
        "params": {
          "account": "the address to query the unclaimed fees for"
        },
        "returns": {
          "_0": "the amount in wei"
        }
      },
      "getUnclaimedRewards(address)": {
        "details": "Unclaimed rewards represent the amount of dbxen reward tokens  that were allocated but were not withdrawn by a given account. ",
        "params": {
          "account": "the address to query the unclaimed rewards for"
        },
        "returns": {
          "_0": "the amount in wei"
        }
      }
    },
    "version": 1
  },
  "userdoc": {
    "kind": "user",
    "methods": {
      "dbxen()": {
        "notice": "Main dbxen contract address to get the data from."
      },
      "dxn()": {
        "notice": "Reward token address."
      }
    },
    "notice": "Helper contract used to optimize dbxen state queries made by clients.",
    "version": 1
  }
}