{
  "contractName": "DBXenERC20",
  "abi": [
    {
      "inputs": [],
      "stateMutability": "nonpayable",
      "type": "constructor"
    },
    {
      "anonymous": false,
      "inputs": [
        {
          "indexed": true,
          "internalType": "address",
          "name": "owner",
          "type": "address"
        },
        {
          "indexed": true,
          "internalType": "address",
          "name": "spender",
          "type": "address"
        },
        {
          "indexed": false,
          "internalType": "uint256",
          "name": "value",
          "type": "uint256"
        }
      ],
      "name": "Approval",
      "type": "event"
    },
    {
      "anonymous": false,
      "inputs": [
        {
          "indexed": true,
          "internalType": "address",
          "name": "from",
          "type": "address"
        },
        {
          "indexed": true,
          "internalType": "address",
          "name": "to",
          "type": "address"
        },
        {
          "indexed": false,
          "internalType": "uint256",
          "name": "value",
          "type": "uint256"
        }
      ],
      "name": "Transfer",
      "type": "event"
    },
    {
      "inputs": [],
      "name": "DOMAIN_SEPARATOR",
      "outputs": [
        {
          "internalType": "bytes32",
          "name": "",
          "type": "bytes32"
        }
      ],
      "stateMutability": "view",
      "type": "function"
    },
    {
      "inputs": [
        {
          "internalType": "address",
          "name": "owner",
          "type": "address"
        },
        {
          "internalType": "address",
          "name": "spender",
          "type": "address"
        }
      ],
      "name": "allowance",
      "outputs": [
        {
          "internalType": "uint256",
          "name": "",
          "type": "uint256"
        }
      ],
      "stateMutability": "view",
      "type": "function"
    },
    {
      "inputs": [
        {
          "internalType": "address",
          "name": "spender",
          "type": "address"
        },
        {
          "internalType": "uint256",
          "name": "amount",
          "type": "uint256"
        }
      ],
      "name": "approve",
      "outputs": [
        {
          "internalType": "bool",
          "name": "",
          "type": "bool"
        }
      ],
      "stateMutability": "nonpayable",
      "type": "function"
    },
    {
      "inputs": [
        {
          "internalType": "address",
          "name": "account",
          "type": "address"
        }
      ],
      "name": "balanceOf",
      "outputs": [
        {
          "internalType": "uint256",
          "name": "",
          "type": "uint256"
        }
      ],
      "stateMutability": "view",
      "type": "function"
    },
    {
      "inputs": [],
      "name": "decimals",
      "outputs": [
        {
          "internalType": "uint8",
          "name": "",
          "type": "uint8"
        }
      ],
      "stateMutability": "view",
      "type": "function"
    },
    {
      "inputs": [
        {
          "internalType": "address",
          "name": "spender",
          "type": "address"
        },
        {
          "internalType": "uint256",
          "name": "subtractedValue",
          "type": "uint256"
        }
      ],
      "name": "decreaseAllowance",
      "outputs": [
        {
          "internalType": "bool",
          "name": "",
          "type": "bool"
        }
      ],
      "stateMutability": "nonpayable",
      "type": "function"
    },
    {
      "inputs": [
        {
          "internalType": "address",
          "name": "spender",
          "type": "address"
        },
        {
          "internalType": "uint256",
          "name": "addedValue",
          "type": "uint256"
        }
      ],
      "name": "increaseAllowance",
      "outputs": [
        {
          "internalType": "bool",
          "name": "",
          "type": "bool"
        }
      ],
      "stateMutability": "nonpayable",
      "type": "function"
    },
    {
      "inputs": [],
      "name": "name",
      "outputs": [
        {
          "internalType": "string",
          "name": "",
          "type": "string"
        }
      ],
      "stateMutability": "view",
      "type": "function"
    },
    {
      "inputs": [
        {
          "internalType": "address",
          "name": "owner",
          "type": "address"
        }
      ],
      "name": "nonces",
      "outputs": [
        {
          "internalType": "uint256",
          "name": "",
          "type": "uint256"
        }
      ],
      "stateMutability": "view",
      "type": "function"
    },
    {
      "inputs": [],
      "name": "owner",
      "outputs": [
        {
          "internalType": "address",
          "name": "",
          "type": "address"
        }
      ],
      "stateMutability": "view",
      "type": "function"
    },
    {
      "inputs": [
        {
          "internalType": "address",
          "name": "owner",
          "type": "address"
        },
        {
          "internalType": "address",
          "name": "spender",
          "type": "address"
        },
        {
          "internalType": "uint256",
          "name": "value",
          "type": "uint256"
        },
        {
          "internalType": "uint256",
          "name": "deadline",
          "type": "uint256"
        },
        {
          "internalType": "uint8",
          "name": "v",
          "type": "uint8"
        },
        {
          "internalType": "bytes32",
          "name": "r",
          "type": "bytes32"
        },
        {
          "internalType": "bytes32",
          "name": "s",
          "type": "bytes32"
        }
      ],
      "name": "permit",
      "outputs": [],
      "stateMutability": "nonpayable",
      "type": "function"
    },
    {
      "inputs": [],
      "name": "symbol",
      "outputs": [
        {
          "internalType": "string",
          "name": "",
          "type": "string"
        }
      ],
      "stateMutability": "view",
      "type": "function"
    },
    {
      "inputs": [],
      "name": "totalSupply",
      "outputs": [
        {
          "internalType": "uint256",
          "name": "",
          "type": "uint256"
        }
      ],
      "stateMutability": "view",
      "type": "function"
    },
    {
      "inputs": [
        {
          "internalType": "address",
          "name": "to",
          "type": "address"
        },
        {
          "internalType": "uint256",
          "name": "amount",
          "type": "uint256"
        }
      ],
      "name": "transfer",
      "outputs": [
        {
          "internalType": "bool",
          "name": "",
          "type": "bool"
        }
      ],
      "stateMutability": "nonpayable",
      "type": "function"
    },
    {
      "inputs": [
        {
          "internalType": "address",
          "name": "from",
          "type": "address"
        },
        {
          "internalType": "address",
          "name": "to",
          "type": "address"
        },
        {
          "internalType": "uint256",
          "name": "amount",
          "type": "uint256"
        }
      ],
      "name": "transferFrom",
      "outputs": [
        {
          "internalType": "bool",
          "name": "",
          "type": "bool"
        }
      ],
      "stateMutability": "nonpayable",
      "type": "function"
    },
    {
      "inputs": [
        {
          "internalType": "address",
          "name": "account",
          "type": "address"
        },
        {
          "internalType": "uint256",
          "name": "amount",
          "type": "uint256"
        }
      ],
      "name": "mintReward",
      "outputs": [],
      "stateMutability": "nonpayable",
      "type": "function"
    }
  ],
  "bytecode": "0x6101606040523480156200001257600080fd5b506040518060400160405280601681526020017f444258656e20546f6b656e206f6e20506f6c79676f6e00000000000000000000815250806040518060400160405280600181526020017f31000000000000000000000000000000000000000000000000000000000000008152506040518060400160405280601681526020017f444258656e20546f6b656e206f6e20506f6c79676f6e000000000000000000008152506040518060400160405280600481526020017f6d44584e000000000000000000000000000000000000000000000000000000008152508160039081620000fd9190620004b6565b5080600490816200010f9190620004b6565b50505060008280519060200120905060008280519060200120905060007f8b73c3c69bb8fe3d512ecc4cf759cc79239f7b179b0ffacaa9a75d522b39400f90508260e081815250508161010081815250504660a081815250506200017b8184846200020060201b60201c565b608081815250503073ffffffffffffffffffffffffffffffffffffffff1660c08173ffffffffffffffffffffffffffffffffffffffff16815250508061012081815250505050505050503373ffffffffffffffffffffffffffffffffffffffff166101408173ffffffffffffffffffffffffffffffffffffffff16815250506200066b565b600083838346306040516020016200021d9594939291906200060e565b6040516020818303038152906040528051906020012090509392505050565b600081519050919050565b7f4e487b7100000000000000000000000000000000000000000000000000000000600052604160045260246000fd5b7f4e487b7100000000000000000000000000000000000000000000000000000000600052602260045260246000fd5b60006002820490506001821680620002be57607f821691505b602082108103620002d457620002d362000276565b5b50919050565b60008190508160005260206000209050919050565b60006020601f8301049050919050565b600082821b905092915050565b6000600883026200033e7fffffffffffffffffffffffffffffffffffffffffffffffffffffffffffffffff82620002ff565b6200034a8683620002ff565b95508019841693508086168417925050509392505050565b6000819050919050565b6000819050919050565b600062000397620003916200038b8462000362565b6200036c565b62000362565b9050919050565b6000819050919050565b620003b38362000376565b620003cb620003c2826200039e565b8484546200030c565b825550505050565b600090565b620003e2620003d3565b620003ef818484620003a8565b505050565b5b8181101562000417576200040b600082620003d8565b600181019050620003f5565b5050565b601f82111562000466576200043081620002da565b6200043b84620002ef565b810160208510156200044b578190505b620004636200045a85620002ef565b830182620003f4565b50505b505050565b600082821c905092915050565b60006200048b600019846008026200046b565b1980831691505092915050565b6000620004a6838362000478565b9150826002028217905092915050565b620004c1826200023c565b67ffffffffffffffff811115620004dd57620004dc62000247565b5b620004e98254620002a5565b620004f68282856200041b565b600060209050601f8311600181146200052e576000841562000519578287015190505b62000525858262000498565b86555062000595565b601f1984166200053e86620002da565b60005b82811015620005685784890151825560018201915060208501945060208101905062000541565b8683101562000588578489015162000584601f89168262000478565b8355505b6001600288020188555050505b505050505050565b6000819050919050565b620005b2816200059d565b82525050565b620005c38162000362565b82525050565b600073ffffffffffffffffffffffffffffffffffffffff82169050919050565b6000620005f682620005c9565b9050919050565b6200060881620005e9565b82525050565b600060a082019050620006256000830188620005a7565b620006346020830187620005a7565b620006436040830186620005a7565b620006526060830185620005b8565b620006616080830184620005fd565b9695505050505050565b60805160a05160c05160e0516101005161012051610140516122a6620006cd6000396000818161054801526105fe01526000610ed001526000610f1201526000610ef101526000610e2601526000610e7c01526000610ea501526122a66000f3fe608060405234801561001057600080fd5b50600436106101005760003560e01c80637ecebe0011610097578063a457c2d711610066578063a457c2d7146102c5578063a9059cbb146102f5578063d505accf14610325578063dd62ed3e1461034157610100565b80637ecebe001461023d5780638da5cb5b1461026d57806395d89b411461028b5780639a49090e146102a957610100565b8063313ce567116100d3578063313ce567146101a15780633644e515146101bf57806339509351146101dd57806370a082311461020d57610100565b806306fdde0314610105578063095ea7b31461012357806318160ddd1461015357806323b872dd14610171575b600080fd5b61010d610371565b60405161011a91906114a8565b60405180910390f35b61013d60048036038101906101389190611563565b610403565b60405161014a91906115be565b60405180910390f35b61015b610426565b60405161016891906115e8565b60405180910390f35b61018b60048036038101906101869190611603565b610430565b60405161019891906115be565b60405180910390f35b6101a961045f565b6040516101b69190611672565b60405180910390f35b6101c7610468565b6040516101d491906116a6565b60405180910390f35b6101f760048036038101906101f29190611563565b610477565b60405161020491906115be565b60405180910390f35b610227600480360381019061022291906116c1565b6104ae565b60405161023491906115e8565b60405180910390f35b610257600480360381019061025291906116c1565b6104f6565b60405161026491906115e8565b60405180910390f35b610275610546565b60405161028291906116fd565b60405180910390f35b61029361056a565b6040516102a091906114a8565b60405180910390f35b6102c360048036038101906102be9190611563565b6105fc565b005b6102df60048036038101906102da9190611563565b6106ec565b6040516102ec91906115be565b60405180910390f35b61030f600480360381019061030a9190611563565b610763565b60405161031c91906115be565b60405180910390f35b61033f600480360381019061033a9190611770565b610786565b005b61035b60048036038101906103569190611812565b6108c8565b60405161036891906115e8565b60405180910390f35b60606003805461038090611881565b80601f01602080910402602001604051908101604052809291908181526020018280546103ac90611881565b80156103f95780601f106103ce576101008083540402835291602001916103f9565b820191906000526020600020905b8154815290600101906020018083116103dc57829003601f168201915b5050505050905090565b60008061040e61094f565b905061041b818585610957565b600191505092915050565b6000600254905090565b60008061043b61094f565b9050610448858285610b20565b610453858585610bac565b60019150509392505050565b60006012905090565b6000610472610e22565b905090565b60008061048261094f565b90506104a381858561049485896108c8565b61049e91906118e1565b610957565b600191505092915050565b60008060008373ffffffffffffffffffffffffffffffffffffffff1673ffffffffffffffffffffffffffffffffffffffff168152602001908152602001600020549050919050565b600061053f600560008473ffffffffffffffffffffffffffffffffffffffff1673ffffffffffffffffffffffffffffffffffffffff168152602001908152602001600020610f3c565b9050919050565b7f000000000000000000000000000000000000000000000000000000000000000081565b60606004805461057990611881565b80601f01602080910402602001604051908101604052809291908181526020018280546105a590611881565b80156105f25780601f106105c7576101008083540402835291602001916105f2565b820191906000526020600020905b8154815290600101906020018083116105d557829003601f168201915b5050505050905090565b7f000000000000000000000000000000000000000000000000000000000000000073ffffffffffffffffffffffffffffffffffffffff163373ffffffffffffffffffffffffffffffffffffffff161461068a576040517f08c379a000000000000000000000000000000000000000000000000000000000815260040161068190611987565b60405180910390fd5b6a0424e8a4eaca5ed740000061069e610426565b106106de576040517f08c379a00000000000000000000000000000000000000000000000000000000081526004016106d5906119f3565b60405180910390fd5b6106e88282610f4a565b5050565b6000806106f761094f565b9050600061070582866108c8565b90508381101561074a576040517f08c379a000000000000000000000000000000000000000000000000000000000815260040161074190611a85565b60405180910390fd5b6107578286868403610957565b60019250505092915050565b60008061076e61094f565b905061077b818585610bac565b600191505092915050565b834211156107c9576040517f08c379a00000000000000000000000000000000000000000000000000000000081526004016107c090611af1565b60405180910390fd5b60007f6e71edae12b1b97f4d1f60370fef10105fa2faae0126114a169c64845d6126c98888886107f88c6110a0565b8960405160200161080e96959493929190611b11565b6040516020818303038152906040528051906020012090506000610831826110fe565b9050600061084182878787611118565b90508973ffffffffffffffffffffffffffffffffffffffff168173ffffffffffffffffffffffffffffffffffffffff16146108b1576040517f08c379a00000000000000000000000000000000000000000000000000000000081526004016108a890611bbe565b60405180910390fd5b6108bc8a8a8a610957565b50505050505050505050565b6000600160008473ffffffffffffffffffffffffffffffffffffffff1673ffffffffffffffffffffffffffffffffffffffff16815260200190815260200160002060008373ffffffffffffffffffffffffffffffffffffffff1673ffffffffffffffffffffffffffffffffffffffff16815260200190815260200160002054905092915050565b600033905090565b600073ffffffffffffffffffffffffffffffffffffffff168373ffffffffffffffffffffffffffffffffffffffff16036109c6576040517f08c379a00000000000000000000000000000000000000000000000000000000081526004016109bd90611c50565b60405180910390fd5b600073ffffffffffffffffffffffffffffffffffffffff168273ffffffffffffffffffffffffffffffffffffffff1603610a35576040517f08c379a0000000000000000000000000000000000000000000000000000000008152600401610a2c90611ce2565b60405180910390fd5b80600160008573ffffffffffffffffffffffffffffffffffffffff1673ffffffffffffffffffffffffffffffffffffffff16815260200190815260200160002060008473ffffffffffffffffffffffffffffffffffffffff1673ffffffffffffffffffffffffffffffffffffffff168152602001908152602001600020819055508173ffffffffffffffffffffffffffffffffffffffff168373ffffffffffffffffffffffffffffffffffffffff167f8c5be1e5ebec7d5bd14f71427d1e84f3dd0314c0f7b2291e5b200ac8c7c3b92583604051610b1391906115e8565b60405180910390a3505050565b6000610b2c84846108c8565b90507fffffffffffffffffffffffffffffffffffffffffffffffffffffffffffffffff8114610ba65781811015610b98576040517f08c379a0000000000000000000000000000000000000000000000000000000008152600401610b8f90611d4e565b60405180910390fd5b610ba58484848403610957565b5b50505050565b600073ffffffffffffffffffffffffffffffffffffffff168373ffffffffffffffffffffffffffffffffffffffff1603610c1b576040517f08c379a0000000000000000000000000000000000000000000000000000000008152600401610c1290611de0565b60405180910390fd5b600073ffffffffffffffffffffffffffffffffffffffff168273ffffffffffffffffffffffffffffffffffffffff1603610c8a576040517f08c379a0000000000000000000000000000000000000000000000000000000008152600401610c8190611e72565b60405180910390fd5b610c95838383611143565b60008060008573ffffffffffffffffffffffffffffffffffffffff1673ffffffffffffffffffffffffffffffffffffffff16815260200190815260200160002054905081811015610d1b576040517f08c379a0000000000000000000000000000000000000000000000000000000008152600401610d1290611f04565b60405180910390fd5b8181036000808673ffffffffffffffffffffffffffffffffffffffff1673ffffffffffffffffffffffffffffffffffffffff16815260200190815260200160002081905550816000808573ffffffffffffffffffffffffffffffffffffffff1673ffffffffffffffffffffffffffffffffffffffff168152602001908152602001600020600082825401925050819055508273ffffffffffffffffffffffffffffffffffffffff168473ffffffffffffffffffffffffffffffffffffffff167fddf252ad1be2c89b69c2b068fc378daa952ba7f163c4a11628f55a4df523b3ef84604051610e0991906115e8565b60405180910390a3610e1c848484611148565b50505050565b60007f000000000000000000000000000000000000000000000000000000000000000073ffffffffffffffffffffffffffffffffffffffff163073ffffffffffffffffffffffffffffffffffffffff16148015610e9e57507f000000000000000000000000000000000000000000000000000000000000000046145b15610ecb577f00000000000000000000000000000000000000000000000000000000000000009050610f39565b610f367f00000000000000000000000000000000000000000000000000000000000000007f00000000000000000000000000000000000000000000000000000000000000007f000000000000000000000000000000000000000000000000000000000000000061114d565b90505b90565b600081600001549050919050565b600073ffffffffffffffffffffffffffffffffffffffff168273ffffffffffffffffffffffffffffffffffffffff1603610fb9576040517f08c379a0000000000000000000000000000000000000000000000000000000008152600401610fb090611f70565b60405180910390fd5b610fc560008383611143565b8060026000828254610fd791906118e1565b92505081905550806000808473ffffffffffffffffffffffffffffffffffffffff1673ffffffffffffffffffffffffffffffffffffffff168152602001908152602001600020600082825401925050819055508173ffffffffffffffffffffffffffffffffffffffff16600073ffffffffffffffffffffffffffffffffffffffff167fddf252ad1be2c89b69c2b068fc378daa952ba7f163c4a11628f55a4df523b3ef8360405161108891906115e8565b60405180910390a361109c60008383611148565b5050565b600080600560008473ffffffffffffffffffffffffffffffffffffffff1673ffffffffffffffffffffffffffffffffffffffff16815260200190815260200160002090506110ed81610f3c565b91506110f881611187565b50919050565b600061111161110b610e22565b8361119d565b9050919050565b6000806000611129878787876111d0565b91509150611136816112b2565b8192505050949350505050565b505050565b505050565b60008383834630604051602001611168959493929190611f90565b6040516020818303038152906040528051906020012090509392505050565b6001816000016000828254019250508190555050565b600082826040516020016111b292919061205b565b60405160208183030381529060405280519060200120905092915050565b6000807f7fffffffffffffffffffffffffffffff5d576e7357a4501ddfe92f46681b20a08360001c111561120b5760006003915091506112a9565b6000600187878787604051600081526020016040526040516112309493929190612092565b6020604051602081039080840390855afa158015611252573d6000803e3d6000fd5b505050602060405103519050600073ffffffffffffffffffffffffffffffffffffffff168173ffffffffffffffffffffffffffffffffffffffff16036112a0576000600192509250506112a9565b80600092509250505b94509492505050565b600060048111156112c6576112c56120d7565b5b8160048111156112d9576112d86120d7565b5b031561141557600160048111156112f3576112f26120d7565b5b816004811115611306576113056120d7565b5b03611346576040517f08c379a000000000000000000000000000000000000000000000000000000000815260040161133d90612152565b60405180910390fd5b6002600481111561135a576113596120d7565b5b81600481111561136d5761136c6120d7565b5b036113ad576040517f08c379a00000000000000000000000000000000000000000000000000000000081526004016113a4906121be565b60405180910390fd5b600360048111156113c1576113c06120d7565b5b8160048111156113d4576113d36120d7565b5b03611414576040517f08c379a000000000000000000000000000000000000000000000000000000000815260040161140b90612250565b60405180910390fd5b5b50565b600081519050919050565b600082825260208201905092915050565b60005b83811015611452578082015181840152602081019050611437565b60008484015250505050565b6000601f19601f8301169050919050565b600061147a82611418565b6114848185611423565b9350611494818560208601611434565b61149d8161145e565b840191505092915050565b600060208201905081810360008301526114c2818461146f565b905092915050565b600080fd5b600073ffffffffffffffffffffffffffffffffffffffff82169050919050565b60006114fa826114cf565b9050919050565b61150a816114ef565b811461151557600080fd5b50565b60008135905061152781611501565b92915050565b6000819050919050565b6115408161152d565b811461154b57600080fd5b50565b60008135905061155d81611537565b92915050565b6000806040838503121561157a576115796114ca565b5b600061158885828601611518565b92505060206115998582860161154e565b9150509250929050565b60008115159050919050565b6115b8816115a3565b82525050565b60006020820190506115d360008301846115af565b92915050565b6115e28161152d565b82525050565b60006020820190506115fd60008301846115d9565b92915050565b60008060006060848603121561161c5761161b6114ca565b5b600061162a86828701611518565b935050602061163b86828701611518565b925050604061164c8682870161154e565b9150509250925092565b600060ff82169050919050565b61166c81611656565b82525050565b60006020820190506116876000830184611663565b92915050565b6000819050919050565b6116a08161168d565b82525050565b60006020820190506116bb6000830184611697565b92915050565b6000602082840312156116d7576116d66114ca565b5b60006116e584828501611518565b91505092915050565b6116f7816114ef565b82525050565b600060208201905061171260008301846116ee565b92915050565b61172181611656565b811461172c57600080fd5b50565b60008135905061173e81611718565b92915050565b61174d8161168d565b811461175857600080fd5b50565b60008135905061176a81611744565b92915050565b600080600080600080600060e0888a03121561178f5761178e6114ca565b5b600061179d8a828b01611518565b97505060206117ae8a828b01611518565b96505060406117bf8a828b0161154e565b95505060606117d08a828b0161154e565b94505060806117e18a828b0161172f565b93505060a06117f28a828b0161175b565b92505060c06118038a828b0161175b565b91505092959891949750929550565b60008060408385031215611829576118286114ca565b5b600061183785828601611518565b925050602061184885828601611518565b9150509250929050565b7f4e487b7100000000000000000000000000000000000000000000000000000000600052602260045260246000fd5b6000600282049050600182168061189957607f821691505b6020821081036118ac576118ab611852565b5b50919050565b7f4e487b7100000000000000000000000000000000000000000000000000000000600052601160045260246000fd5b60006118ec8261152d565b91506118f78361152d565b925082820190508082111561190f5761190e6118b2565b5b92915050565b7f444258656e3a2063616c6c6572206973206e6f7420444258656e20636f6e747260008201527f6163742e00000000000000000000000000000000000000000000000000000000602082015250565b6000611971602483611423565b915061197c82611915565b604082019050919050565b600060208201905081810360008301526119a081611964565b9050919050565b7f444258656e3a206d617820737570706c7920616c7265616479206d696e746564600082015250565b60006119dd602083611423565b91506119e8826119a7565b602082019050919050565b60006020820190508181036000830152611a0c816119d0565b9050919050565b7f45524332303a2064656372656173656420616c6c6f77616e63652062656c6f7760008201527f207a65726f000000000000000000000000000000000000000000000000000000602082015250565b6000611a6f602583611423565b9150611a7a82611a13565b604082019050919050565b60006020820190508181036000830152611a9e81611a62565b9050919050565b7f45524332305065726d69743a206578706972656420646561646c696e65000000600082015250565b6000611adb601d83611423565b9150611ae682611aa5565b602082019050919050565b60006020820190508181036000830152611b0a81611ace565b9050919050565b600060c082019050611b266000830189611697565b611b3360208301886116ee565b611b4060408301876116ee565b611b4d60608301866115d9565b611b5a60808301856115d9565b611b6760a08301846115d9565b979650505050505050565b7f45524332305065726d69743a20696e76616c6964207369676e61747572650000600082015250565b6000611ba8601e83611423565b9150611bb382611b72565b602082019050919050565b60006020820190508181036000830152611bd781611b9b565b9050919050565b7f45524332303a20617070726f76652066726f6d20746865207a65726f2061646460008201527f7265737300000000000000000000000000000000000000000000000000000000602082015250565b6000611c3a602483611423565b9150611c4582611bde565b604082019050919050565b60006020820190508181036000830152611c6981611c2d565b9050919050565b7f45524332303a20617070726f766520746f20746865207a65726f20616464726560008201527f7373000000000000000000000000000000000000000000000000000000000000602082015250565b6000611ccc602283611423565b9150611cd782611c70565b604082019050919050565b60006020820190508181036000830152611cfb81611cbf565b9050919050565b7f45524332303a20696e73756666696369656e7420616c6c6f77616e6365000000600082015250565b6000611d38601d83611423565b9150611d4382611d02565b602082019050919050565b60006020820190508181036000830152611d6781611d2b565b9050919050565b7f45524332303a207472616e736665722066726f6d20746865207a65726f20616460008201527f6472657373000000000000000000000000000000000000000000000000000000602082015250565b6000611dca602583611423565b9150611dd582611d6e565b604082019050919050565b60006020820190508181036000830152611df981611dbd565b9050919050565b7f45524332303a207472616e7366657220746f20746865207a65726f206164647260008201527f6573730000000000000000000000000000000000000000000000000000000000602082015250565b6000611e5c602383611423565b9150611e6782611e00565b604082019050919050565b60006020820190508181036000830152611e8b81611e4f565b9050919050565b7f45524332303a207472616e7366657220616d6f756e742065786365656473206260008201527f616c616e63650000000000000000000000000000000000000000000000000000602082015250565b6000611eee602683611423565b9150611ef982611e92565b604082019050919050565b60006020820190508181036000830152611f1d81611ee1565b9050919050565b7f45524332303a206d696e7420746f20746865207a65726f206164647265737300600082015250565b6000611f5a601f83611423565b9150611f6582611f24565b602082019050919050565b60006020820190508181036000830152611f8981611f4d565b9050919050565b600060a082019050611fa56000830188611697565b611fb26020830187611697565b611fbf6040830186611697565b611fcc60608301856115d9565b611fd960808301846116ee565b9695505050505050565b600081905092915050565b7f1901000000000000000000000000000000000000000000000000000000000000600082015250565b6000612024600283611fe3565b915061202f82611fee565b600282019050919050565b6000819050919050565b6120556120508261168d565b61203a565b82525050565b600061206682612017565b91506120728285612044565b6020820191506120828284612044565b6020820191508190509392505050565b60006080820190506120a76000830187611697565b6120b46020830186611663565b6120c16040830185611697565b6120ce6060830184611697565b95945050505050565b7f4e487b7100000000000000000000000000000000000000000000000000000000600052602160045260246000fd5b7f45434453413a20696e76616c6964207369676e61747572650000000000000000600082015250565b600061213c601883611423565b915061214782612106565b602082019050919050565b6000602082019050818103600083015261216b8161212f565b9050919050565b7f45434453413a20696e76616c6964207369676e6174757265206c656e67746800600082015250565b60006121a8601f83611423565b91506121b382612172565b602082019050919050565b600060208201905081810360008301526121d78161219b565b9050919050565b7f45434453413a20696e76616c6964207369676e6174757265202773272076616c60008201527f7565000000000000000000000000000000000000000000000000000000000000602082015250565b600061223a602283611423565b9150612245826121de565b604082019050919050565b600060208201905081810360008301526122698161222d565b905091905056fea2646970667358221220fe68e505d65abaebf552547c84e4bd17fd0b172a0a0c606a6375b146db831cfa64736f6c63430008110033",
  "immutableReferences": {
    "3370": [
      {
        "length": 32,
        "start": 3749
      }
    ],
    "3372": [
      {
        "length": 32,
        "start": 3708
      }
    ],
    "3374": [
      {
        "length": 32,
        "start": 3622
      }
    ],
    "3376": [
      {
        "length": 32,
        "start": 3825
      }
    ],
    "3378": [
      {
        "length": 32,
        "start": 3858
      }
    ],
    "3380": [
      {
        "length": 32,
        "start": 3792
      }
    ],
    "22214": [
      {
        "length": 32,
        "start": 1352
      },
      {
        "length": 32,
        "start": 1534
      }
    ]
  },
  "source": "// SPDX-License-Identifier: MIT\npragma solidity ^0.8.17;\n\nimport \"@openzeppelin/contracts/token/ERC20/extensions/draft-ERC20Permit.sol\";\n\n/**\n * Reward token contract to be used by the dbxen protocol.\n * The entire amount is minted by the main dbxen contract \n * (DBXen.sol - which is the owner of this contract)\n * directly to an account when it claims rewards.\n */\ncontract DBXenERC20 is ERC20Permit {\n\n    /**\n     * The address of the DBXen.sol contract instance.\n     */\n    address public immutable owner;\n\n    /**\n     * Sets the owner address. \n     * Called from within the DBXen.sol constructor.\n     */\n    constructor() ERC20(\"DBXen Token on Polygon\", \"mDXN\")\n    ERC20Permit(\"DBXen Token on Polygon\") {\n        owner = msg.sender;\n    }\n\n    /**\n     * The total supply is naturally capped by the distribution algorithm \n     * implemented by the main dbxen contract, however an additional check \n     * that will never be triggered is added to reassure the reader.\n     * \n     * @param account the address of the reward token reciever\n     * @param amount wei to be minted\n     */\n    function mintReward(address account, uint256 amount) external {\n        require(msg.sender == owner, \"DBXen: caller is not DBXen contract.\");\n        require(super.totalSupply() < 5010000000000000000000000, \"DBXen: max supply already minted\");\n        _mint(account, amount);\n    }\n}\n",
  "sourcePath": "/Users/lbelyaev/dev/dbXenBurnerProject/contracts/DBXenERC20.sol",
  "compiler": {
    "name": "solc",
    "version": "0.8.17+commit.8df45f5f.Emscripten.clang"
  },
  "schemaVersion": "3.4.10",
  "updatedAt": "2023-04-01T06:49:10.263Z",
  "devdoc": {
    "kind": "dev",
    "methods": {
      "DOMAIN_SEPARATOR()": {
        "details": "See {IERC20Permit-DOMAIN_SEPARATOR}."
      },
      "allowance(address,address)": {
        "details": "See {IERC20-allowance}."
      },
      "approve(address,uint256)": {
        "details": "See {IERC20-approve}. NOTE: If `amount` is the maximum `uint256`, the allowance is not updated on `transferFrom`. This is semantically equivalent to an infinite approval. Requirements: - `spender` cannot be the zero address."
      },
      "balanceOf(address)": {
        "details": "See {IERC20-balanceOf}."
      },
      "decimals()": {
        "details": "Returns the number of decimals used to get its user representation. For example, if `decimals` equals `2`, a balance of `505` tokens should be displayed to a user as `5.05` (`505 / 10 ** 2`). Tokens usually opt for a value of 18, imitating the relationship between Ether and Wei. This is the value {ERC20} uses, unless this function is overridden; NOTE: This information is only used for _display_ purposes: it in no way affects any of the arithmetic of the contract, including {IERC20-balanceOf} and {IERC20-transfer}."
      },
      "decreaseAllowance(address,uint256)": {
        "details": "Atomically decreases the allowance granted to `spender` by the caller. This is an alternative to {approve} that can be used as a mitigation for problems described in {IERC20-approve}. Emits an {Approval} event indicating the updated allowance. Requirements: - `spender` cannot be the zero address. - `spender` must have allowance for the caller of at least `subtractedValue`."
      },
      "increaseAllowance(address,uint256)": {
        "details": "Atomically increases the allowance granted to `spender` by the caller. This is an alternative to {approve} that can be used as a mitigation for problems described in {IERC20-approve}. Emits an {Approval} event indicating the updated allowance. Requirements: - `spender` cannot be the zero address."
      },
      "mintReward(address,uint256)": {
        "params": {
          "account": "the address of the reward token reciever",
          "amount": "wei to be minted"
        }
      },
      "name()": {
        "details": "Returns the name of the token."
      },
      "nonces(address)": {
        "details": "See {IERC20Permit-nonces}."
      },
      "permit(address,address,uint256,uint256,uint8,bytes32,bytes32)": {
        "details": "See {IERC20Permit-permit}."
      },
      "symbol()": {
        "details": "Returns the symbol of the token, usually a shorter version of the name."
      },
      "totalSupply()": {
        "details": "See {IERC20-totalSupply}."
      },
      "transfer(address,uint256)": {
        "details": "See {IERC20-transfer}. Requirements: - `to` cannot be the zero address. - the caller must have a balance of at least `amount`."
      },
      "transferFrom(address,address,uint256)": {
        "details": "See {IERC20-transferFrom}. Emits an {Approval} event indicating the updated allowance. This is not required by the EIP. See the note at the beginning of {ERC20}. NOTE: Does not update the allowance if the current allowance is the maximum `uint256`. Requirements: - `from` and `to` cannot be the zero address. - `from` must have a balance of at least `amount`. - the caller must have allowance for ``from``'s tokens of at least `amount`."
      }
    },
    "version": 1
  },
  "userdoc": {
    "kind": "user",
    "methods": {
      "constructor": {
        "notice": "Sets the owner address.  Called from within the DBXen.sol constructor."
      },
      "mintReward(address,uint256)": {
        "notice": "The total supply is naturally capped by the distribution algorithm  implemented by the main dbxen contract, however an additional check  that will never be triggered is added to reassure the reader. "
      },
      "owner()": {
        "notice": "The address of the DBXen.sol contract instance."
      }
    },
    "notice": "Reward token contract to be used by the dbxen protocol. The entire amount is minted by the main dbxen contract  (DBXen.sol - which is the owner of this contract) directly to an account when it claims rewards.",
    "version": 1
  }
}