{
  "contractName": "Fenix",
  "abi": [
    {
      "inputs": [],
      "stateMutability": "nonpayable",
      "type": "constructor"
    },
    {
      "inputs": [],
      "name": "AddressZero",
      "type": "error"
    },
    {
      "inputs": [],
      "name": "BalanceZero",
      "type": "error"
    },
    {
      "inputs": [],
      "name": "CooldownActive",
      "type": "error"
    },
    {
      "inputs": [
        {
          "internalType": "uint256",
          "name": "x",
          "type": "uint256"
        },
        {
          "internalType": "uint256",
          "name": "y",
          "type": "uint256"
        }
      ],
      "name": "PRBMath_MulDiv18_Overflow",
      "type": "error"
    },
    {
      "inputs": [
        {
          "internalType": "uint256",
          "name": "x",
          "type": "uint256"
        },
        {
          "internalType": "uint256",
          "name": "y",
          "type": "uint256"
        },
        {
          "internalType": "uint256",
          "name": "denominator",
          "type": "uint256"
        }
      ],
      "name": "PRBMath_MulDiv_Overflow",
      "type": "error"
    },
    {
      "inputs": [
        {
          "internalType": "uint256",
          "name": "x",
          "type": "uint256"
        }
      ],
      "name": "PRBMath_UD60x18_Convert_Overflow",
      "type": "error"
    },
    {
      "inputs": [
        {
          "internalType": "UD60x18",
          "name": "x",
          "type": "uint256"
        }
      ],
      "name": "PRBMath_UD60x18_Exp2_InputTooBig",
      "type": "error"
    },
    {
      "inputs": [
        {
          "internalType": "UD60x18",
          "name": "x",
          "type": "uint256"
        }
      ],
      "name": "PRBMath_UD60x18_Log_InputTooSmall",
      "type": "error"
    },
    {
      "inputs": [],
      "name": "StakeLate",
      "type": "error"
    },
    {
      "inputs": [],
      "name": "StakeNotActive",
      "type": "error"
    },
    {
      "inputs": [],
      "name": "StakeNotEnded",
      "type": "error"
    },
    {
      "inputs": [
        {
          "internalType": "enum Status",
          "name": "status",
          "type": "uint8"
        }
      ],
      "name": "StakeStatusAlreadySet",
      "type": "error"
    },
    {
      "inputs": [],
      "name": "TermGreaterThanMax",
      "type": "error"
    },
    {
      "inputs": [],
      "name": "TermZero",
      "type": "error"
    },
    {
      "inputs": [
        {
          "internalType": "address",
          "name": "caller",
          "type": "address"
        }
      ],
      "name": "WrongCaller",
      "type": "error"
    },
    {
      "anonymous": false,
      "inputs": [
        {
          "indexed": true,
          "internalType": "address",
          "name": "owner",
          "type": "address"
        },
        {
          "indexed": true,
          "internalType": "address",
          "name": "spender",
          "type": "address"
        },
        {
          "indexed": false,
          "internalType": "uint256",
          "name": "value",
          "type": "uint256"
        }
      ],
      "name": "Approval",
      "type": "event"
    },
    {
      "anonymous": false,
      "inputs": [
        {
          "indexed": true,
          "internalType": "address",
          "name": "user",
          "type": "address"
        },
        {
          "indexed": true,
          "internalType": "address",
          "name": "xenContract",
          "type": "address"
        },
        {
          "indexed": true,
          "internalType": "address",
          "name": "tokenContract",
          "type": "address"
        },
        {
          "indexed": false,
          "internalType": "uint256",
          "name": "xenAmount",
          "type": "uint256"
        },
        {
          "indexed": false,
          "internalType": "uint256",
          "name": "tokenAmount",
          "type": "uint256"
        }
      ],
      "name": "Redeemed",
      "type": "event"
    },
    {
      "anonymous": false,
      "inputs": [
        {
          "indexed": true,
          "internalType": "address",
          "name": "from",
          "type": "address"
        },
        {
          "indexed": true,
          "internalType": "address",
          "name": "to",
          "type": "address"
        },
        {
          "indexed": false,
          "internalType": "uint256",
          "name": "value",
          "type": "uint256"
        }
      ],
      "name": "Transfer",
      "type": "event"
    },
    {
      "inputs": [],
      "name": "ANNUAL_INFLATION_RATE",
      "outputs": [
        {
          "internalType": "UD60x18",
          "name": "",
          "type": "uint256"
        }
      ],
      "stateMutability": "view",
      "type": "function",
      "constant": true
    },
    {
      "inputs": [],
      "name": "MAX_STAKE_LENGTH_DAYS",
      "outputs": [
        {
          "internalType": "uint256",
          "name": "",
          "type": "uint256"
        }
      ],
      "stateMutability": "view",
      "type": "function",
      "constant": true
    },
    {
      "inputs": [],
      "name": "XEN_ADDRESS",
      "outputs": [
        {
          "internalType": "address",
          "name": "",
          "type": "address"
        }
      ],
      "stateMutability": "view",
      "type": "function",
      "constant": true
    },
    {
      "inputs": [],
      "name": "XEN_BURN_RATIO",
      "outputs": [
        {
          "internalType": "uint256",
          "name": "",
          "type": "uint256"
        }
      ],
      "stateMutability": "view",
      "type": "function",
      "constant": true
    },
    {
      "inputs": [
        {
          "internalType": "address",
          "name": "owner",
          "type": "address"
        },
        {
          "internalType": "address",
          "name": "spender",
          "type": "address"
        }
      ],
      "name": "allowance",
      "outputs": [
        {
          "internalType": "uint256",
          "name": "",
          "type": "uint256"
        }
      ],
      "stateMutability": "view",
      "type": "function",
      "constant": true
    },
    {
      "inputs": [
        {
          "internalType": "address",
          "name": "spender",
          "type": "address"
        },
        {
          "internalType": "uint256",
          "name": "amount",
          "type": "uint256"
        }
      ],
      "name": "approve",
      "outputs": [
        {
          "internalType": "bool",
          "name": "",
          "type": "bool"
        }
      ],
      "stateMutability": "nonpayable",
      "type": "function"
    },
    {
      "inputs": [
        {
          "internalType": "address",
          "name": "account",
          "type": "address"
        }
      ],
      "name": "balanceOf",
      "outputs": [
        {
          "internalType": "uint256",
          "name": "",
          "type": "uint256"
        }
      ],
      "stateMutability": "view",
      "type": "function",
      "constant": true
    },
    {
      "inputs": [],
      "name": "cooldownUnlockTs",
      "outputs": [
        {
          "internalType": "uint256",
          "name": "",
          "type": "uint256"
        }
      ],
      "stateMutability": "view",
      "type": "function",
      "constant": true
    },
    {
      "inputs": [],
      "name": "decimals",
      "outputs": [
        {
          "internalType": "uint8",
          "name": "",
          "type": "uint8"
        }
      ],
      "stateMutability": "view",
      "type": "function",
      "constant": true
    },
    {
      "inputs": [
        {
          "internalType": "address",
          "name": "spender",
          "type": "address"
        },
        {
          "internalType": "uint256",
          "name": "subtractedValue",
          "type": "uint256"
        }
      ],
      "name": "decreaseAllowance",
      "outputs": [
        {
          "internalType": "bool",
          "name": "",
          "type": "bool"
        }
      ],
      "stateMutability": "nonpayable",
      "type": "function"
    },
    {
      "inputs": [],
      "name": "equityPoolSupply",
      "outputs": [
        {
          "internalType": "uint256",
          "name": "",
          "type": "uint256"
        }
      ],
      "stateMutability": "view",
      "type": "function",
      "constant": true
    },
    {
      "inputs": [],
      "name": "equityPoolTotalShares",
      "outputs": [
        {
          "internalType": "uint256",
          "name": "",
          "type": "uint256"
        }
      ],
      "stateMutability": "view",
      "type": "function",
      "constant": true
    },
    {
      "inputs": [],
      "name": "genesisTs",
      "outputs": [
        {
          "internalType": "uint40",
          "name": "",
          "type": "uint40"
        }
      ],
      "stateMutability": "view",
      "type": "function",
      "constant": true
    },
    {
      "inputs": [
        {
          "internalType": "address",
          "name": "spender",
          "type": "address"
        },
        {
          "internalType": "uint256",
          "name": "addedValue",
          "type": "uint256"
        }
      ],
      "name": "increaseAllowance",
      "outputs": [
        {
          "internalType": "bool",
          "name": "",
          "type": "bool"
        }
      ],
      "stateMutability": "nonpayable",
      "type": "function"
    },
    {
      "inputs": [],
      "name": "name",
      "outputs": [
        {
          "internalType": "string",
          "name": "",
          "type": "string"
        }
      ],
      "stateMutability": "view",
      "type": "function",
      "constant": true
    },
    {
      "inputs": [],
      "name": "rewardPoolSupply",
      "outputs": [
        {
          "internalType": "uint256",
          "name": "",
          "type": "uint256"
        }
      ],
      "stateMutability": "view",
      "type": "function",
      "constant": true
    },
    {
      "inputs": [],
      "name": "shareRate",
      "outputs": [
        {
          "internalType": "uint256",
          "name": "",
          "type": "uint256"
        }
      ],
      "stateMutability": "view",
      "type": "function",
      "constant": true
    },
    {
      "inputs": [],
      "name": "symbol",
      "outputs": [
        {
          "internalType": "string",
          "name": "",
          "type": "string"
        }
      ],
      "stateMutability": "view",
      "type": "function",
      "constant": true
    },
    {
      "inputs": [],
      "name": "totalSupply",
      "outputs": [
        {
          "internalType": "uint256",
          "name": "",
          "type": "uint256"
        }
      ],
      "stateMutability": "view",
      "type": "function",
      "constant": true
    },
    {
      "inputs": [
        {
          "internalType": "address",
          "name": "to",
          "type": "address"
        },
        {
          "internalType": "uint256",
          "name": "amount",
          "type": "uint256"
        }
      ],
      "name": "transfer",
      "outputs": [
        {
          "internalType": "bool",
          "name": "",
          "type": "bool"
        }
      ],
      "stateMutability": "nonpayable",
      "type": "function"
    },
    {
      "inputs": [
        {
          "internalType": "address",
          "name": "from",
          "type": "address"
        },
        {
          "internalType": "address",
          "name": "to",
          "type": "address"
        },
        {
          "internalType": "uint256",
          "name": "amount",
          "type": "uint256"
        }
      ],
      "name": "transferFrom",
      "outputs": [
        {
          "internalType": "bool",
          "name": "",
          "type": "bool"
        }
      ],
      "stateMutability": "nonpayable",
      "type": "function"
    },
    {
      "inputs": [
        {
          "internalType": "bytes4",
          "name": "interfaceId",
          "type": "bytes4"
        }
      ],
      "name": "supportsInterface",
      "outputs": [
        {
          "internalType": "bool",
          "name": "",
          "type": "bool"
        }
      ],
      "stateMutability": "view",
      "type": "function",
      "constant": true
    },
    {
      "inputs": [
        {
          "internalType": "address",
          "name": "user",
          "type": "address"
        },
        {
          "internalType": "uint256",
          "name": "amount",
          "type": "uint256"
        }
      ],
      "name": "onTokenBurned",
      "outputs": [],
      "stateMutability": "nonpayable",
      "type": "function"
    },
    {
      "inputs": [
        {
          "internalType": "uint256",
          "name": "xen",
          "type": "uint256"
        }
      ],
      "name": "burnXEN",
      "outputs": [],
      "stateMutability": "nonpayable",
      "type": "function"
    },
    {
      "inputs": [
        {
          "internalType": "uint256",
          "name": "fenix",
          "type": "uint256"
        },
        {
          "internalType": "uint256",
          "name": "term",
          "type": "uint256"
        }
      ],
      "name": "startStake",
      "outputs": [],
      "stateMutability": "nonpayable",
      "type": "function"
    },
    {
      "inputs": [
        {
          "internalType": "uint256",
          "name": "stakeIndex",
          "type": "uint256"
        },
        {
          "internalType": "address",
          "name": "stakerAddress",
          "type": "address"
        }
      ],
      "name": "deferStake",
      "outputs": [],
      "stateMutability": "nonpayable",
      "type": "function"
    },
    {
      "inputs": [
        {
          "internalType": "uint256",
          "name": "stakeIndex",
          "type": "uint256"
        }
      ],
      "name": "endStake",
      "outputs": [],
      "stateMutability": "nonpayable",
      "type": "function"
    },
    {
      "inputs": [
        {
          "internalType": "uint256",
          "name": "fenix",
          "type": "uint256"
        },
        {
          "internalType": "uint256",
          "name": "term",
          "type": "uint256"
        }
      ],
      "name": "calculateBonus",
      "outputs": [
        {
          "internalType": "uint256",
          "name": "",
          "type": "uint256"
        }
      ],
      "stateMutability": "pure",
      "type": "function",
      "constant": true
    },
    {
      "inputs": [
        {
          "internalType": "uint256",
          "name": "fenix",
          "type": "uint256"
        }
      ],
      "name": "calculateSizeBonus",
      "outputs": [
        {
          "internalType": "uint256",
          "name": "",
          "type": "uint256"
        }
      ],
      "stateMutability": "pure",
      "type": "function",
      "constant": true
    },
    {
      "inputs": [
        {
          "internalType": "uint256",
          "name": "term",
          "type": "uint256"
        }
      ],
      "name": "calculateTimeBonus",
      "outputs": [
        {
          "internalType": "uint256",
          "name": "",
          "type": "uint256"
        }
      ],
      "stateMutability": "pure",
      "type": "function",
      "constant": true
    },
    {
      "inputs": [
        {
          "internalType": "uint256",
          "name": "bonus",
          "type": "uint256"
        }
      ],
      "name": "calculateShares",
      "outputs": [
        {
          "internalType": "uint256",
          "name": "",
          "type": "uint256"
        }
      ],
      "stateMutability": "view",
      "type": "function",
      "constant": true
    },
    {
      "inputs": [
        {
          "components": [
            {
              "internalType": "enum Status",
              "name": "status",
              "type": "uint8"
            },
            {
              "internalType": "uint40",
              "name": "startTs",
              "type": "uint40"
            },
            {
              "internalType": "uint40",
              "name": "deferralTs",
              "type": "uint40"
            },
            {
              "internalType": "uint40",
              "name": "endTs",
              "type": "uint40"
            },
            {
              "internalType": "uint16",
              "name": "term",
              "type": "uint16"
            },
            {
              "internalType": "uint256",
              "name": "fenix",
              "type": "uint256"
            },
            {
              "internalType": "uint256",
              "name": "shares",
              "type": "uint256"
            },
            {
              "internalType": "uint256",
              "name": "payout",
              "type": "uint256"
            }
          ],
          "internalType": "struct Stake",
          "name": "stake",
          "type": "tuple"
        }
      ],
      "name": "calculateEarlyPayout",
      "outputs": [
        {
          "internalType": "uint256",
          "name": "",
          "type": "uint256"
        }
      ],
      "stateMutability": "view",
      "type": "function",
      "constant": true
    },
    {
      "inputs": [
        {
          "components": [
            {
              "internalType": "enum Status",
              "name": "status",
              "type": "uint8"
            },
            {
              "internalType": "uint40",
              "name": "startTs",
              "type": "uint40"
            },
            {
              "internalType": "uint40",
              "name": "deferralTs",
              "type": "uint40"
            },
            {
              "internalType": "uint40",
              "name": "endTs",
              "type": "uint40"
            },
            {
              "internalType": "uint16",
              "name": "term",
              "type": "uint16"
            },
            {
              "internalType": "uint256",
              "name": "fenix",
              "type": "uint256"
            },
            {
              "internalType": "uint256",
              "name": "shares",
              "type": "uint256"
            },
            {
              "internalType": "uint256",
              "name": "payout",
              "type": "uint256"
            }
          ],
          "internalType": "struct Stake",
          "name": "stake",
          "type": "tuple"
        }
      ],
      "name": "calculateLatePayout",
      "outputs": [
        {
          "internalType": "uint256",
          "name": "",
          "type": "uint256"
        }
      ],
      "stateMutability": "view",
      "type": "function",
      "constant": true
    },
    {
      "inputs": [],
      "name": "flushRewardPool",
      "outputs": [],
      "stateMutability": "nonpayable",
      "type": "function"
    },
    {
      "inputs": [
        {
          "internalType": "address",
          "name": "stakerAddress",
          "type": "address"
        },
        {
          "internalType": "uint256",
          "name": "stakeIndex",
          "type": "uint256"
        }
      ],
      "name": "stakeFor",
      "outputs": [
        {
          "components": [
            {
              "internalType": "enum Status",
              "name": "status",
              "type": "uint8"
            },
            {
              "internalType": "uint40",
              "name": "startTs",
              "type": "uint40"
            },
            {
              "internalType": "uint40",
              "name": "deferralTs",
              "type": "uint40"
            },
            {
              "internalType": "uint40",
              "name": "endTs",
              "type": "uint40"
            },
            {
              "internalType": "uint16",
              "name": "term",
              "type": "uint16"
            },
            {
              "internalType": "uint256",
              "name": "fenix",
              "type": "uint256"
            },
            {
              "internalType": "uint256",
              "name": "shares",
              "type": "uint256"
            },
            {
              "internalType": "uint256",
              "name": "payout",
              "type": "uint256"
            }
          ],
          "internalType": "struct Stake",
          "name": "",
          "type": "tuple"
        }
      ],
      "stateMutability": "view",
      "type": "function",
      "constant": true
    },
    {
      "inputs": [
        {
          "internalType": "address",
          "name": "stakerAddress",
          "type": "address"
        }
      ],
      "name": "stakeCount",
      "outputs": [
        {
          "internalType": "uint256",
          "name": "",
          "type": "uint256"
        }
      ],
      "stateMutability": "view",
      "type": "function",
      "constant": true
    },
    {
      "inputs": [
        {
          "internalType": "uint256",
          "name": "index",
          "type": "uint256"
        }
      ],
      "name": "rewardFor",
      "outputs": [
        {
          "components": [
            {
              "internalType": "uint40",
              "name": "id",
              "type": "uint40"
            },
            {
              "internalType": "uint40",
              "name": "rewardTs",
              "type": "uint40"
            },
            {
              "internalType": "uint256",
              "name": "fenix",
              "type": "uint256"
            },
            {
              "internalType": "address",
              "name": "caller",
              "type": "address"
            }
          ],
          "internalType": "struct Reward",
          "name": "",
          "type": "tuple"
        }
      ],
      "stateMutability": "view",
      "type": "function",
      "constant": true
    },
    {
      "inputs": [],
      "name": "rewardCount",
      "outputs": [
        {
          "internalType": "uint256",
          "name": "",
          "type": "uint256"
        }
      ],
      "stateMutability": "view",
      "type": "function",
      "constant": true
    }
  ],
  "bytecode": "0x60a060405260006006556000600755600060085560006009553480156200002557600080fd5b5060408051808201825260058082526408c8a9c92b60db1b60208084018290528451808601909552918452908301529060036200006383826200013f565b5060046200007282826200013f565b5050504264ffffffffff81166080526200009190621baf80906200020b565b60055562000233565b634e487b7160e01b600052604160045260246000fd5b600181811c90821680620000c557607f821691505b602082108103620000e657634e487b7160e01b600052602260045260246000fd5b50919050565b601f8211156200013a57600081815260208120601f850160051c81016020861015620001155750805b601f850160051c820191505b81811015620001365782815560010162000121565b5050505b505050565b81516001600160401b038111156200015b576200015b6200009a565b62000173816200016c8454620000b0565b84620000ec565b602080601f831160018114620001ab5760008415620001925750858301515b600019600386901b1c1916600185901b17855562000136565b600085815260208120601f198616915b82811015620001dc57888601518255948401946001909101908401620001bb565b5085821015620001fb5787850151600019600388901b60f8161c191681555b5050505050600190811b01905550565b808201808211156200022d57634e487b7160e01b600052601160045260246000fd5b92915050565b608051612fd76200024f600039600061052c0152612fd76000f3fe608060405234801561001057600080fd5b50600436106102325760003560e01c8063615a89a311610130578063a457c2d7116100b8578063dd62ed3e1161007c578063dd62ed3e14610501578063e1e48eb314610514578063e3af6d0a14610527578063e6c2cbb114610564578063fb802a651461057757600080fd5b8063a457c2d714610496578063a9059cbb146104a9578063ae94d2b5146104bc578063bc1d089a146104c5578063d8af78fc146104f857600080fd5b80637862affa116100ff5780637862affa1461040f57806379085425146104225780639159e8621461042a57806395d89b4114610433578063a1472b151461043b57600080fd5b8063615a89a3146103ad5780636630a05e146103c05780636f72fd20146103d357806370a08231146103e657600080fd5b806323b872dd116101be57806339509351116101825780633950935114610363578063397b3378146103765780633ec161941461037f578063543746b1146103925780635cdc12f8146103a557600080fd5b806323b872dd146102ef5780632ee40908146103025780633027e3c714610322578063313ce5671461032b57806333060d901461033a57600080fd5b80630da63e3f116102055780630da63e3f1461029c578063128bfcae146102b857806318160ddd146102cb5780631a6cef14146102d35780631c3fd167146102dc57600080fd5b806301ffc9a71461023757806306fdde031461025f578063095ea7b3146102745780630cbe28d614610287575b600080fd5b61024a610245366004612af7565b610580565b60405190151581526020015b60405180910390f35b6102676105b7565b6040516102569190612b21565b61024a610282366004612b8b565b610649565b61029a610295366004612bb5565b610661565b005b6102aa66397beef356e6c481565b604051908152602001610256565b61029a6102c6366004612bce565b6109af565b6002546102aa565b6102aa61271081565b61029a6102ea366004612bf0565b610c45565b61024a6102fd366004612c1c565b611039565b610315610310366004612b8b565b61105f565b6040516102569190612c90565b6102aa60085481565b60405160128152602001610256565b6102aa610348366004612d03565b6001600160a01b03166000908152600a602052604090205490565b61024a610371366004612b8b565b611174565b6102aa60065481565b6102aa61038d366004612bb5565b611196565b61029a6103a0366004612b8b565b6111c2565b61029a6112be565b6102aa6103bb366004612d54565b6114d2565b61029a6103ce366004612bb5565b6115af565b6102aa6103e1366004612bce565b61162d565b6102aa6103f4366004612d03565b6001600160a01b031660009081526020819052604090205490565b6102aa61041d366004612bb5565b611676565b600b546102aa565b6102aa611df181565b6102676116bc565b61044e610449366004612bb5565b6116cb565b6040516102569190815164ffffffffff908116825260208084015190911690820152604080830151908201526060918201516001600160a01b03169181019190915260800190565b61024a6104a4366004612b8b565b611761565b61024a6104b7366004612b8b565b6117e7565b6102aa60055481565b6104e073d342d63466b520d8d331caff863900d402aa5b0081565b6040516001600160a01b039091168152602001610256565b6102aa60095481565b6102aa61050f366004612e15565b6117f5565b6102aa610522366004612bb5565b611820565b61054e7f000000000000000000000000000000000000000000000000000000000000000081565b60405164ffffffffff9091168152602001610256565b6102aa610572366004612d54565b61185e565b6102aa60075481565b60006001600160e01b0319821663543746b160e01b14806105b157506001600160e01b031982166301ffc9a760e01b145b92915050565b6060600380546105c690612e3f565b80601f01602080910402602001604051908101604052809291908181526020018280546105f290612e3f565b801561063f5780601f106106145761010080835404028352916020019161063f565b820191906000526020600020905b81548152906001019060200180831161062257829003601f168201915b5050505050905090565b60003361065781858561192e565b5060019392505050565b61066b8133610c45565b336000908152600a6020526040812080548390811061068c5761068c612e79565b600091825260209091206040805161010081019091526004909202018054829060ff1660028111156106c0576106c0612c58565b60028111156106d1576106d1612c58565b8152815464ffffffffff610100820481166020840152600160301b820481166040840152600160581b820416606083015261ffff600160801b909104166080820152600182015460a082015260028083015460c083015260039092015460e0909101529091508151600281111561074a5761074a612c58565b0361077457600260405163e04981d960e01b815260040161076b9190612e8f565b60405180910390fd5b610782338260e00151611a53565b60006107a46107a16107958460a0015190565b60e08501515b90611b12565b90565b90506007548111156107e157600781905560405181907f371aff3c55ca45101819dbd6486bc608c1fe30cd77bd8ffef45a5429b024576090600090a25b6040805161010081019091526000908060028152602001846020015164ffffffffff168152602001846040015164ffffffffff168152602001846060015164ffffffffff168152602001846080015161ffff1681526020018460a0015181526020018460c0015181526020018460e00151815250905080600a60006108633390565b6001600160a01b03166001600160a01b03168152602001908152602001600020858154811061089457610894612e79565b6000918252602090912082516004909202018054909190829060ff191660018360028111156108c5576108c5612c58565b0217905550602082015181546040808501516060860151608087015161ffff16600160801b0261ffff60801b1964ffffffffff928316600160581b021666ffffffffffffff60581b19938316600160301b0264ffffffffff60301b199390971661010002929092166affffffffffffffffffff00199095169490941794909417169290921717825560a0830151600183015560c0830151600283015560e09092015160039091015551610979908290612e9d565b604051908190038120907fd862f5fdbfa9636a4c1666d8348a7ae982c2350cc4c2894d901687f57c59c75b90600090a250505050565b816000036109d05760405163836fd8a760e01b815260040160405180910390fd5b806000036109f15760405163b38ff31360e01b815260040160405180910390fd5b426000610a016201518084612f2c565b610a0b9042612f43565b90506000610a19858561162d565b90506000610a2682611196565b90506000610a3661016d8761079b565b90506000610a6b6107a1610a6384610a5d670de0b6b3a764000066397beef356e6c4611b2a565b90611b39565b8a5b90611c4b565b90506000610a7c6107a18386610a65565b90508160086000828254610a909190612f43565b925050819055508060096000828254610aa99190612f43565b90915550506040805161010081018252600080825264ffffffffff8a8116602080850191909152838501839052908a16606084015261ffff8c16608084015260a083018d905260c0830185905260e08301829052338252600a815292812080546001808201835591835293909120825160049094020180549293849391929091839160ff1990911690836002811115610b4457610b44612c58565b02179055506020820151815460408401516060850151608086015161ffff16600160801b0261ffff60801b1964ffffffffff928316600160581b021666ffffffffffffff60581b19938316600160301b0264ffffffffff60301b199390961661010002929092166affffffffffffffffffff00199094169390931793909317169190911717815560a0820151600182015560c0820151600282015560e090910151600390910155610bfb610bf53390565b8b611c5a565b80604051610c099190612e9d565b604051908190038120907f49735babbf75685a1d5f3d305826f3c9df6d8cc12b0f9de5867f95675ac38c3a90600090a250505050505050505050565b6001600160a01b0381166000908152600a60205260409020548210610c7d5760405163586ea33760e11b815260040160405180910390fd5b6001600160a01b0381166000908152600a60205260408120805484908110610ca757610ca7612e79565b600091825260209091206040805161010081019091526004909202018054829060ff166002811115610cdb57610cdb612c58565b6002811115610cec57610cec612c58565b8152815464ffffffffff610100820481166020840152600160301b820481166040840152600160581b820416606083015261ffff600160801b909104166080820152600182015460a0820152600282015460c082015260039091015460e0909101529050600081516002811115610d6557610d65612c58565b14610d6f57505050565b806060015164ffffffffff1642108015610d925750336001600160a01b03831614155b15610dbe57335b6040516329507dbf60e01b81526001600160a01b03909116600482015260240161076b565b6000816060015164ffffffffff16421115610de657610ddf6107a18361185e565b9050610df5565b610df26107a1836114d2565b90505b6000610e0d610e0360095490565b60c085015161079b565b90506000610e1b8284611c4b565b90506000610e2f6107a183610a6560085490565b9050600060405180610100016040528060016002811115610e5257610e52612c58565b8152602001876020015164ffffffffff1681526020014264ffffffffff168152602001876060015164ffffffffff168152602001876080015161ffff1681526020018760a0015181526020018760c00151815260200183815250905080600a6000896001600160a01b03166001600160a01b031681526020019081526020016000208981548110610ee557610ee5612e79565b6000918252602090912082516004909202018054909190829060ff19166001836002811115610f1657610f16612c58565b02179055506020820151815460408401516060850151608086015161ffff16600160801b0261ffff60801b1964ffffffffff928316600160581b021666ffffffffffffff60581b19938316600160301b0264ffffffffff60301b199390961661010002929092166affffffffffffffffffff00199094169390931793909317169190911717815560a0820151600182015560c080830151600283015560e09092015160039091015586015160098054600090610fd3908490612f56565b925050819055508160086000828254610fec9190612f56565b9091555050604051610fff908290612e9d565b604051908190038120907f9e6e56d0de3dd1d5b1ecba216b5e45e232e331aafcec0799fe0221b2b4e0ec6790600090a25050505050505050565b600033611047858285611d84565b611052858585611dfe565b60019150505b9392505050565b604080516101008101825260008082526020808301829052828401829052606083018290526080830182905260a0830182905260c0830182905260e083018290526001600160a01b0386168252600a9052919091208054839081106110c6576110c6612e79565b600091825260209091206040805161010081019091526004909202018054829060ff1660028111156110fa576110fa612c58565b600281111561110b5761110b612c58565b81528154610100810464ffffffffff9081166020840152600160301b820481166040840152600160581b8204166060830152600160801b900461ffff166080820152600182015460a0820152600282015460c082015260039091015460e0909101529392505050565b60003361065781858561118783836117f5565b6111919190612f43565b61192e565b60006007546000036111a6575090565b60006111ba6111b460075490565b8461079b565b905080611058565b3373d342d63466b520d8d331caff863900d402aa5b00146111e35733610d99565b6001600160a01b03821661120a57604051639fabe1c160e01b815260040160405180910390fd5b8060000361122b5760405163836fd8a760e01b815260040160405180910390fd5b600061123961271083612f7f565b9050806006600082825461124d9190612f43565b9091555061125d90508382611a53565b6040805183815260208101839052309173d342d63466b520d8d331caff863900d402aa5b00916001600160a01b038716917fda4c370e4f539b8e19d66144cad73d70fbf440a544e56ff38e28e38ed47801a8910160405180910390a4505050565b6005544210156112e15760405163aa9a98df60e01b815260040160405180910390fd5b60006277f880600554426112f59190612f56565b6112ff9190612f7f565b9050600654600860008282546113159190612f43565b9091555061132890506277f88082612f2c565b611335906277f880612f43565b600560008282546113469190612f43565b9250508190555060006040518060800160405280600b8054905064ffffffffff1681526020014264ffffffffff16815260200160065481526020016113883390565b6001600160a01b0390811690915260006006819055600b8054600181018255915282517f0175b7a638427703f0dbe7bb9bbf987a2551717b34e79f33b5b1008d1fa01db9600390920291820180546020808701805164ffffffffff95861669ffffffffffffffffffff199094168417650100000000009187169190910217909355604080880180517f0175b7a638427703f0dbe7bb9bbf987a2551717b34e79f33b5b1008d1fa01dba8801556060808a0180517f0175b7a638427703f0dbe7bb9bbf987a2551717b34e79f33b5b1008d1fa01dbb90990180546001600160a01b031916998b16999099179098558251948552945190951691830191909152925192810192909252915190921690820152909150608001604051908190038120907f4d21482c1d529d00b9e27bc6452492f43bb15630fbb706690945731858edae0f90600090a25050565b6000816020015164ffffffffff1642108061150057506000825160028111156114fd576114fd612c58565b14155b1561151e5760405163586ea33760e11b815260040160405180910390fd5b816060015164ffffffffff1642111561154a576040516371d921f160e11b815260040160405180910390fd5b6000826020015164ffffffffff16426115639190612f56565b9050600062015180846080015161ffff1661157e9190612f2c565b905060006115a2600261159c61159385611fa2565b61079b87611fa2565b90611fe9565b9050805b95945050505050565b73d342d63466b520d8d331caff863900d402aa5b00639dc29fac336040516001600160e01b031960e084901b1681526001600160a01b03909116600482015260248101849052604401600060405180830381600087803b15801561161257600080fd5b505af1158015611626573d6000803e3d6000fd5b5050505050565b60008061163c6107a185611820565b9050600061164c6107a185611676565b9050600061166c6116656725b946ebc0b3617384611b39565b8490611c4b565b9695505050505050565b6000611df182111561169b5760405163e44ae5b560e01b815260040160405180910390fd5b60006111ba6116ad611df15b8561079b565b670de0b6b3a764000090611b2a565b6060600480546105c690612e3f565b604080516080810182526000808252602082018190529181018290526060810191909152600b828154811061170257611702612e79565b6000918252602091829020604080516080810182526003909302909101805464ffffffffff80821685526501000000000090910416938301939093526001830154908201526002909101546001600160a01b0316606082015292915050565b6000338161176f82866117f5565b9050838110156117cf5760405162461bcd60e51b815260206004820152602560248201527f45524332303a2064656372656173656420616c6c6f77616e63652062656c6f77604482015264207a65726f60d81b606482015260840161076b565b6117dc828686840361192e565b506001949350505050565b600033610657818585611dfe565b6001600160a01b03918216600090815260016020908152604080832093909416825291909152205490565b600061183382670de0b6b3a76400001190565b1561184057506000919050565b6105b16107a161184f84612049565b670de0b6b3a764000090612070565b6000816020015164ffffffffff1642108061188c575060008251600281111561188957611889612c58565b14155b156118aa5760405163586ea33760e11b815260040160405180910390fd5b816060015164ffffffffff164210156118d657604051630f3f8ebf60e01b815260040160405180910390fd5b6000826060015164ffffffffff16426118ef9190612f56565b905062ed4e008111156119055750600092915050565b6000611918600361159c62ed4e006116a7565b905060006115a2670de0b6b3a764000083612070565b6001600160a01b0383166119905760405162461bcd60e51b8152602060048201526024808201527f45524332303a20617070726f76652066726f6d20746865207a65726f206164646044820152637265737360e01b606482015260840161076b565b6001600160a01b0382166119f15760405162461bcd60e51b815260206004820152602260248201527f45524332303a20617070726f766520746f20746865207a65726f206164647265604482015261737360f01b606482015260840161076b565b6001600160a01b0383811660008181526001602090815260408083209487168084529482529182902085905590518481527f8c5be1e5ebec7d5bd14f71427d1e84f3dd0314c0f7b2291e5b200ac8c7c3b92591015b60405180910390a3505050565b6001600160a01b038216611aa95760405162461bcd60e51b815260206004820152601f60248201527f45524332303a206d696e7420746f20746865207a65726f206164647265737300604482015260640161076b565b8060026000828254611abb9190612f43565b90915550506001600160a01b038216600081815260208181526040808320805486019055518481527fddf252ad1be2c89b69c2b068fc378daa952ba7f163c4a11628f55a4df523b3ef910160405180910390a35050565b60006110586107a184670de0b6b3a76400008561207f565b60006110586107a18385612f43565b60008282818303611b64578015611b51576000611b5b565b670de0b6b3a76400005b925050506105b1565b670de0b6b3a76400008203611b8557670de0b6b3a7640000925050506105b1565b80600003611b9f57670de0b6b3a7640000925050506105b1565b670de0b6b3a76400008103611bb85784925050506105b1565b670de0b6b3a7640000821115611be957611be2611bdd611bd787612153565b86611c4b565b612286565b9250611c43565b6000611c076107a1846ec097ce7bc90715b34b9f1000000000612f7f565b90506000611c20611bdd611c1a84612153565b88611c4b565b9050611c3e6107a1826ec097ce7bc90715b34b9f1000000000612f7f565b945050505b505092915050565b60006110586107a184846122e4565b6001600160a01b038216611cba5760405162461bcd60e51b815260206004820152602160248201527f45524332303a206275726e2066726f6d20746865207a65726f206164647265736044820152607360f81b606482015260840161076b565b6001600160a01b03821660009081526020819052604090205481811015611d2e5760405162461bcd60e51b815260206004820152602260248201527f45524332303a206275726e20616d6f756e7420657863656564732062616c616e604482015261636560f01b606482015260840161076b565b6001600160a01b0383166000818152602081815260408083208686039055600280548790039055518581529192917fddf252ad1be2c89b69c2b068fc378daa952ba7f163c4a11628f55a4df523b3ef9101611a46565b6000611d9084846117f5565b90506000198114611df85781811015611deb5760405162461bcd60e51b815260206004820152601d60248201527f45524332303a20696e73756666696369656e7420616c6c6f77616e6365000000604482015260640161076b565b611df8848484840361192e565b50505050565b6001600160a01b038316611e625760405162461bcd60e51b815260206004820152602560248201527f45524332303a207472616e736665722066726f6d20746865207a65726f206164604482015264647265737360d81b606482015260840161076b565b6001600160a01b038216611ec45760405162461bcd60e51b815260206004820152602360248201527f45524332303a207472616e7366657220746f20746865207a65726f206164647260448201526265737360e81b606482015260840161076b565b6001600160a01b03831660009081526020819052604090205481811015611f3c5760405162461bcd60e51b815260206004820152602660248201527f45524332303a207472616e7366657220616d6f756e7420657863656564732062604482015265616c616e636560d01b606482015260840161076b565b6001600160a01b03848116600081815260208181526040808320878703905593871680835291849020805487019055925185815290927fddf252ad1be2c89b69c2b068fc378daa952ba7f163c4a11628f55a4df523b3ef910160405180910390a3611df8565b6000611fb8670de0b6b3a7640000600019612f7f565b821115611fdb57604051631cd951a760e01b81526004810183905260240161076b565b50670de0b6b3a76400000290565b600082816001841661200357670de0b6b3a7640000612005565b815b9050600184901c93505b83156120435761201f82836122e4565b915060018416156120375761203481836122e4565b90505b600184901c935061200f565b806115a6565b60006105b1826ec097ce7bc90715b34b9f10000000008161206c5761206c612f69565b0490565b60006110586107a18385612f56565b60008080600019858709858702925082811083820303915050806000036120b9578382816120af576120af612f69565b0492505050611058565b8381106120ea57604051630c740aef60e31b815260048101879052602481018690526044810185905260640161076b565b60008486880960026001871981018816978890046003810283188082028403028082028403028082028403028082028403028082028403029081029092039091026000889003889004909101858311909403939093029303949094049190911702949350505050565b600081670de0b6b3a76400008110156121825760405163036d32ef60e41b81526004810184905260240161076b565b600061220e670de0b6b3a7640000830460016fffffffffffffffffffffffffffffffff821160071b91821c67ffffffffffffffff811160061b90811c63ffffffff811160051b90811c61ffff811160041b90811c60ff8111600390811b91821c600f811160021b90811c918211871b91821c969096119490961792909217171791909117919091171790565b9050670de0b6b3a7640000810282821c670de0b6b3a763ffff1981016122375750949350505050565b671bc16d674ec800006706f05b59d3b200005b801561227a57670de0b6b3a7640000838002049250818310612272579283019260019290921c915b60011c61224a565b50919695505050505050565b600081680a688906bd8affffff8111156122b65760405163b3b6ba1f60e01b81526004810184905260240161076b565b60006122ce670de0b6b3a7640000604084901b612f7f565b90506122dc6107a18261239a565b949350505050565b60008080600019848609848602925082811083820303915050806000036123185750670de0b6b3a7640000900490506105b1565b670de0b6b3a7640000811061234a57604051635173648d60e01b8152600481018690526024810185905260440161076b565b6000670de0b6b3a764000085870962040000818503049310909103600160ee1b02919091177faccb18165bd6fe31ae1cf318dc5b51eee0e1ba569b88cd74c1773b91fac106690291505092915050565b600160bf1b67ff000000000000008216156124a7576780000000000000008216156123ce5768016a09e667f3bcc9090260401c5b6740000000000000008216156123ed576801306fe0a31b7152df0260401c5b67200000000000000082161561240c576801172b83c7d517adce0260401c5b67100000000000000082161561242b5768010b5586cf9890f62a0260401c5b67080000000000000082161561244a576801059b0d31585743ae0260401c5b67040000000000000082161561246957680102c9a3e778060ee70260401c5b6702000000000000008216156124885768010163da9fb33356d80260401c5b6701000000000000008216156124a757680100b1afa5abcbed610260401c5b66ff0000000000008216156125a35766800000000000008216156124d45768010058c86da1c09ea20260401c5b66400000000000008216156124f2576801002c605e2e8cec500260401c5b662000000000000082161561251057680100162f3904051fa10260401c5b661000000000000082161561252e576801000b175effdc76ba0260401c5b660800000000000082161561254c57680100058ba01fb9f96d0260401c5b660400000000000082161561256a5768010002c5cc37da94920260401c5b6602000000000000821615612588576801000162e525ee05470260401c5b600160301b8216156125a35768010000b17255775c040260401c5b65ff000000000082161561269957658000000000008216156125ce576801000058b91b5bc9ae0260401c5b654000000000008216156125eb57680100002c5c89d5ec6d0260401c5b652000000000008216156126085768010000162e43f4f8310260401c5b6510000000000082161561262557680100000b1721bcfc9a0260401c5b650800000000008216156126425768010000058b90cf1e6e0260401c5b6504000000000082161561265f576801000002c5c863b73f0260401c5b6502000000000082161561267c57680100000162e430e5a20260401c5b65010000000000821615612699576801000000b1721835510260401c5b64ff00000000821615612786576480000000008216156126c257680100000058b90c0b490260401c5b6440000000008216156126de5768010000002c5c8601cc0260401c5b6420000000008216156126fa576801000000162e42fff00260401c5b6410000000008216156127165768010000000b17217fbb0260401c5b640800000000821615612732576801000000058b90bfce0260401c5b64040000000082161561274e57680100000002c5c85fe30260401c5b64020000000082161561276a5768010000000162e42ff10260401c5b64010000000082161561278657680100000000b17217f80260401c5b63ff00000082161561286a5763800000008216156127ad5768010000000058b90bfc0260401c5b63400000008216156127c8576801000000002c5c85fe0260401c5b63200000008216156127e357680100000000162e42ff0260401c5b63100000008216156127fe576801000000000b17217f0260401c5b630800000082161561281957680100000000058b90c00260401c5b63040000008216156128345768010000000002c5c8600260401c5b630200000082161561284f576801000000000162e4300260401c5b630100000082161561286a5768010000000000b172180260401c5b62ff0000821615612945576280000082161561288f576801000000000058b90c0260401c5b624000008216156128a957680100000000002c5c860260401c5b622000008216156128c35768010000000000162e430260401c5b621000008216156128dd57680100000000000b17210260401c5b620800008216156128f75768010000000000058b910260401c5b62040000821615612911576801000000000002c5c80260401c5b6202000082161561292b57680100000000000162e40260401c5b62010000821615612945576801000000000000b1720260401c5b61ff00821615612a175761800082161561296857680100000000000058b90260401c5b6140008216156129815768010000000000002c5d0260401c5b61200082161561299a576801000000000000162e0260401c5b6110008216156129b35768010000000000000b170260401c5b6108008216156129cc576801000000000000058c0260401c5b6104008216156129e557680100000000000002c60260401c5b6102008216156129fe57680100000000000001630260401c5b610100821615612a1757680100000000000000b10260401c5b60ff821615612ae0576080821615612a3857680100000000000000590260401c5b6040821615612a50576801000000000000002c0260401c5b6020821615612a6857680100000000000000160260401c5b6010821615612a80576801000000000000000b0260401c5b6008821615612a9857680100000000000000060260401c5b6004821615612ab057680100000000000000030260401c5b6002821615612ac857680100000000000000010260401c5b6001821615612ae057680100000000000000010260401c5b670de0b6b3a76400000260409190911c60bf031c90565b600060208284031215612b0957600080fd5b81356001600160e01b03198116811461105857600080fd5b600060208083528351808285015260005b81811015612b4e57858101830151858201604001528201612b32565b506000604082860101526040601f19601f8301168501019250505092915050565b80356001600160a01b0381168114612b8657600080fd5b919050565b60008060408385031215612b9e57600080fd5b612ba783612b6f565b946020939093013593505050565b600060208284031215612bc757600080fd5b5035919050565b60008060408385031215612be157600080fd5b50508035926020909101359150565b60008060408385031215612c0357600080fd5b82359150612c1360208401612b6f565b90509250929050565b600080600060608486031215612c3157600080fd5b612c3a84612b6f565b9250612c4860208501612b6f565b9150604084013590509250925092565b634e487b7160e01b600052602160045260246000fd5b60038110612c8c57634e487b7160e01b600052602160045260246000fd5b9052565b600061010082019050612ca4828451612c6e565b602083015164ffffffffff8082166020850152806040860151166040850152806060860151166060850152505061ffff608084015116608083015260a083015160a083015260c083015160c083015260e083015160e083015292915050565b600060208284031215612d1557600080fd5b61105882612b6f565b803560038110612b8657600080fd5b803564ffffffffff81168114612b8657600080fd5b803561ffff81168114612b8657600080fd5b6000610100808385031215612d6857600080fd5b6040519081019067ffffffffffffffff82118183101715612d9957634e487b7160e01b600052604160045260246000fd5b81604052612da684612d1e565b8152612db460208501612d2d565b6020820152612dc560408501612d2d565b6040820152612dd660608501612d2d565b6060820152612de760808501612d42565b608082015260a084013560a082015260c084013560c082015260e084013560e0820152809250505092915050565b60008060408385031215612e2857600080fd5b612e3183612b6f565b9150612c1360208401612b6f565b600181811c90821680612e5357607f821691505b602082108103612e7357634e487b7160e01b600052602260045260246000fd5b50919050565b634e487b7160e01b600052603260045260246000fd5b602081016105b18284612c6e565b612ea8818351612c6e565b600064ffffffffff8060208501511660208401528060408501511660408401528060608501511660608401525061ffff608084015116608083015260a083015160a083015260c083015160c0830152612f0b60e0830160e0850151815260200190565b505061010001919050565b634e487b7160e01b600052601160045260246000fd5b80820281158282048414176105b1576105b1612f16565b808201808211156105b1576105b1612f16565b818103818111156105b1576105b1612f16565b634e487b7160e01b600052601260045260246000fd5b600082612f9c57634e487b7160e01b600052601260045260246000fd5b50049056fea2646970667358221220eedb6580bab31756c6a52870256b72ee610e37843fc417d8dabb731ddc6577df64736f6c63430008130033",
  "immutableReferences": {
    "7770": [
      {
        "length": 32,
        "start": 1324
      }
    ]
  },
  "source": "// SPDX-License-Identifier: UNLICENSED\npragma solidity ^0.8.17;\n\n/***********************************************************************************************************************\n        ..:^~!?YPB&&@@@@@@@@@@@@@@@@@@@@@@@@@@@@@@@@@@@@@@@@@@@@@@@@@@@@@@@@@@@@@@@@@@@@@@@@@@@@@@@@@@@@@@@@@@@@@@@@@@@@\n7                   .:~JP#@@@@@@@@@@@@@@@@@@@@@@@@@@@@@@@@@@@@@@@@@@@@@@@@@@@@@@@@@@@@@@@@@@@@@@@@@@@@@@@@@@@@@@@@@@@@@@\n&            !:            :7G@@@@@@@@@@@@@@@@@@@@@@@@@@@@@@@@@@@@@@@@@@@@@@@@@@@@@@@@@@@@@@@@@@@@@@@@@@@@@@@@@@@@@@@@@@\n@G           J@@#GY7~^..       ^P@@@@@@@@@@@@@Y!YYYYJG@@@@@@@77YYYJP@@@@@@@@&!&@@@@@@@@JP@@@@@@@@7#@@@@@@@G7&@@@@@@@G!&@\n@@J           7@@@@@@@@@@&GJ^     ?@@@@@@@@@@@^J@@@@@@@@@@@@@.P@@@@@@@@@@@@@& ~?&@@@@@@~J@@@@@@@@.G@@@@@@@@#!?@@@@#!?&@@\n@@@J        ~P#@@@@@@@@@@@@@@&!     B@@@@@@@@@~J@@@@@@@@@@@@@:P@@@@@@@@@@@@@&.@B~Y@@@@@~J@@@@@@@@:G@@@@@@@@@@G~P&?!&@@@@\n@@@@G    ~G@@@@@@@@@@@@@@@@@@@@Y     G@@@@@@@@~^YYYP@@@@@@@@@:~YYYG@@@@@@@@@&.@@@P~P@@@~J@@@@@@@@:G@@@@@@@@@@@&. !@@@@@@\n@@@@@&^^&@@@@@@@@@@@@@@@@@@@@@@@:     @@@@@@@@~Y@@@@@@@@@@@@@:G@@@@@@@@@@@@@&.@@@@@Y~B@!J@@@@@@@@:G@@@@@@@@@@Y~B@Y~B@@@@\n@@@@@@@@@@@@@@@@@@@@@@@@@&5!^^!P~     G@@@@@@@~J@@@@@@@@@@@@@:G@@@@@@@@@@@@@&.@@@@@@&?7.J@@@@@@@@.G@@@@@@@@P~P@@@@&7!&@@\n@@@@@@@@@@@@@@@@@@@@@@@@Y             B@@@@@@@!5@@@@@@@@@@@@@^!5555Y#@@@@@@@&:@@@@@@@@&^Y@@@@@@@@^B@@@@@@&!J@@@@@@@@#!Y@\n@@@@@@@@@@@@@@@@@@@@@@@&             ~@@@@@@@@@@@@@@@@@@@@@@@@@&&&&&@@@@@@@@@@@@@@@@@@@@@@@@@@@@@@@@@@@@@@@@@@@@@@@@@@&@\n@@@@@@@@@@@@@@@@@@@@@@@@7           J@@@@@@@@@@@@@@@@@@@@@@@@@@@@@@@@@@@@@@@@@@@@@@@@@@@@@@@@@@@@@@@@@@@@@@@@@@@@@@@@@@@\n@@@@@@@@@@@@@@@@@@@@@@@@@#7.    .^Y&@@@@@@@@@@@@@@@@@@@@@@@@@@@@@@@@@@@@@@@@@@@@@@@@@@@@@@@@@@@@@@@@@@@@@@@@@@@@@@@@@@@@\n***********************************************************************************************************************/\n\nimport \"@prb/math/src/UD60x18.sol\";\nimport \"@openzeppelin/contracts/token/ERC20/ERC20.sol\";\nimport \"@openzeppelin/contracts/interfaces/IERC165.sol\";\nimport \"@faircrypto/xen-crypto/contracts/interfaces/IBurnableToken.sol\";\nimport \"@faircrypto/xen-crypto/contracts/interfaces/IBurnRedeemable.sol\";\n\nenum Status {\n    ACTIVE,\n    DEFER,\n    END\n}\n\nstruct Stake {\n    Status status;\n    uint40 startTs;\n    uint40 deferralTs;\n    uint40 endTs;\n    uint16 term;\n    uint256 fenix;\n    uint256 shares;\n    uint256 payout;\n}\n\nstruct Reward {\n    uint40 id;\n    uint40 rewardTs;\n    uint256 fenix;\n    address caller;\n}\n\n///----------------------------------------------------------------------------------------------------------------\n/// Events\n///----------------------------------------------------------------------------------------------------------------\nlibrary FenixEvent {\n    /// @notice Stake has been started\n    /// @dev Size and Time bonus have been calculated to burn FENIX in exchnge for equity to start stake\n    /// @param _stake the stake object\n    event StartStake(Stake indexed _stake);\n\n    /// @notice Stake has been deferred\n    /// @dev Remove the stake and it's equity from the pool\n    /// @param _stake the stake object\n    event DeferStake(Stake indexed _stake);\n\n    /// @notice Stake has been ended\n    /// @dev Remove the stake from the users stakes and mint the payout into the stakers wallet\n    /// @param _stake the stake object\n    event EndStake(Stake indexed _stake);\n\n    /// @notice Reward Pool has been flushed\n    /// @dev Flushed reward pool into staker pool\n    event FlushRewardPool(Reward indexed reward);\n\n    /// @notice Share rate has been updated\n    /// @dev Share rate has been updated\n    /// @param _shareRate the new share rate\n    event UpdateShareRate(uint256 indexed _shareRate);\n}\n\n///----------------------------------------------------------------------------------------------------------------\n/// Events\n///----------------------------------------------------------------------------------------------------------------\nlibrary FenixError {\n    error WrongCaller(address caller);\n    error AddressZero();\n    error BalanceZero();\n    error TermZero();\n    error TermGreaterThanMax();\n    error StakeNotActive();\n    error StakeNotEnded();\n    error StakeLate();\n    error CooldownActive();\n    error StakeStatusAlreadySet(Status status);\n}\n\n/// @title FENIX pays you to hold your own crypto\n/// @author Joe Blau <joe@atomize.xyz>\n/// @notice FENIX pays you to hold your own crypto\n/// @dev Fenix is an ERC20 token that pays you to hold your own crypto.\ncontract Fenix is IBurnRedeemable, IERC165, ERC20(\"FENIX\", \"FENIX\") {\n    ///----------------------------------------------------------------------------------------------------------------\n    /// Constants\n    ///----------------------------------------------------------------------------------------------------------------\n\n    address public constant XEN_ADDRESS = 0xD342D63466B520d8D331CaFF863900d402Aa5b00;\n\n    uint256 public constant XEN_BURN_RATIO = 10_000;\n\n    uint256 public constant MAX_STAKE_LENGTH_DAYS = 7_665; // 365 * 21 (21 years)\n\n    uint256 internal constant ONE_DAY_TS = 86_400; // (1 day)\n    uint256 internal constant ONE_EIGHTY_DAYS_TS = 15_552_000; // 86_400 * 180 (180 days)\n    uint256 internal constant REWARD_COOLDOWN_TS = 7_862_400; // 86_400 * 7 * 13  (13 weeks)\n    uint256 internal constant REWARD_LAUNCH_COOLDOWN_TS = 1_814_400; // 86_400 * 7 * 3 (3 weeks)\n\n    UD60x18 public constant ANNUAL_INFLATION_RATE = UD60x18.wrap(0.016180339887498948e18);\n    UD60x18 internal constant ONE = UD60x18.wrap(1e18);\n    UD60x18 internal constant ONE_YEAR_DAYS = UD60x18.wrap(365);\n\n    ///----------------------------------------------------------------------------------------------------------------\n    /// Variables\n    ///----------------------------------------------------------------------------------------------------------------\n\n    uint40 public immutable genesisTs;\n    uint256 public cooldownUnlockTs;\n    uint256 public rewardPoolSupply = 0;\n\n    uint256 public shareRate = 0;\n\n    uint256 public equityPoolSupply = 0;\n    uint256 public equityPoolTotalShares = 0;\n\n    mapping(address => Stake[]) internal stakes;\n    Reward[] internal rewards;\n\n    ///----------------------------------------------------------------------------------------------------------------\n    /// Contract\n    ///----------------------------------------------------------------------------------------------------------------\n\n    constructor() {\n        genesisTs = uint40(block.timestamp);\n        cooldownUnlockTs = block.timestamp + REWARD_LAUNCH_COOLDOWN_TS;\n    }\n\n    /// @notice Evaluate if the contract supports the interface\n    /// @dev Evaluate if the contract supports burning tokens\n    /// @param interfaceId the interface to evaluate\n    function supportsInterface(bytes4 interfaceId) public view virtual override returns (bool) {\n        return interfaceId == type(IBurnRedeemable).interfaceId || interfaceId == this.supportsInterface.selector;\n    }\n\n    /// @notice Mint FENIX tokens\n    /// @dev Mint FENIX tokens to the user address\n    /// @param user the address of the user to mint FENIX tokens for\n    /// @param amount the amount of FENIX tokens to mint\n    function onTokenBurned(address user, uint256 amount) external {\n        if (_msgSender() != XEN_ADDRESS) revert FenixError.WrongCaller(_msgSender());\n        if (user == address(0)) revert FenixError.AddressZero();\n        if (amount == 0) revert FenixError.BalanceZero();\n\n        uint256 fenix = amount / XEN_BURN_RATIO;\n        rewardPoolSupply += fenix;\n        _mint(user, fenix);\n        emit Redeemed(user, XEN_ADDRESS, address(this), amount, fenix);\n    }\n\n    /// @notice Burn XEN tokens\n    /// @dev Execute proof of burn on remote contract to burn XEN tokens\n    /// @param xen the amount of XEN to burn from the current wallet address\n    function burnXEN(uint256 xen) public {\n        IBurnableToken(XEN_ADDRESS).burn(_msgSender(), xen);\n    }\n\n    /// @notice Starts a stake\n    /// @dev Initialize a stake for the current wallet address\n    /// @param fenix the amount of fenix to stake\n    /// @param term the number of days to stake\n    function startStake(uint256 fenix, uint256 term) public {\n        if (fenix == 0) revert FenixError.BalanceZero();\n        if (term == 0) revert FenixError.TermZero();\n\n        uint40 startTs = uint40(block.timestamp);\n        uint40 endTs = uint40(block.timestamp + (term * ONE_DAY_TS));\n\n        uint256 bonus = calculateBonus(fenix, term);\n        uint256 shares = calculateShares(bonus);\n\n        UD60x18 time = ud(term).div(ONE_YEAR_DAYS);\n        uint256 inflatedSupply = unwrap(ud(fenix).mul((ONE.add(ANNUAL_INFLATION_RATE)).pow(time)));\n\n        uint256 newShares = unwrap(ud(shares).mul(ud(inflatedSupply)));\n\n        equityPoolSupply += inflatedSupply;\n        equityPoolTotalShares += newShares;\n\n        Stake memory _stake = Stake(Status.ACTIVE, startTs, 0, endTs, uint16(term), fenix, newShares, 0);\n        stakes[_msgSender()].push(_stake);\n\n        _burn(_msgSender(), fenix);\n        emit FenixEvent.StartStake(_stake);\n    }\n\n    /// @notice Defer stake until future date\n    /// @dev Defer a stake by removing the supply allocated to the stake from the pool\n    /// @param stakeIndex the index of the stake to defer\n    /// @param stakerAddress the address of the stake owner that will be deferred\n    function deferStake(uint256 stakeIndex, address stakerAddress) public {\n        if (stakes[stakerAddress].length <= stakeIndex) revert FenixError.StakeNotActive();\n        Stake memory _stake = stakes[stakerAddress][stakeIndex];\n\n        if (_stake.status != Status.ACTIVE) return;\n\n        if (block.timestamp < _stake.endTs && _msgSender() != stakerAddress)\n            revert FenixError.WrongCaller(_msgSender());\n\n        UD60x18 rewardPercent = ZERO;\n        if (block.timestamp > _stake.endTs) {\n            rewardPercent = ud(calculateLatePayout(_stake));\n        } else {\n            rewardPercent = ud(calculateEarlyPayout(_stake));\n        }\n\n        UD60x18 poolSharePercent = ud(_stake.shares).div(ud(equityPoolTotalShares));\n        UD60x18 stakerPoolSupplyPercent = poolSharePercent.mul(rewardPercent);\n\n        uint256 equitySupply = unwrap(ud(equityPoolSupply).mul(stakerPoolSupplyPercent));\n\n        Stake memory deferredStake = Stake(\n            Status.DEFER,\n            _stake.startTs,\n            uint40(block.timestamp),\n            _stake.endTs,\n            _stake.term,\n            _stake.fenix,\n            _stake.shares,\n            equitySupply\n        );\n\n        stakes[stakerAddress][stakeIndex] = deferredStake;\n\n        equityPoolTotalShares -= _stake.shares;\n        equityPoolSupply -= equitySupply;\n\n        emit FenixEvent.DeferStake(deferredStake);\n    }\n\n    /// @notice End a stake\n    /// @dev End a stake by allocating the stake supply to the stakers wallet\n    /// @param stakeIndex the index of the stake to end\n    function endStake(uint256 stakeIndex) public {\n        deferStake(stakeIndex, _msgSender());\n\n        Stake memory _stake = stakes[_msgSender()][stakeIndex];\n        if (_stake.status == Status.END) revert FenixError.StakeStatusAlreadySet(Status.END);\n\n        _mint(_msgSender(), _stake.payout);\n\n        uint256 returnOnStake = unwrap(ud(_stake.payout).div(ud(_stake.fenix)));\n\n        if (returnOnStake > shareRate) {\n            shareRate = returnOnStake;\n            emit FenixEvent.UpdateShareRate(shareRate);\n        }\n\n        Stake memory endedStake = Stake(\n            Status.END,\n            _stake.startTs,\n            _stake.deferralTs,\n            _stake.endTs,\n            _stake.term,\n            _stake.fenix,\n            _stake.shares,\n            _stake.payout\n        );\n\n        stakes[_msgSender()][stakeIndex] = endedStake;\n        emit FenixEvent.EndStake(endedStake);\n    }\n\n    /// @notice Calculate bonus\n    /// @dev Use fenix amount and term to calculate size and time bonus used for pool equity stake\n    /// @param fenix the amount of fenix used to calculate the equity stake\n    /// @param term the term of the stake in days used to calculate the pool equity stake\n    /// @return bonus the bonus for pool equity stake\n    function calculateBonus(uint256 fenix, uint256 term) public pure returns (uint256) {\n        UD60x18 sizeBonus = ud(calculateSizeBonus(fenix));\n        UD60x18 timeBonus = ud(calculateTimeBonus(term));\n        UD60x18 bonus = sizeBonus.mul(E.pow(timeBonus));\n        return unwrap(bonus);\n    }\n\n    /// @notice Calculate size bonus\n    /// @dev Use fenix amount to calculate the size bonus used for pool equity stake\n    /// @param fenix the amount of fenix used to calculate the equity stake\n    /// @return bonus the size bonus for pool equity stake\n    function calculateSizeBonus(uint256 fenix) public pure returns (uint256) {\n        if (ud(fenix).lt(ONE)) return 0;\n        return unwrap(ONE.sub(ud(fenix).inv()));\n    }\n\n    /// @notice Calculate time bonus\n    /// @dev Use term to calculate the time bonus used for pool equity stake\n    /// @param term the term of the stake in days used to calculate the pool equity stake\n    /// @return bonus the time bonus for pool equity stake\n    function calculateTimeBonus(uint256 term) public pure returns (uint256) {\n        if (term > MAX_STAKE_LENGTH_DAYS) revert FenixError.TermGreaterThanMax();\n        UD60x18 timeBonus = ONE.add(ud(term).div(ud(MAX_STAKE_LENGTH_DAYS)));\n        return unwrap(timeBonus);\n    }\n\n    /// @notice Calculate shares\n    /// @dev Use bonus to calculate the number of shares to be issued to the staker\n    /// @param bonus the bonus to calculate the shares from\n    /// @return shares the number of shares to be issued to the staker\n    function calculateShares(uint256 bonus) public view returns (uint256) {\n        if (shareRate == 0) return bonus;\n        UD60x18 shares = ud(bonus).div(ud(shareRate));\n        return unwrap(shares);\n    }\n\n    /// @notice Calculate the early end stake penalty\n    /// @dev Calculates the early end stake penality to be split between the pool and the staker\n    /// @param stake the stake to calculate the penalty for\n    /// @return reward the reward percentage for the stake\n    function calculateEarlyPayout(Stake memory stake) public view returns (uint256) {\n        if (block.timestamp < stake.startTs || stake.status != Status.ACTIVE) revert FenixError.StakeNotActive();\n        if (block.timestamp > stake.endTs) revert FenixError.StakeLate();\n        uint256 termDelta = block.timestamp - stake.startTs;\n        uint256 scaleTerm = stake.term * ONE_DAY_TS;\n        UD60x18 reward = (convert(termDelta).div(convert(scaleTerm))).powu(2);\n        return unwrap(reward);\n    }\n\n    /// @notice Calculate the late end stake penalty\n    /// @dev Calculates the late end stake penality to be split between the pool and the staker\n    /// @param stake a parameter just like in doxygen (must be followed by parameter name)\n    /// @return reward the reward percentage for the stake\n    function calculateLatePayout(Stake memory stake) public view returns (uint256) {\n        if (block.timestamp < stake.startTs || stake.status != Status.ACTIVE) revert FenixError.StakeNotActive();\n        if (block.timestamp < stake.endTs) revert FenixError.StakeNotEnded();\n\n        uint256 lateTs = block.timestamp - stake.endTs;\n        if (lateTs > ONE_EIGHTY_DAYS_TS) return 0;\n\n        UD60x18 penalty = ud(lateTs).div(ud(ONE_EIGHTY_DAYS_TS)).powu(3);\n        UD60x18 reward = ONE.sub(penalty);\n        return unwrap(reward);\n    }\n\n    /// @notice Flush reward pool\n    /// @dev Flush reward pool to stake pool\n    function flushRewardPool() public {\n        if (block.timestamp < cooldownUnlockTs) revert FenixError.CooldownActive();\n        uint256 cooldownPeriods = (block.timestamp - cooldownUnlockTs) / REWARD_COOLDOWN_TS;\n        equityPoolSupply += rewardPoolSupply;\n        cooldownUnlockTs += REWARD_COOLDOWN_TS + (cooldownPeriods * REWARD_COOLDOWN_TS);\n\n        Reward memory reward = Reward(uint40(rewards.length), uint40(block.timestamp), rewardPoolSupply, _msgSender());\n\n        rewardPoolSupply = 0;\n        rewards.push(reward);\n        emit FenixEvent.FlushRewardPool(reward);\n    }\n\n    /// @notice Get stake for address at index\n    /// @dev Read stake from stakes mapping stake array\n    /// @param stakerAddress address of stake owner\n    /// @param stakeIndex index of stake to read\n    /// @return stake\n    function stakeFor(address stakerAddress, uint256 stakeIndex) public view returns (Stake memory) {\n        return stakes[stakerAddress][stakeIndex];\n    }\n\n    /// @notice Get stake count for address\n    /// @dev Read stake count from stakes mapping\n    /// @param stakerAddress address of stake owner\n    /// @return stake count\n    function stakeCount(address stakerAddress) public view returns (uint256) {\n        return stakes[stakerAddress].length;\n    }\n\n    /// @notice Get reward for index\n    /// @dev Read reward from rewards array\n    /// @param index index of reward to read\n    /// @return reward\n    function rewardFor(uint256 index) public view returns (Reward memory) {\n        return rewards[index];\n    }\n\n    /// @notice Get reward count\n    /// @dev Read reward count from rewards array\n    /// @return reward count\n    function rewardCount() public view returns (uint256) {\n        return rewards.length;\n    }\n}\n",
  "sourcePath": "/Users/lbelyaev/dev/fenix/contracts/Fenix.sol",
  "compiler": {
    "name": "solc",
    "version": "0.8.19+commit.7dd6d404.Emscripten.clang"
  },
  "schemaVersion": "3.4.10",
  "updatedAt": "2023-04-23T20:18:10.692Z",
  "networkType": "ethereum",
  "devdoc": {
    "author": "Joe Blau <joe@atomize.xyz>",
    "details": "Fenix is an ERC20 token that pays you to hold your own crypto.",
    "events": {
      "Approval(address,address,uint256)": {
        "details": "Emitted when the allowance of a `spender` for an `owner` is set by a call to {approve}. `value` is the new allowance."
      },
      "Transfer(address,address,uint256)": {
        "details": "Emitted when `value` tokens are moved from one account (`from`) to another (`to`). Note that `value` may be zero."
      }
    },
    "kind": "dev",
    "methods": {
      "allowance(address,address)": {
        "details": "See {IERC20-allowance}."
      },
      "approve(address,uint256)": {
        "details": "See {IERC20-approve}. NOTE: If `amount` is the maximum `uint256`, the allowance is not updated on `transferFrom`. This is semantically equivalent to an infinite approval. Requirements: - `spender` cannot be the zero address."
      },
      "balanceOf(address)": {
        "details": "See {IERC20-balanceOf}."
      },
      "burnXEN(uint256)": {
        "details": "Execute proof of burn on remote contract to burn XEN tokens",
        "params": {
          "xen": "the amount of XEN to burn from the current wallet address"
        }
      },
      "calculateBonus(uint256,uint256)": {
        "details": "Use fenix amount and term to calculate size and time bonus used for pool equity stake",
        "params": {
          "fenix": "the amount of fenix used to calculate the equity stake",
          "term": "the term of the stake in days used to calculate the pool equity stake"
        },
        "returns": {
          "_0": "bonus the bonus for pool equity stake"
        }
      },
      "calculateEarlyPayout((uint8,uint40,uint40,uint40,uint16,uint256,uint256,uint256))": {
        "details": "Calculates the early end stake penality to be split between the pool and the staker",
        "params": {
          "stake": "the stake to calculate the penalty for"
        },
        "returns": {
          "_0": "reward the reward percentage for the stake"
        }
      },
      "calculateLatePayout((uint8,uint40,uint40,uint40,uint16,uint256,uint256,uint256))": {
        "details": "Calculates the late end stake penality to be split between the pool and the staker",
        "params": {
          "stake": "a parameter just like in doxygen (must be followed by parameter name)"
        },
        "returns": {
          "_0": "reward the reward percentage for the stake"
        }
      },
      "calculateShares(uint256)": {
        "details": "Use bonus to calculate the number of shares to be issued to the staker",
        "params": {
          "bonus": "the bonus to calculate the shares from"
        },
        "returns": {
          "_0": "shares the number of shares to be issued to the staker"
        }
      },
      "calculateSizeBonus(uint256)": {
        "details": "Use fenix amount to calculate the size bonus used for pool equity stake",
        "params": {
          "fenix": "the amount of fenix used to calculate the equity stake"
        },
        "returns": {
          "_0": "bonus the size bonus for pool equity stake"
        }
      },
      "calculateTimeBonus(uint256)": {
        "details": "Use term to calculate the time bonus used for pool equity stake",
        "params": {
          "term": "the term of the stake in days used to calculate the pool equity stake"
        },
        "returns": {
          "_0": "bonus the time bonus for pool equity stake"
        }
      },
      "decimals()": {
        "details": "Returns the number of decimals used to get its user representation. For example, if `decimals` equals `2`, a balance of `505` tokens should be displayed to a user as `5.05` (`505 / 10 ** 2`). Tokens usually opt for a value of 18, imitating the relationship between Ether and Wei. This is the value {ERC20} uses, unless this function is overridden; NOTE: This information is only used for _display_ purposes: it in no way affects any of the arithmetic of the contract, including {IERC20-balanceOf} and {IERC20-transfer}."
      },
      "decreaseAllowance(address,uint256)": {
        "details": "Atomically decreases the allowance granted to `spender` by the caller. This is an alternative to {approve} that can be used as a mitigation for problems described in {IERC20-approve}. Emits an {Approval} event indicating the updated allowance. Requirements: - `spender` cannot be the zero address. - `spender` must have allowance for the caller of at least `subtractedValue`."
      },
      "deferStake(uint256,address)": {
        "details": "Defer a stake by removing the supply allocated to the stake from the pool",
        "params": {
          "stakeIndex": "the index of the stake to defer",
          "stakerAddress": "the address of the stake owner that will be deferred"
        }
      },
      "endStake(uint256)": {
        "details": "End a stake by allocating the stake supply to the stakers wallet",
        "params": {
          "stakeIndex": "the index of the stake to end"
        }
      },
      "flushRewardPool()": {
        "details": "Flush reward pool to stake pool"
      },
      "increaseAllowance(address,uint256)": {
        "details": "Atomically increases the allowance granted to `spender` by the caller. This is an alternative to {approve} that can be used as a mitigation for problems described in {IERC20-approve}. Emits an {Approval} event indicating the updated allowance. Requirements: - `spender` cannot be the zero address."
      },
      "name()": {
        "details": "Returns the name of the token."
      },
      "onTokenBurned(address,uint256)": {
        "details": "Mint FENIX tokens to the user address",
        "params": {
          "amount": "the amount of FENIX tokens to mint",
          "user": "the address of the user to mint FENIX tokens for"
        }
      },
      "rewardCount()": {
        "details": "Read reward count from rewards array",
        "returns": {
          "_0": "reward count"
        }
      },
      "rewardFor(uint256)": {
        "details": "Read reward from rewards array",
        "params": {
          "index": "index of reward to read"
        },
        "returns": {
          "_0": "reward"
        }
      },
      "stakeCount(address)": {
        "details": "Read stake count from stakes mapping",
        "params": {
          "stakerAddress": "address of stake owner"
        },
        "returns": {
          "_0": "stake count"
        }
      },
      "stakeFor(address,uint256)": {
        "details": "Read stake from stakes mapping stake array",
        "params": {
          "stakeIndex": "index of stake to read",
          "stakerAddress": "address of stake owner"
        },
        "returns": {
          "_0": "stake"
        }
      },
      "startStake(uint256,uint256)": {
        "details": "Initialize a stake for the current wallet address",
        "params": {
          "fenix": "the amount of fenix to stake",
          "term": "the number of days to stake"
        }
      },
      "supportsInterface(bytes4)": {
        "details": "Evaluate if the contract supports burning tokens",
        "params": {
          "interfaceId": "the interface to evaluate"
        }
      },
      "symbol()": {
        "details": "Returns the symbol of the token, usually a shorter version of the name."
      },
      "totalSupply()": {
        "details": "See {IERC20-totalSupply}."
      },
      "transfer(address,uint256)": {
        "details": "See {IERC20-transfer}. Requirements: - `to` cannot be the zero address. - the caller must have a balance of at least `amount`."
      },
      "transferFrom(address,address,uint256)": {
        "details": "See {IERC20-transferFrom}. Emits an {Approval} event indicating the updated allowance. This is not required by the EIP. See the note at the beginning of {ERC20}. NOTE: Does not update the allowance if the current allowance is the maximum `uint256`. Requirements: - `from` and `to` cannot be the zero address. - `from` must have a balance of at least `amount`. - the caller must have allowance for ``from``'s tokens of at least `amount`."
      }
    },
    "title": "FENIX pays you to hold your own crypto",
    "version": 1
  },
  "userdoc": {
    "errors": {
      "PRBMath_MulDiv18_Overflow(uint256,uint256)": [
        {
          "notice": "Thrown when the resultant value in {mulDiv18} overflows uint256."
        }
      ],
      "PRBMath_MulDiv_Overflow(uint256,uint256,uint256)": [
        {
          "notice": "Thrown when the resultant value in {mulDiv} overflows uint256."
        }
      ],
      "PRBMath_UD60x18_Convert_Overflow(uint256)": [
        {
          "notice": "Thrown when converting a basic integer to the fixed-point format overflows UD60x18."
        }
      ],
      "PRBMath_UD60x18_Exp2_InputTooBig(uint256)": [
        {
          "notice": "Thrown when taking the binary exponent of a base greater than 192e18."
        }
      ],
      "PRBMath_UD60x18_Log_InputTooSmall(uint256)": [
        {
          "notice": "Thrown when taking the logarithm of a number less than 1."
        }
      ]
    },
    "kind": "user",
    "methods": {
      "XEN_ADDRESS()": {
        "notice": "---------------------------------------------------------------------------------------------------------------- Constants ----------------------------------------------------------------------------------------------------------------"
      },
      "burnXEN(uint256)": {
        "notice": "Burn XEN tokens"
      },
      "calculateBonus(uint256,uint256)": {
        "notice": "Calculate bonus"
      },
      "calculateEarlyPayout((uint8,uint40,uint40,uint40,uint16,uint256,uint256,uint256))": {
        "notice": "Calculate the early end stake penalty"
      },
      "calculateLatePayout((uint8,uint40,uint40,uint40,uint16,uint256,uint256,uint256))": {
        "notice": "Calculate the late end stake penalty"
      },
      "calculateShares(uint256)": {
        "notice": "Calculate shares"
      },
      "calculateSizeBonus(uint256)": {
        "notice": "Calculate size bonus"
      },
      "calculateTimeBonus(uint256)": {
        "notice": "Calculate time bonus"
      },
      "constructor": {
        "notice": "---------------------------------------------------------------------------------------------------------------- Contract ----------------------------------------------------------------------------------------------------------------"
      },
      "deferStake(uint256,address)": {
        "notice": "Defer stake until future date"
      },
      "endStake(uint256)": {
        "notice": "End a stake"
      },
      "flushRewardPool()": {
        "notice": "Flush reward pool"
      },
      "genesisTs()": {
        "notice": "---------------------------------------------------------------------------------------------------------------- Variables ----------------------------------------------------------------------------------------------------------------"
      },
      "onTokenBurned(address,uint256)": {
        "notice": "Mint FENIX tokens"
      },
      "rewardCount()": {
        "notice": "Get reward count"
      },
      "rewardFor(uint256)": {
        "notice": "Get reward for index"
      },
      "stakeCount(address)": {
        "notice": "Get stake count for address"
      },
      "stakeFor(address,uint256)": {
        "notice": "Get stake for address at index"
      },
      "startStake(uint256,uint256)": {
        "notice": "Starts a stake"
      },
      "supportsInterface(bytes4)": {
        "notice": "Evaluate if the contract supports the interface"
      }
    },
    "notice": "FENIX pays you to hold your own crypto",
    "version": 1
  }
}