{
  "_format": "hh-sol-artifact-1",
  "contractName": "MoonParty",
  "sourceName": "contracts/MoonParty.sol",
  "abi": [
    {
      "inputs": [
        {
          "internalType": "address",
          "name": "_xenCryptoAddress",
          "type": "address"
        },
        {
          "internalType": "address",
          "name": "_xenTorrentAddress",
          "type": "address"
        },
        {
          "internalType": "address",
          "name": "_xenBurnAddress",
          "type": "address"
        },
        {
          "internalType": "address",
          "name": "_vmpxAddress",
          "type": "address"
        },
        {
          "internalType": "address",
          "name": "_xoneAddress",
          "type": "address"
        }
      ],
      "stateMutability": "nonpayable",
      "type": "constructor"
    },
    {
      "inputs": [
        {
          "internalType": "address",
          "name": "owner",
          "type": "address"
        }
      ],
      "name": "OwnableInvalidOwner",
      "type": "error"
    },
    {
      "inputs": [
        {
          "internalType": "address",
          "name": "account",
          "type": "address"
        }
      ],
      "name": "OwnableUnauthorizedAccount",
      "type": "error"
    },
    {
      "anonymous": false,
      "inputs": [
        {
          "indexed": true,
          "internalType": "address",
          "name": "user",
          "type": "address"
        },
        {
          "indexed": true,
          "internalType": "enum MoonParty.BurnableAsset",
          "name": "asset",
          "type": "uint8"
        },
        {
          "indexed": false,
          "internalType": "uint256",
          "name": "amount",
          "type": "uint256"
        },
        {
          "indexed": false,
          "internalType": "uint256",
          "name": "tokenId",
          "type": "uint256"
        },
        {
          "indexed": false,
          "internalType": "uint256",
          "name": "amp",
          "type": "uint256"
        },
        {
          "indexed": false,
          "internalType": "uint256",
          "name": "burnPoints",
          "type": "uint256"
        }
      ],
      "name": "AssetBurned",
      "type": "event"
    },
    {
      "anonymous": false,
      "inputs": [
        {
          "indexed": true,
          "internalType": "address",
          "name": "user",
          "type": "address"
        },
        {
          "indexed": false,
          "internalType": "uint256",
          "name": "amount",
          "type": "uint256"
        }
      ],
      "name": "BurnPointsAllocated",
      "type": "event"
    },
    {
      "anonymous": false,
      "inputs": [
        {
          "indexed": true,
          "internalType": "address",
          "name": "previousOwner",
          "type": "address"
        },
        {
          "indexed": true,
          "internalType": "address",
          "name": "newOwner",
          "type": "address"
        }
      ],
      "name": "OwnershipTransferred",
      "type": "event"
    },
    {
      "anonymous": false,
      "inputs": [
        {
          "indexed": true,
          "internalType": "address",
          "name": "user",
          "type": "address"
        },
        {
          "indexed": true,
          "internalType": "address",
          "name": "xenContract",
          "type": "address"
        },
        {
          "indexed": true,
          "internalType": "address",
          "name": "tokenContract",
          "type": "address"
        },
        {
          "indexed": false,
          "internalType": "uint256",
          "name": "xenAmount",
          "type": "uint256"
        },
        {
          "indexed": false,
          "internalType": "uint256",
          "name": "tokenAmount",
          "type": "uint256"
        }
      ],
      "name": "Redeemed",
      "type": "event"
    },
    {
      "inputs": [],
      "name": "CYCLE",
      "outputs": [
        {
          "internalType": "uint256",
          "name": "",
          "type": "uint256"
        }
      ],
      "stateMutability": "view",
      "type": "function"
    },
    {
      "inputs": [],
      "name": "CYCLES",
      "outputs": [
        {
          "internalType": "uint256",
          "name": "",
          "type": "uint256"
        }
      ],
      "stateMutability": "view",
      "type": "function"
    },
    {
      "inputs": [],
      "name": "DURATION",
      "outputs": [
        {
          "internalType": "uint256",
          "name": "",
          "type": "uint256"
        }
      ],
      "stateMutability": "view",
      "type": "function"
    },
    {
      "inputs": [],
      "name": "MAX_ALLOCATION",
      "outputs": [
        {
          "internalType": "uint256",
          "name": "",
          "type": "uint256"
        }
      ],
      "stateMutability": "view",
      "type": "function"
    },
    {
      "inputs": [],
      "name": "MAX_ALLOCATION_PER_ACCOUNT",
      "outputs": [
        {
          "internalType": "uint256",
          "name": "",
          "type": "uint256"
        }
      ],
      "stateMutability": "view",
      "type": "function"
    },
    {
      "inputs": [],
      "name": "VMPX",
      "outputs": [
        {
          "internalType": "address",
          "name": "",
          "type": "address"
        }
      ],
      "stateMutability": "view",
      "type": "function"
    },
    {
      "inputs": [],
      "name": "XONE",
      "outputs": [
        {
          "internalType": "address",
          "name": "",
          "type": "address"
        }
      ],
      "stateMutability": "view",
      "type": "function"
    },
    {
      "inputs": [],
      "name": "allocateAllBurnPoints",
      "outputs": [],
      "stateMutability": "nonpayable",
      "type": "function"
    },
    {
      "inputs": [
        {
          "internalType": "uint256",
          "name": "amount",
          "type": "uint256"
        }
      ],
      "name": "allocateBurnPoints",
      "outputs": [],
      "stateMutability": "nonpayable",
      "type": "function"
    },
    {
      "inputs": [
        {
          "internalType": "address",
          "name": "",
          "type": "address"
        }
      ],
      "name": "allocateXNTCredits",
      "outputs": [
        {
          "internalType": "uint256",
          "name": "",
          "type": "uint256"
        }
      ],
      "stateMutability": "view",
      "type": "function"
    },
    {
      "inputs": [],
      "name": "amp",
      "outputs": [
        {
          "internalType": "uint256",
          "name": "",
          "type": "uint256"
        }
      ],
      "stateMutability": "view",
      "type": "function"
    },
    {
      "inputs": [],
      "name": "genesisTs",
      "outputs": [
        {
          "internalType": "uint256",
          "name": "",
          "type": "uint256"
        }
      ],
      "stateMutability": "view",
      "type": "function"
    },
    {
      "inputs": [
        {
          "internalType": "uint256",
          "name": "burnInfo",
          "type": "uint256"
        }
      ],
      "name": "getBurnRate",
      "outputs": [
        {
          "internalType": "uint256",
          "name": "_rate",
          "type": "uint256"
        }
      ],
      "stateMutability": "view",
      "type": "function"
    },
    {
      "inputs": [],
      "name": "getExpectedBurnPointsForBurnedXEN",
      "outputs": [
        {
          "internalType": "uint256",
          "name": "",
          "type": "uint256"
        }
      ],
      "stateMutability": "view",
      "type": "function"
    },
    {
      "inputs": [],
      "name": "getExpectedBurnPointsForVmpx",
      "outputs": [
        {
          "internalType": "uint256",
          "name": "",
          "type": "uint256"
        }
      ],
      "stateMutability": "view",
      "type": "function"
    },
    {
      "inputs": [],
      "name": "getExpectedBurnPointsForXEN",
      "outputs": [
        {
          "internalType": "uint256",
          "name": "",
          "type": "uint256"
        }
      ],
      "stateMutability": "view",
      "type": "function"
    },
    {
      "inputs": [
        {
          "internalType": "uint256",
          "name": "_tokenId",
          "type": "uint256"
        }
      ],
      "name": "getExpectedBurnPointsForXenBurn",
      "outputs": [
        {
          "internalType": "uint256",
          "name": "",
          "type": "uint256"
        }
      ],
      "stateMutability": "view",
      "type": "function"
    },
    {
      "inputs": [
        {
          "internalType": "uint256",
          "name": "_tokenId",
          "type": "uint256"
        }
      ],
      "name": "getExpectedBurnPointsForXenTorrent",
      "outputs": [
        {
          "internalType": "uint256",
          "name": "",
          "type": "uint256"
        }
      ],
      "stateMutability": "view",
      "type": "function"
    },
    {
      "inputs": [],
      "name": "getExpectedBurnPointsForXone",
      "outputs": [
        {
          "internalType": "uint256",
          "name": "",
          "type": "uint256"
        }
      ],
      "stateMutability": "view",
      "type": "function"
    },
    {
      "inputs": [],
      "name": "getRedeemableVMPX",
      "outputs": [
        {
          "internalType": "uint256",
          "name": "",
          "type": "uint256"
        }
      ],
      "stateMutability": "view",
      "type": "function"
    },
    {
      "inputs": [],
      "name": "getRedeemableXEN",
      "outputs": [
        {
          "internalType": "uint256",
          "name": "",
          "type": "uint256"
        }
      ],
      "stateMutability": "view",
      "type": "function"
    },
    {
      "inputs": [],
      "name": "getRedeemableXONE",
      "outputs": [
        {
          "internalType": "uint256",
          "name": "",
          "type": "uint256"
        }
      ],
      "stateMutability": "view",
      "type": "function"
    },
    {
      "inputs": [
        {
          "internalType": "uint256",
          "name": "mintInfo",
          "type": "uint256"
        }
      ],
      "name": "getTorrentRate",
      "outputs": [
        {
          "internalType": "uint256",
          "name": "_rate",
          "type": "uint256"
        }
      ],
      "stateMutability": "view",
      "type": "function"
    },
    {
      "inputs": [
        {
          "internalType": "uint256",
          "name": "amount",
          "type": "uint256"
        }
      ],
      "name": "getVmpxRate",
      "outputs": [
        {
          "internalType": "uint256",
          "name": "_rate",
          "type": "uint256"
        }
      ],
      "stateMutability": "view",
      "type": "function"
    },
    {
      "inputs": [
        {
          "internalType": "uint256",
          "name": "amount",
          "type": "uint256"
        }
      ],
      "name": "getXoneRate",
      "outputs": [
        {
          "internalType": "uint256",
          "name": "_rate",
          "type": "uint256"
        }
      ],
      "stateMutability": "view",
      "type": "function"
    },
    {
      "inputs": [
        {
          "internalType": "address",
          "name": "user",
          "type": "address"
        },
        {
          "internalType": "uint256",
          "name": "tokenIdOrAmount",
          "type": "uint256"
        }
      ],
      "name": "onTokenBurned",
      "outputs": [],
      "stateMutability": "nonpayable",
      "type": "function"
    },
    {
      "inputs": [],
      "name": "owner",
      "outputs": [
        {
          "internalType": "address",
          "name": "",
          "type": "address"
        }
      ],
      "stateMutability": "view",
      "type": "function"
    },
    {
      "inputs": [
        {
          "internalType": "uint256",
          "name": "_amount",
          "type": "uint256"
        }
      ],
      "name": "redeemBurnedXEN",
      "outputs": [],
      "stateMutability": "nonpayable",
      "type": "function"
    },
    {
      "inputs": [
        {
          "internalType": "uint256",
          "name": "_amount",
          "type": "uint256"
        }
      ],
      "name": "redeemVmpx",
      "outputs": [],
      "stateMutability": "nonpayable",
      "type": "function"
    },
    {
      "inputs": [
        {
          "internalType": "uint256",
          "name": "_amount",
          "type": "uint256"
        }
      ],
      "name": "redeemXEN",
      "outputs": [],
      "stateMutability": "nonpayable",
      "type": "function"
    },
    {
      "inputs": [
        {
          "internalType": "uint256",
          "name": "_tokenId",
          "type": "uint256"
        }
      ],
      "name": "redeemXenBurn",
      "outputs": [],
      "stateMutability": "nonpayable",
      "type": "function"
    },
    {
      "inputs": [
        {
          "internalType": "uint256",
          "name": "_tokenId",
          "type": "uint256"
        }
      ],
      "name": "redeemXenTorrent",
      "outputs": [],
      "stateMutability": "nonpayable",
      "type": "function"
    },
    {
      "inputs": [
        {
          "internalType": "uint256",
          "name": "_amount",
          "type": "uint256"
        }
      ],
      "name": "redeemXone",
      "outputs": [],
      "stateMutability": "nonpayable",
      "type": "function"
    },
    {
      "inputs": [],
      "name": "renounceOwnership",
      "outputs": [],
      "stateMutability": "nonpayable",
      "type": "function"
    },
    {
      "inputs": [
        {
          "internalType": "bytes4",
          "name": "interfaceId",
          "type": "bytes4"
        }
      ],
      "name": "supportsInterface",
      "outputs": [
        {
          "internalType": "bool",
          "name": "",
          "type": "bool"
        }
      ],
      "stateMutability": "view",
      "type": "function"
    },
    {
      "inputs": [],
      "name": "totalAllocatedXNTCredits",
      "outputs": [
        {
          "internalType": "uint256",
          "name": "",
          "type": "uint256"
        }
      ],
      "stateMutability": "view",
      "type": "function"
    },
    {
      "inputs": [],
      "name": "totalBurnPoints",
      "outputs": [
        {
          "internalType": "uint256",
          "name": "",
          "type": "uint256"
        }
      ],
      "stateMutability": "view",
      "type": "function"
    },
    {
      "inputs": [
        {
          "internalType": "address",
          "name": "newOwner",
          "type": "address"
        }
      ],
      "name": "transferOwnership",
      "outputs": [],
      "stateMutability": "nonpayable",
      "type": "function"
    },
    {
      "inputs": [
        {
          "internalType": "address",
          "name": "",
          "type": "address"
        }
      ],
      "name": "usedXENBurns",
      "outputs": [
        {
          "internalType": "uint256",
          "name": "",
          "type": "uint256"
        }
      ],
      "stateMutability": "view",
      "type": "function"
    },
    {
      "inputs": [
        {
          "internalType": "uint256",
          "name": "",
          "type": "uint256"
        }
      ],
      "name": "usedXENFTs",
      "outputs": [
        {
          "internalType": "address",
          "name": "",
          "type": "address"
        }
      ],
      "stateMutability": "view",
      "type": "function"
    },
    {
      "inputs": [
        {
          "internalType": "address",
          "name": "",
          "type": "address"
        }
      ],
      "name": "userBurnsPoints",
      "outputs": [
        {
          "internalType": "uint256",
          "name": "",
          "type": "uint256"
        }
      ],
      "stateMutability": "view",
      "type": "function"
    },
    {
      "inputs": [],
      "name": "xenBurn",
      "outputs": [
        {
          "internalType": "address",
          "name": "",
          "type": "address"
        }
      ],
      "stateMutability": "view",
      "type": "function"
    },
    {
      "inputs": [],
      "name": "xenCrypto",
      "outputs": [
        {
          "internalType": "address",
          "name": "",
          "type": "address"
        }
      ],
      "stateMutability": "view",
      "type": "function"
    },
    {
      "inputs": [],
      "name": "xenTorrent",
      "outputs": [
        {
          "internalType": "address",
          "name": "",
          "type": "address"
        }
      ],
      "stateMutability": "view",
      "type": "function"
    }
  ],
  "bytecode": "0x61012060405260646005553480156200001757600080fd5b50604051620033e1380380620033e18339810160408190526200003a9162000178565b33806200006257604051631e4fbdf760e01b8152600060048201526024015b60405180910390fd5b6200006d816200010b565b506001600160a01b038516158015906200008f57506001600160a01b03841615155b620000dd5760405162461bcd60e51b815260206004820152601760248201527f4d503a20616464726573732063616e6e6f742062652030000000000000000000604482015260640162000059565b6001600160a01b0394851660805292841660a05290831660c052821660e052166101005242600655620001e8565b600080546001600160a01b038381166001600160a01b0319831681178455604051919092169283917f8be0079c531659141344cd1fd0a4f28419497f9722a3daafe3b4186f6b6457e09190a35050565b80516001600160a01b03811681146200017357600080fd5b919050565b600080600080600060a086880312156200019157600080fd5b6200019c866200015b565b9450620001ac602087016200015b565b9350620001bc604087016200015b565b9250620001cc606087016200015b565b9150620001dc608087016200015b565b90509295509295909350565b60805160a05160c05160e051610100516130d46200030d600039600081816103c301528181611350015281816118aa01528181611a490152818161211901528181612237015261239101526000818161054001528181612453015281816126cf015281816127ed015281816129700152612a7901526000818161066f015281816106c9015281816108190152818161093b01528181610a0501528181610ae7015281816112d1015281816116600152818161172001526117ea01526000818161049401528181610ddd01528181610ecf01528181610f990152818161131001528181611b7a01528181611d280152611e460152600081816104ee0152818161106f015281816111ec0152818161199e01528181611fda01526124d901526130d46000f3fe608060405234801561001057600080fd5b50600436106102f45760003560e01c80638009130411610191578063c1bace9f116100e3578063dfd5925a11610097578063f2fde38b11610071578063f2fde38b14610657578063f53b02ca1461066a578063f9053f2d1461069157600080fd5b8063dfd5925a14610633578063e3af6d0a14610646578063f01579de1461064f57600080fd5b8063cdaa96d8116100c8578063cdaa96d814610605578063d5c6993414610618578063d97c5e201461062057600080fd5b8063c1bace9f146105f5578063c4f989b3146105fd57600080fd5b806391431c29116101455780639e8d48d01161011f5780639e8d48d0146105c3578063a0e6f31d146105cd578063bb31bedf146105d557600080fd5b806391431c2914610588578063917f1559146105a85780639510e4fa146105b057600080fd5b8063855fd66711610176578063855fd667146105625780638c71da621461040a5780638da5cb5b1461056a57600080fd5b8063800913041461053357806380f4ec4a1461053b57600080fd5b80634bcb3e261161024a57806367114f64116101fe57806376dab6fa116101d857806376dab6fa146102f95780637a9c0aa2146105185780637c4cc80d1461052b57600080fd5b806367114f64146104c957806371141a58146104e9578063715018a61461051057600080fd5b8063543746b11161022f578063543746b11461047c578063543d7d971461048f5780635ad7eb9e146104b657600080fd5b80634bcb3e261461046057806353fa94f31461047357600080fd5b80631be05289116102ac5780633284a395116102865780633284a39514610431578063363a6fce146104445780633a6e11651461045757600080fd5b80631be05289146103b6578063217d907d146103be578063298f2ac41461040a57600080fd5b80630973e6ba116102dd5780630973e6ba146103855780630b9f1fa81461038e57806315ac787b146103a357600080fd5b8063012a2103146102f957806301ffc9a714610320575b600080fd5b61030d610307366004612e0a565b50600190565b6040519081526020015b60405180910390f35b61037561032e366004612e23565b7fffffffff00000000000000000000000000000000000000000000000000000000167f543746b1000000000000000000000000000000000000000000000000000000001490565b6040519015158152602001610317565b61030d60055481565b6103a161039c366004612e0a565b6106c7565b005b6103a16103b1366004612e0a565b610bb6565b61030d610cc2565b6103e57f000000000000000000000000000000000000000000000000000000000000000081565b60405173ffffffffffffffffffffffffffffffffffffffff9091168152602001610317565b61030d7ffffffffffffffffffffffffffffffffffffffffffffffffff21f494c589c000081565b61030d61043f366004612e0a565b610cd3565b61030d610452366004612e0a565b610d94565b61030d60035481565b6103a161046e366004612e0a565b611041565b61030d60045481565b6103a161048a366004612e8e565b6112b9565b6103e57f000000000000000000000000000000000000000000000000000000000000000081565b61030d6104c4366004612e0a565b611571565b61030d6104d7366004612eba565b60016020526000908152604090205481565b6103e57f000000000000000000000000000000000000000000000000000000000000000081565b6103a1611603565b61030d610526366004612e0a565b611617565b61030d611862565b61030d606481565b6103e57f000000000000000000000000000000000000000000000000000000000000000081565b61030d611947565b60005473ffffffffffffffffffffffffffffffffffffffff166103e5565b61030d610596366004612eba565b60026020526000908152604090205481565b61030d611a18565b6103a16105be366004612e0a565b611aca565b61030d6201518081565b61030d611f6b565b61030d6105e3366004612eba565b60076020526000908152604090205481565b61030d611f8e565b6103a1612045565b6103a1610613366004612e0a565b61207f565b61030d61240b565b6103a161062e366004612e0a565b612482565b6103a1610641366004612e0a565b612635565b61030d60065481565b61030d612a48565b6103a1610665366004612eba565b612abd565b6103e57f000000000000000000000000000000000000000000000000000000000000000081565b6103e561069f366004612e0a565b60086020526000908152604090205473ffffffffffffffffffffffffffffffffffffffff1681565b7f000000000000000000000000000000000000000000000000000000000000000073ffffffffffffffffffffffffffffffffffffffff16610769576040517f08c379a000000000000000000000000000000000000000000000000000000000815260206004820152601360248201527f4d503a2058656e4275726e206e6f74207365740000000000000000000000000060448201526064015b60405180910390fd5b600954156107d3576040517f08c379a000000000000000000000000000000000000000000000000000000000815260206004820152600d60248201527f4d503a20426164207374617465000000000000000000000000000000000000006044820152606401610760565b6040517f6352211e00000000000000000000000000000000000000000000000000000000815260048101829052339073ffffffffffffffffffffffffffffffffffffffff7f00000000000000000000000000000000000000000000000000000000000000001690636352211e90602401602060405180830381865afa158015610860573d6000803e3d6000fd5b505050506040513d601f19601f820116820180604052508101906108849190612ed7565b73ffffffffffffffffffffffffffffffffffffffff1614610901576040517f08c379a000000000000000000000000000000000000000000000000000000000815260206004820152601e60248201527f4d503a204e6f7420746865206f776e6572206f66207468652058454e465400006044820152606401610760565b610909612b21565b6040517fbd333033000000000000000000000000000000000000000000000000000000008152600481018290526000907f000000000000000000000000000000000000000000000000000000000000000073ffffffffffffffffffffffffffffffffffffffff169063bd33303390602401602060405180830381865afa158015610997573d6000803e3d6000fd5b505050506040513d601f19601f820116820180604052508101906109bb9190612ef4565b6040517f2c7b2e060000000000000000000000000000000000000000000000000000000081526004810184905290915060009073ffffffffffffffffffffffffffffffffffffffff7f00000000000000000000000000000000000000000000000000000000000000001690632c7b2e0690602401602060405180830381865afa158015610a4c573d6000803e3d6000fd5b505050506040513d601f19601f82011682018060405250810190610a709190612ef4565b90506000610a7d82611571565b905060646005548285610a909190612f3c565b610a9a9190612f3c565b610aa49190612f59565b6009819055610ab290612be0565b6040517f9dc29fac000000000000000000000000000000000000000000000000000000008152336004820152602481018590527f000000000000000000000000000000000000000000000000000000000000000073ffffffffffffffffffffffffffffffffffffffff1690639dc29fac90604401600060405180830381600087803b158015610b4057600080fd5b505af1158015610b54573d6000803e3d6000fd5b5060029250610b61915050565b600554600954604080518781526020810189905290810192909252606082015233907f4c526793ee27df25da9c62a89bd520a6f789c50d67bf3042b5bbbec110f569959060800160405180910390a350505050565b33600090815260026020908152604080832054600190925290912054610bdc9190612f94565b811115610c45576040517f08c379a000000000000000000000000000000000000000000000000000000000815260206004820152601560248201527f4d503a2062616420706f696e747320616d6f756e7400000000000000000000006044820152606401610760565b610c4d612b21565b3360009081526002602052604081208054839290610c6c908490612fa7565b925050819055508060046000828254610c859190612fa7565b909155505060405181815233907f90b45f0c6a792eab8c0a3ba505deae95b53ad3d28d008168a524927ae75cac379060200160405180910390a250565b610cd0620151806064612f3c565b81565b60008060008060008060008060008073__$dab076cb0bcb613f6e9e1e1469c4f0b8ef$__6388f882e88c6040518263ffffffff1660e01b8152600401610d1b91815260200190565b61012060405180830381865af4158015610d39573d6000803e3d6000fd5b505050506040513d601f19601f82011682018060405250810190610d5d9190612fcf565b985098509850985098509850985098509850600099508180610d7c5750825b15610d8657600799505b505050505050505050919050565b6040517f6352211e00000000000000000000000000000000000000000000000000000000815260048101829052600090339073ffffffffffffffffffffffffffffffffffffffff7f00000000000000000000000000000000000000000000000000000000000000001690636352211e90602401602060405180830381865afa158015610e24573d6000803e3d6000fd5b505050506040513d601f19601f82011682018060405250810190610e489190612ed7565b73ffffffffffffffffffffffffffffffffffffffff1614610e6b57506000919050565b60008281526008602052604090205473ffffffffffffffffffffffffffffffffffffffff1615610e9d57506000919050565b6040517fbd333033000000000000000000000000000000000000000000000000000000008152600481018390526000907f000000000000000000000000000000000000000000000000000000000000000073ffffffffffffffffffffffffffffffffffffffff169063bd33303390602401602060405180830381865afa158015610f2b573d6000803e3d6000fd5b505050506040513d601f19601f82011682018060405250810190610f4f9190612ef4565b6040517f443aa5330000000000000000000000000000000000000000000000000000000081526004810185905290915060009073ffffffffffffffffffffffffffffffffffffffff7f0000000000000000000000000000000000000000000000000000000000000000169063443aa53390602401602060405180830381865afa158015610fe0573d6000803e3d6000fd5b505050506040513d601f19601f820116820180604052508101906110049190612ef4565b9050600061101182610cd3565b9050606460055482856110249190612f3c565b61102e9190612f3c565b6110389190612f59565b95945050505050565b6040517f70a082310000000000000000000000000000000000000000000000000000000081523360048201527f000000000000000000000000000000000000000000000000000000000000000073ffffffffffffffffffffffffffffffffffffffff16906370a0823190602401602060405180830381865afa1580156110cb573d6000803e3d6000fd5b505050506040513d601f19601f820116820180604052508101906110ef9190612ef4565b811115611158576040517f08c379a000000000000000000000000000000000000000000000000000000000815260206004820152600e60248201527f4d503a2042616420616d6f756e740000000000000000000000000000000000006044820152606401610760565b611160612b21565b6005546001906064906111738385612f3c565b61117d9190612f3c565b6111879190612f59565b60095561119382612be0565b33600090815260076020526040812080548492906111b2908490612fa7565b90915550506040517f9dc29fac000000000000000000000000000000000000000000000000000000008152336004820152602481018390527f000000000000000000000000000000000000000000000000000000000000000073ffffffffffffffffffffffffffffffffffffffff1690639dc29fac90604401600060405180830381600087803b15801561124557600080fd5b505af1158015611259573d6000803e3d6000fd5b5060009250611266915050565b600554600954604080518681526000602082015290810192909252606082015233907f4c526793ee27df25da9c62a89bd520a6f789c50d67bf3042b5bbbec110f569959060800160405180910390a35050565b3373ffffffffffffffffffffffffffffffffffffffff7f000000000000000000000000000000000000000000000000000000000000000016148061133257503373ffffffffffffffffffffffffffffffffffffffff7f000000000000000000000000000000000000000000000000000000000000000016145b8061137257503373ffffffffffffffffffffffffffffffffffffffff7f000000000000000000000000000000000000000000000000000000000000000016145b6113d8576040517f08c379a000000000000000000000000000000000000000000000000000000000815260206004820152601060248201527f4d503a2077726f6e672063616c6c6572000000000000000000000000000000006044820152606401610760565b73ffffffffffffffffffffffffffffffffffffffff8216611455576040517f08c379a000000000000000000000000000000000000000000000000000000000815260206004820152601560248201527f4d503a207a65726f2075736572206164647265737300000000000000000000006044820152606401610760565b600081116114bf576040517f08c379a000000000000000000000000000000000000000000000000000000000815260206004820152601960248201527f4d503a2062616420746f6b656e4964206f7220616d6f756e74000000000000006044820152606401610760565b60006009541161152b576040517f08c379a000000000000000000000000000000000000000000000000000000000815260206004820152600d60248201527f4d503a20626164207374617465000000000000000000000000000000000000006044820152606401610760565b60095473ffffffffffffffffffffffffffffffffffffffff831660009081526001602052604081208054909190611563908490612fa7565b909155505060006009555050565b600080600080600073__$70fb7f92063f6b52bf21c66c450a922413$__63f01b6604876040518263ffffffff1660e01b81526004016115b291815260200190565b608060405180830381865af41580156115cf573d6000803e3d6000fd5b505050506040513d601f19601f820116820180604052508101906115f3919061304d565b5060019998505050505050505050565b61160b612d42565b6116156000612d95565b565b6040517f6352211e00000000000000000000000000000000000000000000000000000000815260048101829052600090339073ffffffffffffffffffffffffffffffffffffffff7f00000000000000000000000000000000000000000000000000000000000000001690636352211e90602401602060405180830381865afa1580156116a7573d6000803e3d6000fd5b505050506040513d601f19601f820116820180604052508101906116cb9190612ed7565b73ffffffffffffffffffffffffffffffffffffffff16146116ee57506000919050565b6040517fbd333033000000000000000000000000000000000000000000000000000000008152600481018390526000907f000000000000000000000000000000000000000000000000000000000000000073ffffffffffffffffffffffffffffffffffffffff169063bd33303390602401602060405180830381865afa15801561177c573d6000803e3d6000fd5b505050506040513d601f19601f820116820180604052508101906117a09190612ef4565b6040517f2c7b2e060000000000000000000000000000000000000000000000000000000081526004810185905290915060009073ffffffffffffffffffffffffffffffffffffffff7f00000000000000000000000000000000000000000000000000000000000000001690632c7b2e0690602401602060405180830381865afa158015611831573d6000803e3d6000fd5b505050506040513d601f19601f820116820180604052508101906118559190612ef4565b9050600061101182611571565b6040517f70a08231000000000000000000000000000000000000000000000000000000008152336004820152600090819073ffffffffffffffffffffffffffffffffffffffff7f000000000000000000000000000000000000000000000000000000000000000016906370a08231906024015b602060405180830381865afa1580156118f2573d6000803e3d6000fd5b505050506040513d601f19601f820116820180604052508101906119169190612ef4565b60055490915060019060649061192c8385612f3c565b6119369190612f3c565b6119409190612f59565b9250505090565b336000818152600760205260408082205490517fce653d5f0000000000000000000000000000000000000000000000000000000081526004810193909352909173ffffffffffffffffffffffffffffffffffffffff7f0000000000000000000000000000000000000000000000000000000000000000169063ce653d5f90602401602060405180830381865afa1580156119e5573d6000803e3d6000fd5b505050506040513d601f19601f82011682018060405250810190611a099190612ef4565b611a139190612f94565b905090565b6040517f70a082310000000000000000000000000000000000000000000000000000000081523360048201526000907f000000000000000000000000000000000000000000000000000000000000000073ffffffffffffffffffffffffffffffffffffffff16906370a08231906024015b602060405180830381865afa158015611aa6573d6000803e3d6000fd5b505050506040513d601f19601f82011682018060405250810190611a139190612ef4565b60095415611b34576040517f08c379a000000000000000000000000000000000000000000000000000000000815260206004820152600d60248201527f4d503a20426164207374617465000000000000000000000000000000000000006044820152606401610760565b6040517f6352211e00000000000000000000000000000000000000000000000000000000815260048101829052339073ffffffffffffffffffffffffffffffffffffffff7f00000000000000000000000000000000000000000000000000000000000000001690636352211e90602401602060405180830381865afa158015611bc1573d6000803e3d6000fd5b505050506040513d601f19601f82011682018060405250810190611be59190612ed7565b73ffffffffffffffffffffffffffffffffffffffff1614611c62576040517f08c379a000000000000000000000000000000000000000000000000000000000815260206004820152601e60248201527f4d503a204e6f7420746865206f776e6572206f66207468652058454e465400006044820152606401610760565b60008181526008602052604090205473ffffffffffffffffffffffffffffffffffffffff1615611cee576040517f08c379a000000000000000000000000000000000000000000000000000000000815260206004820152601660248201527f4d503a2058454e465420616c72656164792075736564000000000000000000006044820152606401610760565b611cf6612b21565b6040517fbd333033000000000000000000000000000000000000000000000000000000008152600481018290526000907f000000000000000000000000000000000000000000000000000000000000000073ffffffffffffffffffffffffffffffffffffffff169063bd33303390602401602060405180830381865afa158015611d84573d6000803e3d6000fd5b505050506040513d601f19601f82011682018060405250810190611da89190612ef4565b905060008111611e14576040517f08c379a000000000000000000000000000000000000000000000000000000000815260206004820152600d60248201527f4d503a205a65726f204275726e000000000000000000000000000000000000006044820152606401610760565b6040517f443aa533000000000000000000000000000000000000000000000000000000008152600481018390526000907f000000000000000000000000000000000000000000000000000000000000000073ffffffffffffffffffffffffffffffffffffffff169063443aa53390602401602060405180830381865afa158015611ea2573d6000803e3d6000fd5b505050506040513d601f19601f82011682018060405250810190611ec69190612ef4565b90506000611ed382610cd3565b9050611edf8184612f3c565b6009819055611eed90612be0565b600084815260086020526040902080547fffffffffffffffffffffffff00000000000000000000000000000000000000001633179055600554600954606491611f3591612f3c565b611f3f9190612f59565b3360009081526001602052604081208054909190611f5e908490612fa7565b9091555060019050610b61565b60006064600554611f7a611947565b611f849190612f3c565b611a139190612f59565b6005546040517f70a0823100000000000000000000000000000000000000000000000000000000815233600482015260009160649173ffffffffffffffffffffffffffffffffffffffff7f000000000000000000000000000000000000000000000000000000000000000016906370a0823190602401602060405180830381865afa158015612021573d6000803e3d6000fd5b505050506040513d601f19601f82011682018060405250810190611f7a9190612ef4565b33600090815260026020908152604080832054600190925282205461206a9190612f94565b9050612074612b21565b80600003610c4d5750565b600954156120e9576040517f08c379a000000000000000000000000000000000000000000000000000000000815260206004820152600d60248201527f4d503a20426164207374617465000000000000000000000000000000000000006044820152606401610760565b6040517f70a0823100000000000000000000000000000000000000000000000000000000815233600482015281907f000000000000000000000000000000000000000000000000000000000000000073ffffffffffffffffffffffffffffffffffffffff16906370a0823190602401602060405180830381865afa158015612175573d6000803e3d6000fd5b505050506040513d601f19601f820116820180604052508101906121999190612ef4565b1015612201576040517f08c379a000000000000000000000000000000000000000000000000000000000815260206004820152601b60248201527f4d503a204e6f7420656e6f75676820584f4e452062616c616e636500000000006044820152606401610760565b6040517fdd62ed3e00000000000000000000000000000000000000000000000000000000815233600482015230602482015281907f000000000000000000000000000000000000000000000000000000000000000073ffffffffffffffffffffffffffffffffffffffff169063dd62ed3e90604401602060405180830381865afa158015612293573d6000803e3d6000fd5b505050506040513d601f19601f820116820180604052508101906122b79190612ef4565b101561231f576040517f08c379a000000000000000000000000000000000000000000000000000000000815260206004820152601d60248201527f4d503a204e6f7420656e6f75676820584f4e4520616c6c6f77616e63650000006044820152606401610760565b612327612b21565b60055460019060649061233a8385612f3c565b6123449190612f3c565b61234e9190612f59565b600981905561235c90612be0565b6040517f9dc29fac000000000000000000000000000000000000000000000000000000008152336004820152602481018390527f000000000000000000000000000000000000000000000000000000000000000073ffffffffffffffffffffffffffffffffffffffff1690639dc29fac90604401600060405180830381600087803b1580156123ea57600080fd5b505af11580156123fe573d6000803e3d6000fd5b5060049250611266915050565b6040517f70a08231000000000000000000000000000000000000000000000000000000008152336004820152600090819073ffffffffffffffffffffffffffffffffffffffff7f000000000000000000000000000000000000000000000000000000000000000016906370a08231906024016118d5565b336000818152600760205260408082205490517fce653d5f0000000000000000000000000000000000000000000000000000000081526004810193909352909173ffffffffffffffffffffffffffffffffffffffff7f0000000000000000000000000000000000000000000000000000000000000000169063ce653d5f90602401602060405180830381865afa158015612520573d6000803e3d6000fd5b505050506040513d601f19601f820116820180604052508101906125449190612ef4565b61254e9190612f94565b9050818110156125ba576040517f08c379a000000000000000000000000000000000000000000000000000000000815260206004820152601f60248201527f4d503a204e6f7420656e6f75676820556e757365642058454e206275726e73006044820152606401610760565b6125c2612b21565b6125cb82612be0565b33600090815260076020526040812080548492906125ea908490612fa7565b90915550506005546064906125ff9084612f3c565b6126099190612f59565b3360009081526001602052604081208054909190612628908490612fa7565b9091555060009050611266565b6000811161269f576040517f08c379a000000000000000000000000000000000000000000000000000000000815260206004820152600e60248201527f4d503a2042616420616d6f756e740000000000000000000000000000000000006044820152606401610760565b6040517f70a0823100000000000000000000000000000000000000000000000000000000815233600482015281907f000000000000000000000000000000000000000000000000000000000000000073ffffffffffffffffffffffffffffffffffffffff16906370a0823190602401602060405180830381865afa15801561272b573d6000803e3d6000fd5b505050506040513d601f19601f8201168201806040525081019061274f9190612ef4565b10156127b7576040517f08c379a000000000000000000000000000000000000000000000000000000000815260206004820152601b60248201527f4d503a204e6f7420656e6f75676820564d50582062616c616e636500000000006044820152606401610760565b6040517fdd62ed3e00000000000000000000000000000000000000000000000000000000815233600482015230602482015281907f000000000000000000000000000000000000000000000000000000000000000073ffffffffffffffffffffffffffffffffffffffff169063dd62ed3e90604401602060405180830381865afa158015612849573d6000803e3d6000fd5b505050506040513d601f19601f8201168201806040525081019061286d9190612ef4565b10156128d5576040517f08c379a000000000000000000000000000000000000000000000000000000000815260206004820152601d60248201527f4d503a204e6f7420656e6f75676820564d505820616c6c6f77616e63650000006044820152606401610760565b6128dd612b21565b600160006128eb8284612f3c565b90506128f681612be0565b6064600554826129069190612f3c565b6129109190612f59565b336000908152600160205260408120805490919061292f908490612fa7565b90915550506040517f23b872dd00000000000000000000000000000000000000000000000000000000815233600482015260006024820152604481018490527f000000000000000000000000000000000000000000000000000000000000000073ffffffffffffffffffffffffffffffffffffffff16906323b872dd906064016020604051808303816000875af11580156129ce573d6000803e3d6000fd5b505050506040513d601f19601f820116820180604052508101906129f29190613083565b5060036005546040805186815260006020820152908101919091526060810183905233907f4c526793ee27df25da9c62a89bd520a6f789c50d67bf3042b5bbbec110f569959060800160405180910390a3505050565b6040517f70a082310000000000000000000000000000000000000000000000000000000081523360048201526000907f000000000000000000000000000000000000000000000000000000000000000073ffffffffffffffffffffffffffffffffffffffff16906370a0823190602401611a89565b612ac5612d42565b73ffffffffffffffffffffffffffffffffffffffff8116612b15576040517f1e4fbdf700000000000000000000000000000000000000000000000000000000815260006004820152602401610760565b612b1e81612d95565b50565b600060055411612b8d576040517f08c379a000000000000000000000000000000000000000000000000000000000815260206004820152600960248201527f4d503a20456e64656400000000000000000000000000000000000000000000006044820152606401610760565b60006201518060065442612ba19190612f94565b612bab9190612f59565b905060055462015180612bbe9190612f94565b811115612b1e57600160056000828254612bd89190612f94565b909155505050565b336000908152600160205260409020547ffffffffffffffffffffffffffffffffffffffffffffffffff21f494c589c000090612c1d908390612fa7565b1115612cab576040517f08c379a000000000000000000000000000000000000000000000000000000000815260206004820152602660248201527f4d503a2045786365656473206d617820616c6c6f636174696f6e20706572206160448201527f63636f756e7400000000000000000000000000000000000000000000000000006064820152608401610760565b7ffffffffffffffffffffffffffffffffffffffffffffffffff21f494c589c000081600354612cda9190612fa7565b1115612b1e576040517f08c379a000000000000000000000000000000000000000000000000000000000815260206004820181905260248201527f4d503a204578636565647320746f74616c206d617820616c6c6f636174696f6e6044820152606401610760565b60005473ffffffffffffffffffffffffffffffffffffffff163314611615576040517f118cdaa7000000000000000000000000000000000000000000000000000000008152336004820152602401610760565b6000805473ffffffffffffffffffffffffffffffffffffffff8381167fffffffffffffffffffffffff0000000000000000000000000000000000000000831681178455604051919092169283917f8be0079c531659141344cd1fd0a4f28419497f9722a3daafe3b4186f6b6457e09190a35050565b600060208284031215612e1c57600080fd5b5035919050565b600060208284031215612e3557600080fd5b81357fffffffff0000000000000000000000000000000000000000000000000000000081168114612e6557600080fd5b9392505050565b73ffffffffffffffffffffffffffffffffffffffff81168114612b1e57600080fd5b60008060408385031215612ea157600080fd5b8235612eac81612e6c565b946020939093013593505050565b600060208284031215612ecc57600080fd5b8135612e6581612e6c565b600060208284031215612ee957600080fd5b8151612e6581612e6c565b600060208284031215612f0657600080fd5b5051919050565b7f4e487b7100000000000000000000000000000000000000000000000000000000600052601160045260246000fd5b8082028115828204841417612f5357612f53612f0d565b92915050565b600082612f8f577f4e487b7100000000000000000000000000000000000000000000000000000000600052601260045260246000fd5b500490565b81810381811115612f5357612f53612f0d565b80820180821115612f5357612f53612f0d565b80518015158114612fca57600080fd5b919050565b60008060008060008060008060006101208a8c031215612fee57600080fd5b8951985060208a0151975060408a0151965060608a0151955060808a0151945060a08a0151935061302160c08b01612fba565b925061302f60e08b01612fba565b915061303e6101008b01612fba565b90509295985092959850929598565b6000806000806080858703121561306357600080fd5b505082516020840151604085015160609095015191969095509092509050565b60006020828403121561309557600080fd5b612e6582612fba56fea2646970667358221220b109a07bf163344eff9cf6daada0c7057e4babfe5f5b360d937fde5581f72ba064736f6c63430008140033",
  "linkReferences": {
    "@faircrypto/xen-burn/contracts/libs/BurnInfo.sol": {
      "BurnInfo": [
        {
          "length": 20,
          "start": 6280
        }
      ]
    },
    "@faircrypto/xenft/contracts/libs/MintInfo.sol": {
      "MintInfo": [
        {
          "length": 20,
          "start": 4081
        }
      ]
    }
  },
  "deployedLinkReferences": {
    "@faircrypto/xen-burn/contracts/libs/BurnInfo.sol": {
      "BurnInfo": [
        {
          "length": 20,
          "start": 5499
        }
      ]
    },
    "@faircrypto/xenft/contracts/libs/MintInfo.sol": {
      "MintInfo": [
        {
          "length": 20,
          "start": 3300
        }
      ]
    }
  }
}