{
  "contractName": "XenlonMars",
  "abi": [
    {
      "inputs": [
        {
          "internalType": "address",
          "name": "forwarder",
          "type": "address"
        },
        {
          "internalType": "address",
          "name": "dbxenTokenAddress",
          "type": "address"
        }
      ],
      "stateMutability": "nonpayable",
      "type": "constructor"
    },
    {
      "anonymous": false,
      "inputs": [
        {
          "indexed": false,
          "internalType": "address",
          "name": "user",
          "type": "address"
        },
        {
          "indexed": false,
          "internalType": "uint256",
          "name": "amount",
          "type": "uint256"
        }
      ],
      "name": "burned",
      "type": "event"
    },
    {
      "inputs": [],
      "name": "XLON_PER_DXN",
      "outputs": [
        {
          "internalType": "uint256",
          "name": "",
          "type": "uint256"
        }
      ],
      "stateMutability": "view",
      "type": "function"
    },
    {
      "inputs": [
        {
          "internalType": "uint256",
          "name": "",
          "type": "uint256"
        }
      ],
      "name": "burnTimestamps",
      "outputs": [
        {
          "internalType": "uint256",
          "name": "",
          "type": "uint256"
        }
      ],
      "stateMutability": "view",
      "type": "function"
    },
    {
      "inputs": [
        {
          "internalType": "uint256",
          "name": "",
          "type": "uint256"
        }
      ],
      "name": "burnsByTimestamp",
      "outputs": [
        {
          "internalType": "address",
          "name": "user",
          "type": "address"
        },
        {
          "internalType": "uint256",
          "name": "amount",
          "type": "uint256"
        },
        {
          "internalType": "uint256",
          "name": "reward",
          "type": "uint256"
        }
      ],
      "stateMutability": "view",
      "type": "function"
    },
    {
      "inputs": [
        {
          "internalType": "address",
          "name": "",
          "type": "address"
        }
      ],
      "name": "burnsByUser",
      "outputs": [
        {
          "internalType": "uint256",
          "name": "",
          "type": "uint256"
        }
      ],
      "stateMutability": "view",
      "type": "function"
    },
    {
      "inputs": [],
      "name": "dxn",
      "outputs": [
        {
          "internalType": "contract DBXenERC20",
          "name": "",
          "type": "address"
        }
      ],
      "stateMutability": "view",
      "type": "function"
    },
    {
      "inputs": [],
      "name": "initialTimestamp",
      "outputs": [
        {
          "internalType": "uint256",
          "name": "",
          "type": "uint256"
        }
      ],
      "stateMutability": "view",
      "type": "function"
    },
    {
      "inputs": [
        {
          "internalType": "address",
          "name": "forwarder",
          "type": "address"
        }
      ],
      "name": "isTrustedForwarder",
      "outputs": [
        {
          "internalType": "bool",
          "name": "",
          "type": "bool"
        }
      ],
      "stateMutability": "view",
      "type": "function"
    },
    {
      "inputs": [],
      "name": "totalBurns",
      "outputs": [
        {
          "internalType": "uint256",
          "name": "",
          "type": "uint256"
        }
      ],
      "stateMutability": "view",
      "type": "function"
    },
    {
      "inputs": [],
      "name": "xlon",
      "outputs": [
        {
          "internalType": "contract XenlonMarsERC20",
          "name": "",
          "type": "address"
        }
      ],
      "stateMutability": "view",
      "type": "function"
    },
    {
      "inputs": [
        {
          "internalType": "uint256",
          "name": "amount",
          "type": "uint256"
        }
      ],
      "name": "burn",
      "outputs": [],
      "stateMutability": "nonpayable",
      "type": "function"
    }
  ],
  "bytecode": "0x60c06040523480156200001157600080fd5b5060405162003985380380620039858339818101604052810190620000379190620001aa565b818073ffffffffffffffffffffffffffffffffffffffff1660808173ffffffffffffffffffffffffffffffffffffffff1681525050506001600081905550604051620000839062000132565b604051809103906000f080158015620000a0573d6000803e3d6000fd5b50600160006101000a81548173ffffffffffffffffffffffffffffffffffffffff021916908373ffffffffffffffffffffffffffffffffffffffff1602179055504260a0818152505080600260006101000a81548173ffffffffffffffffffffffffffffffffffffffff021916908373ffffffffffffffffffffffffffffffffffffffff1602179055505050620001f1565b612b5d8062000e2883390190565b600080fd5b600073ffffffffffffffffffffffffffffffffffffffff82169050919050565b6000620001728262000145565b9050919050565b620001848162000165565b81146200019057600080fd5b50565b600081519050620001a48162000179565b92915050565b60008060408385031215620001c457620001c362000140565b5b6000620001d48582860162000193565b9250506020620001e78582860162000193565b9150509250929050565b60805160a051610c116200021760003960006105e7015260006105290152610c116000f3fe608060405234801561001057600080fd5b506004361061009d5760003560e01c80635afe54d2116100665780635afe54d21461015c578063694ca01d1461017a5780637796f39f14610198578063c7f851bc146101c8578063d6d14171146101f85761009d565b8062128cbb146100a25780630d90db81146100c057806342966c68146100de57806345c724e2146100fa578063572b6c051461012c575b600080fd5b6100aa610216565b6040516100b791906107c4565b60405180910390f35b6100c861023c565b6040516100d591906107f8565b60405180910390f35b6100f860048036038101906100f39190610844565b610244565b005b610114600480360381019061010f9190610844565b6104db565b60405161012393929190610892565b60405180910390f35b610146600480360381019061014191906108f5565b610525565b604051610153919061093d565b60405180910390f35b61016461057d565b6040516101719190610979565b60405180910390f35b6101826105a3565b60405161018f91906107f8565b60405180910390f35b6101b260048036038101906101ad91906108f5565b6105a9565b6040516101bf91906107f8565b60405180910390f35b6101e260048036038101906101dd9190610844565b6105c1565b6040516101ef91906107f8565b60405180910390f35b6102006105e5565b60405161020d91906107f8565b60405180910390f35b600160009054906101000a900473ffffffffffffffffffffffffffffffffffffffff1681565b6305f5e10081565b600260009054906101000a900473ffffffffffffffffffffffffffffffffffffffff1673ffffffffffffffffffffffffffffffffffffffff166323b872dd3361dead846040518463ffffffff1660e01b81526004016102a593929190610994565b6020604051808303816000875af11580156102c4573d6000803e3d6000fd5b505050506040513d601f19601f820116820180604052508101906102e891906109f7565b610327576040517f08c379a000000000000000000000000000000000000000000000000000000000815260040161031e90610a81565b60405180910390fd5b6000604051806060016040528061033c610609565b73ffffffffffffffffffffffffffffffffffffffff1681526020018381526020016305f5e1008461036d9190610ad0565b8152509050806006600042815260200190815260200160002060008201518160000160006101000a81548173ffffffffffffffffffffffffffffffffffffffff021916908373ffffffffffffffffffffffffffffffffffffffff16021790555060208201518160010155604082015181600201559050506003429080600181540180825580915050600190039060005260206000200160009091909190915055816005600061041a610609565b73ffffffffffffffffffffffffffffffffffffffff1673ffffffffffffffffffffffffffffffffffffffff16815260200190815260200160002060008282546104639190610b12565b9250508190555060016004546104799190610b12565b6004819055507f8b1897d4e7a3b42570088bb1182eb6518c96a754d44bc9edd4669568bfa983266104a8610609565b836040516104b7929190610b46565b60405180910390a16104d76305f5e100836104d29190610ad0565b61063b565b5050565b60066020528060005260406000206000915090508060000160009054906101000a900473ffffffffffffffffffffffffffffffffffffffff16908060010154908060020154905083565b60007f000000000000000000000000000000000000000000000000000000000000000073ffffffffffffffffffffffffffffffffffffffff168273ffffffffffffffffffffffffffffffffffffffff16149050919050565b600260009054906101000a900473ffffffffffffffffffffffffffffffffffffffff1681565b60045481565b60056020528060005260406000206000915090505481565b600381815481106105d157600080fd5b906000526020600020016000915090505481565b7f000000000000000000000000000000000000000000000000000000000000000081565b600061061433610525565b1561062857601436033560601c9050610637565b6106306106e4565b9050610638565b5b90565b6106436106ec565b600160009054906101000a900473ffffffffffffffffffffffffffffffffffffffff1673ffffffffffffffffffffffffffffffffffffffff166340c10f19610689610609565b836040518363ffffffff1660e01b81526004016106a7929190610b46565b600060405180830381600087803b1580156106c157600080fd5b505af11580156106d5573d6000803e3d6000fd5b505050506106e161073b565b50565b600033905090565b600260005403610731576040517f08c379a000000000000000000000000000000000000000000000000000000000815260040161072890610bbb565b60405180910390fd5b6002600081905550565b6001600081905550565b600073ffffffffffffffffffffffffffffffffffffffff82169050919050565b6000819050919050565b600061078a61078561078084610745565b610765565b610745565b9050919050565b600061079c8261076f565b9050919050565b60006107ae82610791565b9050919050565b6107be816107a3565b82525050565b60006020820190506107d960008301846107b5565b92915050565b6000819050919050565b6107f2816107df565b82525050565b600060208201905061080d60008301846107e9565b92915050565b600080fd5b610821816107df565b811461082c57600080fd5b50565b60008135905061083e81610818565b92915050565b60006020828403121561085a57610859610813565b5b60006108688482850161082f565b91505092915050565b600061087c82610745565b9050919050565b61088c81610871565b82525050565b60006060820190506108a76000830186610883565b6108b460208301856107e9565b6108c160408301846107e9565b949350505050565b6108d281610871565b81146108dd57600080fd5b50565b6000813590506108ef816108c9565b92915050565b60006020828403121561090b5761090a610813565b5b6000610919848285016108e0565b91505092915050565b60008115159050919050565b61093781610922565b82525050565b6000602082019050610952600083018461092e565b92915050565b600061096382610791565b9050919050565b61097381610958565b82525050565b600060208201905061098e600083018461096a565b92915050565b60006060820190506109a96000830186610883565b6109b66020830185610883565b6109c360408301846107e9565b949350505050565b6109d481610922565b81146109df57600080fd5b50565b6000815190506109f1816109cb565b92915050565b600060208284031215610a0d57610a0c610813565b5b6000610a1b848285016109e2565b91505092915050565b600082825260208201905092915050565b7f6275726e206661696c6564000000000000000000000000000000000000000000600082015250565b6000610a6b600b83610a24565b9150610a7682610a35565b602082019050919050565b60006020820190508181036000830152610a9a81610a5e565b9050919050565b7f4e487b7100000000000000000000000000000000000000000000000000000000600052601160045260246000fd5b6000610adb826107df565b9150610ae6836107df565b9250828202610af4816107df565b91508282048414831517610b0b57610b0a610aa1565b5b5092915050565b6000610b1d826107df565b9150610b28836107df565b9250828201905080821115610b4057610b3f610aa1565b5b92915050565b6000604082019050610b5b6000830185610883565b610b6860208301846107e9565b9392505050565b7f5265656e7472616e637947756172643a207265656e7472616e742063616c6c00600082015250565b6000610ba5601f83610a24565b9150610bb082610b6f565b602082019050919050565b60006020820190508181036000830152610bd481610b98565b905091905056fea26469706673582212205ac6c632bc495afd9b3d43cfacb2861d95a056feb086f2ab0582414a76a46de064736f6c634300081100336101406040523480156200001257600080fd5b506040518060400160405280600b81526020017f58656e6c6f6e204d617273000000000000000000000000000000000000000000815250806040518060400160405280600181526020017f31000000000000000000000000000000000000000000000000000000000000008152506040518060400160405280600b81526020017f58656e6c6f6e204d6172730000000000000000000000000000000000000000008152506040518060400160405280600481526020017f584c4f4e000000000000000000000000000000000000000000000000000000008152508160039081620000fd91906200056f565b5080600490816200010f91906200056f565b50505060008280519060200120905060008280519060200120905060007f8b73c3c69bb8fe3d512ecc4cf759cc79239f7b179b0ffacaa9a75d522b39400f90508260e081815250508161010081815250504660a081815250506200017b818484620001eb60201b60201c565b608081815250503073ffffffffffffffffffffffffffffffffffffffff1660c08173ffffffffffffffffffffffffffffffffffffffff1681525050806101208181525050505050505050620001e5620001d96200022760201b60201c565b6200022f60201b60201c565b62000724565b6000838383463060405160200162000208959493929190620006c7565b6040516020818303038152906040528051906020012090509392505050565b600033905090565b6000600760009054906101000a900473ffffffffffffffffffffffffffffffffffffffff16905081600760006101000a81548173ffffffffffffffffffffffffffffffffffffffff021916908373ffffffffffffffffffffffffffffffffffffffff1602179055508173ffffffffffffffffffffffffffffffffffffffff168173ffffffffffffffffffffffffffffffffffffffff167f8be0079c531659141344cd1fd0a4f28419497f9722a3daafe3b4186f6b6457e060405160405180910390a35050565b600081519050919050565b7f4e487b7100000000000000000000000000000000000000000000000000000000600052604160045260246000fd5b7f4e487b7100000000000000000000000000000000000000000000000000000000600052602260045260246000fd5b600060028204905060018216806200037757607f821691505b6020821081036200038d576200038c6200032f565b5b50919050565b60008190508160005260206000209050919050565b60006020601f8301049050919050565b600082821b905092915050565b600060088302620003f77fffffffffffffffffffffffffffffffffffffffffffffffffffffffffffffffff82620003b8565b620004038683620003b8565b95508019841693508086168417925050509392505050565b6000819050919050565b6000819050919050565b6000620004506200044a62000444846200041b565b62000425565b6200041b565b9050919050565b6000819050919050565b6200046c836200042f565b620004846200047b8262000457565b848454620003c5565b825550505050565b600090565b6200049b6200048c565b620004a881848462000461565b505050565b5b81811015620004d057620004c460008262000491565b600181019050620004ae565b5050565b601f8211156200051f57620004e98162000393565b620004f484620003a8565b8101602085101562000504578190505b6200051c6200051385620003a8565b830182620004ad565b50505b505050565b600082821c905092915050565b6000620005446000198460080262000524565b1980831691505092915050565b60006200055f838362000531565b9150826002028217905092915050565b6200057a82620002f5565b67ffffffffffffffff81111562000596576200059562000300565b5b620005a282546200035e565b620005af828285620004d4565b600060209050601f831160018114620005e75760008415620005d2578287015190505b620005de858262000551565b8655506200064e565b601f198416620005f78662000393565b60005b828110156200062157848901518255600182019150602085019450602081019050620005fa565b868310156200064157848901516200063d601f89168262000531565b8355505b6001600288020188555050505b505050505050565b6000819050919050565b6200066b8162000656565b82525050565b6200067c816200041b565b82525050565b600073ffffffffffffffffffffffffffffffffffffffff82169050919050565b6000620006af8262000682565b9050919050565b620006c181620006a2565b82525050565b600060a082019050620006de600083018862000660565b620006ed602083018762000660565b620006fc604083018662000660565b6200070b606083018562000671565b6200071a6080830184620006b6565b9695505050505050565b60805160a05160c05160e05161010051610120516123e9620007746000396000610ecf01526000610f1101526000610ef001526000610e2501526000610e7b01526000610ea401526123e96000f3fe608060405234801561001057600080fd5b50600436106101165760003560e01c8063715018a6116100a2578063a457c2d711610071578063a457c2d7146102e5578063a9059cbb14610315578063d505accf14610345578063dd62ed3e14610361578063f2fde38b1461039157610116565b8063715018a61461026f5780637ecebe00146102795780638da5cb5b146102a957806395d89b41146102c757610116565b8063313ce567116100e9578063313ce567146101b75780633644e515146101d557806339509351146101f357806340c10f191461022357806370a082311461023f57610116565b806306fdde031461011b578063095ea7b31461013957806318160ddd1461016957806323b872dd14610187575b600080fd5b6101236103ad565b60405161013091906115eb565b60405180910390f35b610153600480360381019061014e91906116a6565b61043f565b6040516101609190611701565b60405180910390f35b610171610462565b60405161017e919061172b565b60405180910390f35b6101a1600480360381019061019c9190611746565b61046c565b6040516101ae9190611701565b60405180910390f35b6101bf61049b565b6040516101cc91906117b5565b60405180910390f35b6101dd6104a4565b6040516101ea91906117e9565b60405180910390f35b61020d600480360381019061020891906116a6565b6104b3565b60405161021a9190611701565b60405180910390f35b61023d600480360381019061023891906116a6565b6104ea565b005b61025960048036038101906102549190611804565b610500565b604051610266919061172b565b60405180910390f35b610277610548565b005b610293600480360381019061028e9190611804565b61055c565b6040516102a0919061172b565b60405180910390f35b6102b16105ac565b6040516102be9190611840565b60405180910390f35b6102cf6105d6565b6040516102dc91906115eb565b60405180910390f35b6102ff60048036038101906102fa91906116a6565b610668565b60405161030c9190611701565b60405180910390f35b61032f600480360381019061032a91906116a6565b6106df565b60405161033c9190611701565b60405180910390f35b61035f600480360381019061035a91906118b3565b610702565b005b61037b60048036038101906103769190611955565b610844565b604051610388919061172b565b60405180910390f35b6103ab60048036038101906103a69190611804565b6108cb565b005b6060600380546103bc906119c4565b80601f01602080910402602001604051908101604052809291908181526020018280546103e8906119c4565b80156104355780601f1061040a57610100808354040283529160200191610435565b820191906000526020600020905b81548152906001019060200180831161041857829003601f168201915b5050505050905090565b60008061044a61094e565b9050610457818585610956565b600191505092915050565b6000600254905090565b60008061047761094e565b9050610484858285610b1f565b61048f858585610bab565b60019150509392505050565b60006012905090565b60006104ae610e21565b905090565b6000806104be61094e565b90506104df8185856104d08589610844565b6104da9190611a24565b610956565b600191505092915050565b6104f2610f3b565b6104fc8282610fb9565b5050565b60008060008373ffffffffffffffffffffffffffffffffffffffff1673ffffffffffffffffffffffffffffffffffffffff168152602001908152602001600020549050919050565b610550610f3b565b61055a600061110f565b565b60006105a5600560008473ffffffffffffffffffffffffffffffffffffffff1673ffffffffffffffffffffffffffffffffffffffff1681526020019081526020016000206111d5565b9050919050565b6000600760009054906101000a900473ffffffffffffffffffffffffffffffffffffffff16905090565b6060600480546105e5906119c4565b80601f0160208091040260200160405190810160405280929190818152602001828054610611906119c4565b801561065e5780601f106106335761010080835404028352916020019161065e565b820191906000526020600020905b81548152906001019060200180831161064157829003601f168201915b5050505050905090565b60008061067361094e565b905060006106818286610844565b9050838110156106c6576040517f08c379a00000000000000000000000000000000000000000000000000000000081526004016106bd90611aca565b60405180910390fd5b6106d38286868403610956565b60019250505092915050565b6000806106ea61094e565b90506106f7818585610bab565b600191505092915050565b83421115610745576040517f08c379a000000000000000000000000000000000000000000000000000000000815260040161073c90611b36565b60405180910390fd5b60007f6e71edae12b1b97f4d1f60370fef10105fa2faae0126114a169c64845d6126c98888886107748c6111e3565b8960405160200161078a96959493929190611b56565b60405160208183030381529060405280519060200120905060006107ad82611241565b905060006107bd8287878761125b565b90508973ffffffffffffffffffffffffffffffffffffffff168173ffffffffffffffffffffffffffffffffffffffff161461082d576040517f08c379a000000000000000000000000000000000000000000000000000000000815260040161082490611c03565b60405180910390fd5b6108388a8a8a610956565b50505050505050505050565b6000600160008473ffffffffffffffffffffffffffffffffffffffff1673ffffffffffffffffffffffffffffffffffffffff16815260200190815260200160002060008373ffffffffffffffffffffffffffffffffffffffff1673ffffffffffffffffffffffffffffffffffffffff16815260200190815260200160002054905092915050565b6108d3610f3b565b600073ffffffffffffffffffffffffffffffffffffffff168173ffffffffffffffffffffffffffffffffffffffff1603610942576040517f08c379a000000000000000000000000000000000000000000000000000000000815260040161093990611c95565b60405180910390fd5b61094b8161110f565b50565b600033905090565b600073ffffffffffffffffffffffffffffffffffffffff168373ffffffffffffffffffffffffffffffffffffffff16036109c5576040517f08c379a00000000000000000000000000000000000000000000000000000000081526004016109bc90611d27565b60405180910390fd5b600073ffffffffffffffffffffffffffffffffffffffff168273ffffffffffffffffffffffffffffffffffffffff1603610a34576040517f08c379a0000000000000000000000000000000000000000000000000000000008152600401610a2b90611db9565b60405180910390fd5b80600160008573ffffffffffffffffffffffffffffffffffffffff1673ffffffffffffffffffffffffffffffffffffffff16815260200190815260200160002060008473ffffffffffffffffffffffffffffffffffffffff1673ffffffffffffffffffffffffffffffffffffffff168152602001908152602001600020819055508173ffffffffffffffffffffffffffffffffffffffff168373ffffffffffffffffffffffffffffffffffffffff167f8c5be1e5ebec7d5bd14f71427d1e84f3dd0314c0f7b2291e5b200ac8c7c3b92583604051610b12919061172b565b60405180910390a3505050565b6000610b2b8484610844565b90507fffffffffffffffffffffffffffffffffffffffffffffffffffffffffffffffff8114610ba55781811015610b97576040517f08c379a0000000000000000000000000000000000000000000000000000000008152600401610b8e90611e25565b60405180910390fd5b610ba48484848403610956565b5b50505050565b600073ffffffffffffffffffffffffffffffffffffffff168373ffffffffffffffffffffffffffffffffffffffff1603610c1a576040517f08c379a0000000000000000000000000000000000000000000000000000000008152600401610c1190611eb7565b60405180910390fd5b600073ffffffffffffffffffffffffffffffffffffffff168273ffffffffffffffffffffffffffffffffffffffff1603610c89576040517f08c379a0000000000000000000000000000000000000000000000000000000008152600401610c8090611f49565b60405180910390fd5b610c94838383611286565b60008060008573ffffffffffffffffffffffffffffffffffffffff1673ffffffffffffffffffffffffffffffffffffffff16815260200190815260200160002054905081811015610d1a576040517f08c379a0000000000000000000000000000000000000000000000000000000008152600401610d1190611fdb565b60405180910390fd5b8181036000808673ffffffffffffffffffffffffffffffffffffffff1673ffffffffffffffffffffffffffffffffffffffff16815260200190815260200160002081905550816000808573ffffffffffffffffffffffffffffffffffffffff1673ffffffffffffffffffffffffffffffffffffffff168152602001908152602001600020600082825401925050819055508273ffffffffffffffffffffffffffffffffffffffff168473ffffffffffffffffffffffffffffffffffffffff167fddf252ad1be2c89b69c2b068fc378daa952ba7f163c4a11628f55a4df523b3ef84604051610e08919061172b565b60405180910390a3610e1b84848461128b565b50505050565b60007f000000000000000000000000000000000000000000000000000000000000000073ffffffffffffffffffffffffffffffffffffffff163073ffffffffffffffffffffffffffffffffffffffff16148015610e9d57507f000000000000000000000000000000000000000000000000000000000000000046145b15610eca577f00000000000000000000000000000000000000000000000000000000000000009050610f38565b610f357f00000000000000000000000000000000000000000000000000000000000000007f00000000000000000000000000000000000000000000000000000000000000007f0000000000000000000000000000000000000000000000000000000000000000611290565b90505b90565b610f4361094e565b73ffffffffffffffffffffffffffffffffffffffff16610f616105ac565b73ffffffffffffffffffffffffffffffffffffffff1614610fb7576040517f08c379a0000000000000000000000000000000000000000000000000000000008152600401610fae90612047565b60405180910390fd5b565b600073ffffffffffffffffffffffffffffffffffffffff168273ffffffffffffffffffffffffffffffffffffffff1603611028576040517f08c379a000000000000000000000000000000000000000000000000000000000815260040161101f906120b3565b60405180910390fd5b61103460008383611286565b80600260008282546110469190611a24565b92505081905550806000808473ffffffffffffffffffffffffffffffffffffffff1673ffffffffffffffffffffffffffffffffffffffff168152602001908152602001600020600082825401925050819055508173ffffffffffffffffffffffffffffffffffffffff16600073ffffffffffffffffffffffffffffffffffffffff167fddf252ad1be2c89b69c2b068fc378daa952ba7f163c4a11628f55a4df523b3ef836040516110f7919061172b565b60405180910390a361110b6000838361128b565b5050565b6000600760009054906101000a900473ffffffffffffffffffffffffffffffffffffffff16905081600760006101000a81548173ffffffffffffffffffffffffffffffffffffffff021916908373ffffffffffffffffffffffffffffffffffffffff1602179055508173ffffffffffffffffffffffffffffffffffffffff168173ffffffffffffffffffffffffffffffffffffffff167f8be0079c531659141344cd1fd0a4f28419497f9722a3daafe3b4186f6b6457e060405160405180910390a35050565b600081600001549050919050565b600080600560008473ffffffffffffffffffffffffffffffffffffffff1673ffffffffffffffffffffffffffffffffffffffff1681526020019081526020016000209050611230816111d5565b915061123b816112ca565b50919050565b600061125461124e610e21565b836112e0565b9050919050565b600080600061126c87878787611313565b91509150611279816113f5565b8192505050949350505050565b505050565b505050565b600083838346306040516020016112ab9594939291906120d3565b6040516020818303038152906040528051906020012090509392505050565b6001816000016000828254019250508190555050565b600082826040516020016112f592919061219e565b60405160208183030381529060405280519060200120905092915050565b6000807f7fffffffffffffffffffffffffffffff5d576e7357a4501ddfe92f46681b20a08360001c111561134e5760006003915091506113ec565b60006001878787876040516000815260200160405260405161137394939291906121d5565b6020604051602081039080840390855afa158015611395573d6000803e3d6000fd5b505050602060405103519050600073ffffffffffffffffffffffffffffffffffffffff168173ffffffffffffffffffffffffffffffffffffffff16036113e3576000600192509250506113ec565b80600092509250505b94509492505050565b600060048111156114095761140861221a565b5b81600481111561141c5761141b61221a565b5b031561155857600160048111156114365761143561221a565b5b8160048111156114495761144861221a565b5b03611489576040517f08c379a000000000000000000000000000000000000000000000000000000000815260040161148090612295565b60405180910390fd5b6002600481111561149d5761149c61221a565b5b8160048111156114b0576114af61221a565b5b036114f0576040517f08c379a00000000000000000000000000000000000000000000000000000000081526004016114e790612301565b60405180910390fd5b600360048111156115045761150361221a565b5b8160048111156115175761151661221a565b5b03611557576040517f08c379a000000000000000000000000000000000000000000000000000000000815260040161154e90612393565b60405180910390fd5b5b50565b600081519050919050565b600082825260208201905092915050565b60005b8381101561159557808201518184015260208101905061157a565b60008484015250505050565b6000601f19601f8301169050919050565b60006115bd8261155b565b6115c78185611566565b93506115d7818560208601611577565b6115e0816115a1565b840191505092915050565b6000602082019050818103600083015261160581846115b2565b905092915050565b600080fd5b600073ffffffffffffffffffffffffffffffffffffffff82169050919050565b600061163d82611612565b9050919050565b61164d81611632565b811461165857600080fd5b50565b60008135905061166a81611644565b92915050565b6000819050919050565b61168381611670565b811461168e57600080fd5b50565b6000813590506116a08161167a565b92915050565b600080604083850312156116bd576116bc61160d565b5b60006116cb8582860161165b565b92505060206116dc85828601611691565b9150509250929050565b60008115159050919050565b6116fb816116e6565b82525050565b600060208201905061171660008301846116f2565b92915050565b61172581611670565b82525050565b6000602082019050611740600083018461171c565b92915050565b60008060006060848603121561175f5761175e61160d565b5b600061176d8682870161165b565b935050602061177e8682870161165b565b925050604061178f86828701611691565b9150509250925092565b600060ff82169050919050565b6117af81611799565b82525050565b60006020820190506117ca60008301846117a6565b92915050565b6000819050919050565b6117e3816117d0565b82525050565b60006020820190506117fe60008301846117da565b92915050565b60006020828403121561181a5761181961160d565b5b60006118288482850161165b565b91505092915050565b61183a81611632565b82525050565b60006020820190506118556000830184611831565b92915050565b61186481611799565b811461186f57600080fd5b50565b6000813590506118818161185b565b92915050565b611890816117d0565b811461189b57600080fd5b50565b6000813590506118ad81611887565b92915050565b600080600080600080600060e0888a0312156118d2576118d161160d565b5b60006118e08a828b0161165b565b97505060206118f18a828b0161165b565b96505060406119028a828b01611691565b95505060606119138a828b01611691565b94505060806119248a828b01611872565b93505060a06119358a828b0161189e565b92505060c06119468a828b0161189e565b91505092959891949750929550565b6000806040838503121561196c5761196b61160d565b5b600061197a8582860161165b565b925050602061198b8582860161165b565b9150509250929050565b7f4e487b7100000000000000000000000000000000000000000000000000000000600052602260045260246000fd5b600060028204905060018216806119dc57607f821691505b6020821081036119ef576119ee611995565b5b50919050565b7f4e487b7100000000000000000000000000000000000000000000000000000000600052601160045260246000fd5b6000611a2f82611670565b9150611a3a83611670565b9250828201905080821115611a5257611a516119f5565b5b92915050565b7f45524332303a2064656372656173656420616c6c6f77616e63652062656c6f7760008201527f207a65726f000000000000000000000000000000000000000000000000000000602082015250565b6000611ab4602583611566565b9150611abf82611a58565b604082019050919050565b60006020820190508181036000830152611ae381611aa7565b9050919050565b7f45524332305065726d69743a206578706972656420646561646c696e65000000600082015250565b6000611b20601d83611566565b9150611b2b82611aea565b602082019050919050565b60006020820190508181036000830152611b4f81611b13565b9050919050565b600060c082019050611b6b60008301896117da565b611b786020830188611831565b611b856040830187611831565b611b92606083018661171c565b611b9f608083018561171c565b611bac60a083018461171c565b979650505050505050565b7f45524332305065726d69743a20696e76616c6964207369676e61747572650000600082015250565b6000611bed601e83611566565b9150611bf882611bb7565b602082019050919050565b60006020820190508181036000830152611c1c81611be0565b9050919050565b7f4f776e61626c653a206e6577206f776e657220697320746865207a65726f206160008201527f6464726573730000000000000000000000000000000000000000000000000000602082015250565b6000611c7f602683611566565b9150611c8a82611c23565b604082019050919050565b60006020820190508181036000830152611cae81611c72565b9050919050565b7f45524332303a20617070726f76652066726f6d20746865207a65726f2061646460008201527f7265737300000000000000000000000000000000000000000000000000000000602082015250565b6000611d11602483611566565b9150611d1c82611cb5565b604082019050919050565b60006020820190508181036000830152611d4081611d04565b9050919050565b7f45524332303a20617070726f766520746f20746865207a65726f20616464726560008201527f7373000000000000000000000000000000000000000000000000000000000000602082015250565b6000611da3602283611566565b9150611dae82611d47565b604082019050919050565b60006020820190508181036000830152611dd281611d96565b9050919050565b7f45524332303a20696e73756666696369656e7420616c6c6f77616e6365000000600082015250565b6000611e0f601d83611566565b9150611e1a82611dd9565b602082019050919050565b60006020820190508181036000830152611e3e81611e02565b9050919050565b7f45524332303a207472616e736665722066726f6d20746865207a65726f20616460008201527f6472657373000000000000000000000000000000000000000000000000000000602082015250565b6000611ea1602583611566565b9150611eac82611e45565b604082019050919050565b60006020820190508181036000830152611ed081611e94565b9050919050565b7f45524332303a207472616e7366657220746f20746865207a65726f206164647260008201527f6573730000000000000000000000000000000000000000000000000000000000602082015250565b6000611f33602383611566565b9150611f3e82611ed7565b604082019050919050565b60006020820190508181036000830152611f6281611f26565b9050919050565b7f45524332303a207472616e7366657220616d6f756e742065786365656473206260008201527f616c616e63650000000000000000000000000000000000000000000000000000602082015250565b6000611fc5602683611566565b9150611fd082611f69565b604082019050919050565b60006020820190508181036000830152611ff481611fb8565b9050919050565b7f4f776e61626c653a2063616c6c6572206973206e6f7420746865206f776e6572600082015250565b6000612031602083611566565b915061203c82611ffb565b602082019050919050565b6000602082019050818103600083015261206081612024565b9050919050565b7f45524332303a206d696e7420746f20746865207a65726f206164647265737300600082015250565b600061209d601f83611566565b91506120a882612067565b602082019050919050565b600060208201905081810360008301526120cc81612090565b9050919050565b600060a0820190506120e860008301886117da565b6120f560208301876117da565b61210260408301866117da565b61210f606083018561171c565b61211c6080830184611831565b9695505050505050565b600081905092915050565b7f1901000000000000000000000000000000000000000000000000000000000000600082015250565b6000612167600283612126565b915061217282612131565b600282019050919050565b6000819050919050565b612198612193826117d0565b61217d565b82525050565b60006121a98261215a565b91506121b58285612187565b6020820191506121c58284612187565b6020820191508190509392505050565b60006080820190506121ea60008301876117da565b6121f760208301866117a6565b61220460408301856117da565b61221160608301846117da565b95945050505050565b7f4e487b7100000000000000000000000000000000000000000000000000000000600052602160045260246000fd5b7f45434453413a20696e76616c6964207369676e61747572650000000000000000600082015250565b600061227f601883611566565b915061228a82612249565b602082019050919050565b600060208201905081810360008301526122ae81612272565b9050919050565b7f45434453413a20696e76616c6964207369676e6174757265206c656e67746800600082015250565b60006122eb601f83611566565b91506122f6826122b5565b602082019050919050565b6000602082019050818103600083015261231a816122de565b9050919050565b7f45434453413a20696e76616c6964207369676e6174757265202773272076616c60008201527f7565000000000000000000000000000000000000000000000000000000000000602082015250565b600061237d602283611566565b915061238882612321565b604082019050919050565b600060208201905081810360008301526123ac81612370565b905091905056fea264697066735822122010663c987bf8e1720bbfda4ab2b96f82905183f8cb143a8e7e82814f4a09a6ec64736f6c63430008110033",
  "immutableReferences": {
    "124": [
      {
        "length": 32,
        "start": 1321
      }
    ],
    "4185": [
      {
        "length": 32,
        "start": 1511
      }
    ]
  },
  "source": "// SPDX-License-Identifier: MIT\npragma solidity ^0.8.9;\n\nimport \"@openzeppelin/contracts/metatx/ERC2771Context.sol\";\nimport \"@openzeppelin/contracts/token/ERC20/utils/SafeERC20.sol\";\nimport \"@openzeppelin/contracts/security/ReentrancyGuard.sol\";\nimport \"./XenlonMarsERC20.sol\";\nimport \"./DBXenERC20.sol\";\n\ncontract XenlonMars is ERC2771Context, ReentrancyGuard {\n    using SafeERC20 for XenlonMarsERC20;\n\n    struct BurnDetails {\n        address user;\n        uint256 amount;\n        uint256 reward;\n    }\n\n    /**\n     * Xenlon Mars token contract\n     */\n    XenlonMarsERC20 public xlon;\n\n    /**\n     * DBXen Token contract.\n     */\n    DBXenERC20 public dxn;\n\n    /**\n     * Contract creation timestamp.\n     */\n    uint256 public immutable initialTimestamp;\n\n    /**\n     * Timestamps logged per burn.\n     */\n    uint256[] public burnTimestamps;\n\n    /**\n     * Total number of burns.\n     */\n    uint256 public totalBurns;\n\n    /**\n     * Amount of XLON tokens per DXN burned\n     */\n    uint256 public constant XLON_PER_DXN = 100_000_000;\n\n    /**\n     * The address DXN is sent to for burning\n     */\n    address private constant BURN_ADDRESS =\n        0x000000000000000000000000000000000000dEaD;\n\n    // user address => DXN burn amount\n    mapping(address => uint256) public burnsByUser;\n\n    // timestamp => burn details\n    mapping(uint256 => BurnDetails) public burnsByTimestamp;\n\n    event burned(address user, uint256 amount);\n\n    constructor(\n        address forwarder,\n        address dbxenTokenAddress\n    ) ERC2771Context(forwarder) {\n        xlon = new XenlonMarsERC20();\n        initialTimestamp = block.timestamp;\n        dxn = DBXenERC20(dbxenTokenAddress);\n    }\n\n    function mint(uint256 amount) internal nonReentrant {\n        xlon.mint(_msgSender(), amount);\n    }\n\n    function burn(uint256 amount) external {\n        require(\n            dxn.transferFrom(msg.sender, address(BURN_ADDRESS), amount),\n            \"burn failed\"\n        );\n        BurnDetails memory burnDetails = BurnDetails({\n            user: _msgSender(),\n            amount: amount,\n            reward: amount * XLON_PER_DXN\n        });\n        burnsByTimestamp[block.timestamp] = burnDetails;\n        burnTimestamps.push(block.timestamp);\n        burnsByUser[_msgSender()] += amount;\n        totalBurns = totalBurns + 1;\n        emit burned(_msgSender(), amount);\n        mint(amount * XLON_PER_DXN);\n    }\n}\n",
  "sourcePath": "/Users/lbelyaev/dev/xenlonmars/contracts/XenlonMars.sol",
  "compiler": {
    "name": "solc",
    "version": "0.8.17+commit.8df45f5f.Emscripten.clang"
  },
  "schemaVersion": "3.4.10",
  "updatedAt": "2023-04-06T06:14:16.236Z",
  "devdoc": {
    "kind": "dev",
    "methods": {},
    "version": 1
  },
  "userdoc": {
    "kind": "user",
    "methods": {
      "XLON_PER_DXN()": {
        "notice": "Amount of XLON tokens per DXN burned"
      },
      "burnTimestamps(uint256)": {
        "notice": "Timestamps logged per burn."
      },
      "dxn()": {
        "notice": "DBXen Token contract."
      },
      "initialTimestamp()": {
        "notice": "Contract creation timestamp."
      },
      "totalBurns()": {
        "notice": "Total number of burns."
      },
      "xlon()": {
        "notice": "Xenlon Mars token contract"
      }
    },
    "version": 1
  }
}