{
  "contractName": "XENTicker",
  "abi": [
    {
      "inputs": [
        {
          "internalType": "address",
          "name": "xenCrypto_",
          "type": "address"
        },
        {
          "internalType": "address",
          "name": "forwarder_",
          "type": "address"
        },
        {
          "internalType": "address",
          "name": "royaltyReceiver_",
          "type": "address"
        }
      ],
      "stateMutability": "nonpayable",
      "type": "constructor"
    },
    {
      "inputs": [
        {
          "internalType": "address",
          "name": "operator",
          "type": "address"
        }
      ],
      "name": "OperatorNotAllowed",
      "type": "error"
    },
    {
      "anonymous": false,
      "inputs": [
        {
          "indexed": true,
          "internalType": "address",
          "name": "owner",
          "type": "address"
        },
        {
          "indexed": true,
          "internalType": "address",
          "name": "approved",
          "type": "address"
        },
        {
          "indexed": true,
          "internalType": "uint256",
          "name": "tokenId",
          "type": "uint256"
        }
      ],
      "name": "Approval",
      "type": "event"
    },
    {
      "anonymous": false,
      "inputs": [
        {
          "indexed": true,
          "internalType": "address",
          "name": "owner",
          "type": "address"
        },
        {
          "indexed": true,
          "internalType": "address",
          "name": "operator",
          "type": "address"
        },
        {
          "indexed": false,
          "internalType": "bool",
          "name": "approved",
          "type": "bool"
        }
      ],
      "name": "ApprovalForAll",
      "type": "event"
    },
    {
      "anonymous": false,
      "inputs": [
        {
          "indexed": true,
          "internalType": "address",
          "name": "user",
          "type": "address"
        },
        {
          "indexed": true,
          "internalType": "address",
          "name": "xenContract",
          "type": "address"
        },
        {
          "indexed": true,
          "internalType": "address",
          "name": "tokenContract",
          "type": "address"
        },
        {
          "indexed": false,
          "internalType": "uint256",
          "name": "xenAmount",
          "type": "uint256"
        },
        {
          "indexed": false,
          "internalType": "uint256",
          "name": "tokenAmount",
          "type": "uint256"
        }
      ],
      "name": "Redeemed",
      "type": "event"
    },
    {
      "anonymous": false,
      "inputs": [
        {
          "indexed": true,
          "internalType": "address",
          "name": "user",
          "type": "address"
        },
        {
          "indexed": false,
          "internalType": "string",
          "name": "ticker",
          "type": "string"
        },
        {
          "indexed": false,
          "internalType": "uint256",
          "name": "tokenId",
          "type": "uint256"
        },
        {
          "indexed": false,
          "internalType": "uint256",
          "name": "amount",
          "type": "uint256"
        }
      ],
      "name": "Registered",
      "type": "event"
    },
    {
      "anonymous": false,
      "inputs": [
        {
          "indexed": true,
          "internalType": "address",
          "name": "from",
          "type": "address"
        },
        {
          "indexed": true,
          "internalType": "address",
          "name": "to",
          "type": "address"
        },
        {
          "indexed": true,
          "internalType": "uint256",
          "name": "tokenId",
          "type": "uint256"
        }
      ],
      "name": "Transfer",
      "type": "event"
    },
    {
      "inputs": [],
      "name": "AUTHORS",
      "outputs": [
        {
          "internalType": "string",
          "name": "",
          "type": "string"
        }
      ],
      "stateMutability": "view",
      "type": "function",
      "constant": true
    },
    {
      "inputs": [],
      "name": "COUNTER_STEPS",
      "outputs": [
        {
          "internalType": "uint256",
          "name": "",
          "type": "uint256"
        }
      ],
      "stateMutability": "view",
      "type": "function",
      "constant": true
    },
    {
      "inputs": [],
      "name": "DELTA",
      "outputs": [
        {
          "internalType": "uint8",
          "name": "",
          "type": "uint8"
        }
      ],
      "stateMutability": "view",
      "type": "function",
      "constant": true
    },
    {
      "inputs": [],
      "name": "OPERATOR_FILTER_REGISTRY",
      "outputs": [
        {
          "internalType": "contract IOperatorFilterRegistry",
          "name": "",
          "type": "address"
        }
      ],
      "stateMutability": "view",
      "type": "function",
      "constant": true
    },
    {
      "inputs": [],
      "name": "ROYALTY_BP",
      "outputs": [
        {
          "internalType": "uint256",
          "name": "",
          "type": "uint256"
        }
      ],
      "stateMutability": "view",
      "type": "function",
      "constant": true
    },
    {
      "inputs": [],
      "name": "TICKER_LENGTH",
      "outputs": [
        {
          "internalType": "uint256",
          "name": "",
          "type": "uint256"
        }
      ],
      "stateMutability": "view",
      "type": "function",
      "constant": true
    },
    {
      "inputs": [],
      "name": "XEN_BURN_FLOOR",
      "outputs": [
        {
          "internalType": "uint256",
          "name": "",
          "type": "uint256"
        }
      ],
      "stateMutability": "view",
      "type": "function",
      "constant": true
    },
    {
      "inputs": [],
      "name": "XEN_BURN_STEP",
      "outputs": [
        {
          "internalType": "uint256",
          "name": "",
          "type": "uint256"
        }
      ],
      "stateMutability": "view",
      "type": "function",
      "constant": true
    },
    {
      "inputs": [
        {
          "internalType": "address",
          "name": "owner",
          "type": "address"
        }
      ],
      "name": "balanceOf",
      "outputs": [
        {
          "internalType": "uint256",
          "name": "",
          "type": "uint256"
        }
      ],
      "stateMutability": "view",
      "type": "function",
      "constant": true
    },
    {
      "inputs": [
        {
          "internalType": "uint256",
          "name": "tokenId",
          "type": "uint256"
        }
      ],
      "name": "getApproved",
      "outputs": [
        {
          "internalType": "address",
          "name": "",
          "type": "address"
        }
      ],
      "stateMutability": "view",
      "type": "function",
      "constant": true
    },
    {
      "inputs": [
        {
          "internalType": "address",
          "name": "owner",
          "type": "address"
        },
        {
          "internalType": "address",
          "name": "operator",
          "type": "address"
        }
      ],
      "name": "isApprovedForAll",
      "outputs": [
        {
          "internalType": "bool",
          "name": "",
          "type": "bool"
        }
      ],
      "stateMutability": "view",
      "type": "function",
      "constant": true
    },
    {
      "inputs": [
        {
          "internalType": "address",
          "name": "forwarder",
          "type": "address"
        }
      ],
      "name": "isTrustedForwarder",
      "outputs": [
        {
          "internalType": "bool",
          "name": "",
          "type": "bool"
        }
      ],
      "stateMutability": "view",
      "type": "function",
      "constant": true
    },
    {
      "inputs": [],
      "name": "name",
      "outputs": [
        {
          "internalType": "string",
          "name": "",
          "type": "string"
        }
      ],
      "stateMutability": "view",
      "type": "function",
      "constant": true
    },
    {
      "inputs": [
        {
          "internalType": "uint256",
          "name": "tokenId",
          "type": "uint256"
        }
      ],
      "name": "ownerOf",
      "outputs": [
        {
          "internalType": "address",
          "name": "",
          "type": "address"
        }
      ],
      "stateMutability": "view",
      "type": "function",
      "constant": true
    },
    {
      "inputs": [],
      "name": "symbol",
      "outputs": [
        {
          "internalType": "string",
          "name": "",
          "type": "string"
        }
      ],
      "stateMutability": "view",
      "type": "function",
      "constant": true
    },
    {
      "inputs": [
        {
          "internalType": "uint256",
          "name": "",
          "type": "uint256"
        }
      ],
      "name": "tickerInfo",
      "outputs": [
        {
          "internalType": "uint256",
          "name": "",
          "type": "uint256"
        }
      ],
      "stateMutability": "view",
      "type": "function",
      "constant": true
    },
    {
      "inputs": [
        {
          "internalType": "bytes",
          "name": "",
          "type": "bytes"
        }
      ],
      "name": "tickers",
      "outputs": [
        {
          "internalType": "uint256",
          "name": "",
          "type": "uint256"
        }
      ],
      "stateMutability": "view",
      "type": "function",
      "constant": true
    },
    {
      "inputs": [],
      "name": "tokenIdCounter",
      "outputs": [
        {
          "internalType": "uint256",
          "name": "",
          "type": "uint256"
        }
      ],
      "stateMutability": "view",
      "type": "function",
      "constant": true
    },
    {
      "inputs": [
        {
          "internalType": "uint256",
          "name": "",
          "type": "uint256"
        }
      ],
      "name": "xenBurned",
      "outputs": [
        {
          "internalType": "uint256",
          "name": "",
          "type": "uint256"
        }
      ],
      "stateMutability": "view",
      "type": "function",
      "constant": true
    },
    {
      "inputs": [],
      "name": "xenCrypto",
      "outputs": [
        {
          "internalType": "contract XENCrypto",
          "name": "",
          "type": "address"
        }
      ],
      "stateMutability": "view",
      "type": "function",
      "constant": true
    },
    {
      "inputs": [
        {
          "internalType": "bytes4",
          "name": "interfaceId",
          "type": "bytes4"
        }
      ],
      "name": "supportsInterface",
      "outputs": [
        {
          "internalType": "bool",
          "name": "",
          "type": "bool"
        }
      ],
      "stateMutability": "view",
      "type": "function",
      "constant": true
    },
    {
      "inputs": [],
      "name": "owner",
      "outputs": [
        {
          "internalType": "address",
          "name": "",
          "type": "address"
        }
      ],
      "stateMutability": "view",
      "type": "function",
      "constant": true
    },
    {
      "inputs": [
        {
          "internalType": "uint256",
          "name": "tokenId",
          "type": "uint256"
        }
      ],
      "name": "tokenURI",
      "outputs": [
        {
          "internalType": "string",
          "name": "",
          "type": "string"
        }
      ],
      "stateMutability": "view",
      "type": "function",
      "constant": true
    },
    {
      "inputs": [
        {
          "internalType": "address",
          "name": "user",
          "type": "address"
        },
        {
          "internalType": "uint256",
          "name": "tokenId",
          "type": "uint256"
        }
      ],
      "name": "burn",
      "outputs": [],
      "stateMutability": "nonpayable",
      "type": "function"
    },
    {
      "inputs": [
        {
          "internalType": "address",
          "name": "user",
          "type": "address"
        },
        {
          "internalType": "uint256",
          "name": "burned",
          "type": "uint256"
        }
      ],
      "name": "onTokenBurned",
      "outputs": [],
      "stateMutability": "nonpayable",
      "type": "function"
    },
    {
      "inputs": [
        {
          "internalType": "address",
          "name": "operator",
          "type": "address"
        },
        {
          "internalType": "bool",
          "name": "approved",
          "type": "bool"
        }
      ],
      "name": "setApprovalForAll",
      "outputs": [],
      "stateMutability": "nonpayable",
      "type": "function"
    },
    {
      "inputs": [
        {
          "internalType": "address",
          "name": "operator",
          "type": "address"
        },
        {
          "internalType": "uint256",
          "name": "tokenId",
          "type": "uint256"
        }
      ],
      "name": "approve",
      "outputs": [],
      "stateMutability": "nonpayable",
      "type": "function"
    },
    {
      "inputs": [
        {
          "internalType": "address",
          "name": "from",
          "type": "address"
        },
        {
          "internalType": "address",
          "name": "to",
          "type": "address"
        },
        {
          "internalType": "uint256",
          "name": "tokenId",
          "type": "uint256"
        }
      ],
      "name": "transferFrom",
      "outputs": [],
      "stateMutability": "nonpayable",
      "type": "function"
    },
    {
      "inputs": [
        {
          "internalType": "address",
          "name": "from",
          "type": "address"
        },
        {
          "internalType": "address",
          "name": "to",
          "type": "address"
        },
        {
          "internalType": "uint256",
          "name": "tokenId",
          "type": "uint256"
        }
      ],
      "name": "safeTransferFrom",
      "outputs": [],
      "stateMutability": "nonpayable",
      "type": "function"
    },
    {
      "inputs": [
        {
          "internalType": "address",
          "name": "from",
          "type": "address"
        },
        {
          "internalType": "address",
          "name": "to",
          "type": "address"
        },
        {
          "internalType": "uint256",
          "name": "tokenId",
          "type": "uint256"
        },
        {
          "internalType": "bytes",
          "name": "data",
          "type": "bytes"
        }
      ],
      "name": "safeTransferFrom",
      "outputs": [],
      "stateMutability": "nonpayable",
      "type": "function"
    },
    {
      "inputs": [
        {
          "internalType": "address",
          "name": "trustedForwarder",
          "type": "address"
        }
      ],
      "name": "addForwarder",
      "outputs": [],
      "stateMutability": "nonpayable",
      "type": "function"
    },
    {
      "inputs": [
        {
          "internalType": "uint256",
          "name": "",
          "type": "uint256"
        },
        {
          "internalType": "uint256",
          "name": "salePrice",
          "type": "uint256"
        }
      ],
      "name": "royaltyInfo",
      "outputs": [
        {
          "internalType": "address",
          "name": "receiver",
          "type": "address"
        },
        {
          "internalType": "uint256",
          "name": "royaltyAmount",
          "type": "uint256"
        }
      ],
      "stateMutability": "view",
      "type": "function",
      "constant": true
    },
    {
      "inputs": [],
      "name": "ownedTokens",
      "outputs": [
        {
          "internalType": "uint256[]",
          "name": "",
          "type": "uint256[]"
        }
      ],
      "stateMutability": "view",
      "type": "function",
      "constant": true
    },
    {
      "inputs": [],
      "name": "getRequiredXenBurnAmount",
      "outputs": [
        {
          "internalType": "uint256",
          "name": "",
          "type": "uint256"
        }
      ],
      "stateMutability": "view",
      "type": "function",
      "constant": true
    },
    {
      "inputs": [
        {
          "internalType": "string",
          "name": "ticker",
          "type": "string"
        }
      ],
      "name": "isValidAndUnique",
      "outputs": [
        {
          "internalType": "bool",
          "name": "",
          "type": "bool"
        }
      ],
      "stateMutability": "view",
      "type": "function",
      "constant": true
    },
    {
      "inputs": [
        {
          "internalType": "string",
          "name": "ticker",
          "type": "string"
        },
        {
          "internalType": "uint256",
          "name": "amount",
          "type": "uint256"
        }
      ],
      "name": "register",
      "outputs": [
        {
          "internalType": "uint256",
          "name": "tokenId",
          "type": "uint256"
        }
      ],
      "stateMutability": "nonpayable",
      "type": "function"
    }
  ],
  "bytecode": "0x60e060405260016007556000600c556000600d553480156200002057600080fd5b5060405162003515380380620035158339810160408190526200004391620002be565b604080518082018252600a8152692c22a7102a34b1b5b2b960b11b602080830191909152825180840190935260048352635854434b60e01b908301529083733cc6cdda760b79bafa08df41ecfa224f810dceb660016daaeb6d7670e522a718067333cd4e3b15620001dd5780156200012b57604051633e9f1edf60e11b81523060048201526001600160a01b03831660248201526daaeb6d7670e522a718067333cd4e90637d3e3dbe906044015b600060405180830381600087803b1580156200010c57600080fd5b505af115801562000121573d6000803e3d6000fd5b50505050620001dd565b6001600160a01b038216156200017c5760405163a0af290360e01b81523060048201526001600160a01b03831660248201526daaeb6d7670e522a718067333cd4e9063a0af290390604401620000f1565b604051632210724360e11b81523060048201526daaeb6d7670e522a718067333cd4e90634420e48690602401600060405180830381600087803b158015620001c357600080fd5b505af1158015620001d8573d6000803e3d6000fd5b505050505b5050600080546001600160a01b0319166001600160a01b039290921691909117905560016200020d8382620003ad565b5060026200021c8282620003ad565b5050506001600160a01b038316620002685760405162461bcd60e51b815260206004820152600b60248201526a626164206164647265737360a81b604482015260640160405180910390fd5b6001600160a01b038084166080523360a0528116156200028957806200028b565b335b6001600160a01b031660c0525062000479915050565b80516001600160a01b0381168114620002b957600080fd5b919050565b600080600060608486031215620002d457600080fd5b620002df84620002a1565b9250620002ef60208501620002a1565b9150620002ff60408501620002a1565b90509250925092565b634e487b7160e01b600052604160045260246000fd5b600181811c908216806200033357607f821691505b6020821081036200035457634e487b7160e01b600052602260045260246000fd5b50919050565b601f821115620003a857600081815260208120601f850160051c81016020861015620003835750805b601f850160051c820191505b81811015620003a4578281556001016200038f565b5050505b505050565b81516001600160401b03811115620003c957620003c962000308565b620003e181620003da84546200031e565b846200035a565b602080601f831160018114620004195760008415620004005750858301515b600019600386901b1c1916600185901b178555620003a4565b600085815260208120601f198616915b828110156200044a5788860151825594840194600190910190840162000429565b5085821015620004695787850151600019600388901b60f8161c191681555b5050505050600190811b01905550565b60805160a05160c051613050620004c5600039600061068f0152600081816103a201526109360152600081816103750152818161076501528181611003015261132801526130506000f3fe608060405234801561001057600080fd5b50600436106101bc5760003560e01c806370a08231116100f557806370a082311461035d57806371141a581461037057806380cfcd7b146103975780638da5cb5b146103a057806395d89b41146103c657806398bdf6f5146103ce5780639dc29fac146103d7578063a22cb465146103ea578063b7d2ef66146103fd578063b88d4fde14610410578063ba3ec74114610423578063bd3330331461042b578063c127fa7c1461044b578063c87b56dd14610453578063e6f81f4814610466578063e985e9c51461046e578063ea87152b14610481578063ecb5fff61461049457600080fd5b806301ffc9a7146101c1578063044db8ba146101e957806306fdde0314610200578063081812fc146102155780630954522f14610235578063095ea7b31461025557806319cba6b41461026a57806323b872dd1461027f5780632a55205a146102925780632e63684a146102b357806341f43434146102de57806342842e0e146102f357806347e50beb14610306578063543746b114610311578063572b6c05146103245780635c41d2fe1461033757806361b334e0146103065780636352211e1461034a575b600080fd5b6101d46101cf3660046126ba565b6104ae565b60405190151581526020015b60405180910390f35b6101f26101f481565b6040519081526020016101e0565b61020861050f565b6040516101e0919061272e565b610228610223366004612741565b6105a1565b6040516101e0919061275a565b6101f2610243366004612741565b60096020526000908152604090205481565b61026861026336600461278a565b6105c8565b005b6102726105e1565b6040516101e091906127b4565b61026861028d3660046127f8565b610662565b6102a56102a0366004612834565b61068d565b6040516101e0929190612856565b6101f26102c1366004612932565b8051602081830181018051600a8252928201919093012091525481565b6102286daaeb6d7670e522a718067333cd4e81565b6102686103013660046127f8565b6106d2565b6101f2633b9aca0081565b61026861031f36600461278a565b6106f7565b6101d4610332366004612966565b610917565b610268610345366004612966565b61092b565b610228610358366004612741565b610a17565b6101f261036b366004612966565b610a4c565b6102287f000000000000000000000000000000000000000000000000000000000000000081565b6101f26103e881565b7f0000000000000000000000000000000000000000000000000000000000000000610228565b610208610ad2565b6101f260075481565b6102686103e536600461278a565b610ae1565b6102686103f836600461298f565b610de0565b6101d461040b366004612932565b610df4565b61026861041e3660046129c6565b610f43565b610208610f70565b6101f2610439366004612741565b60086020526000908152604090205481565b6101f2610f8c565b610208610461366004612741565b610fc3565b6101f2600481565b6101d461047c366004612a2d565b611161565b6101f261048f366004612a57565b61118f565b61049c6113ab565b60405160ff90911681526020016101e0565b60006001600160e01b0319821663543746b160e01b14806104df57506001600160e01b0319821663152a902d60e11b145b806104fa57506001600160e01b0319821663572b6c0560e01b145b806105095750610509826113ba565b92915050565b60606001805461051e90612a9b565b80601f016020809104026020016040519081016040528092919081815260200182805461054a90612a9b565b80156105975780601f1061056c57610100808354040283529160200191610597565b820191906000526020600020905b81548152906001019060200180831161057a57829003601f168201915b5050505050905090565b60006105ac8261140a565b506000908152600560205260409020546001600160a01b031690565b816105d281611432565b6105dc83836114e2565b505050565b6060600b60006105ef611604565b6001600160a01b03166001600160a01b0316815260200190815260200160002080548060200260200160405190810160405280929190818152602001828054801561059757602002820191906000526020600020905b815481526020019060010190808311610645575050505050905090565b826001600160a01b038116331461067c5761067c33611432565b610687848484611613565b50505050565b7f000000000000000000000000000000000000000000000000000000000000000060006127106106bf6101f485612ae5565b6106c99190612b12565b90509250929050565b826001600160a01b03811633146106ec576106ec33611432565b610687848484611645565b600c54158015906107095750600d5415155b61075a5760405162461bcd60e51b815260206004820152601d60248201527f58454e46543a20696c6c6567616c2063616c6c6261636b20737461746500000060448201526064015b60405180910390fd5b336001600160a01b037f000000000000000000000000000000000000000000000000000000000000000016146107d25760405162461bcd60e51b815260206004820152601e60248201527f58454e46543a20696c6c6567616c2063616c6c6261636b2063616c6c657200006044820152606401610751565b600c546001600160a01b0383166000908152600b602052604090206107f691611660565b600c546000908152600860209081526040808320849055600d5490516001600160e01b0319909116918101919091526024016040516020818303038152906040529050610842816116da565b90506000819050600c54600a8360405161085c9190612b42565b90815260405190819003602001902055600c5461087a9084836117c2565b600c80546000908152600960205260409020919091555461089c908590611870565b600780549060006108ac83612b5e565b90915550506000600c819055600d556007546001600160a01b038516907ff815c62c815721df19419e55df8335668299067048bb50a723cf723eed99871a9083906108f990600190612b77565b8660405161090993929190612b8a565b60405180910390a250505050565b6000546001600160a01b0391821691161490565b336001600160a01b037f0000000000000000000000000000000000000000000000000000000000000000161461099c5760405162461bcd60e51b81526020600482015260166024820152752c22a7232a1d103737ba1030b7103232b83637bcb2b960511b6044820152606401610751565b6000546001600160a01b0316156109f55760405162461bcd60e51b815260206004820152601f60248201527f58454e46543a20466f7277617264657220697320616c726561647920736574006044820152606401610751565b600080546001600160a01b0319166001600160a01b0392909216919091179055565b6000818152600360205260408120546001600160a01b0316806105095760405162461bcd60e51b815260040161075190612baf565b60006001600160a01b038216610ab65760405162461bcd60e51b815260206004820152602960248201527f4552433732313a2061646472657373207a65726f206973206e6f7420612076616044820152683634b21037bbb732b960b91b6064820152608401610751565b506001600160a01b031660009081526004602052604090205490565b60606002805461051e90612a9b565b600c819055610aee611604565b6040516301ffc9a760e01b815263543746b160e01b60048201526001600160a01b0391909116906301ffc9a790602401602060405180830381865afa158015610b3b573d6000803e3d6000fd5b505050506040513d601f19601f82011682018060405250810190610b5f9190612be1565b610bb75760405162461bcd60e51b8152602060048201526024808201527f58454e4654206275726e3a206e6f74206120737570706f7274656420636f6e746044820152631c9858dd60e21b6064820152608401610751565b6001600160a01b038216610c175760405162461bcd60e51b815260206004820152602160248201527f58454e4654206275726e3a20696c6c6567616c206f776e6572206164647265736044820152607360f81b6064820152608401610751565b60008111610c655760405162461bcd60e51b815260206004820152601b60248201527a161153919508189d5c9b8e881a5b1b1959d85b081d1bdad95b9259602a1b6044820152606401610751565b610c76610c70611604565b8261188a565b610cce5760405162461bcd60e51b8152602060048201526024808201527f58454e4654206275726e3a206e6f7420616e20617070726f766564206f70657260448201526330ba37b960e11b6064820152608401610751565b816001600160a01b0316610ce182610a17565b6001600160a01b031614610d455760405162461bcd60e51b815260206004820152602560248201527f58454e4654206275726e3a2075736572206973206e6f7420746f6b656e49642060448201526437bbb732b960d91b6064820152608401610751565b6001600160a01b0382166000908152600b60205260409020610d6790826118e9565b610d70816119ce565b610d78611604565b6001600160a01b031663543746b183836040518363ffffffff1660e01b8152600401610da5929190612856565b600060405180830381600087803b158015610dbf57600080fd5b505af1158015610dd3573d6000803e3d6000fd5b50506000600c5550505050565b81610dea81611432565b6105dc8383611a5f565b80516000908290600414610e4a5760405162461bcd60e51b815260206004820152601f60248201527f58454e205469636b65723a2077726f6e67207469636b6572206c656e677468006044820152606401610751565b60005b8151811015610f0c57610e7f828281518110610e6b57610e6b612bfe565b01602001516001600160f81b031916611a71565b158015610eb25750610eb0828281518110610e9c57610e9c612bfe565b01602001516001600160f81b031916611aa2565b155b15610efa5760405162461bcd60e51b815260206004820152601860248201527716115388151a58dad95c8e881ddc9bdb99c81cde5b589bdb60421b6044820152606401610751565b80610f0481612b5e565b915050610e4d565b506000610f18826116da565b9050600a81604051610f2a9190612b42565b9081526040519081900360200190205415949350505050565b836001600160a01b0381163314610f5d57610f5d33611432565b610f6985858585611ad3565b5050505050565b6040518060600160405280602e8152602001612fed602e913981565b6000806103e8600754610f9f9190612b12565b9050610faf633b9aca0082612ae5565b610fbd90633b9aca00612c14565b91505090565b600081815260096020526040812054606091610fde84611b0c565b60405163a37ea54960e01b815260048101869052602481018490526001600160a01b037f00000000000000000000000000000000000000000000000000000000000000001660448201526110959073__TickerMetadata________________________9063a37ea54990606401600060405180830381865af4158015611068573d6000803e3d6000fd5b505050506040513d6000823e601f3d908101601f191682016040526110909190810190612c27565b611c0c565b60405163682ee63560e11b81526004810185905273__TickerMetadata________________________9063d05dcc6a90602401600060405180830381865af41580156110e5573d6000803e3d6000fd5b505050506040513d6000823e601f3d908101601f1916820160405261110d9190810190612c27565b60405160200161111f93929190612c9d565b604051602081830303815290604052905061113981611c0c565b6040516020016111499190612da0565b60405160208183030381529060405292505050919050565b6001600160a01b03918216600090815260066020908152604080832093909416825291909152205460ff1690565b600080600c54146111df5760405162461bcd60e51b815260206004820152601a60248201527916115391950e881c99595b9d1c985b98de4819195d1958dd195960321b6044820152606401610751565b33321461123a5760405162461bcd60e51b815260206004820152602360248201527f58454e46543a206f6e6c7920454f4120616c6c6f77656420746f2072656769736044820152623a32b960e91b6064820152608401610751565b61124382611d5e565b6112875760405162461bcd60e51b815260206004820152601560248201527416115391950e881898590816115388185b5bdd5b9d605a1b6044820152606401610751565b61129083610df4565b6112e85760405162461bcd60e51b815260206004820152602360248201527f58454e46543a207469636b657220696e76616c6964206f72206e6f7420756e6960448201526271756560e81b6064820152608401610751565b600754600c556040516112ff908490602001612b42565b60405160208183030381529060405261131790612de5565b600d55506007546001600160a01b037f000000000000000000000000000000000000000000000000000000000000000016639dc29fac611355611604565b846040518363ffffffff1660e01b8152600401611373929190612856565b600060405180830381600087803b15801561138d57600080fd5b505af11580156113a1573d6000803e3d6000fd5b5050505092915050565b6113b760416061612e09565b81565b60006001600160e01b031982166380ac58cd60e01b14806113eb57506001600160e01b03198216635b5e139f60e01b145b8061050957506301ffc9a760e01b6001600160e01b0319831614610509565b61141381611d70565b61142f5760405162461bcd60e51b815260040161075190612baf565b50565b6daaeb6d7670e522a718067333cd4e3b1561142f57604051633185c44d60e21b81523060048201526001600160a01b03821660248201526daaeb6d7670e522a718067333cd4e9063c617113490604401602060405180830381865afa15801561149f573d6000803e3d6000fd5b505050506040513d601f19601f820116820180604052508101906114c39190612be1565b61142f5780604051633b79c77360e21b8152600401610751919061275a565b60006114ed82610a17565b9050806001600160a01b0316836001600160a01b03160361155a5760405162461bcd60e51b815260206004820152602160248201527f4552433732313a20617070726f76616c20746f2063757272656e74206f776e656044820152603960f91b6064820152608401610751565b806001600160a01b031661156c611604565b6001600160a01b0316148061158857506115888161047c611604565b6115fa5760405162461bcd60e51b815260206004820152603e60248201527f4552433732313a20617070726f76652063616c6c6572206973206e6f7420746f60448201527f6b656e206f776e6572206e6f7220617070726f76656420666f7220616c6c00006064820152608401610751565b6105dc8383611d8d565b600061160e611dfb565b905090565b61161e610c70611604565b61163a5760405162461bcd60e51b815260040161075190612e22565b6105dc838383611e1d565b6105dc83838360405180602001604052806000815250610f43565b6116b9828054806020026020016040519081016040528092919081815260200182805480156116ae57602002820191906000526020600020905b81548152602001906001019080831161169a575b505050505082611fad565b6000036116d6578154600181018355600083815260209020018190555b5050565b606081516001600160401b038111156116f5576116f561286f565b6040519080825280601f01601f19166020018201604052801561171f576020820181803683370190505b50905060005b82518110156117bc57611743838281518110610e6b57610e6b612bfe565b61174e57600061175a565b61175a60416061612e09565b83828151811061176c5761176c612bfe565b016020015161177e919060f81c612e09565b60f81b82828151811061179357611793612bfe565b60200101906001600160f81b031916908160001a905350806117b481612b5e565b915050611725565b50919050565b60008060006117d086611ffe565b909250905073__TickerInfo____________________________632f3ccb6a8542611803670de0b6b3a76400008a612b12565b86866040518663ffffffff1660e01b8152600401611825959493929190612e70565b602060405180830381865af4158015611842573d6000803e3d6000fd5b505050506040513d601f19601f820116820180604052508101906118669190612ea7565b9695505050505050565b6116d6828260405180602001604052806000815250612300565b60008061189683610a17565b9050806001600160a01b0316846001600160a01b031614806118bd57506118bd8185611161565b806118e15750836001600160a01b03166118d6846105a1565b6001600160a01b0316145b949350505050565b60006119448380548060200260200160405190810160405280929190818152602001828054801561193957602002820191906000526020600020905b815481526020019060010190808311611925575b505050505083611fad565b905080156105dc578254839061195c90600190612b77565b8154811061196c5761196c612bfe565b9060005260206000200154836001836119859190612b77565b8154811061199557611995612bfe565b9060005260206000200181905550828054806119b3576119b3612ec0565b60019003818190600052602060002001600090559055505050565b60006119d982610a17565b90506119e6600083611d8d565b6001600160a01b0381166000908152600460205260408120805460019290611a0f908490612b77565b909155505060008281526003602052604080822080546001600160a01b0319169055518391906001600160a01b03841690600080516020612fcd833981519152908390a46116d681600084612333565b6116d6611a6a611604565b8383612377565b6000600360fd1b6001600160f81b031983161180156105095750607b60f81b6001600160f81b031983161092915050565b6000600160fe1b6001600160f81b031983161180156105095750605b60f81b6001600160f81b031983161092915050565b611ae4611ade611604565b8361188a565b611b005760405162461bcd60e51b815260040161075190612e22565b61068784848484612441565b606081600003611b335750506040805180820190915260018152600360fc1b602082015290565b8160005b8115611b5d5780611b4781612b5e565b9150611b569050600a83612b12565b9150611b37565b6000816001600160401b03811115611b7757611b7761286f565b6040519080825280601f01601f191660200182016040528015611ba1576020820181803683370190505b5090505b84156118e157611bb6600183612b77565b9150611bc3600a86612ed6565b611bce906030612c14565b60f81b818381518110611be357611be3612bfe565b60200101906001600160f81b031916908160001a905350611c05600a86612b12565b9450611ba5565b60608151600003611c2b57505060408051602081019091526000815290565b6000604051806060016040528060408152602001612f8d6040913990506000600384516002611c5a9190612c14565b611c649190612b12565b611c6f906004612ae5565b6001600160401b03811115611c8657611c8661286f565b6040519080825280601f01601f191660200182016040528015611cb0576020820181803683370190505b509050600182016020820185865187015b80821015611d1c576003820191508151603f8160121c168501518453600184019350603f81600c1c168501518453600184019350603f8160061c168501518453600184019350603f8116850151845350600183019250611cc1565b5050600386510660018114611d385760028114611d4b57611d53565b603d6001830353603d6002830353611d53565b603d60018303535b509195945050505050565b6000611d68610f8c565b909111919050565b6000908152600360205260409020546001600160a01b0316151590565b600081815260056020526040902080546001600160a01b0319166001600160a01b0384169081179091558190611dc282610a17565b6001600160a01b03167f8c5be1e5ebec7d5bd14f71427d1e84f3dd0314c0f7b2291e5b200ac8c7c3b92560405160405180910390a45050565b6000611e0633610917565b15611e18575060131936013560601c90565b503390565b826001600160a01b0316611e3082610a17565b6001600160a01b031614611e945760405162461bcd60e51b815260206004820152602560248201527f4552433732313a207472616e736665722066726f6d20696e636f72726563742060448201526437bbb732b960d91b6064820152608401610751565b6001600160a01b038216611ef65760405162461bcd60e51b8152602060048201526024808201527f4552433732313a207472616e7366657220746f20746865207a65726f206164646044820152637265737360e01b6064820152608401610751565b611f01600082611d8d565b6001600160a01b0383166000908152600460205260408120805460019290611f2a908490612b77565b90915550506001600160a01b0382166000908152600460205260408120805460019290611f58908490612c14565b909155505060008181526003602052604080822080546001600160a01b0319166001600160a01b038681169182179092559151849391871691600080516020612fcd83398151915291a46105dc838383612333565b60015b82518111611ff5578183611fc5600184612b77565b81518110611fd557611fd5612bfe565b602002602001015103156105095780611fed81612b5e565b915050611fb0565b50600092915050565b60405163109c0d2560e21b8152600481018290526000908190819073__MagicNumbers__________________________90634270349490602401602060405180830381865af4158015612055573d6000803e3d6000fd5b505050506040513d601f19601f820116820180604052508101906120799190612be1565b604051634a0e40a160e11b81526004810186905290915060009073__MagicNumbers__________________________9063941c814290602401602060405180830381865af41580156120cf573d6000803e3d6000fd5b505050506040513d601f19601f820116820180604052508101906120f39190612be1565b60405163109c0d2560e21b815243600482015290915060009073__MagicNumbers__________________________90634270349490602401602060405180830381865af4158015612148573d6000803e3d6000fd5b505050506040513d601f19601f8201168201806040525081019061216c9190612be1565b604051634a0e40a160e11b815243600482015290915060009073__MagicNumbers__________________________9063941c814290602401602060405180830381865af41580156121c1573d6000803e3d6000fd5b505050506040513d601f19601f820116820180604052508101906121e59190612be1565b9050836121f35760006121f7565b6101f45b6122059061ffff1687612c14565b955081612213576000612217565b6103e85b6122259061ffff1687612c14565b955082612233576000612237565b6113885b6122459061ffff1687612c14565b955080612253576000612257565b6127105b6122659061ffff1687612c14565b60405163395e488160e01b8152851515600482015284151560248201528315156044820152821515606482015290965073__TickerInfo____________________________9063395e488190608401602060405180830381865af41580156122d1573d6000803e3d6000fd5b505050506040513d601f19601f820116820180604052508101906122f59190612ea7565b945050505050915091565b61230a8383612474565b612317600084848461259c565b6105dc5760405162461bcd60e51b815260040161075190612eea565b6001600160a01b0383166000908152600b6020526040902061235590826118e9565b6001600160a01b0382166000908152600b602052604090206105dc9082611660565b816001600160a01b0316836001600160a01b0316036123d45760405162461bcd60e51b815260206004820152601960248201527822a9219b99189d1030b8383937bb32903a379031b0b63632b960391b6044820152606401610751565b6001600160a01b03838116600081815260066020908152604080832094871680845294825291829020805460ff191686151590811790915591519182527f17307eab39ab6107e8899845ad3d59bd9653f200f220920489ca2b5937696c31910160405180910390a3505050565b61244c848484611e1d565b6124588484848461259c565b6106875760405162461bcd60e51b815260040161075190612eea565b6001600160a01b0382166124ca5760405162461bcd60e51b815260206004820181905260248201527f4552433732313a206d696e7420746f20746865207a65726f20616464726573736044820152606401610751565b6124d381611d70565b1561251f5760405162461bcd60e51b815260206004820152601c60248201527b115490cdcc8c4e881d1bdad95b88185b1c9958591e481b5a5b9d195960221b6044820152606401610751565b6001600160a01b0382166000908152600460205260408120805460019290612548908490612c14565b909155505060008181526003602052604080822080546001600160a01b0319166001600160a01b0386169081179091559051839290600080516020612fcd833981519152908290a46116d660008383612333565b60006001600160a01b0384163b1561269957836001600160a01b031663150b7a026125c5611604565b8786866040518563ffffffff1660e01b81526004016125e79493929190612f3c565b6020604051808303816000875af1925050508015612622575060408051601f3d908101601f1916820190925261261f91810190612f6f565b60015b61267f573d808015612650576040519150601f19603f3d011682016040523d82523d6000602084013e612655565b606091505b5080516000036126775760405162461bcd60e51b815260040161075190612eea565b805181602001fd5b6001600160e01b031916630a85bd0160e11b1490506118e1565b506001949350505050565b6001600160e01b03198116811461142f57600080fd5b6000602082840312156126cc57600080fd5b81356126d7816126a4565b9392505050565b60005b838110156126f95781810151838201526020016126e1565b50506000910152565b6000815180845261271a8160208601602086016126de565b601f01601f19169290920160200192915050565b6020815260006126d76020830184612702565b60006020828403121561275357600080fd5b5035919050565b6001600160a01b0391909116815260200190565b80356001600160a01b038116811461278557600080fd5b919050565b6000806040838503121561279d57600080fd5b6127a68361276e565b946020939093013593505050565b6020808252825182820181905260009190848201906040850190845b818110156127ec578351835292840192918401916001016127d0565b50909695505050505050565b60008060006060848603121561280d57600080fd5b6128168461276e565b92506128246020850161276e565b9150604084013590509250925092565b6000806040838503121561284757600080fd5b50508035926020909101359150565b6001600160a01b03929092168252602082015260400190565b634e487b7160e01b600052604160045260246000fd5b604051601f8201601f191681016001600160401b03811182821017156128ad576128ad61286f565b604052919050565b60006001600160401b038211156128ce576128ce61286f565b50601f01601f191660200190565b600082601f8301126128ed57600080fd5b81356129006128fb826128b5565b612885565b81815284602083860101111561291557600080fd5b816020850160208301376000918101602001919091529392505050565b60006020828403121561294457600080fd5b81356001600160401b0381111561295a57600080fd5b6118e1848285016128dc565b60006020828403121561297857600080fd5b6126d78261276e565b801515811461142f57600080fd5b600080604083850312156129a257600080fd5b6129ab8361276e565b915060208301356129bb81612981565b809150509250929050565b600080600080608085870312156129dc57600080fd5b6129e58561276e565b93506129f36020860161276e565b92506040850135915060608501356001600160401b03811115612a1557600080fd5b612a21878288016128dc565b91505092959194509250565b60008060408385031215612a4057600080fd5b612a498361276e565b91506106c96020840161276e565b60008060408385031215612a6a57600080fd5b82356001600160401b03811115612a8057600080fd5b612a8c858286016128dc565b95602094909401359450505050565b600181811c90821680612aaf57607f821691505b6020821081036117bc57634e487b7160e01b600052602260045260246000fd5b634e487b7160e01b600052601160045260246000fd5b808202811582820484141761050957610509612acf565b634e487b7160e01b600052601260045260246000fd5b600082612b2157612b21612afc565b500490565b60008151612b388185602086016126de565b9290920192915050565b60008251612b548184602087016126de565b9190910192915050565b600060018201612b7057612b70612acf565b5060010190565b8181038181111561050957610509612acf565b606081526000612b9d6060830186612702565b60208301949094525060400152919050565b602080825260189082015277115490cdcc8c4e881a5b9d985b1a59081d1bdad95b88125160421b604082015260600190565b600060208284031215612bf357600080fd5b81516126d781612981565b634e487b7160e01b600052603260045260246000fd5b8082018082111561050957610509612acf565b600060208284031215612c3957600080fd5b81516001600160401b03811115612c4f57600080fd5b8201601f81018413612c6057600080fd5b8051612c6e6128fb826128b5565b818152856020838501011115612c8357600080fd5b612c948260208301602086016126de565b95945050505050565b607b60f81b815274226e616d65223a202258454e205469636b6572202360581b60018201528351600090612cd88160168501602089016126de565b61088b60f21b60169184019182018190527f226465736372697074696f6e223a202258454e46543a2058454e205469636b656018830152621c888b60ea1b6038830152691134b6b0b3b2911d101160b11b603b8301527919185d184e9a5b5859d94bdcdd99cade1b5b0ed8985cd94d8d0b60321b60458301528551612d6481605f850160208a016126de565b605f9201918201526d01130ba3a3934b13aba32b9911d160951b6061820152611866612d93606f830186612b26565b607d60f81b815260010190565b7f646174613a6170706c69636174696f6e2f6a736f6e3b6261736536342c000000815260008251612dd881601d8501602087016126de565b91909101601d0192915050565b805160208083015191908110156117bc5760001960209190910360031b1b16919050565b60ff828116828216039081111561050957610509612acf565b6020808252602e908201527f4552433732313a2063616c6c6572206973206e6f7420746f6b656e206f776e6560408201526d1c881b9bdc88185c1c1c9bdd995960921b606082015260800190565b60a081526000612e8360a0830188612702565b90508560208301528460408301528360608301528260808301529695505050505050565b600060208284031215612eb957600080fd5b5051919050565b634e487b7160e01b600052603160045260246000fd5b600082612ee557612ee5612afc565b500690565b60208082526032908201527f4552433732313a207472616e7366657220746f206e6f6e20455243373231526560408201527131b2b4bb32b91034b6b83632b6b2b73a32b960711b606082015260800190565b6001600160a01b038581168252841660208201526040810183905260806060820181905260009061186690830184612702565b600060208284031215612f8157600080fd5b81516126d7816126a456fe4142434445464748494a4b4c4d4e4f505152535455565758595a6162636465666768696a6b6c6d6e6f707172737475767778797a303132333435363738392b2fddf252ad1be2c89b69c2b068fc378daa952ba7f163c4a11628f55a4df523b3ef404d724a61636b4c6576696e204061636b65626f6d20406c62656c79616576206661697263727970746f2e6f7267a2646970667358221220c00ba8604dd53213f8a1ebed6b696973895bfb9d54412dab32f42e592b1190e264736f6c63430008110033",
  "immutableReferences": {
    "7919": [
      {
        "length": 32,
        "start": 885
      },
      {
        "length": 32,
        "start": 1893
      },
      {
        "length": 32,
        "start": 4099
      },
      {
        "length": 32,
        "start": 4904
      }
    ],
    "7921": [
      {
        "length": 32,
        "start": 930
      },
      {
        "length": 32,
        "start": 2358
      }
    ],
    "7923": [
      {
        "length": 32,
        "start": 1679
      }
    ]
  },
  "source": "// SPDX-License-Identifier: MIT\npragma solidity ^0.8.10;\n\nimport \"@openzeppelin/contracts/token/ERC721/ERC721.sol\";\nimport \"@openzeppelin/contracts/interfaces/IERC2981.sol\";\nimport \"@openzeppelin/contracts/utils/Base64.sol\";\nimport \"@openzeppelin/contracts/utils/Strings.sol\";\nimport \"@faircrypto/xen-crypto/contracts/XENCrypto.sol\";\nimport \"@faircrypto/xen-crypto/contracts/interfaces/IBurnableToken.sol\";\nimport \"@faircrypto/xen-crypto/contracts/interfaces/IBurnRedeemable.sol\";\nimport \"@faircrypto/magic-numbers/contracts/MagicNumbers.sol\";\nimport \"operator-filter-registry/src/DefaultOperatorFilterer.sol\";\nimport \"./interfaces/IXENBurner.sol\";\nimport \"./interfaces/IXENTicker.sol\";\nimport \"./interfaces/IERC2771.sol\";\nimport \"./libs/ERC2771Context.sol\";\nimport \"./libs/TickerInfo.sol\";\nimport \"./libs/TickerMetadata.sol\";\nimport \"./libs/Array.sol\";\n\n/*\n\n        \\\\      //   |||||||||||   |\\      ||       A CRYPTOCURRENCY FOR THE MASSES\n         \\\\    //    ||            |\\\\     ||\n          \\\\  //     ||            ||\\\\    ||       PRINCIPLES OF XEN:\n           \\\\//      ||            || \\\\   ||       - No pre-mint; starts with zero supply\n            XX       ||||||||      ||  \\\\  ||       - No admin keys\n           //\\\\      ||            ||   \\\\ ||       - Immutable contract\n          //  \\\\     ||            ||    \\\\||\n         //    \\\\    ||            ||     \\\\|\n        //      \\\\   |||||||||||   ||      \\|       Copyright (C) FairCrypto Foundation 2022-23\n\n\n    XENFT XEN Ticker props:\n    - burned/amount: XEN burned,\n    - ticker,\n */\ncontract XENTicker is\n    IBurnRedeemable,\n    IXENBurner,\n    IBurnableToken,\n    IXENTicker,\n    DefaultOperatorFilterer, // required to support OpenSea royalties\n    ERC2771Context, // required to support meta transactions\n    IERC2981, // required to support NFT royalties\n    ERC721(\"XEN Ticker\", \"XTCK\")\n{\n    // HELPER LIBRARIES\n\n    using Strings for uint256;\n    using MagicNumbers for uint256;\n    using TickerInfo for uint256;\n    using Array for uint256[];\n\n    // PUBLIC CONSTANTS\n\n    string public constant AUTHORS = \"@MrJackLevin @ackebom @lbelyaev faircrypto.org\";\n\n    uint256 public constant ROYALTY_BP = 500;\n\n    // TODO: change to * ether for production !!!\n    // uint256 public constant XEN_BURN_FLOOR = 1_000_000_000 ether;\n    uint256 public constant XEN_BURN_FLOOR = 1_000_000_000;\n    // uint256 public constant XEN_BURN_STEP = 1_000_000_000 ether;\n    uint256 public constant XEN_BURN_STEP = 1_000_000_000;\n    uint256 public constant COUNTER_STEPS = 1_000;\n\n    uint256 public constant TICKER_LENGTH = 4;\n    uint8 public constant DELTA = uint8(bytes1('a')) - uint8(bytes1('A'));\n\n    // PUBLIC MUTABLE STATE\n\n    // increasing counters for NFT tokenIds\n    uint256 public tokenIdCounter = 1;\n    // mapping: NFT tokenId => burned XEN\n    // TODO: do we need it ???\n    mapping(uint256 => uint256) public xenBurned;\n    // tokenId => ticker / symbol\n    mapping(uint256 => uint256) public tickerInfo;\n    mapping(bytes => uint256) public tickers;\n\n    // PUBLIC IMMUTABLE STATE\n\n    // pointer to XEN Crypto contract\n    XENCrypto public immutable xenCrypto;\n\n    // PRIVATE STATE\n\n    // original deployer address to be used for setting trusted forwarder\n    address private immutable _deployer;\n    // address to be used for royalties' tracking\n    address private immutable _royaltyReceiver;\n\n    // mapping Address => tokenId[]\n    mapping(address => uint256[]) private _ownedTokens;\n\n    // reentrancy guard constants and state\n    // using non-zero constants to save gas avoiding repeated initialization\n    uint256 private constant _NOT_USED = 0;\n    // used as both\n    // - reentrancy guard (_NOT_USED > tokenId > _NOT_USED)\n    // - for keeping state while awaiting for OnTokenBurned callback (_NOT_USED > tokenId > _NOT_USED)\n    uint256 private _tokenId = _NOT_USED;\n    uint256 private _ticker = _NOT_USED;\n\n    /**\n        @dev    Constructor. Creates XEN Burn contract, setting immutable parameters\n     */\n    constructor(\n        address xenCrypto_,\n        address forwarder_,\n        address royaltyReceiver_\n    ) ERC2771Context(forwarder_) {\n        require(xenCrypto_ != address(0), \"bad address\");\n        xenCrypto = XENCrypto(xenCrypto_);\n        _deployer = msg.sender;\n        _royaltyReceiver = royaltyReceiver_ == address(0) ? msg.sender : royaltyReceiver_;\n    }\n\n    // INTERFACES & STANDARDS\n    // IERC165 IMPLEMENTATION\n\n    /**\n        @dev confirms support for IERC-165, IERC-721, IERC2981, IERC2771 and IBurnRedeemable interfaces\n     */\n    function supportsInterface(bytes4 interfaceId) public view virtual override(IERC165, ERC721) returns (bool) {\n        return\n        interfaceId == type(IBurnRedeemable).interfaceId ||\n        interfaceId == type(IERC2981).interfaceId ||\n        interfaceId == type(IERC2771).interfaceId ||\n        super.supportsInterface(interfaceId);\n    }\n\n    // ERC2771 IMPLEMENTATION\n\n    /**\n        @dev use ERC2771Context implementation of _msgSender()\n     */\n    function _msgSender() internal view virtual override(Context, ERC2771Context) returns (address) {\n        return ERC2771Context._msgSender();\n    }\n\n    /**\n        @dev use ERC2771Context implementation of _msgData()\n     */\n    function _msgData() internal view virtual override(Context, ERC2771Context) returns (bytes calldata) {\n        return ERC2771Context._msgData();\n    }\n\n    // OWNABLE IMPLEMENTATION\n\n    /**\n        @dev public getter to check for deployer / owner (Opensea, etc.)\n     */\n    function owner() external view returns (address) {\n        return _deployer;\n    }\n\n    // ERC-721 METADATA IMPLEMENTATION\n    /**\n        @dev compliance with ERC-721 standard (NFT); returns NFT metadata, including SVG-encoded image\n     */\n    function tokenURI(uint256 tokenId) public view override returns (string memory) {\n        uint256 info = tickerInfo[tokenId];\n        // uint256 burned = xenBurned[tokenId];\n        bytes memory dataURI = abi.encodePacked(\n            \"{\",\n            '\"name\": \"XEN Ticker #',\n            tokenId.toString(),\n            '\",',\n            '\"description\": \"XENFT: XEN Ticker\",',\n            '\"image\": \"',\n            \"data:image/svg+xml;base64,\",\n            Base64.encode(TickerMetadata.svgData(tokenId, info, address(xenCrypto))),\n            '\",',\n            '\"attributes\": ',\n                TickerMetadata.attributes(info),\n            \"}\"\n        );\n        return string(abi.encodePacked(\"data:application/json;base64,\", Base64.encode(dataURI)));\n    }\n\n    // OVERRIDING OF ERC-721 IMPLEMENTATION\n    // ENFORCEMENT OF TRANSFER BLACKOUT PERIOD\n\n    /**\n        @dev overrides OZ ERC-721 after transfer hook to allow token enumeration for owner\n     */\n    function _afterTokenTransfer(\n        address from,\n        address to,\n        uint256 tokenId\n    ) internal virtual override {\n        _ownedTokens[from].removeItem(tokenId);\n        _ownedTokens[to].addItem(tokenId);\n    }\n\n    // IBurnableToken IMPLEMENTATION\n\n    /**\n        @dev burns XENBurn XENFT which can be used by connected contracts services\n     */\n    function burn(address user, uint256 tokenId) public {\n        _tokenId = tokenId;\n        require(\n            IERC165(_msgSender()).supportsInterface(type(IBurnRedeemable).interfaceId),\n            \"XENFT burn: not a supported contract\"\n        );\n        require(user != address(0), \"XENFT burn: illegal owner address\");\n        require(tokenId > 0, \"XENFT burn: illegal tokenId\");\n        require(_isApprovedOrOwner(_msgSender(), tokenId), \"XENFT burn: not an approved operator\");\n        require(ownerOf(tokenId) == user, \"XENFT burn: user is not tokenId owner\");\n\n        _ownedTokens[user].removeItem(tokenId);\n        _burn(tokenId);\n        IBurnRedeemable(_msgSender()).onTokenBurned(user, tokenId);\n        _tokenId = _NOT_USED;\n    }\n\n    // IBurnRedeemable IMPLEMENTATION\n\n    /**\n        @dev implements IBurnRedeemable interface for burning XEN and completing XENFT minting\n     */\n    function onTokenBurned(address user, uint256 burned) external {\n        require(_tokenId != _NOT_USED && _ticker != _NOT_USED, \"XENFT: illegal callback state\");\n        require(msg.sender == address(xenCrypto), \"XENFT: illegal callback caller\");\n\n        _ownedTokens[user].addItem(_tokenId);\n        xenBurned[_tokenId] = burned;\n        bytes memory bb = abi.encodePacked(bytes4(uint32(_ticker >> 224)));\n        bb = _toUpperCase(bb);\n        string memory ticker = string(bb);\n        tickers[bb] = _tokenId;\n        tickerInfo[_tokenId] = _tickerInfo(_tokenId, burned, ticker);\n        _safeMint(user, _tokenId);\n        tokenIdCounter++;\n        _tokenId = _NOT_USED;\n        _ticker = _NOT_USED;\n        emit Registered(user, ticker, tokenIdCounter - 1, burned);\n    }\n\n    // OVERRIDING ERC-721 IMPLEMENTATION TO ALLOW OPENSEA ROYALTIES ENFORCEMENT PROTOCOL\n\n    /**\n        @dev implements `setApprovalForAll` with additional approved Operator checking\n     */\n    function setApprovalForAll(address operator, bool approved) public override onlyAllowedOperatorApproval(operator) {\n        super.setApprovalForAll(operator, approved);\n    }\n\n    /**\n        @dev implements `approve` with additional approved Operator checking\n     */\n    function approve(address operator, uint256 tokenId) public override onlyAllowedOperatorApproval(operator) {\n        super.approve(operator, tokenId);\n    }\n\n    /**\n        @dev implements `transferFrom` with additional approved Operator checking\n     */\n    function transferFrom(\n        address from,\n        address to,\n        uint256 tokenId\n    ) public override onlyAllowedOperator(from) {\n        super.transferFrom(from, to, tokenId);\n    }\n\n    /**\n        @dev implements `safeTransferFrom` with additional approved Operator checking\n     */\n    function safeTransferFrom(\n        address from,\n        address to,\n        uint256 tokenId\n    ) public override onlyAllowedOperator(from) {\n        super.safeTransferFrom(from, to, tokenId);\n    }\n\n    /**\n        @dev implements `safeTransferFrom` with additional approved Operator checking\n     */\n    function safeTransferFrom(\n        address from,\n        address to,\n        uint256 tokenId,\n        bytes memory data\n    ) public override onlyAllowedOperator(from) {\n        super.safeTransferFrom(from, to, tokenId, data);\n    }\n\n    // SUPPORT FOR ERC2771 META-TRANSACTIONS\n\n    /**\n        @dev Implements setting a `Trusted Forwarder` for meta-txs. Settable only once\n     */\n    function addForwarder(address trustedForwarder) external {\n        require(msg.sender == _deployer, \"XENFT: not an deployer\");\n        require(_trustedForwarder == address(0), \"XENFT: Forwarder is already set\");\n\n        _trustedForwarder = trustedForwarder;\n    }\n\n    // SUPPORT FOR ERC2981 ROYALTY INFO\n\n    /**\n        @dev Implements getting Royalty Info by supported operators. ROYALTY_BP is expressed in basis points\n     */\n    function royaltyInfo(uint256, uint256 salePrice) external view returns (address receiver, uint256 royaltyAmount) {\n        receiver = _royaltyReceiver;\n        royaltyAmount = (salePrice * ROYALTY_BP) / 10_000;\n    }\n\n    // XEN BURN PRIVATE / INTERNAL HELPERS\n\n    /**\n        @dev internal burn interface. calculates rarityBits and rarityScore\n     */\n    function _calcRarity(uint256 tokenId) private view returns (uint256 rarityScore, uint256 rarityBits) {\n        bool isPrime = tokenId.isPrime();\n        bool isFib = tokenId.isFib();\n        bool blockIsPrime = block.number.isPrime();\n        bool blockIsFib = block.number.isFib();\n        rarityScore += (isPrime ? 500 : 0);\n        rarityScore += (blockIsPrime ? 1_000 : 0);\n        rarityScore += (isFib ? 5_000 : 0);\n        rarityScore += (blockIsFib ? 10_000 : 0);\n        rarityBits = TickerInfo.encodeRarityBits(isPrime, isFib, blockIsPrime, blockIsFib);\n    }\n\n    /**\n        @dev internal burn interface. composes tickerInfo\n     */\n    function _tickerInfo(uint256 tokenId, uint256 amount, string memory symbol) private view returns (uint256 info) {\n        (uint256 rarityScore, uint256 rarityBits) = _calcRarity(tokenId);\n        info = TickerInfo.encodeTickerInfo(symbol, block.timestamp, amount / 10 ** 18, rarityScore, rarityBits);\n    }\n\n    // PUBLIC GETTERS\n\n    /**\n        @dev public getter for tokens owned by address\n     */\n    function ownedTokens() external view returns (uint256[] memory) {\n        return _ownedTokens[_msgSender()];\n    }\n\n    function getRequiredXenBurnAmount() public view returns (uint256) {\n        uint256 steps = tokenIdCounter / COUNTER_STEPS;\n        return XEN_BURN_FLOOR + steps * XEN_BURN_STEP;\n    }\n\n    function _xenAmountIsEnough(uint256 amount) private view returns (bool) {\n        return amount > getRequiredXenBurnAmount();\n    }\n\n    function _isLowerCaseAlpha(bytes1 b) private pure returns (bool) {\n        return b > '`' && b < '{';\n    }\n\n    function _isUpperCaseAlpha(bytes1 b) private pure returns (bool) {\n        return b > '@' && b < '[';\n    }\n\n    function _toUpperCase(bytes memory bb) private pure returns (bytes memory result) {\n        result = new bytes(bb.length);\n        for (uint i = 0; i < bb.length; i++) {\n            result[i] = bytes1(uint8(bb[i]) - (_isLowerCaseAlpha(bb[i]) ? DELTA : 0));\n        }\n    }\n\n    function _isDigit(bytes1 b) private pure returns (bool) {\n        return b > '/' && b < ';';\n    }\n\n    function isValidAndUnique(string memory ticker) public view returns (bool) {\n        bytes memory bb = bytes(ticker);\n        require(bb.length == TICKER_LENGTH, 'XEN Ticker: wrong ticker length');\n\n        for (uint i = 0; i < bb.length; i++) {\n            if (!_isLowerCaseAlpha(bb[i])  && !_isUpperCaseAlpha(bb[i]))\n                revert('XEN Ticker: wrong symbol');\n        }\n        bytes memory transformedBytes = _toUpperCase(bb);\n        return tickers[transformedBytes] == 0;\n    }\n\n    // PUBLIC TRANSACTIONAL INTERFACE\n\n    /**\n        @dev    public XEN Ticker interface\n                registers unique 4-letter ticker by burning XEN\n     */\n    function register(string memory ticker, uint256 amount) external returns (uint256 tokenId) {\n        require(_tokenId == _NOT_USED, \"XENFT: reentrancy detected\");\n        require(msg.sender == tx.origin, 'XENFT: only EOA allowed to register');\n        require(_xenAmountIsEnough(amount), \"XENFT: bad XEN amount\");\n        require(isValidAndUnique(ticker), \"XENFT: ticker invalid or not unique\");\n\n        _tokenId = tokenIdCounter;\n        _ticker = uint256(bytes32(abi.encodePacked(ticker)));\n        tokenId = tokenIdCounter;\n        xenCrypto.burn(_msgSender(), amount);\n    }\n}\n",
  "sourcePath": "/Users/lbelyaev/dev/XEN-ticker/contracts/XENTicker.sol",
  "compiler": {
    "name": "solc",
    "version": "0.8.17+commit.8df45f5f.Emscripten.clang"
  },
  "schemaVersion": "3.4.10",
  "updatedAt": "2023-10-03T18:13:41.433Z",
  "networkType": "ethereum",
  "devdoc": {
    "errors": {
      "OperatorNotAllowed(address)": [
        {
          "details": "Emitted when an operator is not allowed."
        }
      ]
    },
    "kind": "dev",
    "methods": {
      "addForwarder(address)": {
        "details": "Implements setting a `Trusted Forwarder` for meta-txs. Settable only once"
      },
      "approve(address,uint256)": {
        "details": "implements `approve` with additional approved Operator checking"
      },
      "balanceOf(address)": {
        "details": "See {IERC721-balanceOf}."
      },
      "burn(address,uint256)": {
        "details": "burns XENBurn XENFT which can be used by connected contracts services"
      },
      "constructor": {
        "details": "Constructor. Creates XEN Burn contract, setting immutable parameters"
      },
      "getApproved(uint256)": {
        "details": "See {IERC721-getApproved}."
      },
      "isApprovedForAll(address,address)": {
        "details": "See {IERC721-isApprovedForAll}."
      },
      "name()": {
        "details": "See {IERC721Metadata-name}."
      },
      "onTokenBurned(address,uint256)": {
        "details": "implements IBurnRedeemable interface for burning XEN and completing XENFT minting"
      },
      "ownedTokens()": {
        "details": "public getter for tokens owned by address"
      },
      "owner()": {
        "details": "public getter to check for deployer / owner (Opensea, etc.)"
      },
      "ownerOf(uint256)": {
        "details": "See {IERC721-ownerOf}."
      },
      "register(string,uint256)": {
        "details": "public XEN Ticker interface registers unique 4-letter ticker by burning XEN"
      },
      "royaltyInfo(uint256,uint256)": {
        "details": "Implements getting Royalty Info by supported operators. ROYALTY_BP is expressed in basis points"
      },
      "safeTransferFrom(address,address,uint256)": {
        "details": "implements `safeTransferFrom` with additional approved Operator checking"
      },
      "safeTransferFrom(address,address,uint256,bytes)": {
        "details": "implements `safeTransferFrom` with additional approved Operator checking"
      },
      "setApprovalForAll(address,bool)": {
        "details": "implements `setApprovalForAll` with additional approved Operator checking"
      },
      "supportsInterface(bytes4)": {
        "details": "confirms support for IERC-165, IERC-721, IERC2981, IERC2771 and IBurnRedeemable interfaces"
      },
      "symbol()": {
        "details": "See {IERC721Metadata-symbol}."
      },
      "tokenURI(uint256)": {
        "details": "compliance with ERC-721 standard (NFT); returns NFT metadata, including SVG-encoded image"
      },
      "transferFrom(address,address,uint256)": {
        "details": "implements `transferFrom` with additional approved Operator checking"
      }
    },
    "version": 1
  },
  "userdoc": {
    "kind": "user",
    "methods": {},
    "version": 1
  }
}