{
  "contractName": "XENTokenizer",
  "abi": [
    {
      "inputs": [
        {
          "internalType": "address",
          "name": "xenCrypto_",
          "type": "address"
        },
        {
          "internalType": "address",
          "name": "xenVarStaker_",
          "type": "address"
        }
      ],
      "stateMutability": "nonpayable",
      "type": "constructor"
    },
    {
      "anonymous": false,
      "inputs": [
        {
          "indexed": true,
          "internalType": "address",
          "name": "user",
          "type": "address"
        },
        {
          "indexed": true,
          "internalType": "address",
          "name": "xenContract",
          "type": "address"
        },
        {
          "indexed": true,
          "internalType": "address",
          "name": "tokenContract",
          "type": "address"
        },
        {
          "indexed": false,
          "internalType": "uint256",
          "name": "xenAmount",
          "type": "uint256"
        },
        {
          "indexed": false,
          "internalType": "uint256",
          "name": "tokenAmount",
          "type": "uint256"
        }
      ],
      "name": "Redeemed",
      "type": "event"
    },
    {
      "inputs": [
        {
          "internalType": "uint256",
          "name": "",
          "type": "uint256"
        }
      ],
      "name": "allTokens",
      "outputs": [
        {
          "internalType": "string",
          "name": "",
          "type": "string"
        }
      ],
      "stateMutability": "view",
      "type": "function"
    },
    {
      "inputs": [
        {
          "internalType": "address",
          "name": "",
          "type": "address"
        }
      ],
      "name": "burnByTokens",
      "outputs": [
        {
          "internalType": "uint256",
          "name": "",
          "type": "uint256"
        }
      ],
      "stateMutability": "view",
      "type": "function"
    },
    {
      "inputs": [
        {
          "internalType": "address",
          "name": "",
          "type": "address"
        },
        {
          "internalType": "address",
          "name": "",
          "type": "address"
        }
      ],
      "name": "burnByUsers",
      "outputs": [
        {
          "internalType": "uint256",
          "name": "",
          "type": "uint256"
        }
      ],
      "stateMutability": "view",
      "type": "function"
    },
    {
      "inputs": [
        {
          "internalType": "address",
          "name": "",
          "type": "address"
        }
      ],
      "name": "deployers",
      "outputs": [
        {
          "internalType": "address",
          "name": "",
          "type": "address"
        }
      ],
      "stateMutability": "view",
      "type": "function"
    },
    {
      "inputs": [
        {
          "internalType": "bytes32",
          "name": "",
          "type": "bytes32"
        }
      ],
      "name": "tokens",
      "outputs": [
        {
          "internalType": "address",
          "name": "",
          "type": "address"
        }
      ],
      "stateMutability": "view",
      "type": "function"
    },
    {
      "inputs": [],
      "name": "xenCrypto",
      "outputs": [
        {
          "internalType": "address",
          "name": "",
          "type": "address"
        }
      ],
      "stateMutability": "view",
      "type": "function"
    },
    {
      "inputs": [],
      "name": "xenVarStaker",
      "outputs": [
        {
          "internalType": "address",
          "name": "",
          "type": "address"
        }
      ],
      "stateMutability": "view",
      "type": "function"
    },
    {
      "inputs": [],
      "name": "tokenCount",
      "outputs": [
        {
          "internalType": "uint256",
          "name": "count",
          "type": "uint256"
        }
      ],
      "stateMutability": "view",
      "type": "function"
    },
    {
      "inputs": [
        {
          "internalType": "string",
          "name": "symbol_",
          "type": "string"
        }
      ],
      "name": "getTokenAddress",
      "outputs": [
        {
          "internalType": "address",
          "name": "",
          "type": "address"
        }
      ],
      "stateMutability": "view",
      "type": "function"
    },
    {
      "inputs": [
        {
          "internalType": "string",
          "name": "symbol_",
          "type": "string"
        }
      ],
      "name": "getTokenInfo",
      "outputs": [
        {
          "internalType": "address",
          "name": "token",
          "type": "address"
        },
        {
          "internalType": "address",
          "name": "deployer",
          "type": "address"
        },
        {
          "internalType": "uint256",
          "name": "burns",
          "type": "uint256"
        }
      ],
      "stateMutability": "view",
      "type": "function"
    },
    {
      "inputs": [
        {
          "internalType": "string",
          "name": "symbol_",
          "type": "string"
        }
      ],
      "name": "getUserBurn",
      "outputs": [
        {
          "internalType": "uint256",
          "name": "userBurn",
          "type": "uint256"
        }
      ],
      "stateMutability": "view",
      "type": "function"
    },
    {
      "inputs": [
        {
          "internalType": "address",
          "name": "token",
          "type": "address"
        }
      ],
      "name": "isFullyMinted",
      "outputs": [
        {
          "internalType": "bool",
          "name": "",
          "type": "bool"
        }
      ],
      "stateMutability": "view",
      "type": "function"
    },
    {
      "inputs": [
        {
          "internalType": "string",
          "name": "name_",
          "type": "string"
        },
        {
          "internalType": "string",
          "name": "symbol_",
          "type": "string"
        },
        {
          "internalType": "uint256",
          "name": "supply_",
          "type": "uint256"
        },
        {
          "internalType": "uint256",
          "name": "batchSize_",
          "type": "uint256"
        },
        {
          "internalType": "uint256",
          "name": "cycleInterval_",
          "type": "uint256"
        },
        {
          "internalType": "uint256",
          "name": "startBlockNumber_",
          "type": "uint256"
        }
      ],
      "name": "deployToken",
      "outputs": [],
      "stateMutability": "nonpayable",
      "type": "function"
    },
    {
      "inputs": [
        {
          "internalType": "address",
          "name": "user",
          "type": "address"
        },
        {
          "internalType": "uint256",
          "name": "amount",
          "type": "uint256"
        }
      ],
      "name": "burn",
      "outputs": [],
      "stateMutability": "nonpayable",
      "type": "function"
    },
    {
      "inputs": [
        {
          "internalType": "bytes4",
          "name": "interfaceId",
          "type": "bytes4"
        }
      ],
      "name": "supportsInterface",
      "outputs": [
        {
          "internalType": "bool",
          "name": "",
          "type": "bool"
        }
      ],
      "stateMutability": "view",
      "type": "function"
    },
    {
      "inputs": [
        {
          "internalType": "address",
          "name": "user",
          "type": "address"
        },
        {
          "internalType": "uint256",
          "name": "amount",
          "type": "uint256"
        }
      ],
      "name": "onTokenBurned",
      "outputs": [],
      "stateMutability": "nonpayable",
      "type": "function"
    }
  ],
  "bytecode": "0x60c060405234801561001057600080fd5b5060405162002cab38038062002cab83398101604081905261003191610115565b6001600160a01b03821661008c5760405162461bcd60e51b815260206004820152601a60248201527f58463a206261642058454e2043727970746f206164647265737300000000000060448201526064015b60405180910390fd5b6001600160a01b0381166100e25760405162461bcd60e51b815260206004820152601d60248201527f58463a206261642058454e205661725374616b657220616464726573730000006044820152606401610083565b6001600160a01b039182166080521660a052610148565b80516001600160a01b038116811461011057600080fd5b919050565b6000806040838503121561012857600080fd5b610131836100f9565b915061013f602084016100f9565b90509250929050565b60805160a051612b2f6200017c6000396000818161018b015281816103db01526107f0015260006102350152612b2f6000f3fe60806040523480156200001157600080fd5b5060043610620001155760003560e01c80638e0ad1cc11620000a3578063ae69b1ee116200006e578063ae69b1ee14620002e1578063c409123614620002f8578063d3470392146200030f578063dfb9836b146200033257600080fd5b80638e0ad1cc1462000257578063904194a314620002955780639dc29fac14620002c15780639f181b5e14620002d857600080fd5b8063579fe1c011620000e4578063579fe1c014620001c6578063634282af14620001dd5780636a2385e8146200020357806371141a58146200022f57600080fd5b806301ffc9a7146200011a578063124d3d521462000146578063543746b1146200016c578063570e3c6b1462000185575b600080fd5b620001316200012b36600462000a76565b62000360565b60405190151581526020015b60405180910390f35b6200015d6200015736600462000b54565b62000398565b6040519081526020016200013d565b620001836200017d36600462000bb2565b620003d0565b005b620001ad7f000000000000000000000000000000000000000000000000000000000000000081565b6040516001600160a01b0390911681526020016200013d565b62000131620001d736600462000bdf565b62000580565b620001f4620001ee36600462000bfd565b62000667565b6040516200013d919062000c6b565b620001ad6200021436600462000bdf565b6002602052600090815260409020546001600160a01b031681565b620001ad7f000000000000000000000000000000000000000000000000000000000000000081565b6200026e6200026836600462000b54565b6200071c565b604080516001600160a01b039485168152939092166020840152908201526060016200013d565b620001ad620002a636600462000bfd565b6001602052600090815260409020546001600160a01b031681565b62000183620002d236600462000bb2565b62000760565b6000546200015d565b62000183620002f236600462000c80565b62000852565b620001ad6200030936600462000b54565b62000a1d565b6200015d6200032036600462000bdf565b60036020526000908152604090205481565b6200015d6200034336600462000d0e565b600460209081526000928352604080842090915290825290205481565b60006001600160e01b0319821663543746b160e01b14806200039257506001600160e01b031982166301ffc9a760e01b145b92915050565b600080620003a68362000a1d565b6001600160a01b031660009081526004602090815260408083203384529091529020549392505050565b336001600160a01b037f00000000000000000000000000000000000000000000000000000000000000001614620004435760405162461bcd60e51b81526020600482015260126024820152712c231d1034b63632b3b0b61031b0b63632b960711b60448201526064015b60405180910390fd5b6005546001600160a01b0316620004915760405162461bcd60e51b815260206004820152601160248201527058463a20696c6c6567616c20737461746560781b60448201526064016200043a565b60055460405163543746b160e01b81526001600160a01b038481166004830152602482018490529091169063543746b190604401600060405180830381600087803b158015620004e057600080fd5b505af1158015620004f5573d6000803e3d6000fd5b50506005546001600160a01b0316600090815260036020526040812080548594509092506200052690849062000d46565b90915550506005546001600160a01b039081166000908152600460209081526040808320938616835292905290812080548392906200056790849062000d46565b9091555050600580546001600160a01b03191690555050565b60006001600160a01b0382166200059657600080fd5b816001600160a01b031663355274ea6040518163ffffffff1660e01b8152600401602060405180830381865afa158015620005d5573d6000803e3d6000fd5b505050506040513d601f19601f82011682018060405250810190620005fb919062000d68565b826001600160a01b03166318160ddd6040518163ffffffff1660e01b8152600401602060405180830381865afa1580156200063a573d6000803e3d6000fd5b505050506040513d601f19601f8201168201806040525081019062000660919062000d68565b1492915050565b600081815481106200067857600080fd5b906000526020600020016000915090508054620006959062000d82565b80601f0160208091040260200160405190810160405280929190818152602001828054620006c39062000d82565b8015620007145780601f10620006e85761010080835404028352916020019162000714565b820191906000526020600020905b815481529060010190602001808311620006f657829003601f168201915b505050505081565b60008060006200072c8462000a1d565b6001600160a01b03808216600090815260026020908152604080832054600390925290912054929791169550909350915050565b336000908152600260205260409020546001600160a01b0316620007b85760405162461bcd60e51b815260206004820152600e60248201526d2c231d103130b21031b0b63632b960911b60448201526064016200043a565b600580546001600160a01b03191633179055604051632770a7eb60e21b81526001600160a01b038381166004830152602482018390527f00000000000000000000000000000000000000000000000000000000000000001690639dc29fac90604401600060405180830381600087803b1580156200083557600080fd5b505af11580156200084a573d6000803e3d6000fd5b505050505050565b60008560405160200162000867919062000dbe565b60408051601f198184030181529181528151602092830120600081815260019093529120549091506001600160a01b031615620008e75760405162461bcd60e51b815260206004820152601960248201527f58463a2073796d626f6c20616c726561647920696e207573650000000000000060448201526064016200043a565b6000878787878787604051620008fd9062000a68565b6200090e9695949392919062000ddc565b604051809103906000f0801580156200092b573d6000803e3d6000fd5b5060405163f2fde38b60e01b81523360048201529091506001600160a01b0382169063f2fde38b90602401600060405180830381600087803b1580156200097157600080fd5b505af115801562000986573d6000803e3d6000fd5b5050506000838152600160208190526040822080546001600160a01b0319166001600160a01b038616179055815490810182559080527f290decd9548b62a8d60345a988386fc84ba6bc95484008f6362f93160ef3e563019050620009ec888262000e7a565b506001600160a01b0316600090815260026020526040902080546001600160a01b0319163317905550505050505050565b6000808260405160200162000a33919062000dbe565b60408051601f198184030181529181528151602092830120600090815260019092529020546001600160a01b03169392505050565b611bb28062000f4883390190565b60006020828403121562000a8957600080fd5b81356001600160e01b03198116811462000aa257600080fd5b9392505050565b634e487b7160e01b600052604160045260246000fd5b600082601f83011262000ad157600080fd5b813567ffffffffffffffff8082111562000aef5762000aef62000aa9565b604051601f8301601f19908116603f0116810190828211818310171562000b1a5762000b1a62000aa9565b8160405283815286602085880101111562000b3457600080fd5b836020870160208301376000602085830101528094505050505092915050565b60006020828403121562000b6757600080fd5b813567ffffffffffffffff81111562000b7f57600080fd5b62000b8d8482850162000abf565b949350505050565b80356001600160a01b038116811462000bad57600080fd5b919050565b6000806040838503121562000bc657600080fd5b62000bd18362000b95565b946020939093013593505050565b60006020828403121562000bf257600080fd5b62000aa28262000b95565b60006020828403121562000c1057600080fd5b5035919050565b60005b8381101562000c3457818101518382015260200162000c1a565b50506000910152565b6000815180845262000c5781602086016020860162000c17565b601f01601f19169290920160200192915050565b60208152600062000aa2602083018462000c3d565b60008060008060008060c0878903121562000c9a57600080fd5b863567ffffffffffffffff8082111562000cb357600080fd5b62000cc18a838b0162000abf565b9750602089013591508082111562000cd857600080fd5b5062000ce789828a0162000abf565b96999698505050506040850135946060810135946080820135945060a09091013592509050565b6000806040838503121562000d2257600080fd5b62000d2d8362000b95565b915062000d3d6020840162000b95565b90509250929050565b808201808211156200039257634e487b7160e01b600052601160045260246000fd5b60006020828403121562000d7b57600080fd5b5051919050565b600181811c9082168062000d9757607f821691505b60208210810362000db857634e487b7160e01b600052602260045260246000fd5b50919050565b6000825162000dd281846020870162000c17565b9190910192915050565b60c08152600062000df160c083018962000c3d565b828103602084015262000e05818962000c3d565b9150508560408301528460608301528360808301528260a0830152979650505050505050565b601f82111562000e7557600081815260208120601f850160051c8101602086101562000e545750805b601f850160051c820191505b818110156200084a5782815560010162000e60565b505050565b815167ffffffffffffffff81111562000e975762000e9762000aa9565b62000eaf8162000ea8845462000d82565b8462000e2b565b602080601f83116001811462000ee7576000841562000ece5750858301515b600019600386901b1c1916600185901b1785556200084a565b600085815260208120601f198616915b8281101562000f185788860151825594840194600190910190840162000ef7565b508582101562000f375787850151600019600388901b60f8161c191681555b5050505050600190811b0190555056fe61012060405260016006553480156200001757600080fd5b5060405162001bb238038062001bb28339810160408190526200003a91620003d0565b8386866200004833620002bb565b6004620000568382620004ee565b506005620000658282620004ee565b50505060008111620000be5760405162461bcd60e51b815260206004820152601560248201527f45524332304361707065643a206361702069732030000000000000000000000060448201526064015b60405180910390fd5b60805284516003106200012b5760405162461bcd60e51b815260206004820152602e60248201527f464552432d32303a2034206f72206d6f7265206c65747465727320726571756960448201526d1c995908199bdc881cde5b589bdb60921b6064820152608401620000b5565b600084116200017d5760405162461bcd60e51b815260206004820152601c60248201527f464552432d32303a20737570706c79207368616c6c206265203e2030000000006044820152606401620000b5565b60008311620001cf5760405162461bcd60e51b815260206004820152601f60248201527f464552432d32303a20626174636853697a65207368616c6c206265203e2030006044820152606401620000b5565b838311156200022f5760405162461bcd60e51b815260206004820152602560248201527f464552432d32303a20626174636853697a65207368616c6c206265203c3d20736044820152647570706c7960d81b6064820152608401620000b5565b600082116200028d5760405162461bcd60e51b815260206004820152602360248201527f464552432d32303a206379636c65496e74657276616c207368616c6c2062652060448201526203e20360ec1b6064820152608401620000b5565b60a083905260c082905280620002a45743620002a6565b805b60e0525050336101005250620005ba92505050565b600080546001600160a01b038381166001600160a01b0319831681178455604051919092169283917f8be0079c531659141344cd1fd0a4f28419497f9722a3daafe3b4186f6b6457e09190a35050565b634e487b7160e01b600052604160045260246000fd5b600082601f8301126200033357600080fd5b81516001600160401b03808211156200035057620003506200030b565b604051601f8301601f19908116603f011681019082821181831017156200037b576200037b6200030b565b816040528381526020925086838588010111156200039857600080fd5b600091505b83821015620003bc57858201830151818301840152908201906200039d565b600093810190920192909252949350505050565b60008060008060008060c08789031215620003ea57600080fd5b86516001600160401b03808211156200040257600080fd5b620004108a838b0162000321565b975060208901519150808211156200042757600080fd5b506200043689828a0162000321565b95505060408701519350606087015192506080870151915060a087015190509295509295509295565b600181811c908216806200047457607f821691505b6020821081036200049557634e487b7160e01b600052602260045260246000fd5b50919050565b601f821115620004e957600081815260208120601f850160051c81016020861015620004c45750805b601f850160051c820191505b81811015620004e557828155600101620004d0565b5050505b505050565b81516001600160401b038111156200050a576200050a6200030b565b62000522816200051b84546200045f565b846200049b565b602080601f8311600181146200055a5760008415620005415750858301515b600019600386901b1c1916600185901b178555620004e5565b600085815260208120601f198616915b828110156200058b578886015182559484019460019091019084016200056a565b5085821015620005aa5787850151600019600388901b60f8161c191681555b5050505050600190811b01905550565b60805160a05160c05160e05161010051611589620006296000396000818161041f0152818161080e015261088001526000818161032501526107b20152600081816102c0015261078001526000818161048c0152610613015260008181610284015261118001526115896000f3fe608060405234801561001057600080fd5b50600436106101cf5760003560e01c8063543746b111610104578063a457c2d7116100a2578063ce653d5f11610071578063ce653d5f14610441578063dd62ed3e14610461578063f2fde38b14610474578063f4daaba11461048757600080fd5b8063a457c2d7146103eb578063a9059cbb146103fe578063bab2f55214610411578063c45a01551461041a57600080fd5b8063715018a6116100de578063715018a6146103a35780638da5cb5b146103ab57806395d89b41146103d05780639dc29fac146103d857600080fd5b8063543746b114610347578063568947881461035a57806370a082311461037a57600080fd5b8063313ce567116101715780633b26156e1161014b5780633b26156e146102bb5780633f1ffcec146102e2578063454a2ab31461030d578063498a4c2d1461032057600080fd5b8063313ce56714610273578063355274ea1461028257806339509351146102a857600080fd5b80631249c58b116101ad5780631249c58b1461022457806318160ddd1461022e5780631b3387101461024057806323b872dd1461026057600080fd5b806301ffc9a7146101d457806306fdde03146101fc578063095ea7b314610211575b600080fd5b6101e76101e23660046112c7565b6104ae565b60405190151581526020015b60405180910390f35b610204610500565b6040516101f391906112f8565b6101e761021f366004611362565b610592565b61022c6105aa565b005b6003545b6040519081526020016101f3565b61023261024e36600461138c565b60086020526000908152604090205481565b6101e761026e3660046113a5565b610694565b604051601281526020016101f3565b7f0000000000000000000000000000000000000000000000000000000000000000610232565b6101e76102b6366004611362565b6106b8565b6102327f000000000000000000000000000000000000000000000000000000000000000081565b6102326102f03660046113e1565b600760209081526000928352604080842090915290825290205481565b61022c61031b36600461138c565b6106da565b6102327f000000000000000000000000000000000000000000000000000000000000000081565b61022c610355366004611362565b610875565b61023261036836600461140d565b60096020526000908152604090205481565b61023261038836600461140d565b6001600160a01b031660009081526001602052604090205490565b61022c610951565b6000546001600160a01b03165b6040516001600160a01b0390911681526020016101f3565b610204610965565b61022c6103e6366004611362565b610974565b6101e76103f9366004611362565b610b26565b6101e761040c366004611362565b610ba1565b61023260065481565b6103b87f000000000000000000000000000000000000000000000000000000000000000081565b61023261044f36600461140d565b600a6020526000908152604090205481565b61023261046f366004611428565b610baf565b61022c61048236600461140d565b610bda565b6102327f000000000000000000000000000000000000000000000000000000000000000081565b60006001600160e01b0319821663543746b160e01b14806104df57506001600160e01b03198216632770a7eb60e21b145b806104fa57506001600160e01b031982166301ffc9a760e01b145b92915050565b60606004805461050f90611452565b80601f016020809104026020016040519081016040528092919081815260200182805461053b90611452565b80156105885780601f1061055d57610100808354040283529160200191610588565b820191906000526020600020905b81548152906001019060200180831161056b57829003601f168201915b5050505050905090565b6000336105a0818585610c50565b5060019392505050565b60008060016006546105bc91906114a2565b90505b33600090815260096020526040902054811115610661576000818152600860205260409020541561064f576000818152600860209081526040808320546007835281842033855290925290912054610638907f0000000000000000000000000000000000000000000000000000000000000000906114b5565b61064291906114cc565b61064c90836114ee565b91505b8061065981611501565b9150506105bf565b50600160065461067191906114a2565b336000908152600960205260409020558015610691576106913382610d75565b50565b6000336106a2858285610d83565b6106ad858585610dfd565b506001949350505050565b6000336105a08185856106cb8383610baf565b6106d591906114ee565b610c50565b6000811161072f5760405162461bcd60e51b815260206004820152601c60248201527f464552432d32303a20616d6f756e74207368616c6c206265203e20300000000060448201526064015b60405180910390fd5b32331461077e5760405162461bcd60e51b815260206004820152601a60248201527f464552432d32303a206f6e6c7920454f417320616c6c6f7765640000000000006044820152606401610726565b7f00000000000000000000000000000000000000000000000000000000000000006006546107ac91906114b5565b6107d6907f00000000000000000000000000000000000000000000000000000000000000006114ee565b43106107f257600680549060006107ec83611518565b91905055505b604051632770a7eb60e21b8152336004820152602481018290527f00000000000000000000000000000000000000000000000000000000000000006001600160a01b031690639dc29fac90604401600060405180830381600087803b15801561085a57600080fd5b505af115801561086e573d6000803e3d6000fd5b5050505050565b336001600160a01b037f000000000000000000000000000000000000000000000000000000000000000016146108ed5760405162461bcd60e51b815260206004820181905260248201527f464552432d32303a20696c6c6567616c2063616c6c6261636b2063616c6c65726044820152606401610726565b60065460009081526007602090815260408083206001600160a01b0386168452909152812080548392906109229084906114ee565b9091555050600654600090815260086020526040812080548392906109489084906114ee565b90915550505050565b610959610fa8565b6109636000611002565b565b60606005805461050f90611452565b600081116109bc5760405162461bcd60e51b8152602060048201526015602482015274109d5c9b8e8810995b1bddc81b5a5b881b1a5b5a5d605a1b6044820152606401610726565b336040516301ffc9a760e01b815263543746b160e01b60048201526001600160a01b0391909116906301ffc9a790602401602060405180830381865afa158015610a0a573d6000803e3d6000fd5b505050506040513d601f19601f82011682018060405250810190610a2e9190611531565b610a7a5760405162461bcd60e51b815260206004820152601e60248201527f4275726e3a206e6f74206120737570706f7274656420636f6e747261637400006044820152606401610726565b610a85823383610d83565b610a8f8282611052565b6001600160a01b0382166000908152600a602052604081208054839290610ab79084906114ee565b9091555033905060405163543746b160e01b81526001600160a01b03848116600483015260248201849052919091169063543746b190604401600060405180830381600087803b158015610b0a57600080fd5b505af1158015610b1e573d6000803e3d6000fd5b505050505050565b60003381610b348286610baf565b905083811015610b945760405162461bcd60e51b815260206004820152602560248201527f45524332303a2064656372656173656420616c6c6f77616e63652062656c6f77604482015264207a65726f60d81b6064820152608401610726565b6106ad8286868403610c50565b6000336105a0818585610dfd565b6001600160a01b03918216600090815260026020908152604080832093909416825291909152205490565b610be2610fa8565b6001600160a01b038116610c475760405162461bcd60e51b815260206004820152602660248201527f4f776e61626c653a206e6577206f776e657220697320746865207a65726f206160448201526564647265737360d01b6064820152608401610726565b61069181611002565b6001600160a01b038316610cb25760405162461bcd60e51b8152602060048201526024808201527f45524332303a20617070726f76652066726f6d20746865207a65726f206164646044820152637265737360e01b6064820152608401610726565b6001600160a01b038216610d135760405162461bcd60e51b815260206004820152602260248201527f45524332303a20617070726f766520746f20746865207a65726f206164647265604482015261737360f01b6064820152608401610726565b6001600160a01b0383811660008181526002602090815260408083209487168084529482529182902085905590518481527f8c5be1e5ebec7d5bd14f71427d1e84f3dd0314c0f7b2291e5b200ac8c7c3b92591015b60405180910390a3505050565b610d7f828261117e565b5050565b6000610d8f8484610baf565b90506000198114610df75781811015610dea5760405162461bcd60e51b815260206004820152601d60248201527f45524332303a20696e73756666696369656e7420616c6c6f77616e63650000006044820152606401610726565b610df78484848403610c50565b50505050565b6001600160a01b038316610e615760405162461bcd60e51b815260206004820152602560248201527f45524332303a207472616e736665722066726f6d20746865207a65726f206164604482015264647265737360d81b6064820152608401610726565b6001600160a01b038216610ec35760405162461bcd60e51b815260206004820152602360248201527f45524332303a207472616e7366657220746f20746865207a65726f206164647260448201526265737360e81b6064820152608401610726565b6001600160a01b03831660009081526001602052604090205481811015610f3b5760405162461bcd60e51b815260206004820152602660248201527f45524332303a207472616e7366657220616d6f756e7420657863656564732062604482015265616c616e636560d01b6064820152608401610726565b6001600160a01b0380851660008181526001602052604080822086860390559286168082529083902080548601905591517fddf252ad1be2c89b69c2b068fc378daa952ba7f163c4a11628f55a4df523b3ef90610f9b9086815260200190565b60405180910390a3610df7565b6000546001600160a01b031633146109635760405162461bcd60e51b815260206004820181905260248201527f4f776e61626c653a2063616c6c6572206973206e6f7420746865206f776e65726044820152606401610726565b600080546001600160a01b038381166001600160a01b0319831681178455604051919092169283917f8be0079c531659141344cd1fd0a4f28419497f9722a3daafe3b4186f6b6457e09190a35050565b6001600160a01b0382166110b25760405162461bcd60e51b815260206004820152602160248201527f45524332303a206275726e2066726f6d20746865207a65726f206164647265736044820152607360f81b6064820152608401610726565b6001600160a01b038216600090815260016020526040902054818110156111265760405162461bcd60e51b815260206004820152602260248201527f45524332303a206275726e20616d6f756e7420657863656564732062616c616e604482015261636560f01b6064820152608401610726565b6001600160a01b03831660008181526001602090815260408083208686039055600380548790039055518581529192917fddf252ad1be2c89b69c2b068fc378daa952ba7f163c4a11628f55a4df523b3ef9101610d68565b7f0000000000000000000000000000000000000000000000000000000000000000816111a960035490565b6111b391906114ee565b11156112015760405162461bcd60e51b815260206004820152601960248201527f45524332304361707065643a20636170206578636565646564000000000000006044820152606401610726565b610d7f82826001600160a01b03821661125c5760405162461bcd60e51b815260206004820152601f60248201527f45524332303a206d696e7420746f20746865207a65726f2061646472657373006044820152606401610726565b806003600082825461126e91906114ee565b90915550506001600160a01b0382166000818152600160209081526040808320805486019055518481527fddf252ad1be2c89b69c2b068fc378daa952ba7f163c4a11628f55a4df523b3ef910160405180910390a35050565b6000602082840312156112d957600080fd5b81356001600160e01b0319811681146112f157600080fd5b9392505050565b600060208083528351808285015260005b8181101561132557858101830151858201604001528201611309565b506000604082860101526040601f19601f8301168501019250505092915050565b80356001600160a01b038116811461135d57600080fd5b919050565b6000806040838503121561137557600080fd5b61137e83611346565b946020939093013593505050565b60006020828403121561139e57600080fd5b5035919050565b6000806000606084860312156113ba57600080fd5b6113c384611346565b92506113d160208501611346565b9150604084013590509250925092565b600080604083850312156113f457600080fd5b8235915061140460208401611346565b90509250929050565b60006020828403121561141f57600080fd5b6112f182611346565b6000806040838503121561143b57600080fd5b61144483611346565b915061140460208401611346565b600181811c9082168061146657607f821691505b60208210810361148657634e487b7160e01b600052602260045260246000fd5b50919050565b634e487b7160e01b600052601160045260246000fd5b818103818111156104fa576104fa61148c565b80820281158282048414176104fa576104fa61148c565b6000826114e957634e487b7160e01b600052601260045260246000fd5b500490565b808201808211156104fa576104fa61148c565b6000816115105761151061148c565b506000190190565b60006001820161152a5761152a61148c565b5060010190565b60006020828403121561154357600080fd5b815180151581146112f157600080fdfea26469706673582212208286a07e4648c42e320b3a1a12eeb562c0ea3f043569790c6b5e3a87ebf11e1464736f6c63430008110033a2646970667358221220c186881877445899019901105bd86077f5778a3fe83ec09677ec3a0000bced9b64736f6c63430008110033",
  "immutableReferences": {
    "5534": [
      {
        "length": 32,
        "start": 565
      }
    ],
    "5536": [
      {
        "length": 32,
        "start": 395
      },
      {
        "length": 32,
        "start": 987
      },
      {
        "length": 32,
        "start": 2032
      }
    ]
  },
  "source": "// SPDX-License-Identifier: MIT\npragma solidity ^0.8.17;\n\nimport \"@openzeppelin/contracts/interfaces/IERC165.sol\";\nimport \"@openzeppelin/contracts/token/ERC20/ERC20.sol\";\nimport \"@openzeppelin/contracts/access/Ownable.sol\";\nimport \"@faircrypto/xen-crypto/contracts/XENCrypto.sol\";\nimport \"@faircrypto/xen-crypto/contracts/interfaces/IBurnRedeemable.sol\";\nimport \"@faircrypto/xen-crypto/contracts/interfaces/IBurnableToken.sol\";\nimport \"./AuctionedToken.sol\";\nimport \"./interfaces/XENAware.sol\";\nimport \"./interfaces/Capped.sol\";\nimport \"./XENVarStaker.sol\";\n\ncontract XENTokenizer is IERC165, XENAware, IBurnRedeemable {\n\n    address public immutable xenCrypto;\n    address public immutable xenVarStaker;\n\n    // all tokens\n    string[] public allTokens;\n    // token symbol => token mapping\n    mapping(bytes32 => address) public tokens;\n    // token => deployer mapping\n    mapping(address => address) public deployers;\n    // token => burned XEN mapping\n    mapping(address => uint256) public burnByTokens;\n    // token => user => burned XEN mapping\n    mapping(address => mapping(address => uint256)) public burnByUsers;\n\n    // state management + guard\n    address private _caller;\n\n    constructor(address xenCrypto_, address xenVarStaker_) {\n        require(xenCrypto_ != address(0), 'XF: bad XEN Crypto address');\n        require(xenVarStaker_ != address(0), 'XF: bad XEN VarStaker address');\n        xenCrypto = xenCrypto_;\n        xenVarStaker = xenVarStaker_;\n    }\n\n    function tokenCount() external view returns (uint256 count) {\n        return allTokens.length;\n    }\n\n    function getTokenAddress(string memory symbol_) public view returns (address) {\n        bytes32 key = keccak256(abi.encodePacked(symbol_));\n        return tokens[key];\n    }\n\n    function getTokenInfo(string memory symbol_) external view returns (address token, address deployer, uint256 burns) {\n        token = getTokenAddress(symbol_);\n        deployer = deployers[token];\n        burns = burnByTokens[token];\n    }\n\n    function getUserBurn(string memory symbol_) external view returns (uint256 userBurn) {\n        address token = getTokenAddress(symbol_);\n        userBurn = burnByUsers[token][msg.sender];\n    }\n\n    function isFullyMinted(address token) public view returns (bool) {\n        require(token != address(0));\n        return ERC20(token).totalSupply() == Capped(token).cap();\n    }\n\n    function deployToken(\n        string memory name_,\n        string memory symbol_,\n        uint256 supply_,\n        uint256 batchSize_,\n        uint256 cycleInterval_,\n        uint256 startBlockNumber_\n        // uint256 royaltyPct_\n    ) external {\n        bytes32 key = keccak256(abi.encodePacked(symbol_));\n        require(tokens[key] == address(0), 'XF: symbol already in use');\n        ERC20 newToken = new AuctionedToken(\n            name_,\n            symbol_,\n            supply_,\n            batchSize_,\n            cycleInterval_,\n            startBlockNumber_\n            // royaltyPct_\n        );\n        Ownable(address(newToken)).transferOwnership(msg.sender);\n        tokens[key] = address(newToken);\n        allTokens.push(symbol_);\n        deployers[address(newToken)] = msg.sender;\n    }\n\n    function burn(address user, uint256 amount) external {\n        require(deployers[msg.sender] != address(0), 'XF: bad caller');\n        _caller = msg.sender;\n        IBurnableToken(xenVarStaker).burn(user, amount);\n    }\n\n    /*\n    function collectDeployerReward(address token) external {\n        require(deployers[token] == msg.sender, 'XF: not a deployer');\n        require(isFullyMinted(token), 'XF: token not fully minted');\n        require(burnByTokens[token] > BURN_REWARD_THRESHOLD, 'XF: threshold not attained');\n        require(deployers[token] != DEPLOYER_COLLECTED, 'XF: already collected');\n        // txn.mint(msg.sender, DEPLOYER_TXN_REWARD);\n        deployers[token] = DEPLOYER_COLLECTED;\n    }\n\n    function collectUserReward(address user) external {\n        require(deployers[msg.sender] != address(0), 'XF: bad caller');\n        require(isFullyMinted(msg.sender), 'XF: token not fully minted');\n        require(burnByTokens[msg.sender] > BURN_REWARD_THRESHOLD, 'XF: threshold not attained');\n        require(burnByUsers[msg.sender][user] != USER_COLLECTED, 'XF: already collected');\n        // txn.mint(user, (USERS_TXN_REWARD * burnByUsers[msg.sender][user]) / burnByTokens[msg.sender]);\n        burnByUsers[msg.sender][user] = USER_COLLECTED;\n    }\n    */\n\n    // INTERFACES & STANDARDS\n    // IERC165 IMPLEMENTATION\n\n    /**\n        @dev confirms support for IERC-165 and IBurnRedeemable interfaces\n     */\n    function supportsInterface(bytes4 interfaceId) public view virtual override returns (bool) {\n        return interfaceId == type(IBurnRedeemable).interfaceId ||\n        interfaceId == type(IERC165).interfaceId;\n    }\n\n    function onTokenBurned(address user, uint256 amount) external {\n        require(msg.sender == xenVarStaker, 'XF: illegal caller');\n        require(_caller != address(0), 'XF: illegal state');\n        IBurnRedeemable(_caller).onTokenBurned(user, amount);\n        burnByTokens[_caller] += amount;\n        burnByUsers[_caller][user] += amount;\n        _caller = address(0);\n    }\n\n}\n",
  "sourcePath": "/Users/lbelyaev/dev/XEN-tokenizer/contracts/XENTokenizer.sol",
  "compiler": {
    "name": "solc",
    "version": "0.8.17+commit.8df45f5f.Emscripten.clang"
  },
  "schemaVersion": "3.4.10",
  "updatedAt": "2023-08-12T23:57:02.018Z",
  "devdoc": {
    "kind": "dev",
    "methods": {
      "supportsInterface(bytes4)": {
        "details": "confirms support for IERC-165 and IBurnRedeemable interfaces"
      }
    },
    "version": 1
  },
  "userdoc": {
    "kind": "user",
    "methods": {},
    "version": 1
  }
}