{
  "contractName": "XENVarStaker",
  "abi": [
    {
      "inputs": [
        {
          "internalType": "address",
          "name": "xenCrypto_",
          "type": "address"
        }
      ],
      "stateMutability": "nonpayable",
      "type": "constructor"
    },
    {
      "anonymous": false,
      "inputs": [
        {
          "indexed": true,
          "internalType": "address",
          "name": "user",
          "type": "address"
        },
        {
          "indexed": true,
          "internalType": "address",
          "name": "xenContract",
          "type": "address"
        },
        {
          "indexed": true,
          "internalType": "address",
          "name": "tokenContract",
          "type": "address"
        },
        {
          "indexed": false,
          "internalType": "uint256",
          "name": "xenAmount",
          "type": "uint256"
        },
        {
          "indexed": false,
          "internalType": "uint256",
          "name": "tokenAmount",
          "type": "uint256"
        }
      ],
      "name": "Redeemed",
      "type": "event"
    },
    {
      "anonymous": false,
      "inputs": [
        {
          "indexed": true,
          "internalType": "address",
          "name": "user",
          "type": "address"
        },
        {
          "indexed": true,
          "internalType": "uint256",
          "name": "period",
          "type": "uint256"
        },
        {
          "indexed": false,
          "internalType": "uint256",
          "name": "amount",
          "type": "uint256"
        }
      ],
      "name": "Staked",
      "type": "event"
    },
    {
      "anonymous": false,
      "inputs": [
        {
          "indexed": true,
          "internalType": "address",
          "name": "user",
          "type": "address"
        },
        {
          "indexed": true,
          "internalType": "uint256",
          "name": "period",
          "type": "uint256"
        },
        {
          "indexed": false,
          "internalType": "uint256",
          "name": "amount",
          "type": "uint256"
        },
        {
          "indexed": false,
          "internalType": "uint256",
          "name": "yield",
          "type": "uint256"
        }
      ],
      "name": "Unstaked",
      "type": "event"
    },
    {
      "inputs": [],
      "name": "PERIOD_DURATION_TS",
      "outputs": [
        {
          "internalType": "uint256",
          "name": "",
          "type": "uint256"
        }
      ],
      "stateMutability": "view",
      "type": "function"
    },
    {
      "inputs": [],
      "name": "XEN_YIELD_PCT",
      "outputs": [
        {
          "internalType": "uint256",
          "name": "",
          "type": "uint256"
        }
      ],
      "stateMutability": "view",
      "type": "function"
    },
    {
      "inputs": [
        {
          "internalType": "uint256",
          "name": "",
          "type": "uint256"
        }
      ],
      "name": "accPaidByPeriod",
      "outputs": [
        {
          "internalType": "uint256",
          "name": "",
          "type": "uint256"
        }
      ],
      "stateMutability": "view",
      "type": "function"
    },
    {
      "inputs": [
        {
          "internalType": "uint256",
          "name": "",
          "type": "uint256"
        }
      ],
      "name": "accPowerByPeriod",
      "outputs": [
        {
          "internalType": "uint256",
          "name": "",
          "type": "uint256"
        }
      ],
      "stateMutability": "view",
      "type": "function"
    },
    {
      "inputs": [
        {
          "internalType": "uint256",
          "name": "",
          "type": "uint256"
        }
      ],
      "name": "accStakesByPeriod",
      "outputs": [
        {
          "internalType": "uint256",
          "name": "",
          "type": "uint256"
        }
      ],
      "stateMutability": "view",
      "type": "function"
    },
    {
      "inputs": [
        {
          "internalType": "uint256",
          "name": "",
          "type": "uint256"
        }
      ],
      "name": "balances",
      "outputs": [
        {
          "internalType": "uint256",
          "name": "",
          "type": "uint256"
        }
      ],
      "stateMutability": "view",
      "type": "function"
    },
    {
      "inputs": [],
      "name": "burnerCount",
      "outputs": [
        {
          "internalType": "uint256",
          "name": "",
          "type": "uint256"
        }
      ],
      "stateMutability": "view",
      "type": "function"
    },
    {
      "inputs": [
        {
          "internalType": "uint256",
          "name": "",
          "type": "uint256"
        }
      ],
      "name": "burners",
      "outputs": [
        {
          "internalType": "address",
          "name": "",
          "type": "address"
        }
      ],
      "stateMutability": "view",
      "type": "function"
    },
    {
      "inputs": [
        {
          "internalType": "uint256",
          "name": "",
          "type": "uint256"
        }
      ],
      "name": "burns",
      "outputs": [
        {
          "internalType": "uint256",
          "name": "",
          "type": "uint256"
        }
      ],
      "stateMutability": "view",
      "type": "function"
    },
    {
      "inputs": [],
      "name": "currentPeriod",
      "outputs": [
        {
          "internalType": "uint256",
          "name": "",
          "type": "uint256"
        }
      ],
      "stateMutability": "view",
      "type": "function"
    },
    {
      "inputs": [],
      "name": "genesisTs",
      "outputs": [
        {
          "internalType": "uint256",
          "name": "",
          "type": "uint256"
        }
      ],
      "stateMutability": "view",
      "type": "function"
    },
    {
      "inputs": [],
      "name": "lastBurnPeriod",
      "outputs": [
        {
          "internalType": "uint256",
          "name": "",
          "type": "uint256"
        }
      ],
      "stateMutability": "view",
      "type": "function"
    },
    {
      "inputs": [],
      "name": "lastPeriodTs",
      "outputs": [
        {
          "internalType": "uint256",
          "name": "",
          "type": "uint256"
        }
      ],
      "stateMutability": "view",
      "type": "function"
    },
    {
      "inputs": [
        {
          "internalType": "uint256",
          "name": "",
          "type": "uint256"
        }
      ],
      "name": "pendingWithdrawalsByPeriod",
      "outputs": [
        {
          "internalType": "uint256",
          "name": "",
          "type": "uint256"
        }
      ],
      "stateMutability": "view",
      "type": "function"
    },
    {
      "inputs": [
        {
          "internalType": "address",
          "name": "",
          "type": "address"
        }
      ],
      "name": "stakeCounter",
      "outputs": [
        {
          "internalType": "uint256",
          "name": "",
          "type": "uint256"
        }
      ],
      "stateMutability": "view",
      "type": "function"
    },
    {
      "inputs": [
        {
          "internalType": "address",
          "name": "",
          "type": "address"
        },
        {
          "internalType": "uint256",
          "name": "",
          "type": "uint256"
        }
      ],
      "name": "stakes",
      "outputs": [
        {
          "internalType": "uint256",
          "name": "amount",
          "type": "uint256"
        },
        {
          "internalType": "uint256",
          "name": "term",
          "type": "uint256"
        },
        {
          "internalType": "uint256",
          "name": "startPeriod",
          "type": "uint256"
        }
      ],
      "stateMutability": "view",
      "type": "function"
    },
    {
      "inputs": [
        {
          "internalType": "uint256",
          "name": "",
          "type": "uint256"
        }
      ],
      "name": "stakesByPeriod",
      "outputs": [
        {
          "internalType": "uint256",
          "name": "",
          "type": "uint256"
        }
      ],
      "stateMutability": "view",
      "type": "function"
    },
    {
      "inputs": [
        {
          "internalType": "bytes4",
          "name": "interfaceId",
          "type": "bytes4"
        }
      ],
      "name": "supportsInterface",
      "outputs": [
        {
          "internalType": "bool",
          "name": "",
          "type": "bool"
        }
      ],
      "stateMutability": "view",
      "type": "function"
    },
    {
      "inputs": [],
      "name": "xenCrypto",
      "outputs": [
        {
          "internalType": "address",
          "name": "",
          "type": "address"
        }
      ],
      "stateMutability": "view",
      "type": "function"
    },
    {
      "inputs": [
        {
          "internalType": "uint256",
          "name": "",
          "type": "uint256"
        }
      ],
      "name": "yields",
      "outputs": [
        {
          "internalType": "uint256",
          "name": "",
          "type": "uint256"
        }
      ],
      "stateMutability": "view",
      "type": "function"
    },
    {
      "inputs": [
        {
          "internalType": "address",
          "name": "burner_",
          "type": "address"
        }
      ],
      "name": "registerBurner",
      "outputs": [],
      "stateMutability": "nonpayable",
      "type": "function"
    },
    {
      "inputs": [
        {
          "internalType": "address",
          "name": "user",
          "type": "address"
        },
        {
          "internalType": "uint256",
          "name": "amount",
          "type": "uint256"
        }
      ],
      "name": "burn",
      "outputs": [],
      "stateMutability": "nonpayable",
      "type": "function"
    },
    {
      "inputs": [
        {
          "internalType": "address",
          "name": "user",
          "type": "address"
        },
        {
          "internalType": "uint256",
          "name": "amount",
          "type": "uint256"
        }
      ],
      "name": "onTokenBurned",
      "outputs": [],
      "stateMutability": "nonpayable",
      "type": "function"
    },
    {
      "inputs": [
        {
          "internalType": "uint256",
          "name": "amount",
          "type": "uint256"
        },
        {
          "internalType": "uint256",
          "name": "term",
          "type": "uint256"
        }
      ],
      "name": "stake",
      "outputs": [],
      "stateMutability": "nonpayable",
      "type": "function"
    },
    {
      "inputs": [
        {
          "internalType": "uint256",
          "name": "startPeriod",
          "type": "uint256"
        },
        {
          "internalType": "uint256",
          "name": "endPeriod",
          "type": "uint256"
        }
      ],
      "name": "getAccStakesDelta",
      "outputs": [
        {
          "internalType": "uint256",
          "name": "",
          "type": "uint256"
        }
      ],
      "stateMutability": "view",
      "type": "function"
    },
    {
      "inputs": [
        {
          "internalType": "uint256",
          "name": "startPeriod",
          "type": "uint256"
        },
        {
          "internalType": "uint256",
          "name": "endPeriod",
          "type": "uint256"
        }
      ],
      "name": "getPaidForThePeriod",
      "outputs": [
        {
          "internalType": "uint256",
          "name": "",
          "type": "uint256"
        }
      ],
      "stateMutability": "view",
      "type": "function"
    },
    {
      "inputs": [],
      "name": "withdrawYield",
      "outputs": [],
      "stateMutability": "nonpayable",
      "type": "function"
    },
    {
      "inputs": [
        {
          "internalType": "uint256",
          "name": "index",
          "type": "uint256"
        }
      ],
      "name": "withdraw",
      "outputs": [],
      "stateMutability": "nonpayable",
      "type": "function"
    },
    {
      "inputs": [],
      "name": "housekeeping",
      "outputs": [],
      "stateMutability": "nonpayable",
      "type": "function"
    },
    {
      "inputs": [
        {
          "internalType": "uint256",
          "name": "index",
          "type": "uint256"
        }
      ],
      "name": "getYieldEstimate",
      "outputs": [
        {
          "internalType": "uint256",
          "name": "",
          "type": "uint256"
        }
      ],
      "stateMutability": "view",
      "type": "function"
    }
  ],
  "bytecode": "0x60c060405234801561001057600080fd5b5060405161170938038061170983398101604081905261002f916100a5565b806001600160a01b03811661008a5760405162461bcd60e51b815260206004820152601760248201527f58454e204275726e65723a206261642061646472657373000000000000000000604482015260640160405180910390fd5b6001600160a01b0316608052504260a08190526006556100d5565b6000602082840312156100b757600080fd5b81516001600160a01b03811681146100ce57600080fd5b9392505050565b60805160a0516115e561012460003960006104af0152600081816102dd015281816107150152818161078c0152818161096401528181610b9b01528181610dde0152610ebb01526115e56000f3fe608060405234801561001057600080fd5b50600436106101da5760003560e01c8063a86eb29211610104578063c0123360116100a2578063e31408d311610071578063e31408d31461048a578063e3af6d0a146104aa578063e507a8a414610231578063f170767b146104d157600080fd5b8063c012336014610446578063c0f1e53a1461044f578063cd29025814610457578063d964147c1461046a57600080fd5b8063ae15150b116100de578063ae15150b14610402578063b490ff691461040b578063bc6890f41461041e578063bd2431f11461043e57600080fd5b8063a86eb292146103a2578063abd451dd146103c2578063ac5a73cf146103e257600080fd5b80636d4f4ba01161017c57806395bf13051161014b57806395bf13051461034a57806399ca1cbd146103735780639dc29fac1461037c578063a81a73ba1461038f57600080fd5b80636d4f4ba0146102c557806371141a58146102d8578063759b5da9146103175780637b0472f01461033757600080fd5b80634903b0d1116101b85780634903b0d114610233578063543746b114610253578063584b62a1146102665780635e7ccccb146102bb57600080fd5b806301ffc9a7146101df57806306040618146102075780632e1a7d4d1461021e575b600080fd5b6101f26101ed366004611409565b6104f1565b60405190151581526020015b60405180910390f35b61021060075481565b6040519081526020016101fe565b61023161022c366004611433565b610528565b005b610210610241366004611433565b60046020526000908152604090205481565b610231610261366004611468565b610959565b6102a0610274366004611468565b600860209081526000928352604080842090915290825290208054600182015460029092015490919083565b604080519384526020840192909252908201526060016101fe565b6102106201518081565b6102106102d3366004611492565b610aa9565b6102ff7f000000000000000000000000000000000000000000000000000000000000000081565b6040516001600160a01b0390911681526020016101fe565b610210610325366004611433565b600b6020526000908152604090205481565b610231610345366004611492565b610ad1565b6102ff610358366004611433565b6000602081905290815260409020546001600160a01b031681565b61021060055481565b61023161038a366004611468565b610d1c565b61021061039d366004611492565b610f1d565b6102106103b0366004611433565b60026020526000908152604090205481565b6102106103d0366004611433565b600a6020526000908152604090205481565b6102106103f0366004611433565b600c6020526000908152604090205481565b61021060015481565b610210610419366004611433565b610f60565b61021061042c366004611433565b600e6020526000908152604090205481565b610210600581565b61021060065481565b610231610ff6565b6102316104653660046114b4565b611000565b610210610478366004611433565b60036020526000908152604090205481565b610210610498366004611433565b600d6020526000908152604090205481565b6102107f000000000000000000000000000000000000000000000000000000000000000081565b6102106104df3660046114b4565b60096020526000908152604090205481565b60006001600160e01b0319821663543746b160e01b148061052257506001600160e01b031982166301ffc9a760e01b145b92915050565b61053061109f565b6000811161057c5760405162461bcd60e51b81526020600482015260146024820152730acc2e4a6e8c2d6cae47440c4c2c840d2dcc8caf60631b60448201526064015b60405180910390fd5b33600090815260096020526040902054806105d95760405162461bcd60e51b815260206004820152601d60248201527f5661725374616b65723a207573657220686173206e6f207374616b65730000006044820152606401610573565b808211156106215760405162461bcd60e51b81526020600482015260156024820152745661725374616b65723a2062616420696e6465782160581b6044820152606401610573565b3360009081526008602090815260408083208584528252918290208251606081018452815480825260018301549382019390935260029091015492810192909252806106af5760405162461bcd60e51b815260206004820152601960248201527f5661725374616b65723a206e6f207374616b6520666f756e64000000000000006044820152606401610573565b60008260400151600754116106c55760006106d7565b82604001516007546106d791906114e5565b905060008082116106e95760006106f2565b6106f2846112c7565b6040516370a0823160e01b81523060048201529091506000906001600160a01b037f000000000000000000000000000000000000000000000000000000000000000016906370a0823190602401602060405180830381865afa15801561075c573d6000803e3d6000fd5b505050506040513d601f19601f8201168201806040525081019061078091906114f8565b90506001600160a01b037f00000000000000000000000000000000000000000000000000000000000000001663a9059cbb336107bc8588611511565b8410156107c957836107d3565b6107d38588611511565b6040516001600160e01b031960e085901b1681526001600160a01b03909216600483015260248201526044016020604051808303816000875af115801561081e573d6000803e3d6000fd5b505050506040513d601f19601f820116820180604052508101906108429190611524565b506007546000908152600b6020526040812080548692906108649084906114e5565b9091555061087490508385611546565b6007546000908152600d602052604081208054909190610895908490611511565b9091555050600754600090815260036020526040812080548492906108bb908490611511565b90915550503360008181526008602090815260408083208a845282528083208b845281842081548155600180830154908201556002918201549101559282526009905290812080549161090d8361155d565b9091555050600754604080518681526020810185905233917f204fccf0d92ed8d48f204adb39b2e81e92bad0dedb93f5716ca9478cfb57de00910160405180910390a350505050505050565b336001600160a01b037f000000000000000000000000000000000000000000000000000000000000000016146109d15760405162461bcd60e51b815260206004820152601960248201527f5661725374616b65723a20696c6c6567616c2063616c6c6572000000000000006044820152606401610573565b600f546001600160a01b0316610a295760405162461bcd60e51b815260206004820152601860248201527f5661725374616b65723a20696c6c6567616c20737461746500000000000000006044820152606401610573565b600f5460405163543746b160e01b81526001600160a01b038481166004830152602482018490529091169063543746b190604401600060405180830381600087803b158015610a7757600080fd5b505af1158015610a8b573d6000803e3d6000fd5b50506007546005555050600f80546001600160a01b03191690555050565b6000828152600e60205260408082205483835290822054610aca91906114e5565b9392505050565b60008211610b215760405162461bcd60e51b815260206004820152601960248201527f5661725374616b65723a20616d6f756e7420746f6f206c6f77000000000000006044820152606401610573565b60008111610b715760405162461bcd60e51b815260206004820152601760248201527f5661725374616b65723a207465726d20746f6f206c6f770000000000000000006044820152606401610573565b610b7961109f565b6040516323b872dd60e01b8152336004820152306024820152604481018390527f00000000000000000000000000000000000000000000000000000000000000006001600160a01b0316906323b872dd906064016020604051808303816000875af1158015610bec573d6000803e3d6000fd5b505050506040513d601f19601f82011682018060405250810190610c109190611524565b5060006007546001610c229190611511565b905082600a60008381526020019081526020016000206000828254610c479190611511565b90915550506000818152600b602052604081208054859290610c6a908490611511565b9091555050604080516060810182528481526020808201859052818301849052336000908152600990915291822080549192610ca583611574565b909155505033600081815260086020908152604080832060098352818420548452825291829020845181558482015160018201558483015160029091015590518681528492917f1449c6dd7851abc30abf37f57715f492010519147cc2652fbc38202c18a6ee90910160405180910390a350505050565b6040516301ffc9a760e01b815263543746b160e01b600482018190529033906301ffc9a790602401602060405180830381865afa158015610d61573d6000803e3d6000fd5b505050506040513d601f19601f82011682018060405250810190610d859190611524565b610d8e57600080fd5b610d9661109f565b60006064610da5600585611546565b610daf919061158d565b6040516323b872dd60e01b81526001600160a01b038681166004830152306024830152604482018390529192507f0000000000000000000000000000000000000000000000000000000000000000909116906323b872dd906064016020604051808303816000875af1158015610e29573d6000803e3d6000fd5b505050506040513d601f19601f82011682018060405250810190610e4d9190611524565b50610e5881846114e5565b600f80546001600160a01b03191633179055600754600090815260026020526040812080549295508392909190610e90908490611511565b9091555050604051632770a7eb60e21b81526001600160a01b038581166004830152602482018590527f00000000000000000000000000000000000000000000000000000000000000001690639dc29fac90604401600060405180830381600087803b158015610eff57600080fd5b505af1158015610f13573d6000803e3d6000fd5b5050505050505050565b6000828152600c6020526040808220548383529082205411610f40576000610aca565b6000838152600c602052604080822054848352912054610aca91906114e5565b3360009081526008602090815260408083208484528252808320815160608101835281548082526001830154948201949094526002909101549181019190915290610fed5760405162461bcd60e51b815260206004820152601760248201527f5661725374616b65723a206e6f207374616b65203f3f3f0000000000000000006044820152606401610573565b610aca816112c7565b610ffe61109f565b565b6001600160a01b0381166110565760405162461bcd60e51b815260206004820152601d60248201527f5661725374616b65723a20626164206275726e657220616464726573730000006044820152606401610573565b8060008060016000815461106990611574565b91829055508152602081019190915260400160002080546001600160a01b0319166001600160a01b039290921691909117905550565b600062015180600654426110b391906114e5565b6110bd919061158d565b905080156112c4576007546000908152600d6020908152604080832054600b835281842054600c9093529220546110f49190611511565b10156111425760405162461bcd60e51b815260206004820152601e60248201527f5661725374616b65723a20706f74656e7469616c206f766572666c6f773f00006044820152606401610573565b6007546000818152600b6020819052604082205492909190611165908590611511565b815260200190815260200160002060008282546111829190611511565b90915550506007546000908152600d6020908152604080832054600b835281842054600c9093529220546111b69190611511565b6111c091906114e5565b600c6000836007546111d29190611511565b815260200190815260200160002060008282546111ef9190611511565b9091555050600754600090815260036020908152604080832054600283528184205460049093529220546112239190611511565b1161122f576000611268565b6007546000908152600360209081526040808320546002835281842054600490935292205461125e9190611511565b61126891906114e5565b6007805460009081526004602081905260408083209490945591548082529281205492611296908590611511565b81526020019081526020016000208190555080600760008282546112ba9190611511565b9091555050426006555b50565b60006007548260400151106112de57506000919050565b6000600183604001516112f191906114e5565b6005541061130f576001836040015161130a91906114e5565b611313565b6005545b60075490915060006113258383610f1d565b90508060000361133a57506000949350505050565b600080866040015160075461134f91906114e5565b1161135b57600061136d565b856040015160075461136d91906114e5565b9050806000036113835750600095945050505050565b81156113fd5760008282886000015161139c9190611546565b6004600060016007546113af91906114e5565b8152602001908152602001600020546113c89190611546565b6113d2919061158d565b905060018111156113f3576113e86002826114e5565b979650505050505050565b9695505050505050565b50600095945050505050565b60006020828403121561141b57600080fd5b81356001600160e01b031981168114610aca57600080fd5b60006020828403121561144557600080fd5b5035919050565b80356001600160a01b038116811461146357600080fd5b919050565b6000806040838503121561147b57600080fd5b6114848361144c565b946020939093013593505050565b600080604083850312156114a557600080fd5b50508035926020909101359150565b6000602082840312156114c657600080fd5b610aca8261144c565b634e487b7160e01b600052601160045260246000fd5b81810381811115610522576105226114cf565b60006020828403121561150a57600080fd5b5051919050565b80820180821115610522576105226114cf565b60006020828403121561153657600080fd5b81518015158114610aca57600080fd5b8082028115828204841417610522576105226114cf565b60008161156c5761156c6114cf565b506000190190565b600060018201611586576115866114cf565b5060010190565b6000826115aa57634e487b7160e01b600052601260045260246000fd5b50049056fea2646970667358221220459ee8e2534d4ce02f26d896c6d03e163168d00e68cab919325536a89e13fb6864736f6c63430008110033",
  "immutableReferences": {
    "5584": [
      {
        "length": 32,
        "start": 733
      },
      {
        "length": 32,
        "start": 1813
      },
      {
        "length": 32,
        "start": 1932
      },
      {
        "length": 32,
        "start": 2404
      },
      {
        "length": 32,
        "start": 2971
      },
      {
        "length": 32,
        "start": 3550
      },
      {
        "length": 32,
        "start": 3771
      }
    ],
    "6178": [
      {
        "length": 32,
        "start": 1199
      }
    ]
  },
  "source": "// SPDX-License-Identifier: MIT\npragma solidity ^0.8.17;\n\nimport \"@faircrypto/xen-crypto/contracts/interfaces/IBurnRedeemable.sol\";\nimport \"@faircrypto/xen-crypto/contracts/interfaces/IBurnableToken.sol\";\nimport \"@openzeppelin/contracts/token/ERC20/ERC20.sol\";\nimport \"./interfaces/XENAware.sol\";\nimport \"./XENBurner.sol\";\nimport \"./interfaces/IVarStakingToken.sol\";\n\ncontract XENVarStaker is XENBurner, IVarStakingToken {\n\n    struct VarStake {\n        uint256 amount;\n        uint256 term;\n        uint256 startPeriod;\n    }\n\n    uint256 public constant XEN_YIELD_PCT = 5;\n    uint256 public constant PERIOD_DURATION_TS = 24 * 3_600; /* 1 day(s) */\n\n    mapping(uint256 => address) public burners;\n    uint256 public burnerCount;\n\n    mapping(uint256 => uint256) public burns;\n    mapping(uint256 => uint256) public yields;\n    mapping(uint256 => uint256) public balances;\n\n    uint256 public lastBurnPeriod;\n    uint256 public lastPeriodTs;\n    uint256 public currentPeriod;\n\n    mapping(address => mapping(uint256 => VarStake)) public stakes;\n    mapping(address => uint256) public stakeCounter;\n\n    mapping(uint256 => uint256) public stakesByPeriod;\n    mapping(uint256 => uint256) public accStakesByPeriod;\n    mapping(uint256 => uint256) public accPowerByPeriod;\n    mapping(uint256 => uint256) public pendingWithdrawalsByPeriod;\n    mapping(uint256 => uint256) public accPaidByPeriod;\n\n    uint256 public immutable genesisTs;\n\n    // state management + guard\n    address private _caller;\n\n    event Staked(address indexed user, uint256 indexed period, uint256 amount);\n    event Unstaked(address indexed user, uint256 indexed period, uint256 amount, uint256 yield);\n\n    constructor(address xenCrypto_) XENBurner(xenCrypto_) {\n        genesisTs = block.timestamp;\n        lastPeriodTs = genesisTs;\n    }\n\n    function registerBurner(address burner_) external {\n        require(burner_ != address(0), 'VarStaker: bad burner address');\n        // TODO: verify that Burner supports min interface\n\n        burners[++burnerCount] = burner_;\n    }\n\n    function _checkAndAdjustPeriod() private {\n        uint256 adj = (block.timestamp - lastPeriodTs) / PERIOD_DURATION_TS;\n        if (adj > 0) {\n            require(accPowerByPeriod[currentPeriod]\n            + accStakesByPeriod[currentPeriod]\n                >= pendingWithdrawalsByPeriod[currentPeriod], 'VarStaker: potential overflow?');\n            accStakesByPeriod[currentPeriod + adj] += accStakesByPeriod[currentPeriod];\n            accPowerByPeriod[currentPeriod + adj] += (\n                accPowerByPeriod[currentPeriod]\n                + accStakesByPeriod[currentPeriod]\n                - pendingWithdrawalsByPeriod[currentPeriod]\n            );\n            balances[currentPeriod] = (balances[currentPeriod] + burns[currentPeriod] > yields[currentPeriod])\n                ? balances[currentPeriod] + burns[currentPeriod] - yields[currentPeriod]\n                : 0;\n            balances[currentPeriod + adj] = balances[currentPeriod];\n            currentPeriod += adj;\n            lastPeriodTs = block.timestamp;\n        }\n    }\n\n    function burn(address user, uint256 amount) external virtual override {\n        // TODO: check if the caller is authorized\n\n        // check if the caller is IBurnRedeemable\n        bytes4 interfaceId = type(IBurnRedeemable).interfaceId;\n        require(IERC165(msg.sender).supportsInterface(interfaceId));\n\n        // check if we need to start new period\n        _checkAndAdjustPeriod();\n        uint256 yieldAmount = amount * XEN_YIELD_PCT / 100;\n        ERC20(xenCrypto).transferFrom(user, address(this), yieldAmount);\n        amount -= yieldAmount;\n        _caller = msg.sender;\n        burns[currentPeriod] += yieldAmount;\n        IBurnableToken(xenCrypto).burn(user, amount);\n    }\n\n    function onTokenBurned(address user, uint256 amount) external virtual override {\n        require(msg.sender == xenCrypto, 'VarStaker: illegal caller');\n        require(_caller != address(0), 'VarStaker: illegal state');\n\n        IBurnRedeemable(_caller).onTokenBurned(user, amount);\n        lastBurnPeriod = currentPeriod;\n        _caller = address(0);\n    }\n\n    // @dev initiates new stake or tops up existing one\n    function stake(uint256 amount, uint256 term) external {\n        require(amount > 0, 'VarStaker: amount too low');\n        require(term > 0, 'VarStaker: term too low');\n\n        // check if we need to start new period\n        _checkAndAdjustPeriod();\n\n        ERC20(xenCrypto).transferFrom(msg.sender, address(this), amount);\n        uint256 startPeriod = currentPeriod + 1;\n        stakesByPeriod[startPeriod] += amount;\n        accStakesByPeriod[startPeriod] += amount;\n        VarStake memory userStake = VarStake({\n            amount: amount,\n            term: term,\n            startPeriod: startPeriod\n        });\n        stakeCounter[msg.sender]++;\n        stakes[msg.sender][stakeCounter[msg.sender]] = userStake;\n        emit Staked(msg.sender, startPeriod, amount);\n    }\n\n    // TODO: remove after testing\n    function getAccStakesDelta(uint256 startPeriod, uint256 endPeriod) public view returns (uint256) {\n        return (accPowerByPeriod[endPeriod] > accPowerByPeriod[startPeriod])\n            ? accPowerByPeriod[endPeriod] - accPowerByPeriod[startPeriod]\n            : 0;\n    }\n\n    function getPaidForThePeriod(uint256 startPeriod, uint256 endPeriod) public view returns (uint256) {\n        return accPaidByPeriod[endPeriod] - accPaidByPeriod[startPeriod];\n    }\n\n    function _calcYield(VarStake memory stake_) private view returns (uint256) {\n        if (stake_.startPeriod >= currentPeriod) {\n            return 0;\n        }\n        uint256 startPeriod = (lastBurnPeriod < (stake_.startPeriod - 1)) ? lastBurnPeriod : stake_.startPeriod - 1;\n        uint256 endPeriod = currentPeriod;\n        uint256 accPowerDelta = getAccStakesDelta(startPeriod, endPeriod);\n        if (accPowerDelta == 0) {\n            return 0;\n        }\n        uint256 term = ((currentPeriod - stake_.startPeriod) > 0) ? currentPeriod - stake_.startPeriod : 0;\n        if (term == 0) {\n            return 0;\n        }\n        if (accPowerDelta > 0) {\n            uint256 yield = (balances[currentPeriod - 1] * (stake_.amount * term)) / accPowerDelta;\n            if (yield > 1) {\n                return(yield - 2);\n            } else {\n                return yield;\n            }\n        } else {\n            return 0;\n        }\n    }\n\n    // TODO: add implementation ??? or remove ???\n    function withdrawYield() external {\n        // TODO calculate reward\n    }\n\n    // TODO: add implementation\n    function withdraw(uint256 index) external {\n        // check if we need to start new period\n        _checkAndAdjustPeriod();\n\n        require(index > 0, 'VarStaker: bad index');\n        uint256 counter = stakeCounter[msg.sender];\n        require(counter > 0, 'VarStaker: user has no stakes');\n        require(index <= counter, 'VarStaker: bad index!');\n        VarStake memory userStake = stakes[msg.sender][index];\n        uint256 amount = userStake.amount;\n        require(amount > 0, 'VarStaker: no stake found');\n\n        uint256 term = (currentPeriod > userStake.startPeriod) ? currentPeriod - userStake.startPeriod : 0;\n        uint256 yield = (term > 0) ? _calcYield(userStake) : 0;\n        // TODO: combine amount + yield transfer\n        uint256 balance = ERC20(xenCrypto).balanceOf(address(this));\n        ERC20(xenCrypto).transfer(msg.sender, balance >= amount + yield ? amount + yield : balance);\n\n        accStakesByPeriod[currentPeriod] -= amount;\n        pendingWithdrawalsByPeriod[currentPeriod] += (amount * term);\n        yields[currentPeriod] += yield;\n\n        // cleanup stake\n        stakes[msg.sender][index] = stakes[msg.sender][counter];\n        // TODO: check if it has any effect ???\n        // delete stakes[msg.sender][counter];\n        stakeCounter[msg.sender]--;\n        emit Unstaked(msg.sender, currentPeriod, amount, yield);\n    }\n\n    // TODO: keep or remove ???\n    function housekeeping() external {\n        _checkAndAdjustPeriod();\n    }\n\n    function getYieldEstimate(uint256 index) external view returns (uint256) {\n        VarStake memory userStake = stakes[msg.sender][index];\n        require(userStake.amount > 0, 'VarStaker: no stake ???');\n        return _calcYield(userStake);\n    }\n}\n",
  "sourcePath": "/Users/lbelyaev/dev/XEN-tokenizer/contracts/XENVarStaker.sol",
  "compiler": {
    "name": "solc",
    "version": "0.8.17+commit.8df45f5f.Emscripten.clang"
  },
  "schemaVersion": "3.4.10",
  "updatedAt": "2023-08-10T05:14:45.360Z",
  "devdoc": {
    "kind": "dev",
    "methods": {
      "supportsInterface(bytes4)": {
        "details": "Returns true if this contract implements the interface defined by `interfaceId`. See the corresponding https://eips.ethereum.org/EIPS/eip-165#how-interfaces-are-identified[EIP section] to learn more about how these ids are created. This function call must use less than 30 000 gas."
      }
    },
    "version": 1
  },
  "userdoc": {
    "kind": "user",
    "methods": {},
    "version": 1
  }
}