{
  "_format": "hh-sol-artifact-1",
  "contractName": "XHeX",
  "sourceName": "contracts/XHeX.sol",
  "abi": [
    {
      "inputs": [],
      "stateMutability": "nonpayable",
      "type": "constructor"
    },
    {
      "inputs": [
        {
          "internalType": "address",
          "name": "spender",
          "type": "address"
        },
        {
          "internalType": "uint256",
          "name": "allowance",
          "type": "uint256"
        },
        {
          "internalType": "uint256",
          "name": "needed",
          "type": "uint256"
        }
      ],
      "name": "ERC20InsufficientAllowance",
      "type": "error"
    },
    {
      "inputs": [
        {
          "internalType": "address",
          "name": "sender",
          "type": "address"
        },
        {
          "internalType": "uint256",
          "name": "balance",
          "type": "uint256"
        },
        {
          "internalType": "uint256",
          "name": "needed",
          "type": "uint256"
        }
      ],
      "name": "ERC20InsufficientBalance",
      "type": "error"
    },
    {
      "inputs": [
        {
          "internalType": "address",
          "name": "approver",
          "type": "address"
        }
      ],
      "name": "ERC20InvalidApprover",
      "type": "error"
    },
    {
      "inputs": [
        {
          "internalType": "address",
          "name": "receiver",
          "type": "address"
        }
      ],
      "name": "ERC20InvalidReceiver",
      "type": "error"
    },
    {
      "inputs": [
        {
          "internalType": "address",
          "name": "sender",
          "type": "address"
        }
      ],
      "name": "ERC20InvalidSender",
      "type": "error"
    },
    {
      "inputs": [
        {
          "internalType": "address",
          "name": "spender",
          "type": "address"
        }
      ],
      "name": "ERC20InvalidSpender",
      "type": "error"
    },
    {
      "anonymous": false,
      "inputs": [
        {
          "indexed": true,
          "internalType": "address",
          "name": "owner",
          "type": "address"
        },
        {
          "indexed": true,
          "internalType": "address",
          "name": "spender",
          "type": "address"
        },
        {
          "indexed": false,
          "internalType": "uint256",
          "name": "value",
          "type": "uint256"
        }
      ],
      "name": "Approval",
      "type": "event"
    },
    {
      "anonymous": false,
      "inputs": [
        {
          "indexed": true,
          "internalType": "address",
          "name": "from",
          "type": "address"
        },
        {
          "indexed": true,
          "internalType": "address",
          "name": "to",
          "type": "address"
        },
        {
          "indexed": false,
          "internalType": "uint256",
          "name": "value",
          "type": "uint256"
        }
      ],
      "name": "Transfer",
      "type": "event"
    },
    {
      "inputs": [],
      "name": "AUTHORS",
      "outputs": [
        {
          "internalType": "string",
          "name": "",
          "type": "string"
        }
      ],
      "stateMutability": "view",
      "type": "function"
    },
    {
      "inputs": [],
      "name": "MINTING_PERIOD",
      "outputs": [
        {
          "internalType": "uint256",
          "name": "",
          "type": "uint256"
        }
      ],
      "stateMutability": "view",
      "type": "function"
    },
    {
      "inputs": [],
      "name": "SIGNER_ADDRESS",
      "outputs": [
        {
          "internalType": "address",
          "name": "",
          "type": "address"
        }
      ],
      "stateMutability": "view",
      "type": "function"
    },
    {
      "inputs": [
        {
          "internalType": "address",
          "name": "owner",
          "type": "address"
        },
        {
          "internalType": "address",
          "name": "spender",
          "type": "address"
        }
      ],
      "name": "allowance",
      "outputs": [
        {
          "internalType": "uint256",
          "name": "",
          "type": "uint256"
        }
      ],
      "stateMutability": "view",
      "type": "function"
    },
    {
      "inputs": [
        {
          "internalType": "address",
          "name": "spender",
          "type": "address"
        },
        {
          "internalType": "uint256",
          "name": "value",
          "type": "uint256"
        }
      ],
      "name": "approve",
      "outputs": [
        {
          "internalType": "bool",
          "name": "",
          "type": "bool"
        }
      ],
      "stateMutability": "nonpayable",
      "type": "function"
    },
    {
      "inputs": [
        {
          "internalType": "address",
          "name": "account",
          "type": "address"
        }
      ],
      "name": "balanceOf",
      "outputs": [
        {
          "internalType": "uint256",
          "name": "",
          "type": "uint256"
        }
      ],
      "stateMutability": "view",
      "type": "function"
    },
    {
      "inputs": [],
      "name": "decimals",
      "outputs": [
        {
          "internalType": "uint8",
          "name": "",
          "type": "uint8"
        }
      ],
      "stateMutability": "view",
      "type": "function"
    },
    {
      "inputs": [
        {
          "internalType": "uint256",
          "name": "balanceEth",
          "type": "uint256"
        },
        {
          "internalType": "uint256",
          "name": "stakedBalanceEth",
          "type": "uint256"
        },
        {
          "internalType": "uint256",
          "name": "balancePls",
          "type": "uint256"
        },
        {
          "internalType": "uint256",
          "name": "stakedBalancePls",
          "type": "uint256"
        },
        {
          "internalType": "bytes",
          "name": "signature",
          "type": "bytes"
        }
      ],
      "name": "mint",
      "outputs": [],
      "stateMutability": "nonpayable",
      "type": "function"
    },
    {
      "inputs": [],
      "name": "name",
      "outputs": [
        {
          "internalType": "string",
          "name": "",
          "type": "string"
        }
      ],
      "stateMutability": "view",
      "type": "function"
    },
    {
      "inputs": [],
      "name": "startTs",
      "outputs": [
        {
          "internalType": "uint256",
          "name": "",
          "type": "uint256"
        }
      ],
      "stateMutability": "view",
      "type": "function"
    },
    {
      "inputs": [],
      "name": "symbol",
      "outputs": [
        {
          "internalType": "string",
          "name": "",
          "type": "string"
        }
      ],
      "stateMutability": "view",
      "type": "function"
    },
    {
      "inputs": [],
      "name": "totalSupply",
      "outputs": [
        {
          "internalType": "uint256",
          "name": "",
          "type": "uint256"
        }
      ],
      "stateMutability": "view",
      "type": "function"
    },
    {
      "inputs": [
        {
          "internalType": "address",
          "name": "to",
          "type": "address"
        },
        {
          "internalType": "uint256",
          "name": "value",
          "type": "uint256"
        }
      ],
      "name": "transfer",
      "outputs": [
        {
          "internalType": "bool",
          "name": "",
          "type": "bool"
        }
      ],
      "stateMutability": "nonpayable",
      "type": "function"
    },
    {
      "inputs": [
        {
          "internalType": "address",
          "name": "from",
          "type": "address"
        },
        {
          "internalType": "address",
          "name": "to",
          "type": "address"
        },
        {
          "internalType": "uint256",
          "name": "value",
          "type": "uint256"
        }
      ],
      "name": "transferFrom",
      "outputs": [
        {
          "internalType": "bool",
          "name": "",
          "type": "bool"
        }
      ],
      "stateMutability": "nonpayable",
      "type": "function"
    }
  ],
  "bytecode": "0x60a06040523480156200001157600080fd5b506040518060400160405280600481526020017f58484558000000000000000000000000000000000000000000000000000000008152506040518060400160405280600481526020017f584845580000000000000000000000000000000000000000000000000000000081525081600390816200008f91906200032c565b508060049081620000a191906200032c565b505050426080818152505062000413565b600081519050919050565b7f4e487b7100000000000000000000000000000000000000000000000000000000600052604160045260246000fd5b7f4e487b7100000000000000000000000000000000000000000000000000000000600052602260045260246000fd5b600060028204905060018216806200013457607f821691505b6020821081036200014a5762000149620000ec565b5b50919050565b60008190508160005260206000209050919050565b60006020601f8301049050919050565b600082821b905092915050565b600060088302620001b47fffffffffffffffffffffffffffffffffffffffffffffffffffffffffffffffff8262000175565b620001c0868362000175565b95508019841693508086168417925050509392505050565b6000819050919050565b6000819050919050565b60006200020d620002076200020184620001d8565b620001e2565b620001d8565b9050919050565b6000819050919050565b6200022983620001ec565b62000241620002388262000214565b84845462000182565b825550505050565b600090565b6200025862000249565b620002658184846200021e565b505050565b5b818110156200028d57620002816000826200024e565b6001810190506200026b565b5050565b601f821115620002dc57620002a68162000150565b620002b18462000165565b81016020851015620002c1578190505b620002d9620002d08562000165565b8301826200026a565b50505b505050565b600082821c905092915050565b60006200030160001984600802620002e1565b1980831691505092915050565b60006200031c8383620002ee565b9150826002028217905092915050565b6200033782620000b2565b67ffffffffffffffff811115620003535762000352620000bd565b5b6200035f82546200011b565b6200036c82828562000291565b600060209050601f831160018114620003a457600084156200038f578287015190505b6200039b85826200030e565b8655506200040b565b601f198416620003b48662000150565b60005b82811015620003de57848901518255600182019150602085019450602081019050620003b7565b86831015620003fe5784890151620003fa601f891682620002ee565b8355505b6001600288020188555050505b505050505050565b6080516119db62000436600039600081816103db01526105cb01526119db6000f3fe608060405234801561001057600080fd5b50600436106100ea5760003560e01c806359c436d91161008c578063a9059cbb11610066578063a9059cbb14610251578063ba3ec74114610281578063dd62ed3e1461029f578063f8ea8f16146102cf576100ea565b806359c436d9146101e557806370a082311461020357806395d89b4114610233576100ea565b806323b872dd116100c857806323b872dd1461015b57806325677e4f1461018b578063313ce567146101a95780634d625e72146101c7576100ea565b806306fdde03146100ef578063095ea7b31461010d57806318160ddd1461013d575b600080fd5b6100f76102eb565b604051610104919061106f565b60405180910390f35b6101276004803603810190610122919061112f565b61037d565b604051610134919061118a565b60405180910390f35b6101456103a0565b60405161015291906111b4565b60405180910390f35b610175600480360381019061017091906111cf565b6103aa565b604051610182919061118a565b60405180910390f35b6101936103d9565b6040516101a091906111b4565b60405180910390f35b6101b16103fd565b6040516101be919061123e565b60405180910390f35b6101cf610406565b6040516101dc91906111b4565b60405180910390f35b6101ed61040d565b6040516101fa9190611268565b60405180910390f35b61021d60048036038101906102189190611283565b610425565b60405161022a91906111b4565b60405180910390f35b61023b61046d565b604051610248919061106f565b60405180910390f35b61026b6004803603810190610266919061112f565b6104ff565b604051610278919061118a565b60405180910390f35b610289610522565b604051610296919061106f565b60405180910390f35b6102b960048036038101906102b491906112b0565b61053e565b6040516102c691906111b4565b60405180910390f35b6102e960048036038101906102e49190611355565b6105c5565b005b6060600380546102fa9061141e565b80601f01602080910402602001604051908101604052809291908181526020018280546103269061141e565b80156103735780601f1061034857610100808354040283529160200191610373565b820191906000526020600020905b81548152906001019060200180831161035657829003601f168201915b5050505050905090565b60008061038861086d565b9050610395818585610875565b600191505092915050565b6000600254905090565b6000806103b561086d565b90506103c2858285610887565b6103cd85858561091b565b60019150509392505050565b7f000000000000000000000000000000000000000000000000000000000000000081565b60006012905090565b62093a8081565b73c82b06e98af59af954f9f1872e61143830d9e4ad81565b60008060008373ffffffffffffffffffffffffffffffffffffffff1673ffffffffffffffffffffffffffffffffffffffff168152602001908152602001600020549050919050565b60606004805461047c9061141e565b80601f01602080910402602001604051908101604052809291908181526020018280546104a89061141e565b80156104f55780601f106104ca576101008083540402835291602001916104f5565b820191906000526020600020905b8154815290600101906020018083116104d857829003601f168201915b5050505050905090565b60008061050a61086d565b905061051781858561091b565b600191505092915050565b6040518060600160405280602e8152602001611978602e913981565b6000600160008473ffffffffffffffffffffffffffffffffffffffff1673ffffffffffffffffffffffffffffffffffffffff16815260200190815260200160002060008373ffffffffffffffffffffffffffffffffffffffff1673ffffffffffffffffffffffffffffffffffffffff16815260200190815260200160002054905092915050565b62093a807f00000000000000000000000000000000000000000000000000000000000000006105f4919061147e565b4210610635576040517f08c379a000000000000000000000000000000000000000000000000000000000815260040161062c906114fe565b60405180910390fd5b3373ffffffffffffffffffffffffffffffffffffffff163273ffffffffffffffffffffffffffffffffffffffff16146106a3576040517f08c379a000000000000000000000000000000000000000000000000000000000815260040161069a9061156a565b60405180910390fd5b60006106ae33610425565b146106ee576040517f08c379a00000000000000000000000000000000000000000000000000000000081526004016106e5906115d6565b60405180910390fd5b6000838587896106fe919061147e565b610708919061147e565b610712919061147e565b905060008111610757576040517f08c379a000000000000000000000000000000000000000000000000000000000815260040161074e90611642565b60405180910390fd5b600061076588888888610a0f565b9050600061077282610a4a565b905060006107c48287878080601f016020809104026020016040519081016040528093929190818152602001838380828437600081840152601f19601f82011690508083019250505050505050610a7a565b905073c82b06e98af59af954f9f1872e61143830d9e4ad73ffffffffffffffffffffffffffffffffffffffff168173ffffffffffffffffffffffffffffffffffffffff1614610848576040517f08c379a000000000000000000000000000000000000000000000000000000000815260040161083f906116ae565b60405180910390fd5b610861336305f5e1008661085c91906116ce565b610ae9565b50505050505050505050565b600033905090565b6108828383836001610b6b565b505050565b6000610893848461053e565b90507fffffffffffffffffffffffffffffffffffffffffffffffffffffffffffffffff81146109155781811015610905578281836040517ffb8f41b20000000000000000000000000000000000000000000000000000000081526004016108fc93929190611710565b60405180910390fd5b61091484848484036000610b6b565b5b50505050565b600073ffffffffffffffffffffffffffffffffffffffff168373ffffffffffffffffffffffffffffffffffffffff160361098d5760006040517f96c6fd1e0000000000000000000000000000000000000000000000000000000081526004016109849190611268565b60405180910390fd5b600073ffffffffffffffffffffffffffffffffffffffff168273ffffffffffffffffffffffffffffffffffffffff16036109ff5760006040517fec442f050000000000000000000000000000000000000000000000000000000081526004016109f69190611268565b60405180910390fd5b610a0a838383610d42565b505050565b60008484848433604051602001610a2a9594939291906117b0565b604051602081830303815290604052805190602001209050949350505050565b600081604051602001610a5d9190611891565b604051602081830303815290604052805190602001209050919050565b600080600080610a8985610d52565b92509250925060018682858560405160008152602001604052604051610ab294939291906118c6565b6020604051602081039080840390855afa158015610ad4573d6000803e3d6000fd5b50505060206040510351935050505092915050565b600073ffffffffffffffffffffffffffffffffffffffff168273ffffffffffffffffffffffffffffffffffffffff1603610b5b5760006040517fec442f05000000000000000000000000000000000000000000000000000000008152600401610b529190611268565b60405180910390fd5b610b6760008383610d42565b5050565b600073ffffffffffffffffffffffffffffffffffffffff168473ffffffffffffffffffffffffffffffffffffffff1603610bdd5760006040517fe602df05000000000000000000000000000000000000000000000000000000008152600401610bd49190611268565b60405180910390fd5b600073ffffffffffffffffffffffffffffffffffffffff168373ffffffffffffffffffffffffffffffffffffffff1603610c4f5760006040517f94280d62000000000000000000000000000000000000000000000000000000008152600401610c469190611268565b60405180910390fd5b81600160008673ffffffffffffffffffffffffffffffffffffffff1673ffffffffffffffffffffffffffffffffffffffff16815260200190815260200160002060008573ffffffffffffffffffffffffffffffffffffffff1673ffffffffffffffffffffffffffffffffffffffff168152602001908152602001600020819055508015610d3c578273ffffffffffffffffffffffffffffffffffffffff168473ffffffffffffffffffffffffffffffffffffffff167f8c5be1e5ebec7d5bd14f71427d1e84f3dd0314c0f7b2291e5b200ac8c7c3b92584604051610d3391906111b4565b60405180910390a35b50505050565b610d4d838383610dba565b505050565b60008060006041845114610d9b576040517f08c379a0000000000000000000000000000000000000000000000000000000008152600401610d9290611957565b60405180910390fd5b6020840151925060408401519150606084015160001a90509193909250565b600073ffffffffffffffffffffffffffffffffffffffff168373ffffffffffffffffffffffffffffffffffffffff1603610e0c578060026000828254610e00919061147e565b92505081905550610edf565b60008060008573ffffffffffffffffffffffffffffffffffffffff1673ffffffffffffffffffffffffffffffffffffffff16815260200190815260200160002054905081811015610e98578381836040517fe450d38c000000000000000000000000000000000000000000000000000000008152600401610e8f93929190611710565b60405180910390fd5b8181036000808673ffffffffffffffffffffffffffffffffffffffff1673ffffffffffffffffffffffffffffffffffffffff16815260200190815260200160002081905550505b600073ffffffffffffffffffffffffffffffffffffffff168273ffffffffffffffffffffffffffffffffffffffff1603610f285780600260008282540392505081905550610f75565b806000808473ffffffffffffffffffffffffffffffffffffffff1673ffffffffffffffffffffffffffffffffffffffff168152602001908152602001600020600082825401925050819055505b8173ffffffffffffffffffffffffffffffffffffffff168373ffffffffffffffffffffffffffffffffffffffff167fddf252ad1be2c89b69c2b068fc378daa952ba7f163c4a11628f55a4df523b3ef83604051610fd291906111b4565b60405180910390a3505050565b600081519050919050565b600082825260208201905092915050565b60005b83811015611019578082015181840152602081019050610ffe565b60008484015250505050565b6000601f19601f8301169050919050565b600061104182610fdf565b61104b8185610fea565b935061105b818560208601610ffb565b61106481611025565b840191505092915050565b600060208201905081810360008301526110898184611036565b905092915050565b600080fd5b600080fd5b600073ffffffffffffffffffffffffffffffffffffffff82169050919050565b60006110c68261109b565b9050919050565b6110d6816110bb565b81146110e157600080fd5b50565b6000813590506110f3816110cd565b92915050565b6000819050919050565b61110c816110f9565b811461111757600080fd5b50565b60008135905061112981611103565b92915050565b6000806040838503121561114657611145611091565b5b6000611154858286016110e4565b92505060206111658582860161111a565b9150509250929050565b60008115159050919050565b6111848161116f565b82525050565b600060208201905061119f600083018461117b565b92915050565b6111ae816110f9565b82525050565b60006020820190506111c960008301846111a5565b92915050565b6000806000606084860312156111e8576111e7611091565b5b60006111f6868287016110e4565b9350506020611207868287016110e4565b92505060406112188682870161111a565b9150509250925092565b600060ff82169050919050565b61123881611222565b82525050565b6000602082019050611253600083018461122f565b92915050565b611262816110bb565b82525050565b600060208201905061127d6000830184611259565b92915050565b60006020828403121561129957611298611091565b5b60006112a7848285016110e4565b91505092915050565b600080604083850312156112c7576112c6611091565b5b60006112d5858286016110e4565b92505060206112e6858286016110e4565b9150509250929050565b600080fd5b600080fd5b600080fd5b60008083601f840112611315576113146112f0565b5b8235905067ffffffffffffffff811115611332576113316112f5565b5b60208301915083600182028301111561134e5761134d6112fa565b5b9250929050565b60008060008060008060a0878903121561137257611371611091565b5b600061138089828a0161111a565b965050602061139189828a0161111a565b95505060406113a289828a0161111a565b94505060606113b389828a0161111a565b935050608087013567ffffffffffffffff8111156113d4576113d3611096565b5b6113e089828a016112ff565b92509250509295509295509295565b7f4e487b7100000000000000000000000000000000000000000000000000000000600052602260045260246000fd5b6000600282049050600182168061143657607f821691505b602082108103611449576114486113ef565b5b50919050565b7f4e487b7100000000000000000000000000000000000000000000000000000000600052601160045260246000fd5b6000611489826110f9565b9150611494836110f9565b92508282019050808211156114ac576114ab61144f565b5b92915050565b7f6d696e74696e6720706572696f64206973206f76657200000000000000000000600082015250565b60006114e8601683610fea565b91506114f3826114b2565b602082019050919050565b60006020820190508181036000830152611517816114db565b9050919050565b7f6f6e6c7920454f417320616c6c6f776564000000000000000000000000000000600082015250565b6000611554601183610fea565b915061155f8261151e565b602082019050919050565b6000602082019050818103600083015261158381611547565b9050919050565b7f616c7265616479206d696e746564000000000000000000000000000000000000600082015250565b60006115c0600e83610fea565b91506115cb8261158a565b602082019050919050565b600060208201905081810360008301526115ef816115b3565b9050919050565b7f616d6f756e742069732030000000000000000000000000000000000000000000600082015250565b600061162c600b83610fea565b9150611637826115f6565b602082019050919050565b6000602082019050818103600083015261165b8161161f565b9050919050565b7f696e76616c6964207369676e6174757265000000000000000000000000000000600082015250565b6000611698601183610fea565b91506116a382611662565b602082019050919050565b600060208201905081810360008301526116c78161168b565b9050919050565b60006116d9826110f9565b91506116e4836110f9565b92508282026116f2816110f9565b915082820484148315176117095761170861144f565b5b5092915050565b60006060820190506117256000830186611259565b61173260208301856111a5565b61173f60408301846111a5565b949350505050565b6000819050919050565b61176261175d826110f9565b611747565b82525050565b60008160601b9050919050565b600061178082611768565b9050919050565b600061179282611775565b9050919050565b6117aa6117a5826110bb565b611787565b82525050565b60006117bc8288611751565b6020820191506117cc8287611751565b6020820191506117dc8286611751565b6020820191506117ec8285611751565b6020820191506117fc8284611799565b6014820191508190509695505050505050565b600081905092915050565b7f19457468657265756d205369676e6564204d6573736167653a0a333200000000600082015250565b6000611850601c8361180f565b915061185b8261181a565b601c82019050919050565b6000819050919050565b6000819050919050565b61188b61188682611866565b611870565b82525050565b600061189c82611843565b91506118a8828461187a565b60208201915081905092915050565b6118c081611866565b82525050565b60006080820190506118db60008301876118b7565b6118e8602083018661122f565b6118f560408301856118b7565b61190260608301846118b7565b95945050505050565b7f696e76616c6964207369676e6174757265206c656e6774680000000000000000600082015250565b6000611941601883610fea565b915061194c8261190b565b602082019050919050565b6000602082019050818103600083015261197081611934565b905091905056fe404d724a61636b4c6576696e204061636b65626f6d20406c62656c79616576206661697263727970746f2e6f7267a26469706673582212209d7230c9d4e0ee8207385ef5538ae08c89ee33f8de9f8e32a31472d4d071993d64736f6c63430008180033",
  "linkReferences": {},
  "deployedLinkReferences": {}
}