{
  "contractName": "XONE",
  "abi": [
    {
      "inputs": [
        {
          "internalType": "address",
          "name": "xenCryptoAddress",
          "type": "address"
        },
        {
          "internalType": "address",
          "name": "xenTorrentAddress",
          "type": "address"
        },
        {
          "internalType": "address",
          "name": "xenStakeAddress",
          "type": "address"
        },
        {
          "internalType": "address",
          "name": "vmpxAddress",
          "type": "address"
        },
        {
          "internalType": "uint256",
          "name": "startBlockNumber_",
          "type": "uint256"
        }
      ],
      "stateMutability": "nonpayable",
      "type": "constructor"
    },
    {
      "anonymous": false,
      "inputs": [
        {
          "indexed": true,
          "internalType": "address",
          "name": "owner",
          "type": "address"
        },
        {
          "indexed": true,
          "internalType": "address",
          "name": "spender",
          "type": "address"
        },
        {
          "indexed": false,
          "internalType": "uint256",
          "name": "value",
          "type": "uint256"
        }
      ],
      "name": "Approval",
      "type": "event"
    },
    {
      "anonymous": false,
      "inputs": [
        {
          "indexed": true,
          "internalType": "address",
          "name": "previousOwner",
          "type": "address"
        },
        {
          "indexed": true,
          "internalType": "address",
          "name": "newOwner",
          "type": "address"
        }
      ],
      "name": "OwnershipTransferred",
      "type": "event"
    },
    {
      "anonymous": false,
      "inputs": [
        {
          "indexed": true,
          "internalType": "address",
          "name": "from",
          "type": "address"
        },
        {
          "indexed": true,
          "internalType": "address",
          "name": "to",
          "type": "address"
        },
        {
          "indexed": false,
          "internalType": "uint256",
          "name": "value",
          "type": "uint256"
        }
      ],
      "name": "Transfer",
      "type": "event"
    },
    {
      "inputs": [],
      "name": "BATCH_APEX_EPIC_XENFT",
      "outputs": [
        {
          "internalType": "uint256",
          "name": "",
          "type": "uint256"
        }
      ],
      "stateMutability": "view",
      "type": "function"
    },
    {
      "inputs": [],
      "name": "BATCH_APEX_EXOTIC_XENFT",
      "outputs": [
        {
          "internalType": "uint256",
          "name": "",
          "type": "uint256"
        }
      ],
      "stateMutability": "view",
      "type": "function"
    },
    {
      "inputs": [],
      "name": "BATCH_APEX_LEGENDARY_XENFT",
      "outputs": [
        {
          "internalType": "uint256",
          "name": "",
          "type": "uint256"
        }
      ],
      "stateMutability": "view",
      "type": "function"
    },
    {
      "inputs": [],
      "name": "BATCH_APEX_RARE_XENFT",
      "outputs": [
        {
          "internalType": "uint256",
          "name": "",
          "type": "uint256"
        }
      ],
      "stateMutability": "view",
      "type": "function"
    },
    {
      "inputs": [],
      "name": "BATCH_APEX_XUNICORN_XENFT",
      "outputs": [
        {
          "internalType": "uint256",
          "name": "",
          "type": "uint256"
        }
      ],
      "stateMutability": "view",
      "type": "function"
    },
    {
      "inputs": [],
      "name": "BATCH_COLLECTOR_XENFT",
      "outputs": [
        {
          "internalType": "uint256",
          "name": "",
          "type": "uint256"
        }
      ],
      "stateMutability": "view",
      "type": "function"
    },
    {
      "inputs": [],
      "name": "BATCH_FLOOR",
      "outputs": [
        {
          "internalType": "uint256",
          "name": "",
          "type": "uint256"
        }
      ],
      "stateMutability": "view",
      "type": "function"
    },
    {
      "inputs": [],
      "name": "BATCH_LIMITED_XENFT",
      "outputs": [
        {
          "internalType": "uint256",
          "name": "",
          "type": "uint256"
        }
      ],
      "stateMutability": "view",
      "type": "function"
    },
    {
      "inputs": [],
      "name": "BATCH_STAKE_XENFT",
      "outputs": [
        {
          "internalType": "uint256",
          "name": "",
          "type": "uint256"
        }
      ],
      "stateMutability": "view",
      "type": "function"
    },
    {
      "inputs": [],
      "name": "BATCH_VMPX_100",
      "outputs": [
        {
          "internalType": "uint256",
          "name": "",
          "type": "uint256"
        }
      ],
      "stateMutability": "view",
      "type": "function"
    },
    {
      "inputs": [],
      "name": "BATCH_XEN_10M",
      "outputs": [
        {
          "internalType": "uint256",
          "name": "",
          "type": "uint256"
        }
      ],
      "stateMutability": "view",
      "type": "function"
    },
    {
      "inputs": [],
      "name": "BATCH_XEN_BURN_10M",
      "outputs": [
        {
          "internalType": "uint256",
          "name": "",
          "type": "uint256"
        }
      ],
      "stateMutability": "view",
      "type": "function"
    },
    {
      "inputs": [],
      "name": "BATCH_XEN_STAKE_10M",
      "outputs": [
        {
          "internalType": "uint256",
          "name": "",
          "type": "uint256"
        }
      ],
      "stateMutability": "view",
      "type": "function"
    },
    {
      "inputs": [],
      "name": "START_TRANSFER_MARGIN",
      "outputs": [
        {
          "internalType": "uint256",
          "name": "",
          "type": "uint256"
        }
      ],
      "stateMutability": "view",
      "type": "function"
    },
    {
      "inputs": [],
      "name": "VMPX_THRESHOLD",
      "outputs": [
        {
          "internalType": "uint256",
          "name": "",
          "type": "uint256"
        }
      ],
      "stateMutability": "view",
      "type": "function"
    },
    {
      "inputs": [],
      "name": "XEN_THRESHOLD",
      "outputs": [
        {
          "internalType": "uint256",
          "name": "",
          "type": "uint256"
        }
      ],
      "stateMutability": "view",
      "type": "function"
    },
    {
      "inputs": [],
      "name": "XONE_MIN_BURN",
      "outputs": [
        {
          "internalType": "uint256",
          "name": "",
          "type": "uint256"
        }
      ],
      "stateMutability": "view",
      "type": "function"
    },
    {
      "inputs": [
        {
          "internalType": "address",
          "name": "owner",
          "type": "address"
        },
        {
          "internalType": "address",
          "name": "spender",
          "type": "address"
        }
      ],
      "name": "allowance",
      "outputs": [
        {
          "internalType": "uint256",
          "name": "",
          "type": "uint256"
        }
      ],
      "stateMutability": "view",
      "type": "function"
    },
    {
      "inputs": [
        {
          "internalType": "address",
          "name": "spender",
          "type": "address"
        },
        {
          "internalType": "uint256",
          "name": "amount",
          "type": "uint256"
        }
      ],
      "name": "approve",
      "outputs": [
        {
          "internalType": "bool",
          "name": "",
          "type": "bool"
        }
      ],
      "stateMutability": "nonpayable",
      "type": "function"
    },
    {
      "inputs": [
        {
          "internalType": "address",
          "name": "account",
          "type": "address"
        }
      ],
      "name": "balanceOf",
      "outputs": [
        {
          "internalType": "uint256",
          "name": "",
          "type": "uint256"
        }
      ],
      "stateMutability": "view",
      "type": "function"
    },
    {
      "inputs": [],
      "name": "cap",
      "outputs": [
        {
          "internalType": "uint256",
          "name": "",
          "type": "uint256"
        }
      ],
      "stateMutability": "view",
      "type": "function"
    },
    {
      "inputs": [],
      "name": "decimals",
      "outputs": [
        {
          "internalType": "uint8",
          "name": "",
          "type": "uint8"
        }
      ],
      "stateMutability": "view",
      "type": "function"
    },
    {
      "inputs": [
        {
          "internalType": "address",
          "name": "spender",
          "type": "address"
        },
        {
          "internalType": "uint256",
          "name": "subtractedValue",
          "type": "uint256"
        }
      ],
      "name": "decreaseAllowance",
      "outputs": [
        {
          "internalType": "bool",
          "name": "",
          "type": "bool"
        }
      ],
      "stateMutability": "nonpayable",
      "type": "function"
    },
    {
      "inputs": [
        {
          "internalType": "address",
          "name": "spender",
          "type": "address"
        },
        {
          "internalType": "uint256",
          "name": "addedValue",
          "type": "uint256"
        }
      ],
      "name": "increaseAllowance",
      "outputs": [
        {
          "internalType": "bool",
          "name": "",
          "type": "bool"
        }
      ],
      "stateMutability": "nonpayable",
      "type": "function"
    },
    {
      "inputs": [],
      "name": "mintingFinished",
      "outputs": [
        {
          "internalType": "bool",
          "name": "",
          "type": "bool"
        }
      ],
      "stateMutability": "view",
      "type": "function"
    },
    {
      "inputs": [],
      "name": "name",
      "outputs": [
        {
          "internalType": "string",
          "name": "",
          "type": "string"
        }
      ],
      "stateMutability": "view",
      "type": "function"
    },
    {
      "inputs": [],
      "name": "owner",
      "outputs": [
        {
          "internalType": "address",
          "name": "",
          "type": "address"
        }
      ],
      "stateMutability": "view",
      "type": "function"
    },
    {
      "inputs": [],
      "name": "renounceOwnership",
      "outputs": [],
      "stateMutability": "nonpayable",
      "type": "function"
    },
    {
      "inputs": [
        {
          "internalType": "uint256",
          "name": "",
          "type": "uint256"
        }
      ],
      "name": "stakeTokensUsed",
      "outputs": [
        {
          "internalType": "address",
          "name": "",
          "type": "address"
        }
      ],
      "stateMutability": "view",
      "type": "function"
    },
    {
      "inputs": [],
      "name": "startBlockNumber",
      "outputs": [
        {
          "internalType": "uint256",
          "name": "",
          "type": "uint256"
        }
      ],
      "stateMutability": "view",
      "type": "function"
    },
    {
      "inputs": [],
      "name": "symbol",
      "outputs": [
        {
          "internalType": "string",
          "name": "",
          "type": "string"
        }
      ],
      "stateMutability": "view",
      "type": "function"
    },
    {
      "inputs": [
        {
          "internalType": "uint256",
          "name": "",
          "type": "uint256"
        }
      ],
      "name": "torrentTokensUsed",
      "outputs": [
        {
          "internalType": "address",
          "name": "",
          "type": "address"
        }
      ],
      "stateMutability": "view",
      "type": "function"
    },
    {
      "inputs": [],
      "name": "totalSupply",
      "outputs": [
        {
          "internalType": "uint256",
          "name": "",
          "type": "uint256"
        }
      ],
      "stateMutability": "view",
      "type": "function"
    },
    {
      "inputs": [
        {
          "internalType": "address",
          "name": "to",
          "type": "address"
        },
        {
          "internalType": "uint256",
          "name": "amount",
          "type": "uint256"
        }
      ],
      "name": "transfer",
      "outputs": [
        {
          "internalType": "bool",
          "name": "",
          "type": "bool"
        }
      ],
      "stateMutability": "nonpayable",
      "type": "function"
    },
    {
      "inputs": [
        {
          "internalType": "address",
          "name": "from",
          "type": "address"
        },
        {
          "internalType": "address",
          "name": "to",
          "type": "address"
        },
        {
          "internalType": "uint256",
          "name": "amount",
          "type": "uint256"
        }
      ],
      "name": "transferFrom",
      "outputs": [
        {
          "internalType": "bool",
          "name": "",
          "type": "bool"
        }
      ],
      "stateMutability": "nonpayable",
      "type": "function"
    },
    {
      "inputs": [
        {
          "internalType": "address",
          "name": "newOwner",
          "type": "address"
        }
      ],
      "name": "transferOwnership",
      "outputs": [],
      "stateMutability": "nonpayable",
      "type": "function"
    },
    {
      "inputs": [
        {
          "internalType": "address",
          "name": "",
          "type": "address"
        }
      ],
      "name": "userBurns",
      "outputs": [
        {
          "internalType": "uint256",
          "name": "",
          "type": "uint256"
        }
      ],
      "stateMutability": "view",
      "type": "function"
    },
    {
      "inputs": [
        {
          "internalType": "address",
          "name": "",
          "type": "address"
        }
      ],
      "name": "userMints",
      "outputs": [
        {
          "internalType": "uint256",
          "name": "",
          "type": "uint256"
        }
      ],
      "stateMutability": "view",
      "type": "function"
    },
    {
      "inputs": [],
      "name": "vmpx",
      "outputs": [
        {
          "internalType": "contract VMPX",
          "name": "",
          "type": "address"
        }
      ],
      "stateMutability": "view",
      "type": "function"
    },
    {
      "inputs": [],
      "name": "xenCrypto",
      "outputs": [
        {
          "internalType": "contract XENCrypto",
          "name": "",
          "type": "address"
        }
      ],
      "stateMutability": "view",
      "type": "function"
    },
    {
      "inputs": [],
      "name": "xenStake",
      "outputs": [
        {
          "internalType": "contract XENStake",
          "name": "",
          "type": "address"
        }
      ],
      "stateMutability": "view",
      "type": "function"
    },
    {
      "inputs": [],
      "name": "xenTorrent",
      "outputs": [
        {
          "internalType": "contract XENTorrent",
          "name": "",
          "type": "address"
        }
      ],
      "stateMutability": "view",
      "type": "function"
    },
    {
      "inputs": [
        {
          "internalType": "uint256",
          "name": "tokenId",
          "type": "uint256"
        },
        {
          "internalType": "bool",
          "name": "isStake",
          "type": "bool"
        }
      ],
      "name": "mint",
      "outputs": [],
      "stateMutability": "nonpayable",
      "type": "function"
    },
    {
      "inputs": [
        {
          "internalType": "address",
          "name": "user",
          "type": "address"
        },
        {
          "internalType": "uint256",
          "name": "amount",
          "type": "uint256"
        }
      ],
      "name": "burn",
      "outputs": [],
      "stateMutability": "nonpayable",
      "type": "function"
    }
  ],
  "bytecode": "0x6101406040523480156200001257600080fd5b50604051620029c9380380620029c9833981016040819052620000359162000449565b6b033b2e3c9fd0803ce800000060405180604001604052806004815260200163584f4e4560e01b8152506040518060400160405280600a8152602001692c27a722902a37b5b2b760b11b8152506200009c620000966200017b60201b60201c565b6200017f565b6004620000aa838262000554565b506005620000b9828262000554565b50505060008111620001125760405162461bcd60e51b815260206004820152601560248201527f45524332304361707065643a206361702069732030000000000000000000000060448201526064015b60405180910390fd5b6080526001600160a01b0380861660a05284811660c05283811660e05282166101005261012081905262000170620001526000546001600160a01b031690565b60026200015e60805190565b6200016a919062000636565b620001cf565b50505050506200068b565b3390565b600080546001600160a01b038381166001600160a01b0319831681178455604051919092169283917f8be0079c531659141344cd1fd0a4f28419497f9722a3daafe3b4186f6b6457e09190a35050565b620001db8282620001df565b5050565b60805181620001ed60035490565b620001f9919062000659565b1115620002495760405162461bcd60e51b815260206004820152601960248201527f45524332304361707065643a2063617020657863656564656400000000000000604482015260640162000109565b620001db82826001600160a01b038216620002a75760405162461bcd60e51b815260206004820152601f60248201527f45524332303a206d696e7420746f20746865207a65726f206164647265737300604482015260640162000109565b620002b5600083836200034c565b8060036000828254620002c9919062000659565b90915550506001600160a01b03821660009081526001602052604081208054839290620002f890849062000659565b90915550506040518181526001600160a01b038316906000907fddf252ad1be2c89b69c2b068fc378daa952ba7f163c4a11628f55a4df523b3ef9060200160405180910390a3620001db60008383620003cb565b60065460ff16806200036557506001600160a01b038316155b620003b35760405162461bcd60e51b815260206004820152601a60248201527f584f4e453a206d696e74696e67206e6f742066696e6973686564000000000000604482015260640162000109565b620003c68383836001600160e01b038416565b505050565b6001600160a01b038316158015620003e6575060065460ff16155b801562000414575069152d02c7e14af68000006200040360035490565b60805162000412919062000675565b105b15620003c6576006805460ff19166001179055505050565b80516001600160a01b03811681146200044457600080fd5b919050565b600080600080600060a086880312156200046257600080fd5b6200046d866200042c565b94506200047d602087016200042c565b93506200048d604087016200042c565b92506200049d606087016200042c565b9150608086015190509295509295909350565b634e487b7160e01b600052604160045260246000fd5b600181811c90821680620004db57607f821691505b602082108103620004fc57634e487b7160e01b600052602260045260246000fd5b50919050565b601f821115620003c657600081815260208120601f850160051c810160208610156200052b5750805b601f850160051c820191505b818110156200054c5782815560010162000537565b505050505050565b81516001600160401b03811115620005705762000570620004b0565b6200058881620005818454620004c6565b8462000502565b602080601f831160018114620005c05760008415620005a75750858301515b600019600386901b1c1916600185901b1785556200054c565b600085815260208120601f198616915b82811015620005f157888601518255948401946001909101908401620005d0565b5085821015620006105787850151600019600388901b60f8161c191681555b5050505050600190811b01905550565b634e487b7160e01b600052601160045260246000fd5b6000826200065457634e487b7160e01b600052601260045260246000fd5b500490565b808201808211156200066f576200066f62000620565b92915050565b818103818111156200066f576200066f62000620565b60805160a05160c05160e051610100516101205161227e6200074b6000396000818161032701526106a301526000818161034e0152611dcb01526000818161027a01528181611a6c01528181611abc0152611b920152600081816103af015281816113d901528181611488015281816115600152818161167d01528181611732015281816117e501528181611899015261194d01526000818161045f01528181611a3401528181611cd90152611d8a0152600061065d015261227e6000f3fe608060405234801561001057600080fd5b50600436106102145760003560e01c806367f68fac1161012157806367f68fac1461041c57806370a082311461043157806371141a581461045a578063715018a6146104815780637f09ccdb146104895780638da5cb5b1461049a57806395d89b41146104a257806398591d93146104aa57806398f85760146102e45780639c3e217f146104bb5780639dc29fac146104cb578063a457c2d7146104de578063a9059cbb146104f1578063c7849a3d146103e2578063ce653d5f14610504578063ce7421fb14610524578063dd62ed3e14610534578063df28233114610547578063f2fde38b14610567578063f3fe49e4146103e2578063fa4608f5146103e2578063fd784c171461057a57600080fd5b806305d2035b1461021957806306fdde031461023b578063095ea7b31461025057806318160ddd146102635780631d3cea1d1461027557806323b872dd146102a95780632c82e8a2146102bc578063313ce567146102cd578063355274ea146102dc5780633671c81a146102e457806339509351146102f557806339f04dff146103085780633aafe9471461031a578063498a4c2d14610322578063516486d41461034957806351db8a6f1461037057806352162d9a14610399578063543d7d97146103aa5780635958ef48146103d15780635c8d827d146103e25780635ee792e4146103d157806363974a17146103f3575b600080fd5b6006546102269060ff1681565b60405190151581526020015b60405180910390f35b61024361058b565b6040516102329190611f42565b61022661025e366004611fa5565b61061d565b6003545b604051908152602001610232565b61029c7f000000000000000000000000000000000000000000000000000000000000000081565b6040516102329190611fd1565b6102266102b7366004611fe5565b610637565b61026769d3c21bcecceda100000081565b60405160128152602001610232565b61026761065b565b61026769152d02c7e14af680000081565b610226610303366004611fa5565b61067f565b6102676a08459508334a94a29c000081565b610267600081565b6102677f000000000000000000000000000000000000000000000000000000000000000081565b61029c7f000000000000000000000000000000000000000000000000000000000000000081565b61029c61037e366004612026565b6009602052600090815260409020546001600160a01b031681565b61026769043c33c193756480000081565b61029c7f000000000000000000000000000000000000000000000000000000000000000081565b61026769028a857425466f80000081565b61026769021e19e0c9bab240000081565b61029c610401366004612026565b6008602052600090815260409020546001600160a01b031681565b61042f61042a36600461204d565b6106a1565b005b61026761043f36600461207d565b6001600160a01b031660009081526001602052604090205490565b61029c7f000000000000000000000000000000000000000000000000000000000000000081565b61042f6109b2565b61026769065a4da25d3016c0000081565b61029c6109c6565b6102436109d5565b610267690a968163f0a57b40000081565b61026768055de6a779bbac000081565b61042f6104d9366004611fa5565b6109e4565b6102266104ec366004611fa5565b610b96565b6102266104ff366004611fa5565b610c11565b61026761051236600461207d565b600a6020526000908152604090205481565b610267683635c9adc5dea0000081565b6102676105423660046120a1565b610c1f565b61026761055536600461207d565b60076020526000908152604090205481565b61042f61057536600461207d565b610c4a565b61026769032d26d12e980b60000081565b60606004805461059a906120cf565b80601f01602080910402602001604051908101604052809291908181526020018280546105c6906120cf565b80156106135780601f106105e857610100808354040283529160200191610613565b820191906000526020600020905b8154815290600101906020018083116105f657829003601f168201915b5050505050905090565b60003361062b818585610cc3565b60019150505b92915050565b600033610645858285610de7565b610650858585610e61565b506001949350505050565b7f000000000000000000000000000000000000000000000000000000000000000090565b60003361062b8185856106928383610c1f565b61069c919061211f565b610cc3565b7f0000000000000000000000000000000000000000000000000000000000000000431161070c5760405162461bcd60e51b81526020600482015260146024820152731613d3914e88139bdd081858dd1a5d99481e595d60621b60448201526064015b60405180910390fd5b3332146107555760405162461bcd60e51b8152602060048201526017602482015276584f4e453a206e6f20636f6e74726163742063616c6c7360481b6044820152606401610703565b33600090815260076020526040902054156107be5760405162461bcd60e51b8152602060048201526024808201527f584f4e453a20616c7265616479206d696e74656420746f2074686973206164646044820152637265737360e01b6064820152608401610703565b81158015906107cb575080155b1561083a576000828152600860205260409020546001600160a01b0316156108355760405162461bcd60e51b815260206004820181905260248201527f584f4e453a20746f7272656e7420746f6b656e20616c726561647920757365646044820152606401610703565b6108b0565b81158015906108465750805b156108b0576000828152600960205260409020546001600160a01b0316156108b05760405162461bcd60e51b815260206004820152601e60248201527f584f4e453a207374616b6520746f6b656e20616c7265616479207573656400006044820152606401610703565b683635c9adc5dea000006108c4838361102e565b90506108ce61065b565b816108d860035490565b6108e2919061211f565b111561092c5760405162461bcd60e51b81526020600482015260196024820152780584f4e453a206d696e74696e6720657863656564732063617603c1b6044820152606401610703565b336000908152600760205260409020819055821580159061094b575081155b1561097357600083815260086020526040902080546001600160a01b031916331790556109a3565b821580159061097f5750815b156109a357600083815260096020526040902080546001600160a01b031916331790555b6109ad33826110ff565b505050565b6109ba61110d565b6109c4600061116c565b565b6000546001600160a01b031690565b60606005805461059a906120cf565b60008111610a2c5760405162461bcd60e51b81526020600482015260156024820152741613d3914e8810995b1bddc81b5a5b881b1a5b5a5d605a1b6044820152606401610703565b336040516301ffc9a760e01b815263543746b160e01b60048201526001600160a01b0391909116906301ffc9a790602401602060405180830381865afa158015610a7a573d6000803e3d6000fd5b505050506040513d601f19601f82011682018060405250810190610a9e9190612132565b610aea5760405162461bcd60e51b815260206004820152601e60248201527f584f4e453a206e6f74206120737570706f7274656420636f6e747261637400006044820152606401610703565b610af5823383610de7565b610aff82826111bc565b6001600160a01b0382166000908152600a602052604081208054839290610b2790849061211f565b9091555033905060405163543746b160e01b81526001600160a01b03848116600483015260248201849052919091169063543746b190604401600060405180830381600087803b158015610b7a57600080fd5b505af1158015610b8e573d6000803e3d6000fd5b505050505050565b60003381610ba48286610c1f565b905083811015610c045760405162461bcd60e51b815260206004820152602560248201527f45524332303a2064656372656173656420616c6c6f77616e63652062656c6f77604482015264207a65726f60d81b6064820152608401610703565b6106508286868403610cc3565b60003361062b818585610e61565b6001600160a01b03918216600090815260026020908152604080832093909416825291909152205490565b610c5261110d565b6001600160a01b038116610cb75760405162461bcd60e51b815260206004820152602660248201527f4f776e61626c653a206e6577206f776e657220697320746865207a65726f206160448201526564647265737360d01b6064820152608401610703565b610cc08161116c565b50565b6001600160a01b038316610d255760405162461bcd60e51b8152602060048201526024808201527f45524332303a20617070726f76652066726f6d20746865207a65726f206164646044820152637265737360e01b6064820152608401610703565b6001600160a01b038216610d865760405162461bcd60e51b815260206004820152602260248201527f45524332303a20617070726f766520746f20746865207a65726f206164647265604482015261737360f01b6064820152608401610703565b6001600160a01b0383811660008181526002602090815260408083209487168084529482529182902085905590518481527f8c5be1e5ebec7d5bd14f71427d1e84f3dd0314c0f7b2291e5b200ac8c7c3b925910160405180910390a3505050565b6000610df38484610c1f565b90506000198114610e5b5781811015610e4e5760405162461bcd60e51b815260206004820152601d60248201527f45524332303a20696e73756666696369656e7420616c6c6f77616e63650000006044820152606401610703565b610e5b8484848403610cc3565b50505050565b6001600160a01b038316610ec55760405162461bcd60e51b815260206004820152602560248201527f45524332303a207472616e736665722066726f6d20746865207a65726f206164604482015264647265737360d81b6064820152608401610703565b6001600160a01b038216610f275760405162461bcd60e51b815260206004820152602360248201527f45524332303a207472616e7366657220746f20746865207a65726f206164647260448201526265737360e81b6064820152608401610703565b610f3283838361130b565b6001600160a01b03831660009081526001602052604090205481811015610faa5760405162461bcd60e51b815260206004820152602660248201527f45524332303a207472616e7366657220616d6f756e7420657863656564732062604482015265616c616e636560d01b6064820152608401610703565b6001600160a01b03808516600090815260016020526040808220858503905591851681529081208054849290610fe190849061211f565b92505081905550826001600160a01b0316846001600160a01b03166000805160206122298339815191528460405161101b91815260200190565b60405180910390a3610e5b84848461136c565b60006110386113cc565b8015611042575081155b156110575761105083611463565b9050610631565b61105f611a1c565b15611075575069028a857425466f800000610631565b61107d611a5f565b80156110865750815b156110945761105083611a97565b61109c611ccc565b156110b2575069021e19e0c9bab2400000610631565b6110ba611d72565b156110d0575069021e19e0c9bab2400000610631565b6110d8611db5565b156110ee575069021e19e0c9bab2400000610631565b50683635c9adc5dea0000092915050565b6111098282611df6565b5050565b336111166109c6565b6001600160a01b0316146109c45760405162461bcd60e51b815260206004820181905260248201527f4f776e61626c653a2063616c6c6572206973206e6f7420746865206f776e65726044820152606401610703565b600080546001600160a01b038381166001600160a01b0319831681178455604051919092169283917f8be0079c531659141344cd1fd0a4f28419497f9722a3daafe3b4186f6b6457e09190a35050565b6001600160a01b03821661121c5760405162461bcd60e51b815260206004820152602160248201527f45524332303a206275726e2066726f6d20746865207a65726f206164647265736044820152607360f81b6064820152608401610703565b6112288260008361130b565b6001600160a01b0382166000908152600160205260409020548181101561129c5760405162461bcd60e51b815260206004820152602260248201527f45524332303a206275726e20616d6f756e7420657863656564732062616c616e604482015261636560f01b6064820152608401610703565b6001600160a01b03831660009081526001602052604081208383039055600380548492906112cb90849061214f565b90915550506040518281526000906001600160a01b038516906000805160206122298339815191529060200160405180910390a36109ad8360008461136c565b60065460ff168061132357506001600160a01b038316155b6109ad5760405162461bcd60e51b815260206004820152601a6024820152791613d3914e881b5a5b9d1a5b99c81b9bdd08199a5b9a5cda195960321b6044820152606401610703565b6001600160a01b038316158015611386575060065460ff16155b80156113b5575069152d02c7e14af68000006113a160035490565b6113a961065b565b6113b3919061214f565b105b156109ad576006805460ff19166001179055505050565b6000806001600160a01b037f0000000000000000000000000000000000000000000000000000000000000000166370a08231335b6040518263ffffffff1660e01b815260040161141c9190611fd1565b602060405180830381865afa158015611439573d6000803e3d6000fd5b505050506040513d601f19601f8201168201806040525081019061145d9190612162565b11905090565b6000336040516331a9108f60e11b8152600481018490526001600160a01b03918216917f00000000000000000000000000000000000000000000000000000000000000001690636352211e90602401602060405180830381865afa1580156114cf573d6000803e3d6000fd5b505050506040513d601f19601f820116820180604052508101906114f3919061217b565b6001600160a01b0316146115475760405162461bcd60e51b815260206004820152601b60248201527a2c27a7229d103737ba102c22a7102a37b93932b73a1037bbb732b960291b6044820152606401610703565b60405163443aa53360e01b8152600481018390526000907f00000000000000000000000000000000000000000000000000000000000000006001600160a01b03169063443aa53390602401602060405180830381865afa1580156115af573d6000803e3d6000fd5b505050506040513d601f19601f820116820180604052508101906115d39190612162565b60405163512d62df60e01b81526004810182905269028a857425466f8000009350909150600090819073__MintInfo______________________________9063512d62df90602401606060405180830381865af4158015611638573d6000803e3d6000fd5b505050506040513d601f19601f8201168201806040525081019061165c9190612198565b925092505081156119eb57604051633a50eff960e11b8152600660048201527f00000000000000000000000000000000000000000000000000000000000000006001600160a01b0316906374a1dff290602401602060405180830381865afa1580156116cc573d6000803e3d6000fd5b505050506040513d601f19601f820116820180604052508101906116f09190612162565b85101561171c578369d3c21bcecceda100000011156117175769d3c21bcecceda100000093505b611a14565b604051633a50eff960e11b8152600560048201527f00000000000000000000000000000000000000000000000000000000000000006001600160a01b0316906374a1dff290602401602060405180830381865afa158015611781573d6000803e3d6000fd5b505050506040513d601f19601f820116820180604052508101906117a59190612162565b8510156117d0578369152d02c7e14af680000011156117175769152d02c7e14af68000009350611a14565b604051633a50eff960e11b81526004808201527f00000000000000000000000000000000000000000000000000000000000000006001600160a01b0316906374a1dff290602401602060405180830381865afa158015611834573d6000803e3d6000fd5b505050506040513d601f19601f820116820180604052508101906118589190612162565b8510156118835783690a968163f0a57b400000111561171757690a968163f0a57b4000009350611a14565b604051633a50eff960e11b8152600360048201527f00000000000000000000000000000000000000000000000000000000000000006001600160a01b0316906374a1dff290602401602060405180830381865afa1580156118e8573d6000803e3d6000fd5b505050506040513d601f19601f8201168201806040525081019061190c9190612162565b851015611937578369065a4da25d3016c0000011156117175769065a4da25d3016c000009350611a14565b604051633a50eff960e11b8152600260048201527f00000000000000000000000000000000000000000000000000000000000000006001600160a01b0316906374a1dff290602401602060405180830381865afa15801561199c573d6000803e3d6000fd5b505050506040513d601f19601f820116820180604052508101906119c09190612162565b851015611717578369043c33c193756480000011156117175769043c33c19375648000009350611a14565b808015611a0157508369032d26d12e980b600000115b15611a145769032d26d12e980b60000093505b505050919050565b60006a08459508334a94a29c00006001600160a01b037f00000000000000000000000000000000000000000000000000000000000000001663ce653d5f33611400565b6000806001600160a01b037f0000000000000000000000000000000000000000000000000000000000000000166370a0823133611400565b6000336040516331a9108f60e11b8152600481018490526001600160a01b03918216917f00000000000000000000000000000000000000000000000000000000000000001690636352211e90602401602060405180830381865afa158015611b03573d6000803e3d6000fd5b505050506040513d601f19601f82011682018060405250810190611b27919061217b565b6001600160a01b031614611b795760405162461bcd60e51b81526020600482015260196024820152782c27a7229d103737ba102c22a71029ba30b5b29037bbb732b960391b6044820152606401610703565b6040516327299ab960e11b8152600481018390526000907f00000000000000000000000000000000000000000000000000000000000000006001600160a01b031690634e53357290602401602060405180830381865afa158015611be1573d6000803e3d6000fd5b505050506040513d601f19601f82011682018060405250810190611c059190612162565b604051634cc0764360e11b81526004810182905290915060009073__StakeInfo_____________________________90639980ec8690602401602060405180830381865af4158015611c5b573d6000803e3d6000fd5b505050506040513d601f19601f82011682018060405250810190611c7f9190612162565b611c9190670de0b6b3a76400006121db565b90506a08459508334a94a29c0000811115611cb85769021e19e0c9bab24000009250611cc5565b683635c9adc5dea0000092505b5050919050565b6000806001600160a01b037f000000000000000000000000000000000000000000000000000000000000000016638da7ad23336040518263ffffffff1660e01b8152600401611d1b9190611fd1565b608060405180830381865afa158015611d38573d6000803e3d6000fd5b505050506040513d601f19601f82011682018060405250810190611d5c91906121f2565b506a08459508334a94a29c000010949350505050565b60006a08459508334a94a29c00006001600160a01b037f0000000000000000000000000000000000000000000000000000000000000000166370a0823133611400565b600068055de6a779bbac00006001600160a01b037f0000000000000000000000000000000000000000000000000000000000000000166370a0823133611400565b611dfe61065b565b81611e0860035490565b611e12919061211f565b1115611e5c5760405162461bcd60e51b8152602060048201526019602482015278115490cc8c10d85c1c19590e8818d85c08195e18d959591959603a1b6044820152606401610703565b61110982826001600160a01b038216611eb75760405162461bcd60e51b815260206004820152601f60248201527f45524332303a206d696e7420746f20746865207a65726f2061646472657373006044820152606401610703565b611ec36000838361130b565b8060036000828254611ed5919061211f565b90915550506001600160a01b03821660009081526001602052604081208054839290611f0290849061211f565b90915550506040518181526001600160a01b038316906000906000805160206122298339815191529060200160405180910390a36111096000838361136c565b600060208083528351808285015260005b81811015611f6f57858101830151858201604001528201611f53565b506000604082860101526040601f19601f8301168501019250505092915050565b6001600160a01b0381168114610cc057600080fd5b60008060408385031215611fb857600080fd5b8235611fc381611f90565b946020939093013593505050565b6001600160a01b0391909116815260200190565b600080600060608486031215611ffa57600080fd5b833561200581611f90565b9250602084013561201581611f90565b929592945050506040919091013590565b60006020828403121561203857600080fd5b5035919050565b8015158114610cc057600080fd5b6000806040838503121561206057600080fd5b8235915060208301356120728161203f565b809150509250929050565b60006020828403121561208f57600080fd5b813561209a81611f90565b9392505050565b600080604083850312156120b457600080fd5b82356120bf81611f90565b9150602083013561207281611f90565b600181811c908216806120e357607f821691505b60208210810361210357634e487b7160e01b600052602260045260246000fd5b50919050565b634e487b7160e01b600052601160045260246000fd5b8082018082111561063157610631612109565b60006020828403121561214457600080fd5b815161209a8161203f565b8181038181111561063157610631612109565b60006020828403121561217457600080fd5b5051919050565b60006020828403121561218d57600080fd5b815161209a81611f90565b6000806000606084860312156121ad57600080fd5b8351925060208401516121bf8161203f565b60408501519092506121d08161203f565b809150509250925092565b808202811582820484141761063157610631612109565b6000806000806080858703121561220857600080fd5b50508251602084015160408501516060909501519196909550909250905056feddf252ad1be2c89b69c2b068fc378daa952ba7f163c4a11628f55a4df523b3efa2646970667358221220d0f2cb0ec52f76964f021b00dce1c863082eac48d8a7656f56fac03787d9ca1e64736f6c63430008140033",
  "immutableReferences": {
    "11603": [
      {
        "length": 32,
        "start": 1629
      }
    ],
    "16626": [
      {
        "length": 32,
        "start": 1119
      },
      {
        "length": 32,
        "start": 6708
      },
      {
        "length": 32,
        "start": 7385
      },
      {
        "length": 32,
        "start": 7562
      }
    ],
    "16629": [
      {
        "length": 32,
        "start": 943
      },
      {
        "length": 32,
        "start": 5081
      },
      {
        "length": 32,
        "start": 5256
      },
      {
        "length": 32,
        "start": 5472
      },
      {
        "length": 32,
        "start": 5757
      },
      {
        "length": 32,
        "start": 5938
      },
      {
        "length": 32,
        "start": 6117
      },
      {
        "length": 32,
        "start": 6297
      },
      {
        "length": 32,
        "start": 6477
      }
    ],
    "16632": [
      {
        "length": 32,
        "start": 634
      },
      {
        "length": 32,
        "start": 6764
      },
      {
        "length": 32,
        "start": 6844
      },
      {
        "length": 32,
        "start": 7058
      }
    ],
    "16635": [
      {
        "length": 32,
        "start": 846
      },
      {
        "length": 32,
        "start": 7627
      }
    ],
    "16637": [
      {
        "length": 32,
        "start": 807
      },
      {
        "length": 32,
        "start": 1699
      }
    ]
  },
  "source": "// SPDX-License-Identifier: MIT\npragma solidity ^0.8.20;\n\nimport \"@openzeppelin/contracts/token/ERC20/ERC20.sol\";\nimport \"@openzeppelin/contracts/token/ERC20/extensions/ERC20Capped.sol\";\nimport \"@openzeppelin/contracts/access/Ownable.sol\";\nimport \"@faircrypto/xen-crypto/contracts/XENCrypto.sol\";\nimport \"@faircrypto/xen-crypto/contracts/interfaces/IBurnableToken.sol\";\nimport \"@faircrypto/xen-crypto/contracts/interfaces/IBurnRedeemable.sol\";\nimport \"@faircrypto/xenft/contracts/XENFT.sol\";\nimport \"@faircrypto/xenft/contracts/libs/MintInfo.sol\";\nimport \"@faircrypto/xen-stake/contracts/XENStake.sol\";\nimport \"@faircrypto/xen-stake/contracts/libs/StakeInfo.sol\";\nimport \"@faircrypto/vmpx/contracts/VMPX.sol\";\n\ncontract XONE is\n    Ownable,\n    IBurnableToken,\n    ERC20(\"XONE\", \"XONE Token\"),\n    ERC20Capped(1_000_000_000 ether)\n{\n\n    using MintInfo for uint256;\n    using StakeInfo for uint256;\n\n    // address public constant XEN_ADDRESS = 0x06450dEe7FD2Fb8E39061434BAbCFC05599a6Fb8;\n    // address public constant XENFT_ADDRESS = 0x0a252663DBCc0b073063D6420a40319e438Cfa59;\n    // address public constant XENFT_STAKE_ADDRESS = 0xfEdA03b91514D31b435d4E1519Fd9e699C29BbFC;\n    // address public constant VMPX_ADDRESS = 0xb48Eb8368c9C6e9b0734de1Ef4ceB9f484B80b9C;\n\n    uint256 public constant BATCH_FLOOR = 1_000 ether;\n    uint256 public constant BATCH_XEN_10M = 10_000 ether;\n    uint256 public constant BATCH_XEN_STAKE_10M = 10_000 ether;\n    uint256 public constant BATCH_STAKE_XENFT = 10_000 ether;\n    uint256 public constant BATCH_VMPX_100 = 10_000 ether;\n    uint256 public constant BATCH_XEN_BURN_10M = 12_000 ether;\n    uint256 public constant BATCH_COLLECTOR_XENFT = 12_000 ether;\n    uint256 public constant BATCH_LIMITED_XENFT = 15_000 ether;\n    uint256 public constant BATCH_APEX_RARE_XENFT = 20_000 ether;\n    uint256 public constant BATCH_APEX_EPIC_XENFT = 30_000 ether;\n    uint256 public constant BATCH_APEX_LEGENDARY_XENFT = 50_000 ether;\n    uint256 public constant BATCH_APEX_EXOTIC_XENFT = 100_000 ether;\n    uint256 public constant BATCH_APEX_XUNICORN_XENFT = 1_000_000 ether;\n\n    uint256 public constant START_TRANSFER_MARGIN = 100_000 ether;\n\n    uint256 public constant XEN_THRESHOLD = 10_000_000 ether - 1 ether;\n    uint256 public constant VMPX_THRESHOLD = 100 ether - 1 ether;\n\n    uint256 public constant XONE_MIN_BURN = 0;\n\n    XENCrypto public immutable xenCrypto;\n    XENTorrent public immutable xenTorrent;\n    XENStake public immutable xenStake;\n    VMPX public immutable vmpx;\n    uint256 public immutable startBlockNumber;\n\n    bool public mintingFinished;\n    // user address => XONE mint amount\n    mapping(address => uint256) public userMints;\n    // tokenId => user address\n    mapping(uint256 => address) public torrentTokensUsed;\n    // tokenId => user address\n    mapping(uint256 => address) public stakeTokensUsed;\n    // user address => XEN burn amount\n    mapping(address => uint256) public userBurns;\n\n    constructor(\n        address xenCryptoAddress,\n        address xenTorrentAddress,\n        address xenStakeAddress,\n        address vmpxAddress,\n        uint256 startBlockNumber_\n    ) {\n        xenCrypto = XENCrypto(xenCryptoAddress);\n        xenTorrent = XENTorrent(xenTorrentAddress);\n        xenStake = XENStake(xenStakeAddress);\n        vmpx = VMPX(vmpxAddress);\n        startBlockNumber = startBlockNumber_;\n        _mint(owner(), cap() / 2);\n    }\n\n    modifier notBeforeStart() {\n        require(block.number > startBlockNumber, \"XONE: Not active yet\");\n        _;\n    }\n\n    function _beforeTokenTransfer(\n        address from,\n        address to,\n        uint256 amount\n    ) internal virtual override {\n        require(mintingFinished || from == address(0), \"XONE: minting not finished\");\n        super._beforeTokenTransfer(from, to, amount);\n    }\n\n    function _afterTokenTransfer(\n        address from,\n        address to,\n        uint256 amount\n    ) internal virtual override {\n        super._afterTokenTransfer(from, to, amount);\n        if (from == address(0) && !mintingFinished && cap() - totalSupply() < START_TRANSFER_MARGIN) {\n           mintingFinished = true;\n        }\n    }\n\n    function _hasXEN() internal view returns (bool) {\n        return ERC20(address(xenCrypto)).balanceOf(_msgSender()) > XEN_THRESHOLD;\n    }\n\n    function _hasXENStake() internal view returns (bool) {\n        (, , uint256 amount, ) =  xenCrypto.userStakes(_msgSender());\n        return amount > XEN_THRESHOLD;\n    }\n\n    function _hasXENBurns() internal view returns (bool) {\n        return xenCrypto.userBurns(_msgSender()) > XEN_THRESHOLD;\n    }\n\n    function _hasVMPX() internal view returns (bool) {\n        return ERC20(address(vmpx)).balanceOf(_msgSender()) > VMPX_THRESHOLD;\n    }\n\n    function _hasXeNFT() internal view returns (bool) {\n        return ERC721(address(xenTorrent)).balanceOf(_msgSender()) > 0;\n    }\n\n    function _hasStakeXeNFT() internal view returns (bool) {\n        return ERC721(address(xenStake)).balanceOf(_msgSender()) > 0;\n    }\n\n    function _getXenftBatch(uint256 tokenId) internal view returns (uint256 batch) {\n        require(xenTorrent.ownerOf(tokenId) == _msgSender(), \"XONE: not XEN Torrent owner\");\n        uint256 mintInfo = xenTorrent.mintInfo(tokenId);\n        batch = BATCH_COLLECTOR_XENFT;\n        (, bool apex, bool limited) = mintInfo.getClass();\n        if (apex) {\n            if (tokenId < xenTorrent.specialClassesTokenLimits(6)) {\n                if (BATCH_APEX_XUNICORN_XENFT > batch) {\n                    batch = BATCH_APEX_XUNICORN_XENFT;\n                }\n            } else if (tokenId < xenTorrent.specialClassesTokenLimits(5)) {\n                if (BATCH_APEX_EXOTIC_XENFT > batch) {\n                    batch = BATCH_APEX_EXOTIC_XENFT;\n                }\n            } else if (tokenId < xenTorrent.specialClassesTokenLimits(4)) {\n                if (BATCH_APEX_LEGENDARY_XENFT > batch) {\n                    batch = BATCH_APEX_LEGENDARY_XENFT;\n                }\n            } else if (tokenId < xenTorrent.specialClassesTokenLimits(3)) {\n                if (BATCH_APEX_EPIC_XENFT > batch) {\n                    batch = BATCH_APEX_EPIC_XENFT;\n                }\n            } else if (tokenId < xenTorrent.specialClassesTokenLimits(2)) {\n                if (BATCH_APEX_RARE_XENFT > batch) {\n                    batch = BATCH_APEX_RARE_XENFT;\n                }\n            }\n        } else if (limited && BATCH_LIMITED_XENFT > batch) {\n            batch = BATCH_LIMITED_XENFT;\n        }\n    }\n\n    function _getStakeXenftBatch(uint256 tokenId) internal view returns (uint256 batch) {\n        require(xenStake.ownerOf(tokenId) == _msgSender(), \"XONE: not XEN Stake owner\");\n        uint256 stakeInfo = xenStake.stakeInfo(tokenId);\n        uint256 amount = stakeInfo.getAmount() * 10 ** 18;\n        if (amount > XEN_THRESHOLD) {\n            batch = BATCH_STAKE_XENFT;\n        } else {\n            batch = BATCH_FLOOR;\n        }\n    }\n\n    function _getBatch(uint256 tokenId, bool iStake) internal view returns (uint256 batch) {\n        if (_hasXeNFT() && !iStake) {\n            batch = _getXenftBatch(tokenId);\n        } else if (_hasXENBurns()) {\n            batch = BATCH_XEN_BURN_10M;\n        } else if (_hasStakeXeNFT() && iStake) {\n            batch = _getStakeXenftBatch(tokenId);\n        } else if (_hasXENStake()) {\n            batch = BATCH_XEN_STAKE_10M;\n        } else if (_hasXEN()) {\n            batch = BATCH_XEN_10M;\n        } else if (_hasVMPX()) {\n            batch = BATCH_VMPX_100;\n        } else {\n            batch = BATCH_FLOOR;\n        }\n    }\n\n    function _mint(address account, uint256 amount) internal virtual override (ERC20, ERC20Capped) {\n        super._mint(account, amount);\n    }\n\n    function mint(uint256 tokenId, bool isStake) public notBeforeStart {\n        require(msg.sender == tx.origin, \"XONE: no contract calls\");\n        require(userMints[_msgSender()] == 0, \"XONE: already minted to this address\");\n        if (tokenId != 0 && !isStake) {\n            require(torrentTokensUsed[tokenId] == address(0), \"XONE: torrent token already used\");\n        } else if (tokenId != 0 && isStake) {\n            require(stakeTokensUsed[tokenId] == address(0), \"XONE: stake token already used\");\n        }\n\n        uint256 batch = BATCH_FLOOR;\n        batch = _getBatch(tokenId, isStake);\n        require(totalSupply() + batch <= cap(), \"XONE: minting exceeds cap\");\n        userMints[_msgSender()] = batch;\n        if (tokenId != 0 && !isStake) {\n            torrentTokensUsed[tokenId] = _msgSender();\n        } else if (tokenId != 0 && isStake) {\n            stakeTokensUsed[tokenId] = _msgSender();\n        }\n        _mint(_msgSender(), batch);\n    }\n\n    function burn(address user, uint256 amount) public {\n        require(amount > XONE_MIN_BURN, \"XONE: Below min limit\");\n        require(\n            IERC165(_msgSender()).supportsInterface(type(IBurnRedeemable).interfaceId),\n            \"XONE: not a supported contract\"\n        );\n\n        _spendAllowance(user, _msgSender(), amount);\n        _burn(user, amount);\n        userBurns[user] += amount;\n        IBurnRedeemable(_msgSender()).onTokenBurned(user, amount);\n    }\n}",
  "sourcePath": "/Users/lbelyaev/dev/XONE/contracts/XONE.sol",
  "compiler": {
    "name": "solc",
    "version": "0.8.20+commit.a1b79de6.Emscripten.clang"
  },
  "schemaVersion": "3.4.16",
  "updatedAt": "2023-11-18T04:26:47.028Z",
  "devdoc": {
    "events": {
      "Approval(address,address,uint256)": {
        "details": "Emitted when the allowance of a `spender` for an `owner` is set by a call to {approve}. `value` is the new allowance."
      },
      "Transfer(address,address,uint256)": {
        "details": "Emitted when `value` tokens are moved from one account (`from`) to another (`to`). Note that `value` may be zero."
      }
    },
    "kind": "dev",
    "methods": {
      "allowance(address,address)": {
        "details": "See {IERC20-allowance}."
      },
      "approve(address,uint256)": {
        "details": "See {IERC20-approve}. NOTE: If `amount` is the maximum `uint256`, the allowance is not updated on `transferFrom`. This is semantically equivalent to an infinite approval. Requirements: - `spender` cannot be the zero address."
      },
      "balanceOf(address)": {
        "details": "See {IERC20-balanceOf}."
      },
      "cap()": {
        "details": "Returns the cap on the token's total supply."
      },
      "decimals()": {
        "details": "Returns the number of decimals used to get its user representation. For example, if `decimals` equals `2`, a balance of `505` tokens should be displayed to a user as `5.05` (`505 / 10 ** 2`). Tokens usually opt for a value of 18, imitating the relationship between Ether and Wei. This is the value {ERC20} uses, unless this function is overridden; NOTE: This information is only used for _display_ purposes: it in no way affects any of the arithmetic of the contract, including {IERC20-balanceOf} and {IERC20-transfer}."
      },
      "decreaseAllowance(address,uint256)": {
        "details": "Atomically decreases the allowance granted to `spender` by the caller. This is an alternative to {approve} that can be used as a mitigation for problems described in {IERC20-approve}. Emits an {Approval} event indicating the updated allowance. Requirements: - `spender` cannot be the zero address. - `spender` must have allowance for the caller of at least `subtractedValue`."
      },
      "increaseAllowance(address,uint256)": {
        "details": "Atomically increases the allowance granted to `spender` by the caller. This is an alternative to {approve} that can be used as a mitigation for problems described in {IERC20-approve}. Emits an {Approval} event indicating the updated allowance. Requirements: - `spender` cannot be the zero address."
      },
      "name()": {
        "details": "Returns the name of the token."
      },
      "owner()": {
        "details": "Returns the address of the current owner."
      },
      "renounceOwnership()": {
        "details": "Leaves the contract without owner. It will not be possible to call `onlyOwner` functions anymore. Can only be called by the current owner. NOTE: Renouncing ownership will leave the contract without an owner, thereby removing any functionality that is only available to the owner."
      },
      "symbol()": {
        "details": "Returns the symbol of the token, usually a shorter version of the name."
      },
      "totalSupply()": {
        "details": "See {IERC20-totalSupply}."
      },
      "transfer(address,uint256)": {
        "details": "See {IERC20-transfer}. Requirements: - `to` cannot be the zero address. - the caller must have a balance of at least `amount`."
      },
      "transferFrom(address,address,uint256)": {
        "details": "See {IERC20-transferFrom}. Emits an {Approval} event indicating the updated allowance. This is not required by the EIP. See the note at the beginning of {ERC20}. NOTE: Does not update the allowance if the current allowance is the maximum `uint256`. Requirements: - `from` and `to` cannot be the zero address. - `from` must have a balance of at least `amount`. - the caller must have allowance for ``from``'s tokens of at least `amount`."
      },
      "transferOwnership(address)": {
        "details": "Transfers ownership of the contract to a new account (`newOwner`). Can only be called by the current owner."
      }
    },
    "version": 1
  },
  "userdoc": {
    "kind": "user",
    "methods": {},
    "version": 1
  }
}